:020000040800F2
:10000000104B0020FD010008831A000803190008A6
:10001000811A000803100008BD2A00080000000033
:100020000000000000000000000000006501000862
:100030006D16000800000000A9010008F16D00081D
:10004000130200081302000813020008130200083C
:10005000130200081302000813020008130200082C
:100060001302000889160008130200081302000892
:1000700013020008130200084112000813020008CE
:10008000130200086D120008130200081302000892
:1000900013020008130200081302000813020008EC
:1000A00013020008130200081302000813020008DC
:1000B000BD1E000813020008151F000813020008E7
:1000C00013020008130200081302000813020008BC
:1000D00013020008B52600084D270008A1270008D4
:1000E000711600081302000813020008130200082A
:1000F000130200081302000813020008130200088C
:10010000130200081302000813020008130200087B
:10011000130200081302000813020008130200086B
:10012000130200081302000813020008130200085B
:10013000130200081302000813020008130200084B
:10014000130200081302000813020008130200083B
:10015000DFF80CD000F068FD004800479D4400081F
:10016000104B0020224B19680868B0E8F00F80F3AC
:100170000988BFF36F8F4FF0000080F311884EF0B5
:100180000D0E70470000000006480068006880F30C
:10019000088862B661B6BFF34F8FBFF36F8F00DF81
:1001A00000BF00BF08ED00E0EFF30980BFF36F8FE1
:1001B0000F4B1A6820E9F00F106008B54FF0BF0030
:1001C00080F31188BFF34F8FBFF36F8F06F074F980
:1001D0004FF0000080F31188BDE8084019680868F6
:1001E000B0E8F00F80F30988BFF36F8F704700BF4E
:1001F0001C000020EFF30580704700000548004711
:10020000FEE7FEE7FEE7FEE7FEE7FEE7FEE7FEE7C6
:10021000FEE7FEE75101000840EA01039B0703D017
:1002200009E008C9121F08C0042AFAD203E011F835
:10023000013B00F8013B521EF9D27047D2B201E0F7
:1002400000F8012B491EFBD270470022F6E710B5DB
:1002500013460A4604461946FFF7F0FF204610BD34
:1002600030B505462A460B4612F8010B13F8014B30
:1002700008B1A042F8D01CB1002802D06D1CF1E7F3
:10028000284630BD10B5044604E00B7800F8013B69
:1002900003B1491C521EF8D2204610BDCAB2401EFE
:1002A00010F8011F8A4202D00029F9D100207047BE
:1002B000421C10F8011B0029FBD1801A704703462D
:1002C00011F8012B00F8012B002AF9D118467047CC
:1002D0000FB400B58DB010A909900B9000914FF0AC
:1002E000FF300A9000200C900548069005480790C2
:1002F0006A4609A80F9900F0A5FB0DB05DF814FB44
:10030000610A00087F0A00082DE9FF5F1D464FF0D3
:10031000FF3BD5E9014691465F464FF00008A969C9
:100320007F1C01988847296A824688470028F6D1B1
:10033000BAF1FF3F0CD024F4C064002E19DD600632
:1003400014D5BAF12B0F09D0BAF12D0F0ED103E05D
:10035000584604B0BDE8F09F44F48064A9697F1C4E
:1003600001988847761E8246002E02DDBAF1300FD2
:1003700003D0B9F1000F26D032E0A969761E44F40B
:1003800000747F1C019888478246002E05DDBAF173
:10039000780F06D0BAF1580F03D0B9F1000F10D082
:1003A0001EE0B9F1000F02D0B9F1100F18D1A96900
:1003B000761E24F400747F1C019888478246102022
:1003C00002E0082000E00A20814609E008FB090855
:1003D000A969761E44F400747F1C01988847824600
:1003E000002E05DD4946504600F018FB0028EDDAE6
:1003F000E96901988847A00502D46FF00100A8E7D9
:10040000E00725D1600613D5600502D5C8F10000CC
:1004100000E0404629680A1D2A600968220501D5C6
:10042000087015E0220701D5088011E008600FE090
:100430002868011D29600068210502D580F8008028
:1004400006E0210702D5A0F8008001E0C0F8008096
:1004500038467EE72DE9FF5FD2E901A74FF000089B
:10046000916999461446DDF838B0464601988847A8
:10047000054659EA0B0005D009E0A169761C0198F0
:1004800088470546216A284688470028F5D1681C18
:1004900003D05FEACA7005D015E04FF0FF3004B01A
:1004A000BDE8F09F2068011D2160D0F800800AE0BF
:1004B0005FEACA7001D108F8015BA169761C7F1E52
:1004C000019888470546002F1ADD681C18D0B9F13D
:1004D000000F0DD0E81705EBD060421120F01F008F
:1004E00059F822102A1A012090400142E0D107E079
:1004F000BBF1000FDCD1216A284688470028D7D0FD
:10050000E16901988847BBF1000F07D1002E05DD96
:100510005FEACA7002D1002188F80010A068B842D2
:1005200003DDBBF1000F03D017B16FF00100B6E798
:100530003046B4E780EA010210B502F00043400003
:1005400022D04A001FD0010E01EB1261C0F3560009
:10055000C2F3560240F4000042F40002A0FB022065
:1005600000047F39140400D0401C50EA124001D42A
:100570004000491EC2B20C0604EBD010401C4008DB
:10058000802A02D003E0002010BD20F001000029E5
:1005900000DA0020184310BD2DE9FE4F804681EAA5
:1005A0000300C00F0C46009021F0004123F00045ED
:1005B000B8EB0200A94105D24046214690461C46B0
:1005C0000B46024623F00040104347D0270DC7F3E7
:1005D0000A00C3F30A510290401A019040286BDAD6
:1005E000C3F3130040F4801B0098924620B100230F
:1005F000D2EB030A63EB0B0B01985946C0F14002A2
:10060000504600F0DAF906460D4650465946019A22
:1006100000F0F2F910EB08006141002487EA115262
:1006200084EAE7731A4340D0009A62B3019A012A20
:100630004FEA075215DC001B61EB02014FF000424C
:1006400002EA0752CDE90042001C41F58011324612
:100650002B4600F06BFA03B0BDE8F08F4046214610
:10066000F9E7001B61EB0201001C41F58013001843
:100670005B412018A2F5001747EB030140EAD57053
:10068000B6196D4111E06D084FEA360645EAC075AE
:100690004FEA0752001B61EB0201001C41F580117B
:1006A00049084FEA30000019514132462B4603B049
:1006B000BDE8F04F00F02BBA009801224000002363
:1006C000D0EB020263EBE073009821464FEAE0743E
:1006D000B8EB000061EB0401E9E783F000435BE75E
:1006E00081F0004158E72DE9FE4F81EA030404F050
:1006F000004421F0004100944FF0000B23F0004330
:1007000050EA01045ED052EA03045BD0C3F30A54FA
:10071000C1F30A552C44A4F2F3340194A0FB025413
:10072000C1F3130141F48011C3F3130343F48013A5
:1007300001FB024400FB034E840A970A44EA8154F9
:1007400047EA8357A4FB076802958D0A05FB0785D6
:100750004FEA932C04FB0C542705029D4FEA0658E0
:1007600047EA1637B5EB08056EEB070C870E920EBD
:1007700047EA811742EA8312A7FB0201B6EB0B019D
:1007800064EB00042B0D43EA0C335E1844EB1C5061
:10079000DA465146E7FB0201C5F313044FEA0B3377
:1007A00043EA14534FEA0432019C43EA0603A4F1DE
:1007B0000C040294009CCDE900B400F0B7F903B03A
:1007C000BDE8F08F00200146F9E72DE9F04D81EA00
:1007D000030404F0004B21F0004514464FF0000ADA
:1007E00023F0004150EA050220D054EA01021DD056
:1007F000C5F30A570246C5F31303C1F31300C1F34F
:100800000A5640F4801543F48013A7EB0608101B2A
:10081000D64608F2FD3873EB050002D308F1010853
:1008200001E092185B41B8F1000F03DA00200146A5
:10083000BDE8F08D00204FF48011064684460EE09E
:10084000171B73EB050705D3121B63EB0503064368
:100850004CEA010C49084FEA300092185B4150EA1B
:100860000107EDD152EA030012D082EA040083EAC4
:100870000501084305D0101BAB4106D2012200231D
:1008800006E000224FF0004302E06FF00102531037
:100890001AEB06004CEB085110EB0A0041EB0B0180
:1008A000BDE8F04D00F033B996230022114600F068
:1008B00000B90EB540F2334102910021CDE900119B
:1008C0000A460B4600F032F903B000BD20F00040AC
:1008D000C10DC0F3160040F400007F2901DA0020AA
:1008E0007047962903DCC1F19601C84070479639DC
:1008F0008840704701F0004330B421F0004150EAD5
:10090000010206D00A0DA2F56072C1F31301002A9C
:1009100002DC30BC00207047440F44EAC104C1002F
:10092000E01830BC00EBC25000F0BAB830B50B464E
:10093000014600202022012409E021FA02F59D420F
:1009400005D303FA02F5491B04FA02F52844151EE3
:10095000A2F10102F1DC30BD2DE9F05F0546002077
:1009600092469B4688460646814640241BE0284620
:1009700041464746224600F02FF853465A46C01AD1
:10098000914110D311461846224600F016F82D1A50
:1009900067EB01084F4622460120002100F00DF8C8
:1009A00017EB00094E41201EA4F10104DFDC48468C
:1009B00031462A464346BDE8F09F202A04DB203A10
:1009C00000FA02F1002070479140C2F1200320FAA2
:1009D00003F3194390407047202A04DB203A21FAA0
:1009E00002F00021704721FA02F3D040C2F1200248
:1009F0009140084319467047202A06DBCB17203A5E
:100A000041FA02F043EAE07306E041FA02F3D04013
:100A1000C2F1200291400843194670473A2800D29B
:100A2000303820F02002412A01D3A2F13700884259
:100A300001D34FF0FF307047026811441378016012
:100A400018467047D1600449516104491162002180
:100A50001161114600F000B9390A00084D0C000878
:100A6000426842B1016811F8013B23B1521EC0E94E
:100A70000012184670470121C160881E7047426805
:100A80005AB1C368016843B983688B4205D0491ED7
:100A9000521CC0E90012002070474FF0FF30704731
:100AA0000029A8BF7047401C490008BF20F0010082
:100AB000704710B4B0FA80FC00FA0CF050EA010460
:100AC00004BF10BC704749B1CCF1200421FA04F4F2
:100AD00011FA0CF118BF012121430843A3EB0C01CB
:100AE000CB1D4FEA00614FEA102042BF002010BC2E
:100AF000704700EBC35010440029A4BF10BC7047DE
:100B0000401C490008BF20F0010010BC704710B520
:100B1000141E73F1000408DA401C41F10001921820
:100B20005B411A4301D120F0010010BD2DE9F04DC9
:100B300092469B4611B1B1FA81F202E0B0FA80F21E
:100B400020329046FFF739FF04460F4640EA0A007C
:100B500041EA0B0153465A46084313D0114653EA63
:100B6000010019D0C8F140025046FFF735FF054695
:100B70000E46504659464246FFF71FFF084305D030
:100B8000012004E020463946BDE8F08D00200543F1
:100B900046EAE0762C4337430A986305E40AA0EB63
:100BA00008000022FD0A44EA47540A3002D500201A
:100BB0000146E9E7010510196941DDE90845001919
:100BC0006941BDE8F04DA2E7C1F30A52C1F3130138
:100BD00040F2FF3341F480119A4202DA00200146CC
:100BE000704740F233439A42A2F2334202DC52424F
:100BF000FFF7F2BEFFF7E1BE30B5041E71F100044D
:100C000004DB4FF00044404264EB0101141E73F119
:100C1000000405DB1C464FF00043524263EB040323
:100C2000994208BF904230BD064C074D06E0E0688F
:100C300040F0010394E8070098471034AC42F6D323
:100C4000FFF78AFAB07A0008D07A0008C0B24FF4F1
:100C5000F05100F097B900002DE9F34F8BB04FF041
:100C6000000801F10C000C464FF0010B46460DF157
:100C7000080A01906269012101989047051E2DD054
:100C8000252D2CD0216A8847C0B1626901210198C5
:100C90009047216A88470028F7D1411E6269019870
:100CA000904700E0761CA1690B988847216A884725
:100CB0000028F7D1E1690B988847DBE7A1690B9819
:100CC00088470746A84201D1761CD3E7E1690B9813
:100CD00088477F1C02D1B8F1000F6FD046E1002792
:100CE00062693D463946019890472A2804D16269D5
:100CF0000121019890470125DFF884926269012162
:100D000001989047A0F130010A290AD24F45E5DC4D
:100D100007EB870100EB4107303FDFD445F01005BA
:100D2000ECE7E90601D46FF000476C280AD04C28A4
:100D300014D0682815D06A280DD074281CD07A28C1
:100D40001AD01DE062690121019890476C2802D0F9
:100D500045F0040514E045F002050DE045F02005DE
:100D60000AE06269012101989047682802D045F0A5
:100D7000080505E045F40065626901210198904786
:100D8000C4E9015765283DD019DC58287AD00CDC1D
:100D9000452837D004DC252826D0412831D131E040
:100DA00046282FD047282CD12CE05B2877D061280B
:100DB00028D063287CD0642823D15AE0D0E06F2863
:100DC00048D008DC66281DD067281BD0692821D0B0
:100DD0006E2816D127E0702845D0732868D0752872
:100DE00047D078280DD14DE0A1690B98884705467A
:100DF00025283FF469AFE1690B9888476D1C3FF4E3
:100E00006AAFB3E023466A466FF001000B99AFF377
:100E100000809EE045F040006060A80723464FF048
:100E2000000236D43EE0E8077FF447AF2068011D9A
:100E300021600068290501D506701BE7290701D547
:100E4000068017E7A90703D5F117C0E9006111E78C
:100E500006600FE745F040006060A80723464FF0AA
:100E6000080216D41EE040F60E0125EA010060607B
:100E700016E045F040006060A80723464FF00A02E4
:100E800007D40FE045F040006060A80708D523466E
:100E900010226FF001000B99AFF3008059E007E0DA
:100EA000234610226FF001000B99FFF72DFA50E056
:100EB0004FF000094F464B46632802D05B2806D00E
:100EC00040E0E80601D40120A06001273AE0626911
:100ED0000121019890475E2805D14FF00109626910
:100EE000494601989047216939B900210A4653467D
:100EF00043F82120491C0829FADBB0B3216969B9FC
:100F0000C11700EBD16253110AEB830122F01F02DB
:100F1000821A01200B68904003430B606269012133
:100F2000019890475D28E8D1B9F1000F09D0002061
:100F3000514651F82020D24341F82020401C082877
:100F4000F7DB02AB224600976FF001000B99FFF729
:100F500081FA00280CDA401C08D1BBF1000F05D043
:100F60004FF0FF300DB0BDE8F08FFFE74046F9E7E6
:100F7000E90701D108F1010806444FF0000B79E6BA
:100F8000CCCCCC0C7F2801D9002208E0064A02EB29
:100F90005002C007127800D1120902F00F0201209E
:100FA0009040084070470000707A000870B58C18B7
:100FB00010F8015B15F0070301D110F8013B2A116D
:100FC00006D110F8012B03E010F8016B01F8016B5A
:100FD0005B1EF9D12B0705D40023521E0DD401F856
:100FE000013BFAE710F8013BCB1A921C03E013F81F
:100FF000015B01F8015B521EF9D5A142D8D3002054
:1010000070BDFEE770B5062216494FF4106001F07E
:10101000EDFD1549002000F041F81549134A084636
:1010200004F008FA00F07AF8014608244FF4FA7543
:101030000BE0042914D022460EA004F02BFF284612
:1010400005F0FCFB00F06AF80146641EE4B2F0D241
:10105000042905D00EA004F01DFF4FF0FF3070BD35
:10106000002070BDC4000020FC400020A9460008FC
:1010700045460008444843502072657472792074D4
:10108000696D652025643A2025640D0A0000000082
:1010900044484350204661696C0D0A00F8B50D467E
:1010A000064600244FF4106706221A493846009479
:1010B00001F032FD174801784278C37811438278F5
:1010C0001A43114302791143427911430CD1047040
:1010D00008214170DC218170C470047144710146A3
:1010E0000622384601F082FD0A4F0B483C3F04229D
:1010F000BE70C7E90D0569464FF4706001F076FDDA
:1011000004226946900101F071FD04F0E5F93C709C
:10111000F8BD0000AC010020785634122DE9F041F2
:10112000464C2078062822D0A0784FF4427101EB7B
:10113000401001F0C5FC222805D0002344220221E2
:10114000A07804F0A1FD012503F0BEFAC2B23B482D
:1011500094F90030C01D00260127011F4FF003083D
:10116000052B2FD2DFE803F0060D1C304A000520C6
:10117000BDE8F081067046708670C67004F0C4FA4F
:101180005AE0022A1BD1A16B0A7C02704A7C427091
:101190008A7C8270C97CC17004F06EFB02202BE057
:1011A000052A0AD102F0FEF908B1606A3CE004F0B9
:1011B00093F9E06A8047267004E0062A3AD002F0EC
:1011C00025FA05462846D3E7A2690425531CF9D021
:1011D000E369B3EB520FF5D902780A7042784A708E
:1011E00082788A70C078C870606B401C606304F0BD
:1011F00043FB04F071F904202070E3E70425052A7D
:10120000DBD166700A7803789A420BD14A7843782A
:101210009A4207D18A7883789A4203D1C978C078F4
:10122000814202D0A06A0325804704F055F984F872
:101230000080C7E704F050F92770C3E77001002071
:1012400010B54FF40054204600F0ACF8012809D145
:10125000204600F019F8044800214068BDE810401D
:1012600005F052BF10BD0000A400002010B54FF0E3
:101270000074204600F096F8012804D12046BDE80D
:10128000104000F001B810BDC10002D5024908604D
:101290007047024948607047040402400000024061
:1012A0000029016802D041F0010102E04FF6FE7210
:1012B000114001607047000001684FF6FE72114056
:1012C00001600021016041608160C1603149314AA3
:1012D0000839904203D1486840F00F0006E02D4ADB
:1012E0001432904204D1486840F0F00048607047E2
:1012F000284A2832904203D1486840F47060F5E7EC
:10130000244A3C32904203D1486840F47040EDE7F3
:10131000204A5032904203D1486840F47020E5E7FB
:101320001C4A6432904203D1486840F47000DDE703
:10133000184A7832904203D1486840F07060D5E78F
:10134000154A111F904203D1086840F00F0006E0D3
:10135000114A1432904204D1086840F0F00008604D
:1013600070470D4A2832904203D1086840F47060FB
:10137000F5E7094A3C32904203D1086840F47040D6
:10138000EDE7054A50329042EAD1086840F47020F7
:10139000E5E700000800024008040240406880B20F
:1013A0007047000001460020CA0001D5034A00E052
:1013B000034A12680A4200D001207047000402402C
:1013C00000000240002A026801D00A4300E08A437C
:1013D0000260704730B5036847F6F07293430C6AB9
:1013E0008A682243D1E904452C4322438C69224375
:1013F000CC6922434C6A22438C6A22431A4302601E
:10140000CA6842600A6882604968C16030BD416054
:10141000704700002DE9FF410C4629498046002510
:10142000D1E90001CDE902012648417D0091037D0B
:10143000C27C817C24A004F02DFD2A49002000F00C
:10144000B5F8204822464146123000F0B9F8061E91
:1014500003DD25A004F01EFD19E0701C0FD027A0AD
:1014600004F018FD0DF1080707EB85002246414600
:1014700000F0A6F8061E15DD207810B103E024A0C8
:1014800018E0607890B1A91C30A004F003FDE17869
:10149000A078CDE9000163782278414630A004F0BD
:1014A000F9FC09E0A91C37A004F0F4FC6D1C022D26
:1014B000DADB39A004F0EEFC04B03046BDE8F08180
:1014C000587A0008C40000203E20444E5320317357
:1014D00074203A2025642E25642E25642E25640D63
:1014E0000A000000FC4000203E20444E53203120E2
:1014F0005265706F6E7365640D0A00003E20444EA5
:10150000532031204661696C65640D0A00000000BB
:101510003E204D41585F444F4D41494E5F4E414D35
:101520004520697320746F6F20736D616C6C2E2081
:1015300053686F756C6420626520726564656669C6
:101540006E65642069742E0D0A0000003E20444E32
:1015500053202564205265706F6E7365640D0A0018
:101560003E205472616E736C617465642025732033
:10157000746F2025642E25642E25642E25640D0AA3
:10158000000000003E20444E53202564204661693F
:101590006C65640D0A0000003E20416C6C20444ED6
:1015A00053204661696C65640D0A0000034A10709F
:1015B00041F222105160508070470000BC010020B1
:1015C0002DE9F04781460020274C88B09246607094
:1015D0000E4603460246A0600221207804F054FB28
:1015E0004FF480752B4631460020626802F068FC9B
:1015F0003527009782B24B462078616804F084FA60
:10160000AE00B84628E0207802F000FD070011D0B7
:10161000AF4200D92F4607A8009006AB3A46207883
:10162000616803F0FDFD524601A8616803F0DAF835
:10163000814613E002F022F8002804DA4FF000009F
:1016400008B0BDE8F08707D1CDF800804B463A4698
:101650002078616804F058FA761ED4D2207802F01F
:1016600021F84846ECE70000BC010020704700006C
:1016700010B5082000F014F8BDE81040014800F053
:1016800033BB0000E800002010B5082000F008F887
:10169000BDE81040014800F027BB0000E800002032
:1016A0000149086070470000140401400149C86006
:1016B000704700000020024070B505464FF4302608
:1016C000304600F059F8042811D1094C206940F047
:1016D000020020616561206940F0400020613046D1
:1016E00000F04AF8216941F6FD721140216170BD98
:1016F0000020024008490420CA68D20701D0012016
:101700007047CA68520701D502207047C968C906E8
:10171000FBD5032070470000002002400248016909
:1017200041F080010161704700200240F0B506469B
:101730004FF400570D46384600F01EF804280CD12F
:10174000064C206940F0010020613580384600F0E9
:1017500013F82169BA1E11402161F0BD002002403A
:1017600003480249416003494160704723016745CE
:1017700000200240AB89EFCD00B50346FFF7BAFF6A
:1017800003E000BFFFF7B6FF5B1E012803D0002B6C
:1017900000D1052000BD002BF4D1FAE710B50446B6
:1017A000FFF7DEFF3420FFF781FF2046FFF784FFBD
:1017B000BDE81040FFF7B2BF70472DE9F041154674
:1017C0000E460746FFF7CCFF3420FFF76FFF0024DB
:1017D00007E036F8141007EB4400FFF7A7FF641C7E
:1017E000E4B2AC42F5D3BDE8F041FFF797BF00008B
:1017F000F0B5CA78002502F00F03D20601D58A7829
:1018000013430A784FF00F0E12F0FF0F4FF0010252
:101810001CD004680F8802FA05F63740B74211D190
:101820004FEA850C0EFA0CF724EA070703FA0CF4CA
:101830003C43CF78282F02D0482F02D002E04661E7
:1018400000E006616D1C082DE4D304600C88FF2CB9
:101850001ED944685FF0000606F1080702FA07F592
:101860000F882F40AF420FD14FEA860C0EFA0CF7CB
:10187000BC4303FA0CF73C43CF78282F00D14561D5
:10188000CF78482F00D10561761C082EE4D3446040
:10189000F0BD0000F0B5144C002801DAE36900E067
:1018A0006368420D120185B2C0F301579540C0F341
:1018B0000346032F05D0C2020AD50322B240934348
:1018C00007E023F07062636823F07063636002E0F6
:1018D000AB4343F0706201B12A43002801DAE261B0
:1018E000F0BD6260F0BD0000000001400246002033
:1018F00092680A4200D0012070474161704701613F
:101900007047FEE7F0B51826032787B00D4604465A
:10191000012802D0022C0FD022E0012141F2040064
:1019200000F00CF9E020ADF814008DF817608DF888
:10193000167005A9224811E00121092000F0FEF8E7
:101940000121880300F0EEF84FF46040ADF8140078
:101950008DF817608DF8167005A91A48FFF748FF33
:101960000820ADF80C000020ADF80000ADF8040030
:101970004FF48271ADF8021005F00201ADF80610C7
:1019800005F00101ADF80E00ADF8081007204FF486
:101990000071ADF80A10ADF81000012C0CD0022C2B
:1019A00008D1094C6946204600F04DF90121204636
:1019B00000F034F907B0F0BD6946044CF3E70000CD
:1019C00000080140000C0140003800400030014098
:1019D0000AA001F011F8104C4FF4807529462046FA
:1019E000FFF78DFFC82004F0BBFB29462046FFF718
:1019F00084FFC82004F0B4FBF0E70000596F7520A5
:101A000061726520696E207461736B202D2D2D200D
:101A10004C4544200D0A0000000C01400648417866
:101A2000C94311F0FF01417004484FF0200101D07B
:101A3000FFF763BFFFF763BF08000020000C014001
:101A400038B50121082000F079F810208DF8030046
:101A50004FF49070ADF800000320084C8DF80200A0
:101A600069462046FFF7C4FE20212046FFF745FFC8
:101A7000A1152046FFF743FF38BD0000000C0140D0
:101A8000FEE7704770B50F23C47801780122F4B1E6
:101A9000144C2468457804F4E064C4F5E064240A36
:101AA000C4F10406E3408478B5401C402C4301F1A6
:101AB000E021230181F80034007800F01F018A4002
:101AC0004009800000F1E020C0F8002170BD01F065
:101AD0001F0082404809800000F1E020C0F880210A
:101AE00070BD00000CED00E00249084302490860A7
:101AF000704700000000FA050CED00E000F00F0058
:101B0000092801D83030704737307047044A00291F
:101B1000516901D0014300E08143516170470000E9
:101B200000100240044A0029D16901D0014300E0BD
:101B30008143D1617047000000100240044A00292F
:101B4000916901D0014300E0814391617047000039
:101B500000100240F0B52C4A51682C4B11F00C01DA
:101B60004FF00F0504D02A4C042903D0082903D0D4
:101B7000036028E0046026E05168536805EA91415B
:101B800003F480330D2901D0891C00E00621BBB18C
:101B9000D36A13F4803FD36A03F00F0303F1010308
:101BA0000AD0D66AD76AC6F30316761CB4FBF6F4DD
:101BB000C7F30327BF1C7C43B4FBF3F34B43D7E7C6
:101BC000144B594301605168134C05EA1111635CD1
:101BD0000168D94041605368072505EA1323E35C97
:101BE00021FA03F38360536805EAD323E35CD94009
:101BF000C1605268032303EA9232231F9A5CB1FB4F
:101C0000F2F10161F0BD00000010024000127A0004
:101C100040787D0100093D009400002000290188E2
:101C200002D041F0400101E021F040010180704705
:101C30000246002012890A4200D0012070478089A4
:101C400070478181704730B502884C8802F4415357
:101C50000A88CD8822438C882C4322430C89224356
:101C60004C8922438C892243CC8922431A43028027
:101C7000828B22F400628283098A018230BD0000D7
:101C800070B50D46012803D0022813D0002070BD86
:101C9000134C02212046FFF7CBFF0028F9D029463C
:101CA0002046FFF7CEFF01212046FFF7C1FF0028A5
:101CB000F9D010E00B4C02212046FFF7B9FF0028B5
:101CC000F9D029462046FFF7BCFF01212046FFF747
:101CD000AFFF0028F9D02046FFF7B1FFC0B270BDBA
:101CE000003001400038004090F84010032908D02F
:101CF000072903D00B2904D100F034B8082180F85B
:101D00004010704704210148FFF7F0BD001001406A
:101D100013B5012201A900F001F81CBD2DE9F0471F
:101D2000DFF83C900E4607464FF4804815460024E5
:101D300041464846FFF7E1FD47F080010120FFF7EB
:101D40009FFF05E0315D0120FFF79AFF641CE4B2BC
:101D5000AC42F7D341464846BDE8F047FFF7CFBD58
:101D60000018014010B5044604211220FFF7D0FFEF
:101D7000002084F84000FFF7C5FF012801D00220B1
:101D800010BD01211220FFF7C3FF012010BD00008C
:101D90000CB500212E4801910091026842F4803276
:101DA00002604FF4A063026802F400320092019ACC
:101DB000521C0192009A12B9019A9A42F3D1026818
:101DC000920342D50121009122490A6842F0100293
:101DD0000A600A6822F003020A600A6842F00202FE
:101DE0000A604168416041684160416841F4806136
:101DF0004160C16A184A1140C162C16A174A114361
:101E0000C162016841F08061016001680901FCD58F
:101E1000416821F47C114160416841F4E81141605E
:101E2000016841F08071016001688901FCD5416859
:101E300021F003014160416841F0020141604168C5
:101E4000C1F381010229FAD10CBD00910CBD000043
:101E5000001002400020024000F0FEFF4406010096
:101E6000124810B5016841F0010101604168104A53
:101E70001140416001680F4A11400160016821F47E
:101E800080210160416821F4FE014160016821F078
:101E9000A05101604FF47F0181600021C162FFF712
:101EA00077FF05494FF00060086010BD0010024048
:101EB0000000FFF0FFFFF6FE08ED00E010B5012185
:101EC0008C07204600F08AF800280AD0012120461D
:101ED00000F066F806494878022803D24878401C8A
:101EE000487010BD2046BDE81040002100F05EB8EB
:101EF000B800002010B5064C00216170401F80B270
:101F0000482100F0E7F960780228FCD110BD0000FC
:101F1000B800002070B51A4D1021284600F05EF878
:101F2000184C10B3284600F056F86080102128465F
:101F300000F036F869151448FFF7D8FC1049203135
:101F40000028088802D040F4005001E020F400503E
:101F5000088001202070A0686188428800EB42025E
:101F600091804188491C418070BD0121284600F0C4
:101F700017F820780128F7D10220207070BD0000EA
:101F800000080040B8000020000C01400029018832
:101F900002D041F0800101E021F080010180704712
:101FA000C94301827047C9430182704700290188F3
:101FB00002D041F0010101E021F0010101807047F0
:101FC000002930F8441F02D041F4004101E0C1F380
:101FD0000E0101807047B0F84000704702460020B3
:101FE000138A92890B4202EA010202D0002A00D031
:101FF00001207047002A828901D00A4300E08A4309
:102000008281704730B5028C22F001020284028C7A
:102010008388048B22F0020224F073050C882C4381
:102020000D8915434A882A43114DA8420BD0114D02
:10203000A84208D0104DA84205D0104DA84202D0A9
:102040000F4DA8420DD122F008054A8923F44073B0
:102050002A4322F004058A882A438D891D43CB89AF
:102060002B4383800483C9888186028430BD0000AD
:10207000002C014000340140004001400044014078
:1020800000480140028B22F008020A430283704795
:1020900070B5028C22F010020284028C8488038BBB
:1020A0000D8823F4E6464FF6FF7303EA0525354312
:1020B0000E8922F0200203EA061616434A8803EA34
:1020C00002123243104EB04202D0104EB04215D12F
:1020D00022F080064A8924F4406403EA0212324363
:1020E00022F040068A8803EA021232438E8903EA0C
:1020F00086062643CC8903EA84043443848005831E
:10210000C9880187028470BD002C01400034014061
:10211000028B4FF6FF7322F4006203EA01211143A0
:102120000183704770B5028C22F480720284028CA5
:102130008488838B0D8823F073031D4322F400737E
:102140000E894FF6FF7202EA06261E434B8802EA0A
:1021500003233343104EB04202D0104EB04215D18B
:1021600023F400664B8924F4405402EA03233343EA
:1021700023F480668B8802EA032333438E8902EAC4
:1021800006162643CC8902EA0414344384808583EE
:10219000C9888187038470BD002C01400034014050
:1021A000828B22F008020A438283704770B5028C4A
:1021B00022F480520284048C8288838B0D8823F45D
:1021C000E6464FF6FF7303EA0525354324F400562F
:1021D0000C8903EA043434434E8803EA0636264366
:1021E000094CA04202D0094CA04205D122F48044FF
:1021F0008A8903EA8212224382808583C988A0F8F3
:102200004010068470BD0000002C014000340140E5
:10221000828B4FF6FF7322F4006203EA012111431F
:102220008183704781867047018770478187704737
:10223000A0F840107047000030B502881B4B1C4CC2
:1022400098420DD0A0420BD0B0F1804F08D0194D6C
:10225000A84205D0184DA84202D0184DA84203D17B
:1022600022F070054A882A43154DA84206D0154D24
:10227000A84203D022F44075CA882A4302808A8883
:1022800082850A88028598420AD0A04208D00E4A68
:10229000904205D00D4A904202D00D4A904201D1A1
:1022A000097A01860121818230BD0000002C0140A5
:1022B000003401400004004000080040000C0040D1
:1022C0000010004000140040004001400044014064
:1022D000004801407FB50C46054601210846FFF73E
:1022E00021FC641EADF800400020ADF80450ADF8AC
:1022F0000600ADF802004FF0804469462046FFF723
:102300009BFF1C208DF80C0005208DF80D0003208C
:102310008DF80E0001208DF80F0003A8FFF7B2FB27
:1023200001212046FFF73CFE01212046FFF73BFE3E
:10233000012211462046FFF75DFE01212046FFF7EE
:1023400035FE7FBD10B500210448FFF72FFE0021A8
:10235000BDE810400220FFF7E5BB0000000400408C
:10236000F0B50446344889B00D464460012102208E
:10237000FFF7D8FB01210C20FFF7E0FBC020ADF8F0
:102380001C0018208DF81F0003268DF81E6007A979
:102390002A48FFF72DFAADF81C6007A92848FFF777
:1023A00027FA6D1E601EADF81050ADF81400002520
:1023B000244FADF81650ADF8125004A93846FFF777
:1023C0003BFF6020ADF800000120ADF80200B4FB37
:1023D000F6F0401EADF80600ADF8085069463846E4
:1023E000FFF710FE08213846FFF74CFE69463846D5
:1023F000FFF74EFE08213846FFF78AFE6946384649
:10240000FFF790FE08213846FFF7CAFE69463846B6
:10241000FFF7CCFE08213846FFF7FAFE01213846C7
:10242000FFF7CEFD01213846FFF7B0FD0121384608
:10243000FFF7BCFD09B0F0BDB80000200008014066
:10244000000C014000040040F8B5102103268DF86F
:102450000310244D8DF8026001281CD0022823D0DF
:10246000214C03282CD0042833D0002827D1C020A9
:10247000ADF8000069462846FFF7BAF9ADF80060EC
:1024800069462046FFF7B4F9C0212846FFF735FA20
:102490000321204611E04020ADF80000694628469F
:1024A000FFF7A6F9402107E08020ADF8000069465B
:1024B0002846FFF79DF980212846FFF71EFAF8BD50
:1024C0000120ADF8000069462046FFF791F901218F
:1024D000DFE70220ADF8000069462046FFF788F9E3
:1024E0000221D6E700080140000C014038B5182150
:1024F0008DF803100321144C8DF80210012810D020
:10250000022810D0114A032815D0042815D000281D
:1025100010D1ADF8001069461046FFF769F9C020E8
:1025200002E0402000E08020ADF80000694620462F
:10253000FFF75EF938BD012000E00220ADF8000091
:1025400069461046F4E7000000080140000C014015
:102550002DE9F04105461F480C464FF0FF368142F9
:1025600035DA14F1FF4F32D21B484068FEF79CF970
:102570002146FDF7DFFFFEF7A9F984B21748052DC4
:1025800025D2DFE805F01103070B0F002146FFF706
:1025900049FE19E02146FFF747FE15E02146FFF707
:1025A00045FE11E021460DE021460746FFF73AFEC1
:1025B00021463846FFF738FE21463846FFF736FEFB
:1025C00021463846FFF734FE0020BDE8F081304652
:1025D000FBE7000077BE7F3FB8000020000400400A
:1025E0002DE9F0478CB02C216846FDF72EFE002423
:1025F0000E200B948DF82C000D208DF82D008DF8F9
:102600002E4001208DF82F000BA8FFF73BFA012187
:102610000846FFF77BFADFF890A05046FEF74CFE25
:10262000234E224D00953069019010200290C8275A
:10263000CDE903744FF08008CDE905844FF40059CB
:10264000CDE908490794694650460A94FEF7C2FE50
:1026500001215046FEF724FE012202215046FEF7DA
:10266000B1FEDFF844A00AF1140A5046FEF724FE3A
:10267000009501A9F06881E89100CDE90448CDE911
:10268000084906940794694650460A94FEF7A2FE4C
:1026900001215046FEF704FE01224021281F00F0D0
:1026A00090F80CB0BDE8F0874400024004380140C7
:1026B000A4000020F8B5204D40F2244739462846B2
:1026C00000F08EF8012835D11C4C00212046FEF781
:1026D000E7FD2888281D00882046FEF75FFED0F120
:1026E000C80115D0164E1748491CF26800F0B6FA1A
:1026F000012000906946B06803F0BCFD009838B135
:1027000011494FF080500860BFF34F8FBFF36F8FB8
:102710004FF48030FEF7B8FD3946284600F041F806
:10272000C8212046FEF773FE2046BDE8F84001218F
:10273000FEF7B6BDF8BD0000003801405800024069
:10274000A40000206C3F002004ED00E010B5114C07
:1027500040F22551204600F043F8002818D02046CA
:1027600000F0CCF8C1B20C480388C268D15402888A
:102770000023521C92B20280C62A00D10380074C6B
:102780004288A154521C91B24180C62900D3438093
:1027900010BD000000440040A40000203440002090
:1027A00070470A0A01219140C943018070470029FE
:1027B000818902D041F4005101E021F4005181816E
:1027C0007047002A828A01D00A4300E08A4382824D
:1027D00070470246002012880A4200D0012070474C
:1027E00030B501F01F0201240025C1F3421304FAA1
:1027F00002F2012B0FD0022B0FD0838A4FEA112156
:102800000088134204FA01F400EA040001D000B188
:102810000125284630BD8389F0E7038AEEE710B52D
:10282000C1F3421301F01F040121A140012B07D085
:10283000022B07D01430002A026805D00A4304E0B6
:102840000C30F8E71030F6E78A43026010BD000054
:1028500030B50446008A85B00D464CF6FF7108403D
:10286000E98801432182A1894EF6F3100140A8882E
:102870002A8910436A890A431043A081A08A4FF62F
:10288000FF410840A9890143A1826846FFF762F928
:102890001948844201D1039800E00298A1890904F3
:1028A00000EBC00101EB0010296801D5490000E0F0
:1028B0008900B0FBF1F06422B0FBF2F109010B09D1
:1028C0006FF018056B4300EB8300A3891D044FF0E4
:1028D000320306D503EBC000B0FBF2F000F00700B6
:1028E00005E003EB0010B0FBF2F000F00F0008432E
:1028F000208105B030BD0000003801408088C0F361
:1029000008007047F0B587B000240746009404948F
:10291000019402940394012144F209000594FFF705
:102920000DF901210420FEF7B5FF4020ADF810009D
:1029300003258DF8125018202C4E8DF8130004A991
:102940003046FEF755FF8020ADF8100004208DF8CA
:10295000130004A93046FEF74BFF25208DF8140024
:102960000C268DF815608DF8165001208DF8170093
:1029700005A8FFF787F8ADF80440ADF808400097C8
:10298000ADF80640ADF80C40ADF80A60C82002F082
:102990004BFB174CE060C82002F046FB206110B1F1
:1029A000C821FDF752FCE06810B1C821FDF74DFCCD
:1029B000FFF716FE0F4D69462846FFF749FF012233
:1029C00040F224412846FFF72AFF01212846FFF75D
:1029D000EEFE03220021012004F020FA00231A4613
:1029E0001946606004F082FA07B0F0BD000C0140A7
:1029F000A40000200038014070B5144C06464FF08A
:102A0000FF31606804F06AFC114D40212846FFF751
:102A1000E0FE0028F9D031462069FDF750FC0D4C4E
:102A200000212046FEF73CFC3046FDF741FC81B218
:102A30002046FEF7ECFC01212046FEF731FC28463B
:102A4000BDE8704001228021FFF7BBBEA40000203A
:102A50000038014044000240054604F0D1FD0D4914
:102A60004FF0FF3408602146012003F045FA01468B
:102A700001280AD002D908A003F00CFA0023022290
:102A80001946284604F04CFDEDE70B48FFF7B4FF6C
:102A9000F4E70000AC00002053656E6420746F6F93
:102AA00020666173742C206F766572666C6F773A5E
:102AB0002025640A000000006C3F0020FEE70000B3
:102AC000F8B5144C0546A068804720698047216A04
:102AD000C5F30740C5F3072699B1626A8AB18DF83C
:102AE00000008DF801608DF8025003216846904780
:102AF000A0698047054660698047E06880472846AE
:102B0000F8BDE1698847E16930468847E169E8B284
:102B10008847EDE7380100202DE9F8431A4C0546B7
:102B20001746A0688846804720698047216AC5F318
:102B30000740C5F30726A1B1626A92B18DF8000083
:102B40008DF801608DF80250032168469047226A93
:102B500039464046904760698047E0688047BDE855
:102B6000F883E1698847E16930468847E169E8B25E
:102B70008847002505E0A069804708F805006D1C1E
:102B8000ADB2BD42F7D3E6E738010020F8B5164CE8
:102B900005460E46A068804720698047626A45F076
:102BA00004058AB1280C8DF80000280A8DF8010070
:102BB0008DF802508DF803600421684690476069E3
:102BC0008047E0688047F8BDE169C5F30740884762
:102BD000E169C5F307208847E169E8B28847E16900
:102BE00030468847EBE7000038010020F8B51A4C62
:102BF00005461646A0680F46804720698047626AEE
:102C000045F004059AB1280C8DF80000280A8DF8CB
:102C100001008DF80250032168469047626A3146F0
:102C20003846904760698047E0688047F8BDE169B1
:102C3000C5F307408847E169C5F307208847E16984
:102C4000E8B28847002504E0E169785D88476D1C9B
:102C5000ADB2B542F8D3E5E7380100200FB41CB59A
:102C60000246002007AC00290BD0491ECDE9002107
:102C7000054B6A462146069800F0ECF8009A0021C0
:102C800011701CBC5DF814FB8335000837B5144681
:102C90000846064B6A46214600F0DCF804466946C1
:102CA000002000F079FC20463EBD00009935000868
:102CB00002E008C8121F08C1002AFAD17047704705
:102CC000002001E001C1121F002AFBD17047000063
:102CD0002DE9FF5F82B00021DDE90430020DDDF84F
:102CE00040B0034318D044F61050A2F2FF324243E2
:102CF0001514119801281FD0A5EB0B00401C5FEAAA
:102D0000000A4FF000064E4FDFF83891B0465046AB
:102D100015D5CAF1000413E0119801244AA3012833
:102D200001D16FEA0B010298119AC0E90031C0E9A4
:102D3000024206B0BDE8F09FCBF10000DFE7044699
:102D40000021404A491842EB0450CDE9001012E03E
:102D5000E00707D032463B4640464946FDF7C3FCF4
:102D60008046894632463B4610461946FDF7BBFC75
:102D700006460F466410002CEAD1DDE90401DDE9C6
:102D80000023BAF1000F06DAFDF7ADFC42464B46D0
:102D9000FDF7A9FC05E0FDF718FD42464B46FDF79F
:102DA00014FD04460E460022284BFDF725FF03D8EC
:102DB0004FF0FF30014607E00022254B2046314608
:102DC000FDF7EAFBFDF700FF102409E0002C0ADB09
:102DD0000A220023FDF7C0FD039B30321A55641E02
:102DE00050EA0102F2D1641C039AC4F111031444A5
:102DF000119A012A03D0012208430DD10AE00843A9
:102E000004D000204FF0110B119072E7A3EB0B05DB
:102E10006D1E0DE05B4504DD4FF0000205F101057C
:102E200004E003DA4FF00002A5F10105002AECD01E
:102E300002981199C0E90231C0E9004579E7000024
:102E4000000014400000F03F300000000000F0439C
:102E50000000E03F2DE9FF4F95B09B4689460646AE
:102E600000250FE2252877D100242746F84A0121C2
:102E7000059400E0044316F8013F203B01FA03F0FB
:102E80001042F7D130782A2811D06FF02F03307814
:102E9000A0F13002092A16D8059A44F0020402EB88
:102EA000820203EB42021044761C0590EFE759F8CA
:102EB000042B0592002A03DA504244F40054059092
:102EC00044F00204761C30782E2816D116F8010F33
:102ED00044F004042A280DD06FF02F023078A0F1BE
:102EE0003003092B09D807EB870302EB4303C7180C
:102EF000761CF3E759F8047B761C30786C280FD0E9
:102F000006DC4C2817D068280DD06A2814D104E0BC
:102F1000742810D07A280FD10DE044F400140AE090
:102F200044F4801401E044F440147278824202D1E7
:102F300004F58014761C761C307866280BD013DCE0
:102F4000582877D009DC002875D04528F6D04628C7
:102F5000F4D047281AD19DE118E0632835D06428C1
:102F600079D0652812D195E1702873D008DC6728E4
:102F7000F1D069286FD06E280DD06F2806D1B5E04A
:102F800073282CD0752875D0782874D05A46179994
:102F900090476D1C75E1C4F30250022809D0032844
:102FA0000DD0D9F8001004280DD00D6009F10409E6
:102FB00067E1D9F80010EA17C1E90052F6E7D9F83D
:102FC00000100D80F2E70D70F0E719F8041B8DF882
:102FD000001000208DF80100EA46012003E059F8B6
:102FE00004AB4FF0FF3061074FF0000102D40DE059
:102FF00008F101018846B9420FDA8045F8DB1AF87A
:1030000008100029F4D108E008F101018846814246
:10301000FADB1AF808100029F6D105985B46A0EBF8
:10302000080721463846179A00F094FA284400EB26
:10303000080507E04DE029E10DE01AF8010B5A46BA
:1030400017999047B8F10108F7D25B4621463846F8
:10305000179A13E142E00A220092C4F302524FF0A1
:10306000000A022A08D059F804CB032A4FEAEC716F
:103070000AD00DE029E02AE009F1070121F007025A
:10308000F2E802C1914609E00FFA8CFC4FEAEC71BC
:10309000042A03D14FFA8CFC4FEAEC71002907DABD
:1030A0000A460021DCF1000C61EB02012D2202E056
:1030B000220504D52B228DF80420012203E0E2072B
:1030C00001D02022F7E7904659E00A2102E01022C1
:1030D0000DE010214FF0000A00910BE010224FF09C
:1030E000000A44F004040827009203E008224FF08D
:1030F000000A0092C4F30252022A05D059F804CB08
:103100000021032A08D009E009F1070121F0070294
:10311000F2E802C1914605E01FFA8CFC042A01D1B5
:103120000CF0FF0C4FF00008220728D5702806D0BD
:10313000009B83F0100353EA0A0305D00EE04022FF
:103140008DF80420012208E05CEA010206D030225A
:103150008DF804208DF8050002229046009B83F034
:10316000080353EA0A030AD15CEA010201D16207AB
:1031700005D530228DF804204FF001087F1E582815
:1031800004D034A003900EA802900DE036A0F9E719
:1031900053466046009AFDF7DFFB84460398825C45
:1031A0000298401E029002705CEA0100F0D1029881
:1031B00006A9081A00F1200A600702D524F4803419
:1031C00000E00127574502DDA7EB0A0000E00020E0
:1031D00000EB0A01009005984144401A0590E00375
:1031E00006D45B462146179A059800F0B3F90544CA
:1031F000002706E001A85A46C05D179990476D1C4C
:103200007F1C4745F6DBE0030CD55B462146179A49
:10321000059800F09FF9054404E030205A461799BC
:1032200090476D1C0099481E00900029F5DC08E0CD
:10323000029802995A460078491C029117999047C2
:103240006D1CBAF10001AAF1010AF1DC65E1000090
:10325000092801003031323334353637383961626C
:103260006364656600000000303132333435363730
:1032700038394142434445460000000000F058F907
:103280000544761C307800287FF4ECAD19B0284650
:10329000BDE8F08F620700D4062709F1070222F08B
:1032A000070CFCE80223E14603F000485FEA080C43
:1032B00002D00FF2702C0DE05FEA045C02D50FF231
:1032C000682C07E05FEAC47C02D00FF2602C01E0BA
:1032D000AFF2700C4FF0FF3823F00043CDF850C030
:1032E00065280CD006DC452809D046281DD0472883
:1032F0003DD13DE0662818D067287ED138E0002116
:10330000112F01DB112000E0781CCDE9000106A996
:103310000EA8FFF7DDFCDDE90F010E9A03910021F5
:10332000009207F1010A04914DE04FF00040009730
:10333000CDE9011006A90EA8FFF7CAFCDDE90F02CE
:1033400003920E9B11990022DDF80CA000930492C9
:1033500011B9791C00EB010AB7EB0A0004D4C0F1E3
:10336000FF3007F1010A0490AAEB0700019044E046
:10337000012F00DA01270021112F01DD112000E0CB
:103380003846CDE9000106A90EA8FFF7A1FCDDE94A
:103390000F010E9A0391002104910092BA46210771
:1033A0000CD40399514500DA8A46BAF1010F05DDC4
:1033B000009AAAF10101515C302908D0B84202DA22
:1033C00010F1040F06DA0121CDE9011015E0AAF190
:1033D0000101E9E7002805DC049901440491AAEB06
:1033E000000102E0411C514500DD8A460499401A63
:1033F000401C01904FF000400290200704D4019837
:10340000504501DBCDF8048000208DF84F00029874
:103410000DF14F07B0F1004F25D02B200E900298F0
:103420004FF0020800280CDA404202902D200E9046
:1034300007E00A210298FDF779FA3031029007F887
:10344000011DB8F10001A8F10108F2DC0298002882
:10345000EFD1791E0E980870307800F0200040F00F
:10346000450007F8020D12A8C01B00F107081498C8
:10347000007800B1012000EB0A01019801EBE07136
:1034800005984144401A401E0590E00306D45B466F
:103490002146179A059800F05DF8054414980078C5
:1034A00018B15A46179990476D1CE00324D55B4626
:1034B0002146179A059800F04DF805441CE0049841
:1034C000002807DBDDE90301884203DD0098405C4A
:1034D000179901E0179930205A469047049805F152
:1034E0000105401C04900198401E019004D12E203B
:1034F0005A46179990476D1CBAF10001AAF1010ACA
:10350000DDDC05E017F8010B5A46179990476D1C52
:10351000B8F10001A8F10108F4DC5B462146179AD6
:103520000598ABE62D0000002B00000020000000F5
:103530002DE9F041044600251E461746880404D4B0
:1035400005E039462020B0476D1C641EF9D5284699
:10355000BDE8F0812DE9F041044600251E46904665
:10356000C80301D5302700E02027880404D505E0F2
:1035700041463846B0476D1C641EF9D52846BDE863
:10358000F0814A68002A06D00A68531C0B6010704C
:103590004868401E486070470A68531C0B601070F2
:1035A00070470000F8B54FF4D8563046FFF788FA58
:1035B000054603213046FFF7E9FA0E4B41F2883009
:1035C000DC1F009011220CA1A07802F09DFA0746A2
:1035D00029463046FFF7DAFA0D3708D002F014F822
:1035E000E069E169091A0229FBD30020F8BD012036
:1035F000F8BD000077010020434845434B5F495028
:103600005F434F4E464C49435400000070B51A4C7E
:103610000125204694F90110002690F900000829A0
:1036200017DAD4E90721914223D2012804D00228D5
:1036300005D0042805D102E002F066F801E002F0AE
:103640001BF9E661E069401C20626078401C6070F4
:103650000FE0012804D0022805D0042807D102E099
:103660002670002503E002F04FF80120207001F0E1
:1036700033FF284670BD00007001002008488168B3
:1036800003290BD3002282604178022902D34270C1
:10369000501E7047491C4170002070470120704740
:1036A000BC01002070B50446082802D94FF0FF3055
:1036B00070BD4FF4847000EB441005461021FFF7F5
:1036C00065FA2846FFF7FCF90028FAD14FF402709A
:1036D00000EB44101F21FFF759FA0D490120A040CB
:1036E0004A8882434A808A8882438A800949002026
:1036F00021F814000649891D08554FF4427000EB6B
:1037000044142046FFF7DCF90028FAD1012070BDEF
:1037100060010020FC4800200EB5142001F084FC5C
:103720006B4D00266B4C80464FF0FF3A05F12407A5
:103730004FF0020902965146012002F0DDFB02AB78
:10374000424665A16648FCF7C3FD66A14046FCF70A
:1037500087FD60B1A06840B10298A8634146384631
:10376000FCF7ADFDA068686477E060A011E069A196
:103770004046FCF775FD78B1606848B12670029844
:10378000686141465248FCF79AFD6068286264E02F
:1037900061A002F07FFBCEE769A14046FCF760FD27
:1037A00028B30298012802D0606890B18BE0A0682D
:1037B0000028FBD1606810B102F0F8FC6660454952
:1037C0003B460831CDE900914FF448725FA1634850
:1037D00064E0A06810B102F0E9FCA6603D493C4BF2
:1037E000091DCDE9009180225DA1614856E061A1EB
:1037F0004046FCF735FDD8B102980128E0680BD0AF
:10380000002860D0FEF79EFD5DA0FFF7F5F8E068A8
:1038100002F0CCFCE66056E0002854D12D492C4B38
:103820000C31CDE90091483B80225CA15F4835E036
:103830005FA14046FCF714FDC8B1E06898B1DFF81D
:1038400090B00299ABF1480B5846CBF814104146A2
:10385000FCF735FDE068CBF8200000230222194672
:1038600003F05EFE2FE055A0FFF7C6F863E75CA10A
:103870004046FCF7F5FCA0B1206908B15BA020E050
:10388000134902982439124B48611249243B1031E4
:10389000CDE900914FF480725AA1604803F014FE04
:1038A00011E05FA14046FCF7DBFC48B1206950B154
:1038B0005EA0FFF7A1F8206902F078FC266102E023
:1038C0005EA0FFF799F8C8210548FCF7BEFC32E777
:1038D000100200200800002025732025640000004D
:1038E0006C3F00206C6561726E000000506C656179
:1038F000736520456E746572205243206C65617259
:103900006E696E67206D6F64652066697273740DF1
:103910000A00000075736500506C65617365204591
:103920006E7465722052432053656E64696E672021
:103930006D6F64652066697273740D0A0000000083
:1039400072656D6F74655F7365740000636F6465A5
:103950005F6C6561726E696E67000000A5400008CB
:10396000636F64655F73656E64696E670000000075
:10397000614200086D6F7465725F63746C000000D3
:1039800045786974205374656572696E6720456E69
:1039900067696E65652043746C0D0A005374656534
:1039A00072696E6720456E67696E6500A55D0008E7
:1039B0006D6F7465725F736574000000456E7465A9
:1039C00072206D6F74657220636F6E74726F6C20FD
:1039D0006D6F64652066697273740D0A00000000E3
:1039E0006C616E5F656E61626C650000416C726552
:1039F00061647920656E61626C6564204C616E0D56
:103A00000A0000004C616E205443502053657276CA
:103A10006572204C6F6F706261636B00E142000859
:103A20006C616E5F64697361626C65004C616E20ED
:103A300064697361626C65640D0A0000496E7661A9
:103A40006C6964205461736B0D0A00002DE9F0412C
:103A5000FDF7B2FE1C4F05464FF480760024314638
:103A60003846FDF74AFF0020FEF7EEFC1FE0E007B6
:103A7000314638460CD0FDF740FF0020FEF7E4FC4D
:103A800005EB4400C1888088814207D9081A09E003
:103A9000FDF735FF0020FEF729FDF1E74EF6602225
:103AA000101A084480B2FEF725FA641CE4B2688854
:103AB000401EA042DBDC31463846FDF71EFFBDE864
:103AC000F0410020FEF7C0BC000C01402DE9F041A0
:103AD00017460E460446082803D94FF0FF30BDE8CC
:103AE000F08160014FF001080830FEF7E9FF00F0B7
:103AF0000F00012802D06FF00400F0E74FF442708D
:103B000000EB44100546FEF7DBFF132802D06FF0F0
:103B10000200E4E73078717801EB0020B17801EB26
:103B20000020F17801EB0020411C2CD058B36FB37A
:103B300040F6084000EB441004223146FFF756F8E7
:103B400041F20800390A00EB4410FFF71FF841F278
:103B50000810F9B200EB4410FFF718F84FF4847026
:103B600000EB441006460421FFF710F83046FEF73C
:103B7000A7FF0028FAD1164908FA04F0498808423C
:103B80001AD00020ABE76FF00B00A8E76FF00A0037
:103B9000A5E72046FEF794FF000706D5204608213A
:103BA000FEF7F4FF6FF00C0099E72846FEF788FF58
:103BB00030B96FF0030092E74FF4027000EB441449
:103BC0002846FEF77DFF1728E3D1012087E7000094
:103BD0006001002010B50C4606281ED2DFE800F078
:103BE00003070B101418204602F084FF13E0204650
:103BF00002F0F2FE0FE02078BDE8104002F0A6BF10
:103C000002F016FF207006E0204602F0B1FF02E04D
:103C1000204602F010FF002010BD4FF0FF3010BD15
:103C20002DE9F0410C46002102464F1E08464FF494
:103C300098554FF4A056102A61D2DFE802F0080B25
:103C400017131A1E222C3643464A574E535A02F077
:103C5000ABFF4BE014B1204604F10801BDE8F04190
:103C600002F0FDBE208802F075FE3FE002F096FEF5
:103C700005E0208802F030FF38E002F09EFE208050
:103C800034E02088010A2846FEF780FF217830467C
:103C9000FEF77CFF2AE03046FEF712FF0646284674
:103CA000FEF70EFF06EB0020E9E716488278227047
:103CB000C27862700279A2704279E27080792071D4
:103CC000617113E002F0E9FF10E0204602F0FAFF14
:103CD0000CE0204602F0A2FF08E02078BDE8F041A9
:103CE00003F015B802F0CCFF05E020700020BDE81D
:103CF000F08102F0BAFFC0B241B2491CF5D138469A
:103D0000F5E700003801002010B5042209494FF4FE
:103D10007060FEF76BFF0749042208314FF4A06082
:103D2000FEF764FF03490422091DBDE8104090011D
:103D3000FEF75CBF7701002010B580210020FEF760
:103D400025FF0020FEF7BCFEBDE810400622024918
:103D50004FF41060FEF74ABFAC01002010B580217F
:103D60000020FEF713FF0020FEF7AAFEFFF7CCFFAE
:103D7000BDE81040062202494FF41060FEF736BF3E
:103D8000AC01002070B50446082802D94FF0FF307E
:103D900070BD600101250830FEF792FE00F00F00B3
:103DA000012801D0A81F70BD4FF4847000EB4410AF
:103DB00006460821FEF7EAFE3046FEF781FE00289F
:103DC000FAD11248A5408188A943818040880542E4
:103DD0000CD0002070BD3046FEF772FE00070DD5F6
:103DE0002046FFF75FFC6FF00C0070BD4FF40270CF
:103DF00000EB44164FF4427000EB44152846FEF7E2
:103E00005FFE0028E7D1012070BD000060010020A6
:103E100070B586B015460C46064618236A4600F073
:103E20004DFD411C49D00444204600F0B2F80A344C
:103E300010283FD2DFE800F03E08153E3E152B1556
:103E400015153E3E151A3E2114F8010B287014F882
:103E5000010B687014F8020BA87014F8010CE870DC
:103E600028E018236A460BE0044423E014F8010B11
:103E7000204410F8011B44181CE018236A46A41CB7
:103E80002146304600F01AFD411C16D0ECE71823FD
:103E90006A462146304600F011FD411C0DD0044415
:103EA00018236A462146304600F008FD411C04D024
:103EB00004441434204606B070BD0020FBE7000027
:103EC0002DE9F043034691461046294A0D4687B036
:103ED0005188491C89B2518001F09FF84FF48071DC
:103EE00041EAC32189B201F098F8012101F095F867
:103EF000002101F092F8002101F08FF8002101F07B
:103F00008CF8044629466846FCF7D9F96E463046D7
:103F1000FCF7CEF91FFA80F82E213046FCF7BEF9E7
:103F2000070002D0B81B85B200E0454604F8015BEB
:103F30008DB12A4631462046FCF7A4F92C443FB106
:103F4000A8EB0500401E2E441FFA80F8761CE3E71C
:103F5000002004F8010B0121204601F05EF8012148
:103F600001F05BF8A0EB090007B000B2BDE8F083F8
:103F7000BC01002010B586B00C4618236A4600F03C
:103F80009DFC411C03D02044001D06B010BD002044
:103F9000FBE70178407800EB012080B27047000019
:103FA00001488069704700007001002004490A78C8
:103FB00002704A7842708A788270C978C1707047FE
:103FC0008301002004490A7802704A7842708A7896
:103FD0008270C978C17070477B01002004490A785B
:103FE00002704A7842708A788270C978C1707047CE
:103FF0007701002004490A7802704A7842708A7872
:104000008270C978C17070477F0100202DE9F041AE
:1040100042F2086101EB401542F20871002601EB03
:1040200040142846FEF74CFD07462046FEF748FDA3
:1040300000EB072007043F0C09D02846FEF740FD9F
:1040400006462046FEF73CFD00EB062086B2BE4247
:10405000E7D13046BDE8F0812DE9F04142F2080198
:1040600001EB401542F20811002601EB40142846EE
:10407000FEF726FD07462046FEF722FD00EB07204F
:1040800007043F0C09D02846FEF71AFD06462046D5
:10409000FEF716FD00EB062086B2BE42E7D13046A1
:1040A000BDE8F08105468CB042A0FEF7A5FC4FF0BC
:1040B0000009DFF828A14C4649468AF80090012003
:1040C00001F01AFFA84630216846FCF7BEF8444EBE
:1040D0006D46A02000F0A8FF45F8240004EB840002
:1040E00006EB4010FDF768FB55F824300146A0228E
:1040F0001846FCF791F8641C0C2CEADBDFF8E4B0FE
:10410000002700BF4FF0FF31012001F0F5FED8F885
:1041100014000C2813D33046FDF740FB5FF0000479
:1041200004EB840055F8241006EB40105022FDF7F4
:1041300044FB641CE4B20C2CF2D32BA027E031A08A
:10414000FEF75AFCDBF8001001223448A1F8029077
:104150001121FDF74FFF54462078022802D137B1D4
:10416000012F06D00027322001F0FAFFF4E70127E3
:10417000F9E7002211212948FDF73CFF84F800905F
:10418000DBF800005C464088032803D824A0FEF733
:1041900033FCB7E729A0D8F8141001F07BFE2168A2
:1041A00048884200D8F81400121D55F82000FCF78A
:1041B00033F8A7E7596F752061726520696E207426
:1041C00061736B202D2D2D20697264615F6C6561B8
:1041D000726E696E67200D0A00000000B8000020B2
:1041E00000D00208C0000020536176696E67206B22
:1041F00065792076616C756520746F20666C6173DB
:10420000680D0A005374617274205265636F7264A2
:10421000696E672E2E2E0D0A000000000008004077
:104220006E6F69736520697320636F6D696E672EA9
:104230002E2E61626F72740D0A0000007265636F4A
:104240007264207375636365737320696E20636F96
:1042500064655F7365745B25645D0D0A0000000092
:1042600005460FA0FEF7C8FB0021012001F044FE27
:10427000144F154C4FF0FF3801264146012001F044
:104280003BFE207830B9686900EB800007EB4010F6
:10429000FFF7DCFB0DA0FEF7AFFB2670EDE700009B
:1042A000596F752061726520696E207461736B208F
:1042B0002D2D2D20697264615F73656E64696E6770
:1042C0000D0A000000D002080800002053656E644B
:1042D000207369676E616C206F75740D0A000000B1
:1042E0001CB5044611A0FEF787FB02F013F9207DF0
:1042F00002F088FA010002D018A001F0CBFD0020E6
:10430000009069461CA0FDF785F81FA041F22E64BD
:1043100000680190224601A9002000F043F8010046
:10432000F8D51AA001F0B6FDF4E70000596F75202A
:1043300061726520696E207461736B202D2D2D20B4
:104340004C616E2054435020536572766572204C48
:104350006F6F706261636B0D0A0000005735353076
:104360003020496E6974206661696C2C2045727238
:10437000203D2025640D0A007777772E62616964FD
:10438000752E636F6D000000C0A802B1534F434B00
:104390004554204552524F52203A20256C640D0A54
:1043A0000000000070B505464FF4427014460E46FA
:1043B00000EB4510FEF784FB002841D0132804D001
:1043C000172810D01C2848D136E02246314628460E
:1043D000FFF77CFB044601283FD02846FFF7D2FCBC
:1043E00021461FA037E04FF4027000EB4510044651
:1043F000FEF766FBC00703D020460121FEF7C6FB8F
:104400002846FFF703FE04464FF40060844201D9BA
:10441000044600E00CB322461A49284600F08EFEFE
:1044200000281BDB174918A001F034FD224615496E
:10443000284601F05BF810E02846FFF7A3FC0CE0EB
:10444000002341F288320121284601F01DFC00289A
:1044500004D129460EA001F01DFD002070BD000012
:10446000436F6E6E6563742054435020736572769B
:104470006572206661696C2C726574203D2025642C
:104480000D0A0000FC40002025730D0A000000000A
:1044900025643A4F70656E65640D0A001CB5FDF722
:1044A000DFFC4FF44070FDF71FFBFDF7C9FA4FF436
:1044B000E130FEF727FA002502242B46802219A1BD
:1044C0001A48CDE9004502F0FFFF194E0023CDE95F
:1044D00000464FF44874224616A11A4802F0F4FF31
:1044E00019490320CDE90001224618A11B48336871
:1044F00002F0EAFF1A480090002301224FF4FA610B
:1045000018A003F02DFA040008D003F08DF802463D
:10451000002301212046009503F06EFA01F08CFF84
:10452000FEE700004C45445F44310000D11900080B
:1045300004000020436F6D6D616E642053657276D8
:1045400065720000193700080000002055415254E0
:10455000315F53656E646261636B0000592A000825
:104560001D1A00084C45445F44325F74696D6572E2
:10457000000000001CB5062269464FF41060FEF7EB
:10458000CBFA2F4A0120916B087048700620887082
:104590000020C870536B1B0E0B71536B1B0C4B71BF
:1045A000938E1B0A8B7192F83430CB71916B802300
:1045B00008818B72C872916B02F13C0308734873D7
:1045C0008873C873087448748874C874087548750B
:1045D0008875C875087648768876C8761C780C7712
:1045E0005C784C779C788C77DC78CC771C7981F878
:1045F00020405B7981F821300623CC185B1CDBB2AC
:104600002077102BF9D3936B00215C18491CC9B299
:1046100084F82C004029F8D3936B00215C18491CC6
:10462000C9B284F86C008029F8D3906B6321822290
:1046300000F8EC1F427053228270C1701CBD000054
:104640007001002010B50F4CA01DFFF7C7FC04F14E
:104650000E00FFF7B7FC04F10A00FFF7CBFC04F1F2
:104660001200FFF7A3FC0220A07501F091FF0028C3
:1046700007D1FFF795FC0146BDE8104002A001F00C
:1046800009BC10BDC400002044484350204C4541A3
:104690005345442054494D45203A20256420536514
:1046A000632E0D0A0000000001A001F0F3FBFEE7FD
:1046B000434F4E464C4943542049502066726F6D1B
:1046C00020444843500D0A007FB5454C0025A07892
:1046D000FFF79CFC020028D001A8009002ABA07854
:1046E000A16B00F09DFD82B2BDF8040043283AD1D1
:1046F000A06B04F13C01037F0E78B34215D1437FD8
:104700004E78B34211D1867F8B789E420DD1C37F04
:10471000CE78B34209D190F820300E79B34204D15B
:1047200090F8213049798B4202D0002004B070BD4E
:10473000F0308118F03914E00278332A34D007DCE5
:10474000AAB1012A18D0032A1AD0062A06D11CE0E1
:10475000352A0ED0362A36D0FF2A06D04278801C61
:1047600010448842E8D368B2E0E70846F9E7401C05
:10477000F7E78578C01CF4E7194A83780F3225E003
:10478000174A437886780B3203E0154A43788678D7
:1047900013321670C6785670067996704679801D69
:1047A0001844D670001FDCE78278A261C37803EB5F
:1047B0000222A261037903EB0223A361427902EB97
:1047C0000322A26109E0064A837830321370C3786D
:1047D0005370037993704379D370801DC1E7000053
:1047E000700100202DE9F0410D469046044612214B
:1047F000FBF72BFD2846FFF7CCFB2080A81CFFF71A
:10480000C8FB02044FF0010100D5A170C0F3C32220
:10481000E270420500D52171820500D56171C205A3
:1048200000D5A171020600D5E17100F00F002072E1
:10483000281DFFF7AEFB6081A81DFFF7AAFBA08132
:1048400005F10800FFF7A5FBE08105F10A00FFF77D
:10485000A0FB0026208205F10C01771E06E0284609
:10486000FFF788FB010014D0761CB6B26089B04215
:10487000F5D8002607E042462846FFF7C9FA0100AE
:1048800007D0761CB6B2A089B042F4D80020E189E6
:1048900004E03846BDE8F081401C80B28142FBD87C
:1048A0000020218A01E0401C80B28142FBD8207A9E
:1048B00008B10020EEE70120ECE70000F0B5074664
:1048C0000020054606464FF02E0C00BF11F8014BA4
:1048D00005B9401C4FEA941EBEF1030F0AD105B979
:1048E000401C097804F03F0407EB0424214401250F
:1048F00011F8014BACB11B1B5B1E1BB2002B02DA83
:104900004FF0FF30F0BD2DB9204403E011F801EB6A
:1049100002F801EB641EA4B2F8D202F801CB761CB7
:10492000D4E70EB902F801CB00211170F0BD0000F0
:104930002DE9F041184C0F460546E6682068001D39
:1049400001F00EFB38B9206890F82C100120884047
:10495000216981432161681C07D137B12168BDE815
:10496000F0410E48091D01F034BB20683544B542C2
:104970004560216805D2A06BBDE8F041091D01F03A
:1049800010BB606B091D01F00CFBA06A854200D2D0
:10499000A562BDE8F08100001C000020300300206B
:1049A0002DE9F041054601F021FB2E4CA068401C8A
:1049B000A06020682C4F10B1606940B32DE02560E5
:1049C000A068012829D1002606EB860007EB8000AD
:1049D00001F0D9FA761C052EF6D32348643001F095
:1049E000D2FA2148783001F0CEFA1F488C3001F01D
:1049F000CAFA1D48A03001F0C6FA1B48B43001F0D5
:104A0000C2FA1948643060631430A06305E020687E
:104A1000E96AC06A884200D82560606A401C60620A
:104A2000E96A0120226988401043206101EB81007E
:104A300007EB8000291D01F0CCFA01F0F7FA60695C
:104A400000280CD02068E96AC06A884207D207496A
:104A50004FF080500860BFF34F8FBFF36F8FBDE8FA
:104A6000F08100001C0000207C02002004ED00E02A
:104A700010B501F0BBFA0C4C206880B90B4801F06E
:104A800082FA0A48143001F07EFA0848E0601430D7
:104A9000206100220C21052002F0C0F92060BDE851
:104AA000104001F0C3BA0000580000204403002069
:104AB00030B4026C0B46002A0BD0C1681144C160AF
:104AC0008468A14201D30168C16030BC1846FBF77D
:104AD000A3BB30BC70472DE9F041856B17460446F7
:104AE0000026026C82B1C7B1E068FBF795FBE16874
:104AF000206C091AE1602268914202D2A168081A6A
:104B0000E060022F16D017E02068A8B9A06802F074
:104B1000F5FD06460020A0600EE06068FBF77CFB18
:104B2000216C606808446060A168884204D32068F2
:104B3000606001E005B16D1E6D1CA5633046BDE8E7
:104B4000F08110B50446006B01F084FA2046BDE800
:104B5000104001F07FBA000010484FF47051420736
:104B600006D0C01D0D4920F00700411AC1F5705153
:104B70000B4A00230144C2E900030839103A21F02E
:104B8000070111604B600B600B1AC0E900139360C2
:104B90004FF000405360D060704700006C0300206D
:104BA00088000020144E154CA6F1A0074FF0805845
:104BB000DFF84C9012E000BF01F018FAF068C56809
:104BC000281D01F0CDF9A068401EA0606068401E5D
:104BD000606001F02BFA2846FFF7B3FF60680028F9
:104BE000EAD138680128F9D9C9F80080BFF34F8F9E
:104BF000BFF36F8FF2E700001C0300201C000020B1
:104C000004ED00E02DE9F0479A46DDE90984089DAE
:104C1000814689B16FF00303206B03EB82021044DD
:104C200020F0070670070FD0BF2080F31188BFF374
:104C30004F8FBFF36F8FFEE7BF2080F31188BFF364
:104C40004F8FBFF36F8FFEE723180A5C83F8342081
:104C50000A5C12B1401C1028F6D3002784F8437078
:104C6000052D00D30425E562C4E91157201D01F08C
:104C700095F904F1180001F091F92461C5F10500DE
:104C80006462A061E76484F8507052464946304639
:104C900000F042FA2060B8F1000F01D0C8F80040DF
:104CA000BDE8F08730B5114900E011460A6882423C
:104CB000FBD34B685C18844203D1406818444860B9
:104CC000084643681C18944209D1084C103C2468DB
:104CD000A24209D052681A4442600A68126802600F
:104CE000814200D0086030BD0460F9E788000020F0
:104CF00070B5002441600B4D0061914206D8D11A75
:104D00008269914206D2011D286907E09A4203D2C6
:104D1000994201D3012403E0011DE86801F041F943
:104D2000204670BD5800002010B5044601F05EF921
:104D3000A06B28B15FF0000401F078F9204610BDA7
:104D40000124F9E730B587B02B4D4BE004980028DB
:104D500048DB069C606910B1201D01F001F902A832
:104D600000F0B6F8024604980A283BD2DFE800F0CB
:104D70000505053A263705053A260598A169034633
:104D800001442046FFF7B4FF00B3616A204688471C
:104D9000E069012826D1002000900598A169002330
:104DA00042181946204602F027FE78B9BF2080F34A
:104DB0001188BFF34F8FBFF36F8FFEE70598A06197
:104DC00028B1811813462046FFF792FF0AE0BF2062
:104DD00080F31188BFF34F8FBFF36F8FFEE720463C
:104DE00001F038F9002204A9286802F0DBF9002854
:104DF000ACD107B030BD0000580000202DE9FC41C7
:104E00000F46054601F050FB01A800F061F804468A
:104E1000019818B102F042FDBDE8FC81224EAFB10D
:104E200030690068A8B30027291B3A46306801F0B2
:104E300075F902F033FD0028EED11C494FF0805087
:104E40000860BFF34F8FBFF36F8FE5E7A542EBD844
:104E500002F024FDF0682746C068C468201D01F0F8
:104E60007FF8E069012810D1A0692B4641193A4624
:104E70002046FFF73DFF40B1002003460146009069
:104E80002A46204602F0B8FD20B1616A20468847D4
:104E9000C2E707E0BF2080F31188BFF34F8FBFF355
:104EA0006F8FFEE70127BFE75800002004ED00E008
:104EB0000648416B096829B1416BC968C9684968EE
:104EC000816270474FF0FF31FAE700001C000020BC
:104ED00070B5054602F0A8FB064E0446B068844251
:104EE00003D200F009F8012000E0002028602046ED
:104EF000B46070BD58000020F8B5194D1FE0C068BF
:104F0000C4680668201D01F02BF8616A20468847B6
:104F1000E069012813D1A0693044B04206D9246168
:104F20006060211DE86801F03CF808E000200346BD
:104F3000014600903246204602F05EFD38B1E86836
:104F400001680029DBD12969C5E90310F8BDBF203C
:104F500080F31188BFF34F8FBFF36F8FFEE7000020
:104F60005800002008484068401C4FF0BF0080F304
:104F7000118804D0BFF34F8FBFF36F8FFEE7BFF3ED
:104F80004F8FBFF36F8FFEE76C000020074CE06887
:104F9000016841B1C0680021D0F80000FFF72EFF82
:104FA000FFF7D0FEF3E701210020F7E758000020CB
:104FB0002DE9F041044601F019F894F9455004F147
:104FC000240609E0606A48B1304602F02DFC08B1C1
:104FD00001F04AF96D1E6DB2002DF3DC4FF0FF3683
:104FE00084F8456001F022F801F000F894F944508B
:104FF00004F1100709E0206948B1384602F014FCBA
:1050000008B101F031F96D1E6DB2002DF3DC84F8AA
:105010004460BDE8F04101F009B80A0A00F8012B2C
:1050200000F8011B704700002DE9F04105460027FC
:1050300001F03AFA314E306808B9FFF78DFDF0689B
:1050400005424BD1C5B3083568070ED005F00700FF
:10505000C0F108000544680707D0BF2080F311881D
:10506000BFF34F8FBFF36F8FFEE72DB3706885429C
:1050700034D82248103001460C6801E020460C4626
:105080006168A94202D221680029F7D131688C42B7
:1050900024D007682168016060680837411B102927
:1050A0000FD96019420708D0BF2080F31188BFF3E1
:1050B0004F8FBFF36F8FFEE710E041606560FFF731
:1050C000F1FD61687068401A7060B268904200D269
:1050D000B060F06801430020C4E9000102F0DEFB8B
:1050E000780707D0BF2080F31188BFF34F8FBFF33D
:1050F0006F8FFEE73846BDE8F081000078000020A1
:105100000449086818B10868826C521C82640868F7
:10511000704700001C00002010B5031F4FF0807482
:105120001C601B1F21F001011960191F024B0B604D
:10513000143940380A6010BD654F00082DE9F74F5B
:1051400014460546082803D94FF0FF30BDE8FE8F0E
:10515000680101260830FDF7B3FC00F00F000128BC
:1051600001D0B01FF2E724B341F6086000EB451010
:10517000FDF7A6FC4FF6FF7101EA8020A04200D2A5
:1051800004464FF4427000EB451841F60870DFF812
:105190008CA000EB451B06FA05F92846FEF736FF02
:1051A00006464046FDF78CFC172816D01C2803D075
:1051B0000DE06FF00D00C9E7CEB92846FEF74CFFB1
:1051C00007465846FDF77CFCB7EB802F05D12846F3
:1051D000FEF768FA6FF00600B8E7BAF8021019EAAD
:1051E000010F02D01EB90020B0E7002ED5D0A64294
:1051F00000D2344622462846019901F026FB4FF49E
:10520000847000EB451005464021FDF7BFFC2846A1
:10521000FDF756FC0028FAD1204697E760010020F0
:105220002DE9FF4F002583B01F469046044608280D
:1052300003D9681E07B0BDE8F08F60014FF0010A86
:105240000830FDF73DFC834600F00F00022806D031
:10525000032804D0042802D06FF00400EAE7B8F174
:10526000000F05D0DFF8C49139F8140018B11EE022
:105270006FF00D00DEE74FF4427000EB44160AFABF
:1052800004FA2046FEF7C2FE05463046FDF718FC3C
:1052900030B1674949881AEA010F06D01DB106E00E
:1052A0006FF00300C6E70020C4E7002DE9D00BF043
:1052B0000701DFF87CA14FF484704FF0800B0AF1F6
:1052C000060A00EB4416022922D003297CD00429C7
:1052D00052D02946204601F0E8FA29F81450304609
:1052E0004021FDF753FC3046FDF7EAFB0028FAD1D8
:1052F00039F81410491B0904090C29F8141003D0BB
:105300001AF8041041F001010AF80410284691E748
:1053100039F814004D4670BB08226946204601F05A
:1053200094FA30464021FDF731FC3046FDF7C8FBCA
:105330000028FAD19DF8000038709DF801007870BF
:105340009DF80200B8709DF80300F87010999DF860
:10535000040008809DF8051001EB002010990880DA
:105360009DF806009DF807105BE02A462046049948
:1053700001F06BFAB3E72AE039F814004D4630BB70
:1053800002226946204601F060FA30464021FDF7CE
:10539000FDFB3046FDF794FB0028FAD19DF8000094
:1053A0009DF801106FF0010202EB0020084480B26A
:1053B00040F2EA5125F81400884206D92046FEF74B
:1053C00071F96FF47A7035E702E00AF804B003E08F
:1053D00039F814004D4630B135F814504046454573
:1053E000C3D90546C1E706226946204601F02DFAD9
:1053F00030464021FDF7CAFB3046FDF761FB00282F
:10540000FAD19DF8000038709DF8010078709DF881
:105410000200B8709DF80300F8709DF804009DF834
:10542000051001EB002025F81400CEE7FC48002011
:105430006001002010B5084B064C5C62074C9C6272
:10544000074CDC6200B1586201B19962002A00D0B9
:10545000DA6210BD093D0008700100205D3D0008C2
:10546000393D0008054A18B111B1C2E9020170477F
:10547000034890600348D060704700003801002066
:10548000736900087B690008054A18B111B1C2E9C7
:1054900004017047034810610348506170470000E1
:1054A000380100209169000885690008074A10B595
:1054B00013889C05FDD518B111B1C2E9060110BDD4
:1054C000034890610348D06110BD000038010020FE
:1054D000996B0008A16B000803480021C1610122FB
:1054E0000262417070470000700100202DE9F05FFA
:1054F00015468B460646082803D94FF0FF30BDE815
:10550000F09F700101240830FDF7DAFA00F00F0077
:10551000012801D0A01FF2E775B14FF4427000EBF3
:1055200046100746FDF7CCFA6FF0060A172806D09A
:105530001C2804D05046E2E76FF00D00DFE7DFF8EB
:10554000C480B440B8F80400044213D04FF4027091
:1055500000EB46108146FDF7B3FA00F01F00C106CC
:1055600024D548461021FDF711FBB8F80410A143DB
:10557000A8F8041041F6087000EB4610FDF7A0FAF9
:105580004FF6FF7101EA8020854200D9054630467A
:10559000FEF762FD81463846FDF792FA17280DD0D6
:1055A0001C280BD03046FEF77DF8C3E700070BD56B
:1055B0003046FEF777F86FF00C00A0E7B8F802006D
:1055C000044203D04D4501D9002098E74D45DED86F
:1055D0002A465946304601F089F94FF4847000EBB1
:1055E000461006462021FDF7D1FA3046FDF768FA4D
:1055F0000028FAD1B8F8041028460C43A8F8044053
:105600007DE70000600100201CB5FEF7B3FF3D48B8
:1056100000213D22806B4FF49C738172C172352151
:1056200080F8F010012180F8F110042180F8F210C8
:10563000072180F8F32080F8F410012180F8F5109C
:1056400030493C310A7880F8F6204A7880F8F72013
:105650008A7880F8F820CA7880F8F9200A7980F8EA
:10566000FA20497980F8FB10322180F8FC100421DF
:1056700080F8FD102349C91D097880F8FE102149E2
:10568000C91D497880F8FF101E49C91D897880F826
:1056900000111C49C91DC97880F80111362180F814
:1056A0000211042180F80311164930310A7880F87C
:1056B00004214A7880F805218A7880F80621C97883
:1056C00080F80711FF2180F808111D2100224418DD
:1056D000491C84F8EC209942F9DBFF208DF8040086
:1056E0008DF805008DF806008DF807004320009026
:1056F000044801AB4FF40972816B807800F004FA22
:105700001CBD0000700100202DE9FC47FEF732FFB0
:10571000584C35210126A06B04F13C052A4680F83F
:10572000F01080F8F16080F8F2603D2180F8F3100D
:10573000072180F8F41080F8F560297880F8F610D9
:1057400029460023497880F8F710927880F8F820ED
:105750002A460C21D27880F8F9202A464FF0060913
:10576000127980F8FA202A464FF00F0A527980F811
:10577000FB2080F8FC10122280F8FD301946AF1D86
:1057800008E000BF00EB0208521C491C88F8ECC07E
:1057900092B289B217F801C0BCF1000FF2D1A06B30
:1057A000EF7800EB020C521C8CF8EC7092B200EB1C
:1057B000020C2F798CF8EC70521C92B287186D791C
:1057C00087F8EC50521C92B2CD1C511A0844372174
:1057D00080F8E850A06B8518521C85F8EC1091B247
:1057E0004518491C85F8EC9089B24518491C85F884
:1057F000EC6089B246180325491C86F8EC5089B242
:105800004518491C85F8EC9089B24518491C85F863
:10581000ECA089B245183A2285F8EC20491C89B2DF
:1058200045183B2285F8EC20491C89B2FF22451817
:10583000491C85F8EC2089B24FF49C7504E04618A9
:10584000491C86F8EC3089B2A942F8D38DF80420BF
:105850008DF805208DF806208DF807204320009054
:1058600001AB4FF40972A078A16B00F04DF9BDE8CF
:10587000FC870000700100202DE9FC5FFEF77AFE36
:10588000DFF880C2FF270CF107029CF90000002519
:1058900002F12904032841D004283FD08DF8047078
:1058A0008DF805708DF806708DF80770DCF83800FB
:1058B0003521012680F8F01080F8F1604FF00309DF
:1058C00080F8F2903D2180F8F3108E4B072180F88C
:1058D000F4103C3380F8F560197880F8F61019461A
:1058E0004FF00C0A497880F8F71019464FF00F0B6B
:1058F000897880F8F8101946C97880F8F9101946A7
:10590000097980F8FA101946497980F8FB109DF85A
:1059100007801021B8F1FF0F19D03FE0DCF8380004
:105920008572C572117801735178417391788173D2
:10593000D178C17320788DF8040060788DF8050067
:10594000A0788DF80600E0788DF80700AEE73221E8
:1059500080F8FC10042180F8FD1092F8008080F897
:10596000FE8092F8018080F8FF8092F8028080F833
:105970000081D27880F80121362280F8022180F857
:105980000311217880F80411617880F80511A1785D
:1059900080F80611E17880F807111C21524644185E
:1059A000491C84F8EC204218E24682F8EC50DFF8FB
:1059B00054C100220CF1420C491C06E000EB010826
:1059C000491C88F8EC4089B2521C1CF80240002C9B
:1059D000F4D1D8780009FCF791F8DAF838C05446C9
:1059E0008C44491C8CF8EC0089B2D878FCF786F816
:1059F000D4F838C08C44491C8CF8EC00187989B272
:105A00000009FCF77BF8D4F838C08C44491C8CF8AA
:105A1000EC0089B21879FCF771F8D4F838C08C44DE
:105A2000491C8CF8EC00587989B20009FCF766F83B
:105A3000D4F838C08C44491C8CF8EC0089B25879F1
:105A4000FCF75CF8A36B03EB010C491C8CF8EC0031
:105A500089B2901D8A1A1A4482F8E500A06B372299
:105A60004318491C83F8EC2089B243180822491CCA
:105A700083F8EC2089B24218491C89B2431882F895
:105A8000EC60491C83F8EC9089B24318062283F835
:105A9000EC20491C89B24318491C83F8ECB089B248
:105AA00043183A2283F8EC20491C89B243183B2260
:105AB00083F8EC20491C89B243181F2283F8EC209C
:105AC000491C89B243182122491C83F8EC2089B271
:105AD0004218491C82F8EC7089B24FF49C7203E0C2
