:020000040800F2
:1000000020420020FD0100089F140008EB130008A7
:100010009D140008810F00087D24000800000000E6
:100020000000000000000000000000006501000862
:100030005711000800000000A9010008E54300086E
:10004000130200081302000813020008130200083C
:10005000130200081302000813020008130200082C
:1000600013020008711100081302000813020008AF
:100070001302000813020008850F0008130200088D
:1000800013020008B10F0008130200081302000851
:1000900013020008130200081302000813020008EC
:1000A00013020008130200081302000813020008DC
:1000B0007D18000813020008D51800081302000874
:1000C00013020008130200081302000813020008BC
:1000D00013020008752000080D21000861210008A6
:1000E0005911000813020008130200081302000847
:1000F000130200081302000813020008130200088C
:10010000130200081302000813020008130200087B
:10011000130200081302000813020008130200086B
:10012000130200081302000813020008130200085B
:10013000130200081302000813020008130200084B
:10014000130200081302000813020008130200083B
:10015000DFF80CD000F052FD004800470D330008D6
:1001600020420020224B19680868B0E8F00F80F3A5
:100170000988BFF36F8F4FF0000080F311884EF0B5
:100180000D0E70470000000006480068006880F30C
:10019000088862B661B6BFF34F8FBFF36F8F00DF81
:1001A00000BF00BF08ED00E0EFF30980BFF36F8FE1
:1001B0000F4B1A6820E9F00F106008B54FF0BF0030
:1001C00080F31188BFF34F8FBFF36F8F04F094F863
:1001D0004FF0000080F31188BDE8084019680868F6
:1001E000B0E8F00F80F30988BFF36F8F704700BF4E
:1001F00018000020EFF30580704700000548004715
:10020000FEE7FEE7FEE7FEE7FEE7FEE7FEE7FEE7C6
:10021000FEE7FEE75101000840EA01039B0703D017
:1002200009E008C9121F08C0042AFAD203E011F835
:10023000013B00F8013B521EF9D27047D2B201E0F7
:1002400000F8012B491EFBD270470022F6E710B5DB
:1002500013460A4604461946FFF7F0FF204610BD34
:1002600030B505462A460B4612F8010B13F8014B30
:1002700008B1A042F8D01CB1002802D06D1CF1E7F3
:10028000284630BD421C10F8011B0029FBD1801A02
:100290007047034611F8012B00F8012B002AF9D111
:1002A000184670470FB400B58DB010A909900B9097
:1002B00000914FF0FF300A9000200C900548069006
:1002C000054807906A4609A80F9900F0A5FB0DB0F4
:1002D0005DF814FB350A0008530A00082DE9FF5F9A
:1002E0001D464FF0FF3BD5E9014691465F464FF072
:1002F0000008A9697F1C01988847296A82468847B7
:100300000028F6D1BAF1FF3F0CD024F4C064002ECF
:1003100019DD600614D5BAF12B0F09D0BAF12D0FF3
:100320000ED103E0584604B0BDE8F09F44F4806469
:10033000A9697F1C01988847761E8246002E02DD3F
:10034000BAF1300F03D0B9F1000F26D032E0A9691D
:10035000761E44F400747F1C019888478246002E64
:1003600005DDBAF1780F06D0BAF1580F03D0B9F114
:10037000000F10D01EE0B9F1000F02D0B9F1100F3C
:1003800018D1A969761E24F400747F1C019888474F
:100390008246102002E0082000E00A20814609E0A1
:1003A00008FB0908A969761E44F400747F1C0198B3
:1003B00088478246002E05DD4946504600F018FB6E
:1003C0000028EDDAE96901988847A00502D46FF0AA
:1003D0000100A8E7E00725D1600613D5600502D526
:1003E000C8F1000000E0404629680A1D2A6009683B
:1003F000220501D5087015E0220701D5088011E01B
:1004000008600FE02868011D29600068210502D5F9
:1004100080F8008006E0210702D5A0F8008001E006
:10042000C0F8008038467EE72DE9FF5FD2E901A7DA
:100430004FF00008916999461446DDF838B04646F9
:1004400001988847054659EA0B0005D009E0A169E3
:10045000761C019888470546216A28468847002867
:10046000F5D1681C03D05FEACA7005D015E04FF0E3
:10047000FF3004B0BDE8F09F2068011D2160D0F876
:1004800000800AE05FEACA7001D108F8015BA16947
:10049000761C7F1E019888470546002F1ADD681CD0
:1004A00018D0B9F1000F0DD0E81705EBD06042115C
:1004B00020F01F0059F822102A1A01209040014212
:1004C000E0D107E0BBF1000FDCD1216A2846884764
:1004D0000028D7D0E16901988847BBF1000F07D108
:1004E000002E05DD5FEACA7002D1002188F80010F5
:1004F000A068B84203DDBBF1000F03D017B16FF065
:100500000100B6E73046B4E780EA010210B502F018
:100510000043400022D04A001FD0010E01EB1261BF
:10052000C0F35600C2F3560240F4000042F4000249
:10053000A0FB022000047F39140400D0401C50EAC4
:10054000124001D44000491EC2B20C0604EBD01088
:10055000401C4008802A02D003E0002010BD20F09B
:100560000100002900DA0020184310BD2DE9FE4FDC
:10057000804681EA0300C00F0C46009021F0004144
:1005800023F00045B8EB0200A94105D240462146C0
:1005900090461C460B46024623F00040104347D0CD
:1005A000270DC7F30A00C3F30A510290401A0190C5
:1005B00040286BDAC3F3130040F4801B0098924686
:1005C00020B10023D2EB030A63EB0B0B01985946D1
:1005D000C0F14002504600F0DAF906460D4650469A
:1005E0005946019A00F0F2F910EB0800614100242D
:1005F00087EA115284EAE7731A4340D0009A62B343
:10060000019A012A4FEA075215DC001B61EB020137
:100610004FF0004202EA0752CDE90042001C41F5CA
:10062000801132462B4600F06BFA03B0BDE8F08F24
:1006300040462146F9E7001B61EB0201001C41F531
:10064000801300185B412018A2F5001747EB030147
:1006500040EAD570B6196D4111E06D084FEA3606D3
:1006600045EAC0754FEA0752001B61EB0201001C0E
:1006700041F5801149084FEA3000001951413246D6
:100680002B4603B0BDE8F04F00F02BBA00980122D2
:1006900040000023D0EB020263EBE0730098214698
:1006A0004FEAE074B8EB000061EB0401E9E783F086
:1006B00000435BE781F0004158E72DE9FE4F81EAF6
:1006C000030404F0004421F0004100944FF0000BBB
:1006D00023F0004350EA01045ED052EA03045BD0E9
:1006E000C3F30A54C1F30A552C44A4F2F334019421
:1006F000A0FB0254C1F3130141F48011C3F31303AF
:1007000043F4801301FB024400FB034E840A970A62
:1007100044EA815447EA8357A4FB076802958D0A8F
:1007200005FB07854FEA932C04FB0C542705029D1B
:100730004FEA065847EA1637B5EB08056EEB070C8B
:10074000870E920E47EA811742EA8312A7FB020145
:10075000B6EB0B0164EB00042B0D43EA0C335E187F
:1007600044EB1C50DA465146E7FB0201C5F3130483
:100770004FEA0B3343EA14534FEA0432019C43EA35
:100780000603A4F10C040294009CCDE900B400F02F
:10079000B7F903B0BDE8F08F00200146F9E72DE975
:1007A000F04D81EA030404F0004B21F000451446AB
:1007B0004FF0000A23F0004150EA050220D054EA2D
:1007C00001021DD0C5F30A570246C5F31303C1F356
:1007D0001300C1F30A5640F4801543F48013A7EBCD
:1007E0000608101BD64608F2FD3873EB050002D34D
:1007F00008F1010801E092185B41B8F1000F03DA3B
:1008000000200146BDE8F08D00204FF4801106461F
:1008100084460EE0171B73EB050705D3121B63EB31
:10082000050306434CEA010C49084FEA30009218D0
:100830005B4150EA0107EDD152EA030012D082EA8F
:10084000040083EA0501084305D0101BAB4106D222
:100850000122002306E000224FF0004302E06FF087
:10086000010253101AEB06004CEB085110EB0A0082
:1008700041EB0B01BDE8F04D00F033B996230022A7
:10088000114600F000B90EB540F23341029100214B
:10089000CDE900110A460B4600F032F903B000BD65
:1008A00020F00040C10DC0F3160040F400007F2985
:1008B00001DA00207047962903DCC1F19601C84097
:1008C000704796398840704701F0004330B421F0FA
:1008D000004150EA010206D00A0DA2F56072C1F390
:1008E0001301002A02DC30BC00207047440F44EAA8
:1008F000C104C100E01830BC00EBC25000F0BAB82F
:1009000030B50B46014600202022012409E021FADF
:1009100002F59D4205D303FA02F5491B04FA02F5DC
:100920002844151EA2F10102F1DC30BD2DE9F05F73
:100930000546002092469B4688460646814640244E
:100940001BE0284641464746224600F02FF8534612
:100950005A46C01A914110D311461846224600F05B
:1009600016F82D1A67EB01084F4622460120002198
:1009700000F00DF817EB00094E41201EA4F1010410
:10098000DFDC484631462A464346BDE8F09F202A30
:1009900004DB203A00FA02F1002070479140C2F1D6
:1009A000200320FA03F3194390407047202A04DB08
:1009B000203A21FA02F00021704721FA02F3D040D8
:1009C000C2F120029140084319467047202A06DBF5
:1009D000CB17203A41FA02F043EAE07306E041FA0D
:1009E00002F3D040C2F120029140084319467047FB
:1009F0003A2800D2303820F02002412A01D3A2F157
:100A00003700884201D34FF0FF307047026811442D
:100A10001378016018467047D16004495161044958
:100A2000116200211161114600F000B90D0A0008A1
:100A3000210C0008426842B1016811F8013B23B162
:100A4000521EC0E90012184670470121C160881E7D
:100A5000704742685AB1C368016843B983688B42E2
:100A600005D0491E521CC0E90012002070474FF00B
:100A7000FF3070470029A8BF7047401C490008BFDD
:100A800020F00100704710B4B0FA80FC00FA0CF0BE
:100A900050EA010404BF10BC704749B1CCF12004F6
:100AA00021FA04F411FA0CF118BF01212143084383
:100AB000A3EB0C01CB1D4FEA00614FEA102042BFAF
:100AC000002010BC704700EBC35010440029A4BFA5
:100AD00010BC7047401C490008BF20F0010010BC4A
:100AE000704710B5141E73F1000408DA401C41F180
:100AF000000192185B411A4301D120F0010010BDA2
:100B00002DE9F04D92469B4611B1B1FA81F202E017
:100B1000B0FA80F220329046FFF739FF04460F46C4
:100B200040EA0A0041EA0B0153465A46084313D0F3
:100B3000114653EA010019D0C8F140025046FFF7B0
:100B400035FF05460E46504659464246FFF71FFF01
:100B5000084305D0012004E020463946BDE8F08D69
:100B60000020054346EAE0762C4337430A986305A4
:100B7000E40AA0EB08000022FD0A44EA47540A30C8
:100B800002D500200146E9E7010510196941DDE9B8
:100B9000084500196941BDE8F04DA2E7C1F30A52CA
:100BA000C1F3130140F2FF3341F480119A4202DA9B
:100BB00000200146704740F233439A42A2F233428A
:100BC00002DC5242FFF7F2BEFFF7E1BE30B5041E71
:100BD00071F1000404DB4FF00044404264EB01017A
:100BE000141E73F1000405DB1C464FF00043524213
:100BF00063EB0403994208BF904230BD064C074D99
:100C000006E0E06840F0010394E8070098471034DC
:100C1000AC42F6D3FFF7A0FA8C500008AC500008A5
:100C2000C0B24FF4F05100F097B900002DE9F34F36
:100C30008BB04FF0000801F10C000C464FF0010B97
:100C400046460DF1080A019062690121019890471A
:100C5000051E2DD0252D2CD0216A8847C0B1626990
:100C6000012101989047216A88470028F7D1411E49
:100C700062690198904700E0761CA1690B9888474B
:100C8000216A88470028F7D1E1690B988847DBE79C
:100C9000A1690B9888470746A84201D1761CD3E783
:100CA000E1690B9888477F1C02D1B8F1000F6FD023
:100CB00046E1002762693D463946019890472A2857
:100CC00004D162690121019890470125DFF88492DF
:100CD0006269012101989047A0F130010A290AD2E6
:100CE0004F45E5DC07EB870100EB4107303FDFD4E0
:100CF00045F01005ECE7E90601D46FF000476C28D9
:100D00000AD04C2814D0682815D06A280DD0742831
:100D10001CD07A281AD01DE0626901210198904701
:100D20006C2802D045F0040514E045F002050DE002
:100D300045F020050AE06269012101989047682882
:100D400002D045F0080505E045F40065626901211F
:100D500001989047C4E9015765283DD019DC58280F
:100D60007AD00CDC452837D004DC252826D0412851
:100D700031D131E046282FD047282CD12CE05B28F8
:100D800077D0612828D063287CD0642823D15AE00A
:100D9000D0E06F2848D008DC66281DD067281BD01B
:100DA000692821D06E2816D127E0702845D07328F5
:100DB00068D0752847D078280DD14DE0A1690B98EF
:100DC0008847054625283FF469AFE1690B988847B5
:100DD0006D1C3FF46AAFB3E023466A466FF0010032
:100DE0000B99AFF300809EE045F040006060A807DB
:100DF00023464FF0000236D43EE0E8077FF447AFC9
:100E00002068011D21600068290501D506701BE7D7
:100E1000290701D5068017E7A90703D5F117C0E90F
:100E2000006111E706600FE745F040006060A80729
:100E300023464FF0080216D41EE040F60E0125EAC4
:100E40000100606016E045F040006060A80723469E
:100E50004FF00A0207D40FE045F040006060A80799
:100E600008D5234610226FF001000B99AFF30080E4
:100E700059E007E0234610226FF001000B99FFF7BD
:100E80002DFA50E04FF000094F464B46632802D040
:100E90005B2806D040E0E80601D40120A0600127CD
:100EA0003AE062690121019890475E2805D14FF030
:100EB00001096269494601989047216939B90021C1
:100EC0000A46534643F82120491C0829FADBB0B3EF
:100ED000216969B9C11700EBD16253110AEB830193
:100EE00022F01F02821A01200B68904003430B601E
:100EF00062690121019890475D28E8D1B9F1000F9E
:100F000009D00020514651F82020D24341F820203A
:100F1000401C0828F7DB02AB224600976FF0010067
:100F20000B99FFF781FA00280CDA401C08D1BBF1BD
:100F3000000F05D04FF0FF300DB0BDE8F08FFFE798
:100F40004046F9E7E90701D108F1010806444FF0EE
:100F5000000B79E6CCCCCC0C7F2801D9002208E02C
:100F6000064A02EB5002C007127800D1120902F0C3
:100F70000F02012090400840704700004C500008CC
:100F8000FEE7000010B54FF40054204600F0ACF826
:100F9000012809D1204600F019F8044800214068D2
:100FA000BDE8104003F0AABB10BD0000A000002067
:100FB00010B54FF00074204600F096F8012804D1D7
:100FC0002046BDE8104000F001B810BDC10002D5B8
:100FD00002490860704702494860704704040240B3
:100FE000000002400029016802D041F0010102E046
:100FF0004FF6FE72114001607047000001684FF625
:10100000FE72114001600021016041608160C16099
:101010003149314A0839904203D1486840F00F0005
:1010200006E02D4A1432904204D1486840F0F000A6
:1010300048607047284A2832904203D1486840F4FB
:101040007060F5E7244A3C32904203D1486840F48E
:101050007040EDE7204A5032904203D1486840F496
:101060007020E5E71C4A6432904203D1486840F49E
:101070007000DDE7184A7832904203D1486840F0AA
:101080007060D5E7154A111F904203D1086840F0FF
:101090000F0006E0114A1432904204D1086840F073
:1010A000F000086070470D4A2832904203D108686A
:1010B00040F47060F5E7094A3C32904203D1086879
:1010C00040F47040EDE7054A50329042EAD108689A
:1010D00040F47020E5E700000800024008040240E8
:1010E000406880B27047000001460020CA0001D568
:1010F000034A00E0034A12680A4200D00120704708
:101100000004024000000240002A026801D00A43A5
:1011100000E08A430260704730B5036847F6F0721A
:1011200093430C6A8A682243D1E904452C43224345
:101130008C692243CC6922434C6A22438C6A224345
:101140001A430260CA6842600A6882604968C160E6
:1011500030BD41607047704710B5082000F014F8AA
:10116000BDE81040014800F09FBA0000C800002010
:1011700010B5082000F008F8BDE81040014800F064
:1011800093BA0000C80000200149086070470000C1
:10119000140401400149C86070470000002002406B
:1011A00070B505464FF43026304600F059F8042853
:1011B00011D1094C206940F002002061656120696D
:1011C00040F040002061304600F04AF8216941F6C5
:1011D000FD721140216170BD0020024008490420C9
:1011E000CA68D20701D001207047CA68520701D5EA
:1011F00002207047C968C906FBD50320704700006C
:10120000002002400248016941F0800101617047FD
:1012100000200240F0B506464FF400570D46384610
:1012200000F01EF804280CD1064C206940F00100A3
:1012300020613580384600F013F82169BA1E11404C
:101240002161F0BD0020024003480249416003498A
:10125000416070472301674500200240AB89EFCD14
:1012600000B50346FFF7BAFF03E000BFFFF7B6FF84
:101270005B1E012803D0002B00D1052000BD002BF0
:10128000F4D1FAE710B50446FFF7DEFF3420FFF78C
:1012900081FF2046FFF784FFBDE81040FFF7B2BF93
:1012A00070472DE9F04115460E460746FFF7CCFF83
:1012B0003420FFF76FFF002407E036F8141007EB27
:1012C0004400FFF7A7FF641CE4B2AC42F5D3BDE8CD
:1012D000F041FFF797BF0000F0B5CA78002502F093
:1012E0000F03D20601D58A7813430A784FF00F0E08
:1012F00012F0FF0F4FF001021CD004680F8802FAB1
:1013000005F63740B74211D14FEA850C0EFA0CF7BB
:1013100024EA070703FA0CF43C43CF78282F02D0C5
:10132000482F02D002E0466100E006616D1C082DE6
:10133000E4D304600C88FF2C1ED944685FF00006DB
:1013400006F1080702FA07F50F882F40AF420FD1C8
:101350004FEA860C0EFA0CF7BC4303FA0CF73C4339
:10136000CF78282F00D14561CF78482F00D1056173
:10137000761C082EE4D34460F0BD0000F0B5144C98
:10138000002801DAE36900E06368420D120185B2CA
:10139000C0F301579540C0F30346032F05D0C202A6
:1013A0000AD50322B240934307E023F070626368DA
:1013B00023F07063636002E0AB4343F0706201B1FD
:1013C0002A43002801DAE261F0BD6260F0BD00004E
:1013D000000001400246002092680A4200D001202D
:1013E00070474161704701617047FEE70AA000F055
:1013F000E3FF104C4FF4807529462046FFF7F3FFBA
:10140000642002F0CDFD29462046FFF7EAFF642064
:1014100002F0C6FDF0E70000596F7520617265208B
:10142000696E207461736B202D2D2D204C45442056
:101430000D0A0000000C014006484178C94311F034
:10144000FF01417004484FF0200101D0FFF7C9BFF0
:10145000FFF7C9BF08000020000C014038B501218A
:10146000082000F071F810208DF803004FF4907000
:10147000ADF800000320084C8DF8020069462046B4
:10148000FFF72AFF20212046FFF7ABFFA1152046DA
:10149000FFF7A9FF38BD0000000C0140FEE77047D0
:1014A00070B50F23C47801780122F4B1144C24687C
:1014B000457804F4E064C4F5E064240AC4F1040649
:1014C000E3408478B5401C402C4301F1E021230126
:1014D00081F80034007800F01F018A404009800044
:1014E00000F1E020C0F8002170BD01F01F00824033
:1014F0004809800000F1E020C0F8802170BD0000A4
:101500000CED00E002490843024908607047000002
:101510000000FA050CED00E0044A0029516901D0F1
:10152000014300E081435161704700000010024018
:10153000044A0029D16901D0014300E08143D1610F
:101540007047000000100240044A0029916901D050
:10155000014300E0814391617047000000100240A8
:10156000F0B52C4A51682C4B11F00C014FF00F05CF
:1015700004D02A4C042903D0082903D0036028E0B2
:10158000046026E05168536805EA914103F4803312
:101590000D2901D0891C00E00621BBB1D36A13F4E8
:1015A000803FD36A03F00F0303F101030AD0D66A28
:1015B000D76AC6F30316761CB4FBF6F4C7F3032709
:1015C000BF1C7C43B4FBF3F34B43D7E7144B5943A5
:1015D00001605168134C05EA1111635C0168D94040
:1015E00041605368072505EA1323E35C21FA03F3FE
:1015F0008360536805EAD323E35CD940C160526835
:10160000032303EA9232231F9A5CB1FBF2F10161DA
:10161000F0BD00000010024000127A0040787D0109
:1016200000093D00900000200246002012890A4275
:1016300000D0012070478089704781817047000089
:1016400070B50D46012803D0022813D0002070BDCC
:10165000134C02212046FFF7E7FF0028F9D0294666
:101660002046FFF7EAFF01212046FFF7DDFF0028B3
:10167000F9D010E00B4C02212046FFF7D5FF0028DF
:10168000F9D029462046FFF7D8FF01212046FFF771
:10169000CBFF0028F9D02046FFF7CDFFC0B270BDC8
:1016A000003001400038004090F84010032908D075
:1016B000072903D00B2904D100F034B8082180F8A1
:1016C0004010704704210148FFF784BE001001401C
:1016D00013B5012201A900F001F81CBD2DE9F04766
:1016E000DFF83C900E4607464FF48048154600242C
:1016F00041464846FFF775FE47F080010120FFF79D
:101700009FFF05E0315D0120FFF79AFF641CE4B202
:10171000AC42F7D341464846BDE8F047FFF763BE09
:101720000018014010B5044604211220FFF7D0FF35
:10173000002084F84000FFF7C5FF012801D00220F7
:1017400010BD01211220FFF7C3FF012010BD0000D2
:101750000CB500212E4801910091026842F48032BC
:1017600002604FF4A063026802F400320092019A12
:10177000521C0192009A12B9019A9A42F3D102685E
:10178000920342D50121009122490A6842F01002D9
:101790000A600A6822F003020A600A6842F0020244
:1017A0000A604168416041684160416841F480617C
:1017B0004160C16A184A1140C162C16A174A1143A7
:1017C000C162016841F08061016001680901FCD5D6
:1017D000416821F47C114160416841F4E8114160A5
:1017E000016841F08071016001688901FCD54168A0
:1017F00021F003014160416841F00201416041680C
:10180000C1F381010229FAD10CBD00910CBD000089
:10181000001002400020024000F0FEFF44060100DC
:10182000124810B5016841F0010101604168104A99
:101830001140416001680F4A11400160016821F4C4
:1018400080210160416821F4FE014160016821F0BE
:10185000A05101604FF47F0181600021C162FFF758
:1018600077FF05494FF00060086010BD001002408E
:101870000000FFF0FFFFF6FE08ED00E010B50121CB
:101880008C07204600F08AF800280AD00121204663
:1018900000F066F806494878022803D24878401CD0
:1018A000487010BD2046BDE81040002100F05EB831
:1018B000B400002010B5064C00216170401F80B2BA
:1018C000482100F0E7F960780228FCD110BD000043
:1018D000B400002070B51A4D1021284600F05EF8C3
:1018E000184C10B3284600F056F8608010212846A6
:1018F00000F036F869151448FFF76CFD10492031E7
:101900000028088802D040F4005001E020F4005084
:10191000088001202070A0686188428800EB4202A4
:1019200091804188491C418070BD0121284600F00A
:1019300017F820780128F7D10220207070BD000030
:1019400000080040B4000020000C0140002901887C
:1019500002D041F0800101E021F080010180704758
:10196000C94301827047C943018270470029018839
:1019700002D041F0010101E021F001010180704736
:10198000002930F8441F02D041F4004101E0C1F3C6
:101990000E0101807047B0F84000704702460020F9
:1019A000138A92890B4202EA010202D0002A00D077
:1019B00001207047002A828901D00A4300E08A434F
:1019C0008281704730B5028C22F001020284028CC1
:1019D0008388048B22F0020224F073050C882C43C8
:1019E0000D8915434A882A43114DA8420BD0114D49
:1019F000A84208D0104DA84205D0104DA84202D0F0
:101A00000F4DA8420DD122F008054A8923F44073F6
:101A10002A4322F004058A882A438D891D43CB89F5
:101A20002B4383800483C9888186028430BD0000F3
:101A3000002C0140003401400040014000440140BE
:101A400000480140028B22F008020A4302837047DB
:101A500070B5028C22F010020284028C8488038B01
:101A60000D8823F4E6464FF6FF7303EA0525354358
:101A70000E8922F0200203EA061616434A8803EA7A
:101A800002123243104EB04202D0104EB04215D175
:101A900022F080064A8924F4406403EA02123243A9
:101AA00022F040068A8803EA021232438E8903EA52
:101AB00086062643CC8903EA840434438480058364
:101AC000C9880187028470BD002C014000340140A8
:101AD000028B4FF6FF7322F4006203EA01211143E7
:101AE0000183704770B5028C22F480720284028CEC
:101AF0008488838B0D8823F073031D4322F40073C5
:101B00000E894FF6FF7202EA06261E434B8802EA50
:101B100003233343104EB04202D0104EB04215D1D1
:101B200023F400664B8924F4405402EA0323334330
:101B300023F480668B8802EA032333438E8902EA0A
:101B400006162643CC8902EA041434438480858334
:101B5000C9888187038470BD002C01400034014096
:101B6000828B22F008020A438283704770B5028C90
:101B700022F480520284048C8288838B0D8823F4A3
:101B8000E6464FF6FF7303EA0525354324F4005675
:101B90000C8903EA043434434E8803EA06362643AC
:101BA000094CA04202D0094CA04205D122F4804445
:101BB0008A8903EA8212224382808583C988A0F839
:101BC0004010068470BD0000002C0140003401402C
:101BD000828B4FF6FF7322F4006203EA0121114366
:101BE000818370478186704701877047818770477E
:101BF000A0F840107047000030B502881B4B1C4C09
:101C000098420DD0A0420BD0B0F1804F08D0194DB2
:101C1000A84205D0184DA84202D0184DA84203D1C1
:101C200022F070054A882A43154DA84206D0154D6A
:101C3000A84203D022F44075CA882A4302808A88C9
:101C400082850A88028598420AD0A04208D00E4AAE
:101C5000904205D00D4A904202D00D4A904201D1E7
:101C6000097A01860121818230BD0000002C0140EB
:101C7000003401400004004000080040000C004017
:101C800000100040001400400040014000440140AA
:101C9000004801407FB50C46054601210846FFF784
:101CA00047FC641EADF800400020ADF80450ADF8CC
:101CB0000600ADF802004FF0804469462046FFF769
:101CC0009BFF1C208DF80C0005208DF80D000320D3
:101CD0008DF80E0001208DF80F0003A8FFF7E0FB40
:101CE00001212046FFF73CFE01212046FFF73BFE85
:101CF000012211462046FFF75DFE01212046FFF735
:101D000035FE7FBD10B500210448FFF72FFE0021EE
:101D1000BDE810400220FFF70BBC000000040040AB
:101D2000F0B50446344889B00D46446001210220D4
:101D3000FFF7FEFB01210C20FFF706FCC020ADF8E9
:101D40001C0018208DF81F0003268DF81E6007A9BF
:101D50002A48FFF7C1FAADF81C6007A92848FFF729
:101D6000BBFA6D1E601EADF81050ADF814000025D2
:101D7000244FADF81650ADF8125004A93846FFF7BD
:101D80003BFF6020ADF800000120ADF80200B4FB7D
:101D9000F6F0401EADF80600ADF80850694638462A
:101DA000FFF710FE08213846FFF74CFE694638461B
:101DB000FFF74EFE08213846FFF78AFE694638468F
:101DC000FFF790FE08213846FFF7CAFE69463846FD
:101DD000FFF7CCFE08213846FFF7FAFE012138460E
:101DE000FFF7CEFD01213846FFF7B0FD012138464F
:101DF000FFF7BCFD09B0F0BDB400002000080140B1
:101E0000000C014000040040F8B5102103268DF8B5
:101E10000310244D8DF8026001281CD0022823D025
:101E2000214C03282CD0042833D0002827D1C020EF
:101E3000ADF8000069462846FFF74EFAADF800609D
:101E400069462046FFF748FAC0212846FFF7C9FA3D
:101E50000321204611E04020ADF8000069462846E5
:101E6000FFF73AFA402107E08020ADF8000069460C
:101E70002846FFF731FA80212846FFF7B2FAF8BD6D
:101E80000120ADF8000069462046FFF725FA012140
:101E9000DFE70220ADF8000069462046FFF71CFA94
:101EA0000221D6E700080140000C014038B5182196
:101EB0008DF803100321144C8DF80210012810D066
:101EC000022810D0114A032815D0042815D0002864
:101ED00010D1ADF8001069461046FFF7FDF9C0209B
:101EE00002E0402000E08020ADF800006946204676
:101EF000FFF7F2F938BD012000E00220ADF8000044
:101F000069461046F4E7000000080140000C01405B
:101F10002DE9F04105461F480C464FF0FF3681423F
:101F200035DA14F1FF4F32D21B484068FEF7A6FCA9
:101F30002146FEF7E9FAFEF7B3FC84B21748052DF7
:101F400025D2DFE805F01103070B0F002146FFF74C
:101F500049FE19E02146FFF747FE15E02146FFF74D
:101F600045FE11E021460DE021460746FFF73AFE07
:101F700021463846FFF738FE21463846FFF736FE41
:101F800021463846FFF734FE0020BDE8F081304698
:101F9000FBE7000077BE7F3FB40000200004004054
:101FA0002DE9F0478CB02C216846FEF74EF900244D
:101FB0000E200B948DF82C000D208DF82D008DF83F
:101FC0002E4001208DF82F000BA8FFF769FA0121A0
:101FD0000846FFF7A1FADFF890A05046FFF70EF889
:101FE000234E224D00953069019010200290C827A1
:101FF000CDE903744FF08008CDE905844FF4005912
:10200000CDE908490794694650460A94FFF784F8D9
:1020100001215046FEF7E6FF012202215046FFF75C
:1020200073F8DFF844A00AF1140A5046FEF7E6FF01
:10203000009501A9F06881E89100CDE90448CDE957
:10204000084906940794694650460A94FFF764F8D5
:1020500001215046FEF7C6FF01224021281F00F053
:1020600090F80CB0BDE8F08744000240043801400D
:10207000A0000020F8B5204D40F2244739462846FC
:1020800000F08EF8012835D11C4C00212046FEF7C7
:10209000A9FF2888281D00882046FFF721F8D0F1E5
:1020A000C80115D0164E1748491CF26800F0E8F92F
:1020B000012000906946B06801F0FCFF009838B13B
:1020C00011494FF080500860BFF34F8FBFF36F8FFF
:1020D0004FF48030FEF77AFF3946284600F041F889
:1020E000C8212046FFF735F82046BDE8F840012119
:1020F000FEF778BFF8BD00000038014058000240EC
:10210000A0000020903E002004ED00E010B5114C2E
:1021100040F22551204600F043F8002818D0204610
:1021200000F0CCF8C1B20C480388C268D1540288D0
:102130000023521C92B20280C62A00D10380074CB1
:102140004288A154521C91B24180C62900D34380D9
:1021500010BD000000440040A0000020583F0020B7
:1021600070470A0A01219140C94301807047002944
:10217000818902D041F4005101E021F400518181B4
:102180007047002A828A01D00A4300E08A43828293
:1021900070470246002012880A4200D00120704792
:1021A00030B501F01F0201240025C1F3421304FAE7
:1021B00002F2012B0FD0022B0FD0838A4FEA11219C
:1021C0000088134204FA01F400EA040001D000B1CF
:1021D0000125284630BD8389F0E7038AEEE710B574
:1021E000C1F3421301F01F040121A140012B07D0CC
:1021F000022B07D01430002A026805D00A4304E0FD
:102200000C30F8E71030F6E78A43026010BD00009A
:1022100030B50446008A85B00D464CF6FF71084083
:10222000E98801432182A1894EF6F3100140A88874
:102230002A8910436A890A431043A081A08A4FF675
:10224000FF410840A9890143A1826846FFF788F948
:102250001948844201D1039800E00298A189090439
:1022600000EBC00101EB0010296801D5490000E036
:102270008900B0FBF1F06422B0FBF2F109010B0917
:102280006FF018056B4300EB8300A3891D044FF02A
:10229000320306D503EBC000B0FBF2F000F00700FC
:1022A00005E003EB0010B0FBF2F000F00F00084374
:1022B000208105B030BD0000003801408088C0F3A7
:1022C00008007047F0B587B00024074600940494D6
:1022D000019402940394012144F209000594FFF74C
:1022E00033F901210420FFF749F84020ADF8100030
:1022F00003258DF8125018202C4E8DF8130004A9D8
:102300003046FEF7E9FF8020ADF8100004208DF87C
:10231000130004A93046FEF7DFFF25208DF81400D6
:102320000C268DF815608DF8165001208DF81700D9
:1023300005A8FFF7B5F8ADF80440ADF808400097E0
:10234000ADF80640ADF80C40ADF80A60C82001F0C9
:10235000BFFB174CE060C82001F0BAFB206110B150
:10236000C821FDF772FFE06810B1C821FDF76DFFCD
:10237000FFF716FE0F4D69462846FFF749FF012279
:1023800040F224412846FFF72AFF01212846FFF7A3
:10239000EEFE03220021012002F03AF800231A4643
:1023A0001946606002F09CF807B0F0BD000C0140D7
:1023B000A00000200038014070B5144C06464FF0D4
:1023C000FF31606802F084FA114D40212846FFF782
:1023D000E0FE0028F9D031462069FDF75AFF0D4C88
:1023E00000212046FEF7FEFD3046FDF74BFF81B28F
:1023F0002046FEF7AEFE01212046FEF7F3FD2846FB
:10240000BDE8704001228021FFF7BBBEA000002084
:102410000038014044000240054602F0EBFB0D4944
:102420004FF0FF3408602146012001F085FC014691
:1024300001280AD002D908A001F04CFC0023022296
:102440001946284602F066FBEDE70B48FFF7B4FF9C
:10245000F4E70000A800002053656E6420746F6FDD
:1024600020666173742C206F766572666C6F773AA4
:102470002025640A00000000903E0020FEE70000D6
:102480000FB41CB50246002007AC00290BD0491E32
:10249000CDE90021054B6A462146069800F0ECF88C
:1024A000009A002111701CBC5DF814FBA72D0008D8
:1024B00037B514460846064B6A46214600F0DCF85C
:1024C00004466946002000F079FC20463EBD00002D
:1024D000BD2D000802E008C8121F08C1002AFAD169
:1024E00070477047002001E001C1121F002AFBD194
:1024F000704700002DE9FF5F82B00021DDE9043064
:10250000020DDDF840B0034318D044F61050A2F29B
:10251000FF3242431514119801281FD0A5EB0B0080
:10252000401C5FEA000A4FF000064E4FDFF838917A
:10253000B046504615D5CAF1000413E011980124A5
:102540004AA3012801D16FEA0B010298119AC0E950
:102550000031C0E9024206B0BDE8F09FCBF10000B7
:10256000DFE704460021404A491842EB0450CDE918
:10257000001012E0E00707D032463B46404649468D
:10258000FEF79BF88046894632463B461046194680
:10259000FEF793F806460F466410002CEAD1DDE9F9
:1025A0000401DDE90023BAF1000F06DAFEF785F831
:1025B00042464B46FEF781F805E0FEF7F0F842464A
:1025C0004B46FEF7ECF804460E460022284BFEF779
:1025D000FDFA03D84FF0FF30014607E00022254BFB
:1025E00020463146FDF7C2FFFEF7D8FA102409E075
:1025F000002C0ADB0A220023FEF798F9039B3032F5
:102600001A55641E50EA0102F2D1641C039AC4F107
:1026100011031444119A012A03D0012208430DD159
:102620000AE0084304D000204FF0110B119072E72C
:10263000A3EB0B056D1E0DE05B4504DD4FF00002C2
:1026400005F1010504E003DA4FF00002A5F10105F0
:10265000002AECD002981199C0E90231C0E9004586
:1026600079E70000000014400000F03F3000000057
:102670000000F0430000E03F2DE9FF4F95B09B467E
:102680008946064600250FE2252877D100242746F3
:10269000F84A0121059400E0044316F8013F203B6D
:1026A00001FA03F01042F7D130782A2811D06FF0E8
:1026B0002F033078A0F13002092A16D8059A44F089
:1026C000020402EB820203EB42021044761C0590E6
:1026D000EFE759F8042B0592002A03DA504244F43C
:1026E0000054059044F00204761C30782E2816D150
:1026F00016F8010F44F004042A280DD06FF02F02C1
:102700003078A0F13003092B09D807EB870302EBDF
:102710004303C718761CF3E759F8047B761C30781E
:102720006C280FD006DC4C2817D068280DD06A28FA
:1027300014D104E0742810D07A280FD10DE044F4AD
:1027400000140AE044F4801401E044F44014727868
:10275000824202D104F58014761C761C30786628FB
:102760000BD013DC582877D009DC002875D0452819
:10277000F6D04628F4D047281AD19DE118E0632806
:1027800035D0642879D0652812D195E1702873D0AE
:1027900008DC6728F1D069286FD06E280DD06F282B
:1027A00006D1B5E073282CD0752875D0782874D060
:1027B0005A46179990476D1C75E1C4F302500228E0
:1027C00009D003280DD0D9F8001004280DD00D60D1
:1027D00009F1040967E1D9F80010EA17C1E90052CC
:1027E000F6E7D9F800100D80F2E70D70F0E719F860
:1027F000041B8DF8001000208DF80100EA4601202E
:1028000003E059F804AB4FF0FF3061074FF00001CF
:1028100002D40DE008F101018846B9420FDA804583
:10282000F8DB1AF808100029F4D108E008F10101DA
:1028300088468142FADB1AF808100029F6D105987B
:102840005B46A0EB080721463846179A00F094FA39
:10285000284400EB080507E04DE029E10DE01AF8F7
:10286000010B5A4617999047B8F10108F7D25B4619
:1028700021463846179A13E142E00A220092C4F337
:1028800002524FF0000A022A08D059F804CB032A5A
:102890004FEAEC710AD00DE029E02AE009F10701C6
:1028A00021F00702F2E802C1914609E00FFA8CFC20
:1028B0004FEAEC71042A03D14FFA8CFC4FEAEC7119
:1028C000002907DA0A460021DCF1000C61EB020165
:1028D0002D2202E0220504D52B228DF804200122AE
:1028E00003E0E20701D02022F7E7904659E00A21F1
:1028F00002E010220DE010214FF0000A00910BE0E1
:1029000010224FF0000A44F004040827009203E06C
:1029100008224FF0000A0092C4F30252022A05D0A6
:1029200059F804CB0021032A08D009E009F1070176
:1029300021F00702F2E802C1914605E01FFA8CFC83
:10294000042A01D10CF0FF0C4FF00008220728D513
:10295000702806D0009B83F0100353EA0A0305D0C9
:102960000EE040228DF80420012208E05CEA01021A
:1029700006D030228DF804208DF805000222904602
:10298000009B83F0080353EA0A030AD15CEA0102C0
:1029900001D1620705D530228DF804204FF00108DF
:1029A0007F1E582804D034A003900EA802900DE09A
:1029B00036A0F9E753466046009AFDF7B7FF844614
:1029C0000398825C0298401E029002705CEA01004B
:1029D000F0D1029806A9081A00F1200A600702D572
:1029E00024F4803400E00127574502DDA7EB0A00FC
:1029F00000E0002000EB0A01009005984144401AD5
:102A00000590E00306D45B462146179A059800F02E
:102A1000B3F90544002706E001A85A46C05D17999E
:102A200090476D1C7F1C4745F6DBE0030CD55B46E9
:102A30002146179A059800F09FF9054404E03020DC
:102A40005A46179990476D1C0099481E009000291E
:102A5000F5DC08E0029802995A460078491C029178
:102A6000179990476D1CBAF10001AAF1010AF1DC37
:102A700065E1000009280100303132333435363742
:102A800038396162636465660000000030313233BA
:102A9000343536373839414243444546000000005A
:102AA00000F058F90544761C307800287FF4ECAD2E
:102AB00019B02846BDE8F08F620700D4062709F157
:102AC000070222F0070CFCE80223E14603F000486D
:102AD0005FEA080C02D00FF2702C0DE05FEA045C94
:102AE00002D50FF2682C07E05FEAC47C02D00FF237
:102AF000602C01E0AFF2700C4FF0FF3823F0004380
:102B0000CDF850C065280CD006DC452809D04628F1
:102B10001DD047283DD13DE0662818D067287ED1DA
:102B200038E00021112F01DB112000E0781CCDE9F5
:102B3000000106A90EA8FFF7DDFCDDE90F010E9AE2
:102B400003910021009207F1010A04914DE04FF03A
:102B500000400097CDE9011006A90EA8FFF7CAFCB6
:102B6000DDE90F0203920E9B11990022DDF80CA003
:102B70000093049211B9791C00EB010AB7EB0A002B
:102B800004D4C0F1FF3007F1010A0490AAEB07005A
:102B9000019044E0012F00DA01270021112F01DD0F
:102BA000112000E03846CDE9000106A90EA8FFF784
:102BB000A1FCDDE90F010E9A03910021049100921E
:102BC000BA4621070CD40399514500DA8A46BAF176
:102BD000010F05DD009AAAF10101515C302908D0EE
:102BE000B84202DA10F1040F06DA0121CDE9011032
:102BF00015E0AAF10101E9E7002805DC0499014488
:102C00000491AAEB000102E0411C514500DD8A4617
:102C10000499401A401C01904FF000400290200798
:102C200004D40198504501DBCDF8048000208DF8D4
:102C30004F0002980DF14F07B0F1004F25D02B2027
:102C40000E9002984FF0020800280CDA40420290E1
:102C50002D200E9007E00A210298FDF751FE303139
:102C6000029007F8011DB8F10001A8F10108F2DC9B
:102C700002980028EFD1791E0E980870307800F085
:102C8000200040F0450007F8020D12A8C01B00F11B
:102C900007081498007800B1012000EB0A010198A0
:102CA00001EBE07105984144401A401E0590E00395
:102CB00006D45B462146179A059800F05DF8054456
:102CC0001498007818B15A46179990476D1CE00384
:102CD00024D55B462146179A059800F04DF8054427
:102CE0001CE00498002807DBDDE90301884203DDCE
:102CF0000098405C179901E0179930205A46904798
:102D0000049805F10105401C04900198401E0190B3
:102D100004D12E205A46179990476D1CBAF1000134
:102D2000AAF1010ADDDC05E017F8010B5A461799F4
:102D300090476D1CB8F10001A8F10108F4DC5B4676
:102D40002146179A0598ABE62D0000002B000000E5
:102D5000200000002DE9F041044600251E461746DC
:102D6000880404D405E039462020B0476D1C641E59
:102D7000F9D52846BDE8F0812DE9F041044600254B
:102D80001E469046C80301D5302700E0202788045E
:102D900004D505E041463846B0476D1C641EF9D5A0
:102DA0002846BDE8F0814A68002A06D00A68531C0C
:102DB0000B6010704868401E486070470A68531CDA
:102DC0000B601070704700000EB5142000F080FEFC
:102DD000574D0026574C80464FF0FF3A05F1240727
:102DE0004FF0020902965146012000F0A5FF02AB08
:102DF000424651A15248FDF755FA52A14046FDF70F
:102E00002FFA60B1A06840B10298A86341463846E5
:102E1000FDF73FFAA068686478E04CA011E055A186
:102E20004046FDF71DFA78B1606848B126700298F7
:102E3000686141463E48FDF72CFA6068286265E00B
:102E40004DA000F047FFCEE755A14046FDF708FA38
:102E500028B30298012802D0606890B163E0A068AE
:102E6000002860D1606810B101F0C0F86660314997
:102E70003B460831CDE900914FF448724BA14F48D1
:102E80002CE0A06810B101F0B1F8A6602949284BE8
:102E9000091DCDE90091802249A14D481EE04DA1B8
:102EA0004046FDF7DDF9E0B102980128E0680BD05B
:102EB000002838D0FEF726FF49A0FFF77DFAE0682A
:102EC00001F094F8E6602EE028BB1A49184B0C314B
:102ED000CDE90091243B802248A14C4801F0EEFD51
:102EE00021E04BA14046FDF7BBF9C8B1E06898B1BD
:102EF000DFF83CB00299ABF1240B5846CBF8141024
:102F00004146FDF7C6F9E068CBF820000023022215
:102F1000194601F0FFFD06E040A0FFF74DFA62E719
:102F200047A0FFF749FAC8210548FDF78EF95AE78F
:102F300034010020080000202573202564000000D3
:102F4000903E00206C6561726E000000506C6561FF
:102F5000736520456E746572205243206C65617202
:102F60006E696E67206D6F64652066697273740D9B
:102F70000A00000075736500506C6561736520453B
:102F80006E7465722052432053656E64696E6720CB
:102F90006D6F64652066697273740D0A000000002D
:102FA00072656D6F74655F7365740000636F64654F
:102FB0005F6C6561726E696E67000000D130000859
:102FC000636F64655F73656E64696E67000000001F
:102FD0008D3200086D6F7465725F63746C00000061
:102FE00045786974205374656572696E6720456E13
:102FF00067696E65652043746C0D0A0053746565DE
:1030000072696E6720456E67696E6500E53B000872
:103010006D6F7465725F736574000000456E746552
:1030200072206D6F74657220636F6E74726F6C20A6
:103030006D6F64652066697273740D0A000000008C
:10304000496E76616C6964205461736B0D0A0000EF
:103050002DE9F041FEF724F91C4F05464FF4807628
:10306000002431463846FEF7BCF90020FEF7CCFEBE
:103070001FE0E007314638460CD0FEF7B2F90020D9
:10308000FEF7C2FE05EB4400C1888088814207D963
:10309000081A09E0FEF7A7F90020FEF707FFF1E79D
:1030A0004EF66022101A084480B2FEF703FC641C3E
:1030B000E4B26888401EA042DBDC31463846FEF7A9
:1030C00090F9BDE8F0410020FEF79EBE000C0140E3
:1030D00005468CB042A0FFF76FF94FF00009DFF80A
:1030E00028A14C4649468AF80090012000F024FEB1
:1030F000A84630216846FDF7A8F8444E6D46A0204A
:1031000000F0E6FC45F8240004EB840006EB4010D8
:10311000FEF7C6F855F824300146A0221846FDF700
:103120007BF8641C0C2CEADBDFF8E4B0002700BF5E
:103130004FF0FF31012000F0FFFDD8F814000C28FB
:1031400013D33046FEF79EF85FF0000404EB8400D2
:1031500055F8241006EB40105022FEF7A2F8641C2C
:10316000E4B20C2CF2D32BA027E031A0FFF724F916
:10317000DBF8001001223448A1F802901121FEF77B
:1031800019FC54462078022802D137B1012F06D00D
:103190000027322000F004FFF4E70127F9E70022BE
:1031A00011212948FEF706FC84F80090DBF80000A6
:1031B0005C464088032803D824A0FFF7FDF8B7E752
:1031C00029A0D8F8141000F085FD21684888420035
:1031D000D8F81400121D55F82000FDF71DF8A7E7D8
:1031E000596F752061726520696E207461736B2060
:1031F0002D2D2D20697264615F6C6561726E696E40
:1032000067200D0A00000000B400002000D0020872
:10321000BC000020536176696E67206B657920766B
:10322000616C756520746F20666C6173680D0A00AF
:103230005374617274205265636F7264696E672E95
:103240002E2E0D0A00000000000800406E6F69730A
:103250006520697320636F6D696E672E2E2E616223
:103260006F72740D0A0000007265636F72642073E0
:1032700075636365737320696E20636F64655F7344
:1032800065745B25645D0D0A0000000005460FA013
:10329000FFF792F80021012000F04EFD144F154C6D
:1032A0004FF0FF3801264146012000F045FD20780F
:1032B00030B9686900EB800007EB4010FFF7C8FEEB
:1032C0000DA0FFF779F82670EDE70000596F752023
:1032D00061726520696E207461736B202D2D2D2025
:1032E000697264615F73656E64696E670D0A0000E0
:1032F00000D002080800002053656E6420736967DF
:103300006E616C206F75740D0A0000001CB5FEF72D
:1033100087FA4FF44070FEF7F5F8FEF79FF84FF488
:10332000E130FEF7CFFF002502242B46802219A1B1
:103330001A48CDE9004501F0C1FB194E0023CDE943
:1033400000464FF44874224616A11A4801F0B6FB15
:1033500019490320CDE90001224618A11B48336812
:1033600001F0ACFB1A480090002301224FF4FA61EF
:1033700018A001F0EFFD040008D001F04FFC024658
:10338000002301212046009501F030FE00F074FF7B
:10339000FEE700004C45445F44310000ED13000897
:1033A00004000020436F6D6D616E6420536572767A
:1033B00065720000C92D00080000002055415254DC
:1033C000315F53656E646261636B0000192400080D
:1033D000391400084C45445F44325F74696D65726E
:1033E000000000002DE9F041184C0F460546E66844
:1033F0002068001D00F0D4FC38B9206890F82C102B
:1034000001208840216981432161681C07D137B1BF
:103410002168BDE8F0410E48091D00F0FABC2068A3
:103420003544B5424560216805D2A06BBDE8F04146
:10343000091D00F0D6BC606B091D00F0D2FCA06A2B
:10344000854200D2A562BDE8F0810000180000208E
:10345000540200202DE9F041054600F0E7FC2E4C17
:10346000A068401CA06020682C4F10B1606940B378
:103470002DE02560A068012829D1002606EB8600F2
:1034800007EB800000F09FFC761C052EF6D3234846
:10349000643000F098FC2148783000F094FC1F481C
:1034A0008C3000F090FC1D48A03000F08CFC1B48D4
:1034B000B43000F088FC1948643060631430A063B5
:1034C00005E02068E96AC06A884200D82560606A21
:1034D000401C6062E96A0120226988401043206133
:1034E00001EB810007EB8000291D00F092FC00F049
:1034F000BDFC606900280CD02068E96AC06A884277
:1035000007D207494FF080500860BFF34F8FBFF3D9
:103510006F8FBDE8F081000018000020A00100209E
:1035200004ED00E010B500F081FC0C4C206880B97F
:103530000B4800F048FC0A48143000F044FC0848EE
:10354000E0601430206100220C21052000F060FFB3
:103550002060BDE8104000F089BC0000540000204D
:103560006802002030B4026C0B46002A0BD0C16800
:103570001144C1608468A14201D30168C16030BCBC
:103580001846FCF749BE30BC70472DE9F041856B09
:10359000174604460026026C82B1C7B1E068FCF70A
:1035A0003BFEE168206C091AE1602268914202D278
:1035B000A168081AE060022F16D017E02068A8B9A9
:1035C000A06801F095FB06460020A0600EE0606850
:1035D000FCF722FE216C606808446060A1688842A4
:1035E00004D32068606001E005B16D1E6D1CA56309
:1035F0003046BDE8F08110B50446006B00F04AFC8F
:103600002046BDE8104000F045BC000010484FF4D3
:103610007051420706D0C01D0D4920F00700411A25
:10362000C1F570510B4A00230144C2E90003083977
:10363000103A21F0070111604B600B600B1AC0E9D2
:10364000001393604FF000405360D060704700005B
:103650009002002084000020144E154CA6F1A00713
:103660004FF08058DFF84C9012E000BF00F0DEFB16
:10367000F068C568281D00F093FBA068401EA0609C
:103680006068401E606000F0F1FB2846FFF7B3FF62
:1036900060680028EAD138680128F9D9C9F80080A3
:1036A000BFF34F8FBFF36F8FF2E70000400200209F
:1036B0001800002004ED00E02DE9F0479A46DDE90E
:1036C0000984089D814689B16FF00303206B03EBE9
:1036D0008202104420F0070670070FD0BF2080F34D
:1036E0001188BFF34F8FBFF36F8FFEE7BF2080F3CA
:1036F0001188BFF34F8FBFF36F8FFEE723180A5C6B
:1037000083F834200A5C12B1401C1028F6D300273D
:1037100084F84370052D00D30425E562C4E91157F0
:10372000201D00F05BFB04F1180000F057FB246142
:10373000C5F105006462A061E76484F850705246E8
:103740004946304600F03CFA2060B8F1000F01D045
:10375000C8F80040BDE8F08730B5114900E01146D7
:103760000A688242FBD34B685C18844203D14068EC
:1037700018444860084643681C18944209D1084C14
:10378000103C2468A24209D052681A4442600A6878
:1037900012680260814200D0086030BD0460F9E721
:1037A0008400002070B5002441600B4D00619142FF
:1037B00006D8D11A8269914206D2011D286907E014
:1037C0009A4203D2994201D3012403E0011DE86823
:1037D00000F007FB204670BD5400002010B50446E1
:1037E00000F024FBA06B28B15FF0000400F03EFB6A
:1037F000204610BD0124F9E730B587B02B4D4BE0D2
:103800000498002848DB069C606910B1201D00F078
:10381000C7FA02A800F0B6F8024604980A283BD27C
:10382000DFE800F00505053A263705053A26059834
:10383000A169034601442046FFF7B4FF00B3616A63
:1038400020468847E069012826D10020009005988D
:10385000A169002342181946204601F0C7FB78B938
:10386000BF2080F31188BFF34F8FBFF36F8FFEE748
:103870000598A06128B1811813462046FFF792FFF2
:103880000AE0BF2080F31188BFF34F8FBFF36F8F23
:10389000FEE7204600F0FEFA002204A9286800F0A6
:1038A0007BFF0028ACD107B030BD000054000020E1
:1038B0002DE9FC410F46054600F016FD01A800F079
:1038C00061F80446019818B101F0E2FABDE8FC8104
:1038D000224EAFB130690068A8B30027291B3A46D1
:1038E000306800F03BFB01F0D3FA0028EED11C4910
:1038F0004FF080500860BFF34F8FBFF36F8FE5E745
:10390000A542EBD801F0C4FAF0682746C068C46845
:10391000201D00F045FAE069012810D1A0692B466E
:1039200041193A462046FFF73DFF40B100200346CB
:10393000014600902A46204601F058FB20B1616AFA
:1039400020468847C2E707E0BF2080F31188BFF315
:103950004F8FBFF36F8FFEE70127BFE754000020B2
:1039600004ED00E00648416B096829B1416BC96864
:10397000C9684968816270474FF0FF31FAE700007B
:103980001800002070B5054601F048F9064E0446BF
:10399000B068844203D200F009F8012000E0002062
:1039A00028602046B46070BD54000020F8B5194D61
:1039B0001FE0C068C4680668201D00F0F1F9616A64
:1039C00020468847E069012813D1A0693044B042FD
:1039D00006D924616060211DE86800F002FA08E061
:1039E00000200346014600903246204601F0FEFAD0
:1039F00038B1E86801680029DBD12969C5E90310FD
:103A0000F8BDBF2080F31188BFF34F8FBFF36F8FD6
:103A1000FEE700005400002008484068401C4FF0BA
:103A2000BF0080F3118804D0BFF34F8FBFF36F8FB7
:103A3000FEE7BFF34F8FBFF36F8FFEE768000020F4
:103A4000074CE068016841B1C0680021D0F800006F
:103A5000FFF72EFFFFF7D0FEF3E701210020F7E785
:103A6000540000202DE9F041044600F0DFF994F9FC
:103A7000455004F1240609E0606A48B1304601F07F
:103A8000CDF908B100F010FB6D1E6DB2002DF3DC16
:103A90004FF0FF3684F8456000F0E8F900F0C6F911
:103AA00094F9445004F1100709E0206948B1384600
:103AB00001F0B4F908B100F0F7FA6D1E6DB2002DF7
:103AC000F3DC84F84460BDE8F04100F0CFB90000B9
:103AD0002DE9F0410546002700F006FC314E306824
:103AE00008B9FFF793FDF06805424BD1C5B308351F
:103AF00068070ED005F00700C0F10800054468070C
:103B000007D0BF2080F31188BFF34F8FBFF36F8FB3
:103B1000FEE72DB37068854234D822481030014644
:103B20000C6801E020460C466168A94202D2216877
:103B30000029F7D131688C4224D0076821680160E0
:103B400060680837411B10290FD96019420708D057
:103B5000BF2080F31188BFF34F8FBFF36F8FFEE755
:103B600010E041606560FFF7F7FD61687068401A1A
:103B70007060B268904200D2B060F06801430020EB
:103B8000C4E9000101F084F9780707D0BF2080F371
:103B90001188BFF34F8FBFF36F8FFEE73846BDE844
:103BA000F0810000740000200449086818B108681A
:103BB000826C521C82640868704700001800002064
:103BC00010B5031F4FF080741C601B1F21F0010112
:103BD0001960191F024B0B60143940380A6010BD80
:103BE000193A0008044622A0FEF7E6FB4FF4E15123
:103BF000C820FEF795F80020FEF706F928490020B6
:103C0000FEF786F90020FEF751F9C82000F0C8F948
:103C10004FF0FF350020FEF7F7F82946012000F0AD
:103C20008BF86069B42804D901461EA000F052F850
:103C3000F0E7FCF728FE00221F4BFCF7B0FD002246
:103C40001E4BFCF793FC00221D4BFCF7A8FDFCF774
:103C50003BFE01460020FEF75BF90020FEF726F947
:103C600018A0616900F036F8C82000F099F9D1E792
:103C7000596F752061726520696E207461736B20C5
:103C80002D2D2D205374656572696E6720456E6712
:103C9000696E6520436F6E74726F6C0D0A000000D0
:103CA0009A99993D496E76616C696420616E676C82
:103CB000653A25640D0A0000008056400000E03F90
:103CC00000003440416E676C65207365743A25646A
:103CD0000D0A00000FB44FF0FF3170B5134C60684F
:103CE00000F0F6FD124D40212846FEF752FA00285A
:103CF000F9D005AA04992069FEF7DAFB0D4E0446B7
:103D000000213046FDF76EF9641CA1B23046FDF784
:103D100020FA01213046FDF765F90122802128466D
:103D2000FEF72FFA70BC5DF814FB0000A000002025
:103D3000003801404400024070B50C46064600F0D1
:103D400075F8154D2868C06C80B92968012081F884
:103D500050005CB101212046FFF744FB0F494FF0B2
:103D600080500860BFF34F8FBFF36F8F00F07EF875
:103D700000F05CF82868C46C002034B116B12968E2
:103D8000C86402E02A68611ED164296881F8500085
:103D900000F06CF8204670BD1800002004ED00E033
:103DA000D0E9013201699A60D0E901235A604A687A
:103DB000824201D182684A60002202610868401E86
:103DC00008600868704700F108014FF0FF32C0E951
:103DD0000112C16001610021016070470021016191
:103DE000704730B50B685A1C02D000F1080202E09F
:103DF000026904E02246546825689D42FAD9536856
:103E00004B6099608A60516008610168491C0160DB
:103E100030BD42684A6093688B60936859609160D6
:103E200008610168491C016070470000BF2080F3F1
:103E30001188BFF34F8FBFF36F8F0A494868401C4A
:103E4000486001280CD10848006810F0FF0F07D027
:103E5000BF2080F31188BFF34F8FBFF36F8FFEE752
:103E6000704700006800002004ED00E00849486841
:103E700028B1401E486001D180F311887047BF20EF
:103E800080F31188BFF34F8FBFF36F8FFEE7000001
:103E90006800002070B5002827D0144DA0F1080458
:103EA0006168E868014207D1BF2080F31188BFF341
:103EB0004F8FBFF36F8FFEE722683AB1BF2080F3C8
:103EC0001188BFF34F8FBFF36F8FFEE781436160AF
:103ED00000F00AFA60686968084468602046FFF7E5
:103EE0003BFCBDE8704000F0D3BF70BD7400002003
:103EF0004FF0E02000210161816102494161072109
:103F0000016170473F19010010B5FCF773F91149C1
:103F100010280ED300F1E02090F8F0030A789042C8
:103F200007D2BF2080F31188BFF34F8FBFF36F8F8D
:103F3000FEE709480068896800F4E060884207D914
:103F4000BF2080F31188BFF34F8FBFF36F8FFEE761
:103F500010BD0000680000200CED00E070B51546B3
:103F60000E460446FFF762FF94F944100020491CF6
:103F700001D184F8440094F94510491C01D184F81A
:103F80004500FFF773FFA06B28B92A46314604F1BC
:103F9000240000F001F92046BDE87040FFF762BD43
:103FA00010B5020014D00F48006B38B1BF2080F369
:103FB0001188BFF34F8FBFF36F8FFEE700F094F9C6
:103FC00000211046FFF70EFA00F062FF002807D12B
:103FD00005494FF080500860BFF34F8FBFF36F8FDC
:103FE00010BD00001800002004ED00E070B505468B
:103FF000FFF71CFF254C05B92568281DFFF7D0FEEB
:1040000058B9E86A224A00EB800152F8211021B920
:1040100001218140206988432061A86A18B105F117
:104020001800FFF7BDFE606A401C60622068854290
:1040300008D11748291DA030FFF7EBFE6068401C2F
:10404000606007E0A068401EA0602846FFF7D3FA32
:10405000FFF788FCFFF70AFF6069002814D020688A
:10406000854211D1206B38B1BF2080F31188BFF396
:104070004F8FBFF36F8FFEE706494FF08050086007
:10408000BFF34F8FBFF36F8F70BD0000180000208B
:10409000A001002004ED00E002490A6A0260C9683C
:1040A000416070471800002001490120C861704735
:1040B000180000202DE9F0418846040015D0FFF7D4
:1040C00023FFBF20EFF3118680F31188BFF34F8FDA
:1040D000BFF36F8F94F85000022184F85010E16C08
:1040E000491CE164012808D025E0BF2080F3118835
:1040F000BFF34F8FBFF36F8FFEE7A06A38B1BF20C9
:1041000080F31188BFF34F8FBFF36F8FFEE7144D1D
:10411000286B012798B104F118011248FFF779FEC6
:10412000E06A2968C96A884205D9B8F1000F01D050
:10413000C8F80070EF6186F31188BDE8F081201D9A
:10414000FFF72EFEE16A2A6907FA01F010432861A1
:1041500001EB810003498C3901EB8000211DDDE773
:10416000180000202C02002010B50C4650B109495F
:1041700009681831FFF735FE2046BDE810400121DF
:10418000FFF730B9BF2080F31188BFF34F8FBFF323
:104190006F8FFEE71800002070B514460D4668B119
:1041A0000A4909681831FFF734FE0CB14FF0FF35AA
:1041B00021462846BDE87040FFF714B9BF2080F3C0
:1041C0001188BFF34F8FBFF36F8FFEE718000020F9
:1041D00070B504004BD0A26CA2B1606C884200D3D1
:1041E0000146E06A884242D0012A40D1204D2A6827
:1041F00094420FD1BF2080F31188BFF34F8FBFF3DC
:104200006F8FFEE7BF2080F31188BFF34F8FBFF39E
:104210006F8FFEE7E162A269002A02DBC1F10501AE
:10422000A161144E00EB8000616906EB80008142C1
:104230001DD1201DFFF7B4FD012150B9E06A00EB4C
:10424000800256F8222022B92A6901FA00F082433E
:104250002A61E06A2A6981401143296100EB8000EC
:1042600006EB8000211DBDE87040FFF7D2BD70BD98
:1042700018000020A00100201CB517480024CDE93B
:1042800000402346802215A1164800F017FC0128A3
:1042900003D100F087FE012809D0401C1AD1BF20AD
:1042A00080F31188BFF34F8FBFF36F8FFEE7BF20FE
:1042B00080F31188BFF34F8FBFF36F8F06484FF025
:1042C000FF312C38816201214161C460BDE81C408E
:1042D00000F040B81CBD00004400002049444C459B
:1042E00000000000593600080248016B491C0163B8
:1042F00070470000180000201448016B11B1012123
:10430000C16170470021C1610169B1FA81F1C1F158
:104310001F0101EB81020E4951F822306BB101EB14
:10432000820101F108034A6852684A609A4201D149
:1043300052684A60D16801607047BF2080F31188DD
:10434000BFF34F8FBFF36F8FFEE700001800002010
:10435000A00100201CB5204908780190FF200870BA
:1043600008788DF800009DF800009DF8002090422C
:1043700007D0BF2080F31188BFF34F8FBFF36F8F3B
:10438000FEE79DF80000154A00F0BF0010700720FE
:10439000906005E09DF800305B008DF80030401E15
:1043A0009DF800301B06F5D4000200F4E060906038
:1043B000019808700A48016841F47F0101600168B2
:1043C00041F07F410160FFF793FD00205060FBF753
:1043D000DBFE00201CBD000000E400E068000020BF
:1043E00020ED00E010B5BF2080F31188BFF34F8FA0
:1043F000BFF36F8F00F018FC18B104494FF08050E4
:104400000860002080F3118810BD000004ED00E07A
:1044100070B50E46050013D0D6B105FB06F0483046
:10442000FFF756FB040009D004F1480120468EB185
:104430000160C0E90F56012100F00EF8204670BD62
:10444000BF2080F31188BFF34F8FBFF36F8FFEE75C
:104450000020E4E70060ECE770B50D46040025D0CD
:10446000FFF7E4FCD4E90F20216802FB0011A160F2
:104470000021A163216861600A46D4E90F01401E52
:1044800000FB0121E16021464FF0FF3001F8440FAD
:10449000487004F110008DB1FFF795FC04F1240081
:1044A000FFF791FCFFF7E2FC012070BDBF2080F315
:1044B0001188BFF34F8FBFF36F8FFEE7216900298B
:1044C000F0D000F0ABFC0028ECD004494FF0805055
:1044D0000860BFF34F8FBFF36F8FE3E704ED00E099
:1044E0002DE9FF4782B01D468A464FF000080400C0
:1044F00003D0BAF1000F08D011E0BF2080F311887B
:10450000BFF34F8FBFF36F8FFEE7206C38B1BF2032
:1045100080F31188BFF34F8FBFF36F8FFEE7022D3B
:104520000AD1E06B012807D0BF2080F31188BFF3C8
:104530004F8FBFF36F8FFEE700F062FB3F4F4FF0EE
:1045400000094FF0805648B9049838B1BF2080F375
:104550001188BFF34F8FBFF36F8FFEE7FFF766FC45
:10456000A06BE16B884207D3022D05D00498D0B12F
:10457000B8F1000F1AD01EE02A4651462046FFF738
:1045800004F8616A19B104F1240000F047FC20B17D
:104590003E60BFF34F8FBFF36F8FFFF767FC0120C3
:1045A00006B0BDE8F087FFF761FC22E06846FFF740
:1045B00073FD4FF00108FFF759FCFFF795FEFFF779
:1045C00035FC94F94400401C01D184F8449094F9DE
:1045D0004500401C01D184F84590FFF747FC04A931
:1045E000684600F031FA30B12046FFF73BFA00F0A0
:1045F0004FFC0020D4E7FFF719FCA06BE16B884269
:1046000013D1FFF733FC04F110000499FFF7ACFD60
:104610002046FFF727FA00F03BFC00289ED13E60C1
:10462000BFF34F8FBFF36F8F98E7FFF71FFC204654
:10463000FFF718FA00F02CFC90E7000004ED00E012
:104640002DE9F0471F4690468946040003D0B9F192
:10465000000F08D011E0BF2080F31188BFF34F8F07
:10466000BFF36F8FFEE7206C38B1BF2080F3118855
:10467000BFF34F8FBFF36F8FFEE7022F0AD1E06BBE
:10468000012807D0BF2080F31188BFF34F8FBFF3FD
:104690006F8FFEE7FFF738FCBF20EFF3118680F342
:1046A0001188BFF34F8FBFF36F8FA06BE16B884210
:1046B00006D3022F04D0002086F31188BDE8F087CE
:1046C00094F945503A4649462046FEF75EFF681C7D
:1046D00004D06D1C84F845500120EDE7606A002885
:1046E000FAD004F1240000F099FB0028F4D0B8F1CE
:1046F000000FF1D00121C8F80010EDE770B50E46AB
:10470000040009D0206C78B1BF2080F31188BFF37A
:104710004F8FBFF36F8FFEE7BF2080F31188BFF389
:104720004F8FBFF36F8FFEE7206848B9A06838B19C
:10473000BF2080F31188BFF34F8FBFF36F8FFEE769
:10474000FFF7E2FBBF20EFF3118580F31188BFF381
:104750004F8FBFF36F8FA16BE06B884218D994F92C
:104760004500491CA163411C04D0401C84F845004D
:1047700001200EE0606A0028FAD004F1240000F065
:104780004DFB0028F4D0002EF2D001203060EFE77E
:10479000002085F3118870BD2DE9F747002683B00E
:1047A0008A46040003D0BAF1000F08D011E0BF2000
:1047B00080F31188BFF34F8FBFF36F8FFEE7206C3C
:1047C00038B1BF2080F31188BFF34F8FBFF36F8FD5
:1047D000FEE700F015FADFF8F4804FF000094FF023
:1047E000805748B9059838B1BF2080F31188BFF3CE
:1047F0004F8FBFF36F8FFEE7FFF718FBA56BC5B1B7
:1048000051462046FEF7AEFE6D1EA563206950B1ED
:1048100004F1100000F002FB28B1C8F80070BFF3EB
:104820004F8FBFF36F8FFFF721FB012006B0BDE86C
:10483000F087059808B11EB106E0FFF717FB27E0E7
:104840006846FFF729FC0126FFF710FBFFF74CFD38
:10485000FFF7ECFA94F94400401C01D184F844902D
:1048600094F94500401C01D184F84590FFF7FEFA09
:1048700005A9684600F0E8F8002820460AD0FFF7AE
:10488000F1F800F005FB2046FEF7A8FF0028B3D0A2
:104890000020CBE7FEF7A2FF90B104F124000599B8
:1048A000FFF762FC2046FFF7DDF800F0F1FA002880
:1048B000A2D1C8F80070BFF34F8FBFF36F8F9BE793
:1048C0002046FFF7CFF800F0E3FA95E704ED00E0AB
:1048D0002DE9F343002683B00400354609D0206C4F
:1048E00078B1BF2080F31188BFF34F8FBFF36F8F74
:1048F000FEE7BF2080F31188BFF34F8FBFF36F8FA8
:10490000FEE700F07DF9DFF83C814FF000094FF041
:10491000805748B9049838B1BF2080F31188BFF39D
:104920004F8FBFF36F8FFEE7FFF780FAA06BC8B120
:10493000401EA063206810B9FFF736F9A060206917
:1049400050B104F1100000F069FA28B1C8F8007005
:10495000BFF34F8FBFF36F8FFFF788FA012005B0C9
:10496000BDE8F083049808B166B10FE03DB1BF2007
:1049700080F31188BFF34F8FBFF36F8FFEE7FFF710
:1049800075FA5DE06846FFF787FB0126FFF76EFAD0
:10499000FFF7AAFCFFF74AFA94F94400401C01D142
:1049A00084F8449094F94500401C01D184F8459066
:1049B000FFF75CFA04A9684600F046F80028204694
:1049C00012D0FFF74FF800F063FA2046FEF706FF1B
:1049D0000028A9D09DB3FFF729FA606A50B3206B75
:1049E0000068C0F1050126E0FEF7F8FEE0B120689E
:1049F00038B9FFF71BFAA06800F0C6F90546FFF7C3
:104A000035FA04F124000499FFF7AEFB2046FFF7C6
:104A100029F800F03DFA002886D1C8F80070BFF3ED
:104A20004F8FBFF36F8F7FE72046FFF71BF800F033
:104A30002FFA79E70021A068FFF7CAFB9FE7FFE79D
:104A400000208CE704ED00E02DE9F0410C46050064
:104A500011D0C4B1FFF7EAF9174BDA686E68206825
:104A6000911B471C17D02F681B6A9F4219D0964292
:104A700017D8012410E0BF2080F31188BFF34F8FB7
:104A8000BFF36F8FFEE7BF2080F31188BFF34F8F16
:104A9000BFF36F8FFEE70024FFF7E8F92046BDE87B
:104AA000F081884205D9401A20602846FFF7F4FAC1
:104AB000F1E700202060DCE7180000202DE9FF5F0F
:104AC0008346DDE90E87994616468A469000FEF732
:104AD000FFFF05001AD05420FEF7FAFF040012D0A1
:104AE00025630021CDE90241CDE900874B463246DE
:104AF00051465846FEF7E0FD2046FEF7ABFC01208C
:104B000004B0BDE8F09F2846FFF7C4F94FF0FF302E
:104B1000F6E700002DE9F0411F4690460D460126BC
:104B200090B10446FFF782F90FB1E06C386094F859
:104B30005000022184F85010B8F1050F19D2DFE8B7
:104B400008F0230B0E141200BF2080F31188BFF36E
:104B50004F8FBFF36F8FFEE7E16C294301E0E16CFB
:104B6000491CE16410E0022801D0E5640CE0002655
:104B700035E0E16C491C07D0BF2080F31188BFF3FA
:104B80004F8FBFF36F8FFEE7012828D1201DFFF75D
:104B900007F9154DE06A01212A6981401143296115
:104BA000124900EB800001EB8000211DFFF731F975
:104BB000A06A38B1BF2080F31188BFF34F8FBFF3D5
:104BC0006F8FFEE7E06A2968C96A884207D90849F9
:104BD0004FF080500860BFF34F8FBFF36F8FFFF728
:104BE00045F93046BDE8F08118000020A001002002
:104BF00004ED00E001480068704700001800002044
:104C00000548416919B1006B18B1002070470120B7
:104C10007047022070470000180000200148C0685B
:104C200070470000180000202DE9F0412E4C0027AD
:104C3000206B40B1A069401CA061E06900B1012770
:104C40003846BDE8F081E668761CE66013D1606BFB
:104C5000006838B1BF2080F31188BFF34F8FBFF3D6
:104C60006F8FFEE7606BA16B6163A063206A401CDD
:104C70002062FEF777FEA06ADFF87080864209D3D3
:104C8000606B006880B1606BC068C5686868864208
:104C90000DD2A0622068C06A00EB800158F82100A4
:104CA0000128CAD90127C8E74FF0FF30F1E7281DD6
:104CB000FFF776F8A86A18B105F11800FFF770F849
:104CC000E86A0121226981401143216100EB8001E2
:104CD00008EB8100291DFFF79CF8E86A2168C96A82
:104CE0008842CDD30127CBE718000020A001002087
:104CF00070B504004FF0000140D0214D2868844277
:104D000007D0BF2080F31188BFF34F8FBFF36F8FA1
:104D1000FEE7A06C38B1401EA064636CE26A9A4260
:104D20002CD040B12AE0BF2080F31188BFF34F8F11
:104D3000BFF36F8FFEE7201DFFF732F8114A012104
:104D400050B9E06A00EB800352F8233023B92B6995
:104D500001FA00F083432B61606CE062C0F1050052
:104D6000A061E06A2B6981401943296100EB800052
:104D700002EB8000211DFFF74CF80121084670BDB1
:104D800018000020A001002070B504004FF00000C2
:104D900038D0204DE16A2A68D26A914233D2A069A4
:104DA000002804DB2868C06AC0F10500A0611A4E23
:104DB00001EB8101606906EB810188421ED1201D53
:104DC000FEF7EEFF012150B9E06A00EB800256F8D1
:104DD000222022B92A6901FA00F082432A61286858
:104DE000C06AE0622A6981401143296100EB8000BA
:104DF00006EB8000211DFFF70CF802E02868C06A6E
:104E0000E062012070BD616C2A68D26A9142F8D3D9
:104E100070BD000018000020A00100202DE9F04125
:104E2000C068C468ACB104F118000746FEF7B8FFCB
:104E3000154D286B0126A0B139461448FEF7E9FF4D
:104E4000E06A2968C96A88421CD90120EE61BDE880
:104E5000F081BF2080F31188BFF34F8FBFF36F8FB6
:104E6000FEE7201DFEF79CFFE16A2A6906FA01F0C1
:104E70001043286101EB810004498C3901EB80006B
:104E8000211DDBE70020E2E7180000202C020020B3
:104E90002DE9F0472C4D00242746286B38B1FEF74A
:104EA000C5FF286B401E2863286B40B146E0BF2039
:104EB00080F31188BFF34F8FBFF36F8FFEE7A968B0
:104EC000224E0120D1B3A6F18C0980463068E8B1AA
:104ED000F068C46804F11800FEF762FF201DFEF7B9
:104EE0005FFFE06A2A6908FA00F11143296100EBCB
:104EF000800109EB8100211DFEF78BFFE06A296824
:104F0000C96A8842E2D3C5F81C80DFE70CB1FEF71E
:104F100029FDAC6944B14646FFF786FE00B1EE615B
:104F2000641EF9D10020A861E86938B10849012759
:104F300038070860BFF34F8FBFF36F8FFEF796FF00
:104F40003846BDE8F0870000180000202C02002041
:104F500004ED00E02DE9F0470746994616460D4658
:104F60002820DDF820A0FEF7B3FD04000ED0B846DF
:104F70004F46D1466DB1FEF7D5FA04F11801C4F8D9
:104F8000008081E8E002201DFEF728FF2046BDE8F2
:104F9000F087BF2080F31188BFF34F8FBFF36F8F6F
:104FA000FEE700001CB5FEF7BDFA0C48006860B1D2
:104FB0000A490220091DCDE900010023802208A131
:104FC0000948FFF77BFD002807D1BF2080F3118837
:104FD000BFF34F8FBFF36F8FFEE71CBD540000205F
:104FE000546D722053766300413A0008FEB51E46A8
:104FF00013460200089D4FF0000014D0124C2768A1
:10500000002F0FD0CDE900130292062915DAFFF721
:10501000F7FD02284FF000030DD0002269462068FA
:10502000FFF75EFAFEBDBF2080F31188BFF34F8FFC
:10503000BFF36F8FFEE72A46F0E70023324669464A
:105040003846FFF7FDFAFEBD54000020DDDDDDDD52
:10505000DCBBBBDDDDDDDDDDDDDDDDDD9888888809
:1050600088888888777777777788888885555556B0
:105070006666666666666666666888888333333207
:1050800022222222222222222228888DAC500008AD
:105090000000002010010000D4240008BC510008CA
:1050A0001001002010410000E4240008000000006E
:1050B00000000000000000000000000000000000F0
:1050C00000000000000000000000000000000000E0
:1050D00000000000000000000000000000000000D0
:1050E00000000000000000000000000000000000C0
:1050F00000000000000000000000000000000000B0
:10510000000000000000000000000000000000009F
:105110000000000000000000AAAAAAAA00000000E7
:10512000000000000000000000000000000000007F
:10513000000000000000000002040608000000005B
:10514000010203040102030406070809000000002D
:10515000000000000000000000000000000000004F
:10516000000000000000000000000000010000003E
:10517000000000000000000000000000400ECF19F9
:1051800014090C020100000004000000640000008B
:10519000640000008000000000000000000000002B
:1051A00000000000000000000000F03F00000000D0
:0C51B000000000000000000000000000F3
:04000005080001519D
:00000001FF
