:020000040800F2
:10000000F84B0020FD010008A91F00086B1A00082A
:10001000A71F000893100008E52F0008000000004B
:100020000000000000000000000000006501000862
:10003000D517000800000000A9010008A1810008F0
:10004000130200081302000813020008130200083C
:10005000130200081302000813020008130200082C
:1000600013020008F1170008130200081302000829
:100070001302000813020008A91300081302000865
:1000800013020008D5130008130200081302000829
:1000900013020008130200081302000813020008EC
:1000A00013020008130200081302000813020008DC
:1000B000E5230008130200083D240008130200088D
:1000C00013020008130200081302000813020008BC
:1000D00013020008DD2B0008752C0008C92C00084D
:1000E000D9170008130200081302000813020008C1
:1000F000130200081302000813020008130200088C
:10010000130200081302000813020008130200087B
:10011000130200081302000813020008130200086B
:10012000130200081302000813020008130200085B
:10013000130200081302000813020008130200084B
:10014000130200081302000813020008130200083B
:10015000DFF80CD000F0B0FD00480047B14E0008B9
:10016000F84B0020224B19680868B0E8F00F80F3C4
:100170000988BFF36F8F4FF0000080F311884EF0B5
:100180000D0E70470000000006480068006880F30C
:10019000088862B661B6BFF34F8FBFF36F8F00DF81
:1001A00000BF00BF08ED00E0EFF30980BFF36F8FE1
:1001B0000F4B1A6820E9F00F106008B54FF0BF0030
:1001C00080F31188BFF34F8FBFF36F8F07F008FBE9
:1001D0004FF0000080F31188BDE8084019680868F6
:1001E000B0E8F00F80F30988BFF36F8F704700BF4E
:1001F00028000020EFF30580704700000548004705
:10020000FEE7FEE7FEE7FEE7FEE7FEE7FEE7FEE7C6
:10021000FEE7FEE75101000840EA01039B0703D017
:1002200009E008C9121F08C0042AFAD203E011F835
:10023000013B00F8013B521EF9D27047D2B201E0F7
:1002400000F8012B491EFBD270470022F6E710B5DB
:1002500013460A4604461946FFF7F0FF204610BD34
:1002600030B505462A460B4612F8010B13F8014B30
:1002700008B1A042F8D01CB1002802D06D1CF1E7F3
:10028000284630BD10B5044604E00B7800F8013B69
:1002900003B1491C521EF8D2204610BDCAB2401EFE
:1002A00010F8011F8A4202D00029F9D100207047BE
:1002B000421C10F8011B0029FBD1801A704703462D
:1002C00011F8012B00F8012B002AF9D118467047CC
:1002D0000FB400B58DB010A909900B9000914FF0AC
:1002E000FF300A9000200C900548069005480790C2
:1002F0006A4609A80F9900F005FC0DB05DF814FBE3
:10030000210B00083F0B00082DE9FF5F1D464FF051
:10031000FF3BD5E9014691465F464FF00008A969C9
:100320007F1C01988847296A824688470028F6D1B1
:10033000BAF1FF3F0CD024F4C064002E19DD600632
:1003400014D5BAF12B0F09D0BAF12D0F0ED103E05D
:10035000584604B0BDE8F09F44F48064A9697F1C4E
:1003600001988847761E8246002E02DDBAF1300FD2
:1003700003D0B9F1000F26D032E0A969761E44F40B
:1003800000747F1C019888478246002E05DDBAF173
:10039000780F06D0BAF1580F03D0B9F1000F10D082
:1003A0001EE0B9F1000F02D0B9F1100F18D1A96900
:1003B000761E24F400747F1C019888478246102022
:1003C00002E0082000E00A20814609E008FB090855
:1003D000A969761E44F400747F1C01988847824600
:1003E000002E05DD4946504600F078FB0028EDDA86
:1003F000E96901988847A00502D46FF00100A8E7D9
:10040000E00725D1600613D5600502D5C8F10000CC
:1004100000E0404629680A1D2A600968220501D5C6
:10042000087015E0220701D5088011E008600FE090
:100430002868011D29600068210502D580F8008028
:1004400006E0210702D5A0F8008001E0C0F8008096
:1004500038467EE72DE9FF5FD2E901A74FF000089B
:10046000916999461446DDF838B0464601988847A8
:10047000054659EA0B0005D009E0A169761C0198F0
:1004800088470546216A284688470028F5D1681C18
:1004900003D05FEACA7005D015E04FF0FF3004B01A
:1004A000BDE8F09F2068011D2160D0F800800AE0BF
:1004B0005FEACA7001D108F8015BA169761C7F1E52
:1004C000019888470546002F1ADD681C18D0B9F13D
:1004D000000F0DD0E81705EBD060421120F01F008F
:1004E00059F822102A1A012090400142E0D107E079
:1004F000BBF1000FDCD1216A284688470028D7D0FD
:10050000E16901988847BBF1000F07D1002E05DD96
:100510005FEACA7002D1002188F80010A068B842D2
:1005200003DDBBF1000F03D017B16FF00100B6E798
:100530003046B4E780EA010210B502F00043400003
:1005400022D04A001FD0010E01EB1261C0F3560009
:10055000C2F3560240F4000042F40002A0FB022065
:1005600000047F39140400D0401C50EA124001D42A
:100570004000491EC2B20C0604EBD010401C4008DB
:10058000802A02D003E0002010BD20F001000029E5
:1005900000DA0020184310BD2DE9FE4F804681EAA5
:1005A0000300C00F0C46009021F0004123F00045ED
:1005B000B8EB0200A94105D24046214690461C46B0
:1005C0000B46024623F00040104347D0270DC7F3E7
:1005D0000A00C3F30A510290401A019040286BDAD6
:1005E000C3F3130040F4801B0098924620B100230F
:1005F000D2EB030A63EB0B0B01985946C0F14002A2
:10060000504600F03AFA06460D4650465946019AC1
:1006100000F052FA10EB08006141002487EA115201
:1006200084EAE7731A4340D0009A62B3019A012A20
:100630004FEA075215DC001B61EB02014FF000424C
:1006400002EA0752CDE90042001C41F58011324612
:100650002B4600F0CBFA03B0BDE8F08F40462146B0
:10066000F9E7001B61EB0201001C41F58013001843
:100670005B412018A2F5001747EB030140EAD57053
:10068000B6196D4111E06D084FEA360645EAC075AE
:100690004FEA0752001B61EB0201001C41F580117B
:1006A00049084FEA30000019514132462B4603B049
:1006B000BDE8F04F00F08BBA009801224000002303
:1006C000D0EB020263EBE073009821464FEAE0743E
:1006D000B8EB000061EB0401E9E783F000435BE75E
:1006E00081F0004158E72DE9FE4F81EA030404F050
:1006F000004421F0004100944FF0000B23F0004330
:1007000050EA01045ED052EA03045BD0C3F30A54FA
:10071000C1F30A552C44A4F2F3340194A0FB025413
:10072000C1F3130141F48011C3F3130343F48013A5
:1007300001FB024400FB034E840A970A44EA8154F9
:1007400047EA8357A4FB076802958D0A05FB0785D6
:100750004FEA932C04FB0C542705029D4FEA0658E0
:1007600047EA1637B5EB08056EEB070C870E920EBD
:1007700047EA811742EA8312A7FB0201B6EB0B019D
:1007800064EB00042B0D43EA0C335E1844EB1C5061
:10079000DA465146E7FB0201C5F313044FEA0B3377
:1007A00043EA14534FEA0432019C43EA0603A4F1DE
:1007B0000C040294009CCDE900B400F017FA03B0D9
:1007C000BDE8F08F00200146F9E72DE9F04D81EA00
:1007D000030404F0004B21F0004514464FF0000ADA
:1007E00023F0004150EA050220D054EA01021DD056
:1007F000C5F30A570246C5F31303C1F31300C1F34F
:100800000A5640F4801543F48013A7EB0608101B2A
:10081000D64608F2FD3873EB050002D308F1010853
:1008200001E092185B41B8F1000F03DA00200146A5
:10083000BDE8F08D00204FF48011064684460EE09E
:10084000171B73EB050705D3121B63EB0503064368
:100850004CEA010C49084FEA300092185B4150EA1B
:100860000107EDD152EA030012D082EA040083EAC4
:100870000501084305D0101BAB4106D2012200231D
:1008800006E000224FF0004302E06FF00102531037
:100890001AEB06004CEB085110EB0A0041EB0B0180
:1008A000BDE8F04D00F093B996230022114600F008
:1008B00060B90EB5C10F80EAE0700844CA07002194
:1008C00040F233438DE80E000A460B4600F08EF9E5
:1008D00003B000BD0EB540F2334102910021CDE9D5
:1008E00000110A460B4600F081F903B000BD20F06C
:1008F0000040C10DC0F3160040F400007F2901DA6A
:1009000000207047962903DCC1F19601C84070476A
:1009100096398840704770B5C1F30A5201F000451E
:100920000024C1F3130140F2FF3341F480119A42D5
:1009300001DA002070BD40F233439A42A2F2334202
:1009400003DC524200F0A8F800E090402C43F1D0C4
:10095000404270BD30B5041E71F1000404DB4FF05D
:100960000044404264EB0101141E73F1000405DBF6
:100970001C464FF00043524263EB04038B4208BF16
:10098000824230BD30B5041E71F1000404DB4FF02B
:100990000044404264EB0101141E73F1000405DBC6
:1009A0001C464FF00043524263EB0403994208BFD8
:1009B000904230BD01F0004330B421F0004150EAD4
:1009C000010206D00A0DA2F56072C1F31301002ADC
:1009D00002DC30BC00207047440F44EAC104C1006F
:1009E000E01830BC00EBC25000F0BAB830B50B468E
:1009F000014600202022012409E021FA02F59D424F
:100A000005D303FA02F5491B04FA02F52844151E22
:100A1000A2F10102F1DC30BD2DE9F05F05460020B6
:100A200092469B4688460646814640241BE028465F
:100A300041464746224600F02FF853465A46C01A10
:100A4000914110D311461846224600F016F82D1A8F
:100A500067EB01084F4622460120002100F00DF807
:100A600017EB00094E41201EA4F10104DFDC4846CB
:100A700031462A464346BDE8F09F202A04DB203A4F
:100A800000FA02F1002070479140C2F1200320FAE1
:100A900003F3194390407047202A04DB203A21FADF
:100AA00002F00021704721FA02F3D040C2F1200287
:100AB0009140084319467047202A06DBCB17203A9D
:100AC00041FA02F043EAE07306E041FA02F3D04053
:100AD000C2F1200291400843194670473A2800D2DB
:100AE000303820F02002412A01D3A2F13700884299
:100AF00001D34FF0FF307047026811441378016052
:100B000018467047D16004495161044911620021BF
:100B10001161114600F0E8B8F90A0008DD0C000880
:100B2000426842B1016811F8013B23B1521EC0E98D
:100B30000012184670470121C160881E7047426844
:100B40005AB1C368016843B983688B4205D0491E16
:100B5000521CC0E90012002070474FF0FF30704770
:100B60000029A8BF7047401C490008BF20F00100C1
:100B7000704710B4B0FA80FC00FA0CF050EA01049F
:100B800004BF10BC704749B1CCF1200421FA04F431
:100B900011FA0CF118BF012121430843A3EB0C010A
:100BA000CB1D4FEA00614FEA102042BF002010BC6D
:100BB000704700EBC35010440029A4BF10BC70471D
:100BC000401C490008BF20F0010010BC704710B560
:100BD000141E73F1000408DA401C41F10001921860
:100BE0005B411A4301D120F0010010BD2DE9F04D09
:100BF00092469B4611B1B1FA81F202E0B0FA80F25E
:100C000020329046FFF739FF04460F4640EA0A00BB
:100C100041EA0B0153465A46084313D0114653EAA2
:100C2000010019D0C8F140025046FFF735FF0546D4
:100C30000E46504659464246FFF71FFF084305D06F
:100C4000012004E020463946BDE8F08D0020054330
:100C500046EAE0762C4337430A986305E40AA0EBA2
:100C600008000022FD0A44EA47540A3002D5002059
:100C70000146E9E7010510196941DDE90845001958
:100C80006941BDE8F04DA2E7C1F30A52C1F3130177
:100C900040F2FF3341F480119A4202DA002001460B
:100CA000704740F233439A42A2F2334202DC52428E
:100CB000FFF7F2BEFFF7E1BE064C074D06E0E06825
:100CC00040F0010394E8070098471034AC42F6D393
:100CD000FFF742FAB88E0008D88E0008C0B24FF471
:100CE000F05100F097B900002DE9F34F8BB04FF0B1
:100CF000000801F10C000C464FF0010B46460DF1C7
:100D0000080A01906269012101989047051E2DD0C3
:100D1000252D2CD0216A8847C0B162690121019834
:100D20009047216A88470028F7D1411E62690198DF
:100D3000904700E0761CA1690B988847216A884794
:100D40000028F7D1E1690B988847DBE7A1690B9888
:100D500088470746A84201D1761CD3E7E1690B9882
:100D600088477F1C02D1B8F1000F6FD046E1002701
:100D700062693D463946019890472A2804D1626944
:100D80000121019890470125DFF8849262690121D1
:100D900001989047A0F130010A290AD24F45E5DCBD
:100DA00007EB870100EB4107303FDFD445F010052A
:100DB000ECE7E90601D46FF000476C280AD04C2814
:100DC00014D0682815D06A280DD074281CD07A2831
:100DD0001AD01DE062690121019890476C2802D069
:100DE00045F0040514E045F002050DE045F020054E
:100DF0000AE06269012101989047682802D045F015
:100E0000080505E045F400656269012101989047F5
:100E1000C4E9015765283DD019DC58287AD00CDC8C
:100E2000452837D004DC252826D0412831D131E0AF
:100E300046282FD047282CD12CE05B2877D061287A
:100E400028D063287CD0642823D15AE0D0E06F28D2
:100E500048D008DC66281DD067281BD0692821D01F
:100E60006E2816D127E0702845D0732868D07528E1
:100E700047D078280DD14DE0A1690B9888470546E9
:100E800025283FF469AFE1690B9888476D1C3FF452
:100E90006AAFB3E023466A466FF001000B99AFF3E7
:100EA00000809EE045F040006060A80723464FF0B8
:100EB000000236D43EE0E8077FF447AF2068011D0A
:100EC00021600068290501D506701BE7290701D5B7
:100ED000068017E7A90703D5F117C0E9006111E7FC
:100EE00006600FE745F040006060A80723464FF01A
:100EF000080216D41EE040F60E0125EA01006060EB
:100F000016E045F040006060A80723464FF00A0253
:100F100007D40FE045F040006060A80708D52346DD
:100F200010226FF001000B99AFF3008059E007E049
:100F3000234610226FF001000B99FFF7E5F950E00E
:100F40004FF000094F464B46632802D05B2806D07D
:100F500040E0E80601D40120A06001273AE0626980
:100F60000121019890475E2805D14FF0010962697F
:100F7000494601989047216939B900210A465346EC
:100F800043F82120491C0829FADBB0B3216969B96B
:100F9000C11700EBD16253110AEB830122F01F024B
:100FA000821A01200B68904003430B6062690121A3
:100FB000019890475D28E8D1B9F1000F09D00020D1
:100FC000514651F82020D24341F82020401C0828E7
:100FD000F7DB02AB224600976FF001000B99FFF799
:100FE00039FA00280CDA401C08D1BBF1000F05D0FB
:100FF0004FF0FF300DB0BDE8F08FFFE74046F9E756
:10100000E90701D108F1010806444FF0000B79E629
:10101000CCCCCC0C7F2801D9002208E0064A02EB98
:101020005002C007127800D1120902F00F0201200D
:101030009040084070470000788E000870B58C180A
:1010400010F8015B15F0070301D110F8013B2A11DC
:1010500006D110F8012B03E010F8016B01F8016BC9
:101060005B1EF9D12B0705D40023521E0DD401F8C5
:10107000013BFAE710F8013BCB1A921C03E013F88E
:10108000015B01F8015B521EF9D5A142D8D30020C3
:1010900070BDFEE770B5062216494FF4106002F0ED
:1010A00039F81549002000F041F81549134A08465F
:1010B00005F040FB00F07AF8014608244FF4FA7579
:1010C0000BE0042914D022460EA006F077F828463B
:1010D00006F048FD00F06AF80146641EE4B2F0D262
:1010E000042905D00EA006F069F84FF0FF3070BD5E
:1010F000002070BDD8000020E8410020F95300080E
:1011000095530008444843502072657472792074E6
:10111000696D652025643A2025640D0A00000000F1
:1011200044484350204661696C0D0A00F8B50D46ED
:10113000064600244FF4106706221A4938460094E8
:1011400001F07EFF174801784278C3781143827816
:101150001A43114302791143427911430CD10470AF
:1011600008214170DC218170C47004714471014612
:101170000622384601F0CEFF0A4F0B483C3F0422BE
:10118000BE70C7E90D0569464FF4706001F0C2FFFB
:1011900004226946900101F0BDFF05F01DFB3C7083
:1011A000F8BD0000BC010020785634122DE9F04152
:1011B000464C2078062822D0A0784FF4427101EBEB
:1011C000401001F011FF222805D000234422022103
:1011D000A07805F0DFFE012504F01EF9C2B23B48FD
:1011E00094F90030C01D00260127011F4FF00308AD
:1011F000052B2FD2DFE803F0060D1C304A00052036
:10120000BDE8F081067046708670C67005F0FCFB84
:101210005AE0022A1BD1A16B0A7C02704A7C427000
:101220008A7C8270C97CC17005F0A6FC02202BE08C
:10123000052A0AD102F062FD08B1606A3CE005F0BF
:10124000CBFAE06A8047267004E0062A3AD002F022
:1012500089FD05462846D3E7A2690425531CF9D029
:10126000E369B3EB520FF5D902780A7042784A70FD
:1012700082788A70C078C870606B401C606305F02B
:101280007BFC05F0A9FA04202070E3E70425052A79
:10129000DBD166700A7803789A420BD14A7843789A
:1012A0009A4207D18A7883789A4203D1C978C07864
:1012B000814202D0A06A0325804705F08DFA84F8A8
:1012C0000080C7E705F088FA2770C3E78001002097
:1012D00008B514A001F024FE03F052F9012805D14D
:1012E00017A005F06BFF002006F0F4F84FF47A70B9
:1012F00006F0CAF8194C42F21075184803F07FF94D
:1013000010F0FF0102D016A005F058FF60780090A1
:101310002378E278A1781BA005F050FF284606F05C
:10132000B3F8EAE7596F752061726520696E207421
:1013300061736B202D2D2D20542648200D0A0000AE
:101340004448313120496E6974206661696C2C20F3
:101350007461736B20656E64730D0A001C000020BD
:1013600045525225643A20466574636820444854C7
:1013700031312064617461206661696C2E2E2E0DFE
:101380000A00000054656D703A2025642E256443E0
:101390000948756D69646974793A2025642E25645D
:1013A00025250D0A0000000010B54FF4005420461A
:1013B00000F0ACF8012809D1204600F019F80448E3
:1013C00000214068BDE8104007F076B810BD00006D
:1013D000B000002010B54FF00074204600F096F8E1
:1013E000012804D12046BDE8104000F001B810BD2E
:1013F000C10002D502490860704702494860704741
:1014000004040240000002400029016802D041F0BB
:10141000010102E04FF6FE721140016070470000CA
:1014200001684FF6FE7211400160002101604160C9
:101430008160C1603149314A0839904203D148681E
:1014400040F00F0006E02D4A1432904204D1486863
:1014500040F0F00048607047284A2832904203D19B
:10146000486840F47060F5E7244A3C32904203D16A
:10147000486840F47040EDE7204A5032904203D172
:10148000486840F47020E5E71C4A6432904203D17A
:10149000486840F47000DDE7184A7832904203D182
:1014A000486840F07060D5E7154A111F904203D19B
:1014B000086840F00F0006E0114A1432904204D14F
:1014C000086840F0F000086070470D4A28329042EA
:1014D00003D1086840F47060F5E7094A3C32904255
:1014E00003D1086840F47040EDE7054A503290425D
:1014F000EAD1086840F47020E5E7000008000240E7
:1015000008040240406880B2704700000146002095
:10151000CA0001D5034A00E0034A12680A4200D01B
:10152000012070470004024000000240002A0268C7
:1015300001D00A4300E08A430260704730B5036877
:1015400047F6F07293430C6A8A682243D1E9044556
:101550002C4322438C692243CC6922434C6A2243A8
:101560008C6A22431A430260CA6842600A68826039
:101570004968C16030BD4160704700002DE9FF41FE
:101580000C46294980460025D1E90001CDE9020138
:101590002648417D0091037DC27C817C24A005F01A
:1015A0000DFE2A49002000F0B5F8204822464146A9
:1015B000123000F0B9F8061E03DD25A005F0FEFD8F
:1015C00019E0701C0FD027A005F0F8FD0DF10807F9
:1015D00007EB85002246414600F0A6F8061E15DD01
:1015E000207810B103E024A018E0607890B1A91C25
:1015F00030A005F0E3FDE178A078CDE90001637843
:101600002278414630A005F0D9FD09E0A91C37A099
:1016100005F0D4FD6D1C022DDADB39A005F0CEFDFE
:1016200004B03046BDE8F081088E0008D8000020E4
:101630003E20444E5320317374203A2025642E25D9
:10164000642E25642E25640D0A000000E841002068
:101650003E20444E532031205265706F6E73656496
:101660000D0A00003E20444E532031204661696C33
:1016700065640D0A000000003E204D41585F444F54
:101680004D41494E5F4E414D4520697320746F6F47
:1016900020736D616C6C2E2053686F756C642062D2
:1016A00065207265646566696E65642069742E0DD7
:1016B0000A0000003E20444E5320256420526570ED
:1016C0006F6E7365640D0A003E205472616E736C18
:1016D0006174656420257320746F2025642E256451
:1016E0002E25642E25640D0A000000003E20444E85
:1016F00053202564204661696C65640D0A00000072
:101700003E20416C6C20444E53204661696C6564F8
:101710000D0A0000034A107041F2221051605080FF
:1017200070470000CC0100202DE9F04781460020E1
:10173000274C88B0924660700E4603460246A06071
:101740000221207805F026FC4FF480752B463146A7
:101750000020626803F07AF83527009782B24B4682
:101760002078616805F050FBAE00B84628E020788C
:1017700003F080F9070011D0AF4200D92F4607A827
:10178000009006AB3A462078616804F0C9FE5246E4
:1017900001A8616803F0CEFE814613E002F01AFB57
:1017A000002804DA4FF0000008B0BDE8F08707D148
:1017B000CDF800804B463A462078616805F024FB5E
:1017C000761ED4D2207802F019FB4846ECE70000E0
:1017D000CC0100207047000010B5082000F014F87C
:1017E000BDE81040014800F013BD0000F8000020E3
:1017F00010B5082000F008F8BDE81040014800F0DE
:1018000007BD0000F8000020014908607047000093
:10181000140401400149C8607047000000200240E4
:1018200070B505464FF43026304600F059F80428CC
:1018300011D1094C206940F00200206165612069E6
:1018400040F040002061304600F04AF8216941F63E
:10185000FD721140216170BD002002400849042042
:10186000CA68D20701D001207047CA68520701D563
:1018700002207047C968C906FBD5032070470000E5
:10188000002002400248016941F080010161704777
:1018900000200240F0B506464FF400570D4638468A
:1018A00000F01EF804280CD1064C206940F001001D
:1018B00020613580384600F013F82169BA1E1140C6
:1018C0002161F0BD00200240034802494160034904
:1018D000416070472301674500200240AB89EFCD8E
:1018E00000B50346FFF7BAFF03E000BFFFF7B6FFFE
:1018F0005B1E012803D0002B00D1052000BD002B6A
:10190000F4D1FAE710B50446FFF7DEFF3420FFF705
:1019100081FF2046FFF784FFBDE81040FFF7B2BF0C
:1019200070472DE9F04115460E460746FFF7CCFFFC
:101930003420FFF76FFF002407E036F8141007EBA0
:101940004400FFF7A7FF641CE4B2AC42F5D3BDE846
:10195000F041FFF797BF0000F0B5CA78002502F00C
:101960000F03D20601D58A7813430A784FF00F0E81
:1019700012F0FF0F4FF001021CD004680F8802FA2A
:1019800005F63740B74211D14FEA850C0EFA0CF735
:1019900024EA070703FA0CF43C43CF78282F02D03F
:1019A000482F02D002E0466100E006616D1C082D60
:1019B000E4D304600C88FF2C1ED944685FF0000655
:1019C00006F1080702FA07F50F882F40AF420FD142
:1019D0004FEA860C0EFA0CF7BC4303FA0CF73C43B3
:1019E000CF78282F00D14561CF78482F00D10561ED
:1019F000761C082EE4D34460F0BD0000F0B5144C12
:101A0000002801DAE36900E06368420D120185B243
:101A1000C0F301579540C0F30346032F05D0C2021F
:101A20000AD50322B240934307E023F07062636853
:101A300023F07063636002E0AB4343F0706201B176
:101A40002A43002801DAE261F0BD6260F0BD0000C7
:101A5000000001400246002092680A4200D00120A6
:101A600070474161704701617047FEE7F0B5182685
:101A7000032787B00D460446012802D0022C0FD060
:101A800022E0012141F2040000F0ECFAE020ADF880
:101A900014008DF817608DF8167005A9224811E022
:101AA0000121092000F0DEFA0121880300F0CEFABE
:101AB0004FF46040ADF814008DF817608DF8167083
:101AC00005A91A48FFF748FF0820ADF80C000020D0
:101AD000ADF80000ADF804004FF48271ADF80210CB
:101AE00005F00201ADF8061005F00101ADF80E0099
:101AF000ADF8081007204FF40071ADF80A10ADF8EA
:101B00001000012C0CD0022C08D1094C694620464B
:101B100000F02DFB0121204600F014FB07B0F0BDC2
:101B20006946044CF3E7000000080140000C014046
:101B300000380040003001400AA001F0F1F9104CDB
:101B40004FF4807529462046FFF78DFFC82005F029
:101B50009BFC29462046FFF784FFC82005F094FC33
:101B6000F0E70000596F752061726520696E20747E
:101B700061736B202D2D2D204C4544200D0A000053
:101B8000000C014006484178C94311F0FF01417043
:101B900004484FF0200101D0FFF763BFFFF763BF98
:101BA00008000020000C014038B50121082000F099
:101BB00059FA10208DF803004FF49070ADF8000032
:101BC0000320084C8DF8020069462046FFF7C4FE4A
:101BD00020212046FFF745FFA1152046FFF743FFD0
:101BE00038BD0000000C01402DE9FC4107460024EF
:101BF0000E4625466846009204F01AFC014620462F
:101C000061F307000009022819D101A9009800F02A
:101C100035F8009905460844019900900144081AD6
:101C200002280CDB684604F003FC60F3070404F0B0
:101C300001003870684604F0FBFB3070012528462F
:101C4000BDE8FC81F8B5012500240E4607460C606E
:101C5000641C042C0FDC01216846B84701280AD116
:101C60009DF80000316800F07F0202FB0511ED01D4
:101C700031600006ECD42046F8BD0000024A106036
:101C80000248FFF7DFBF0000D8010020B53B000885
:101C900010B503460020CA1701EB526424F07F02FE
:101CA000891ACAB2E111002902DD00BF42F08002A8
:101CB0001A5400F10100EEDC10BD0000401C802829
:101CC00001DA401C7047B0F5804F01DA801C704784
:101CD0000349884201DAC01C7047001D70470000AC
:101CE000FFFF1F002DE9F8430024884616460546ED
:101CF0004FF0FF3701210094B047012816D1694603
:101D00003046FFF79FFF681C0099FFF7C1FF00995D
:101D1000401C0B18434509DC21B12844B047009909
:101D2000884203D1287860F3070427093846BDE8C4
:101D3000F88300002DE9F8430746009088461446D2
:101D40000025104600F082F88146FFF7B7FF4045B6
:101D500002DDA81EBDE8F8832E46314666F3070172
:101D60006846103106F0A3F949460098FFF790FF46
:101D7000009908440090207A04281DD02FA16846BD
:101D800006F081F90321684606F091F9A07E66F31A
:101D9000070560F34105E07E08B145F004056807DA
:101DA00007D594F83D0060F3C40594F83C0060F357
:101DB0004515206C40B905E022A1684606F063F99C
:101DC0000421E0E7A06C08B145F08005E06C08B99B
:101DD000606D08B145F040052946684606F067F990
:101DE000218B684606F069F904F10C0168460EC9BA
:101DF00006F072F9E07E68B12434684694E80E007B
:101E0000243C06F069F93034684694E80E00303C12
:101E100006F062F9280605D504F1400168460EC9AE
:101E200006F05AF9680605D54C34684694E80E0069
:101E300006F052F90098C01B8CE700004D51497321
:101E4000647000004D5154540000000070B5044609
:101E5000007A0025032802D0042802D002E00C25D5
:101E600000E00A2504F10C0007C800F095F80544CD
:101E7000E07EAD1C78B1243494E80700243C00F0E7
:101E80008BF83034064694E80700303C00F084F8C4
:101E9000304405442D1D206C08B9A16C29B1D4E94A
:101EA000111200F079F80544AD1CE06C08B9616DC1
:101EB00029B1D4E9141200F06FF80544AD1C28468E
:101EC00070BD2DE9FC5F1C46129ECDE90060DDF877
:101ED00038B09046DDF830A0DDE90F23894607468B
:101EE0005946204600F030F80546FFF7E7FE484522
:101EF00003DD6FF00100BDE8FC9F302168F3C301F2
:101F000064F342016AF3000101A806F0D0F8294603
:101F10000198FFF7BDFE019908440190DDE90F2308
:101F2000594601A806F0D8F8002C03DD01A80D9948
:101F300006F0C3F8324611990198FEF76DF9019841
:101F400030440190C01BD6E770B50E4611460446DA
:101F50001A463046049D00F01FF82844801C002CCF
:101F600000DD801C70BD38B50023044600900229B6
:101F700001DA981E38BD194663F3070162F30711B1
:101F8000684606F094F800210098FFF781FE00995A
:101F900008440090001B38BD10B510B1FEF788F959
:101FA0000146084610BDFEE77047000070B50F23DC
:101FB000C47801780122F4B1144C2468457804F403
:101FC000E064C4F5E064240AC4F10406E3408478C4
:101FD000B5401C402C4301F1E021230181F800347D
:101FE000007800F01F018A404009800000F1E020E5
:101FF000C0F8002170BD01F01F0082404809800038
:1020000000F1E020C0F8802170BD00000CED00E080
:102010000249084302490860704700000000FA05C1
:102020000CED00E000F00F00092801D830307047B7
:1020300037307047044A0029516901D0014300E05C
:10204000814351617047000000100240044A00299A
:10205000D16901D0014300E08143D16170470000A4
:1020600000100240044A0029916901D0014300E0B8
:10207000814391617047000000100240F0B52C4A86
:1020800051682C4B11F00C014FF00F0504D02A4C75
:10209000042903D0082903D0036028E0046026E067
:1020A0005168536805EA914103F480330D2901D04A
:1020B000891C00E00621BBB1D36A13F4803FD36AC8
:1020C00003F00F0303F101030AD0D66AD76AC6F3FF
:1020D0000316761CB4FBF6F4C7F30327BF1C7C433E
:1020E000B4FBF3F34B43D7E7144B594301605168FA
:1020F000134C05EA1111635C0168D94041605368D3
:10210000072505EA1323E35C21FA03F38360536890
:1021100005EAD323E35CD940C1605268032303EA94
:102120009232231F9A5CB1FBF2F10161F0BD000015
:102130000010024000127A0040787D0100093D0045
:10214000A00000200029018802D041F0400101E0F8
:1021500021F04001018070470246002012890A42A6
:1021600000D001207047808970478181704730B569
:1021700002884C8802F441530A88CD8822438C8817
:102180002C4322430C8922434C8922438C892243CD
:10219000CC8922431A430280828B22F4006282831C
:1021A000098A018230BD000070B50D46012803D0B8
:1021B000022813D0002070BD134C02212046FFF7E7
:1021C000CBFF0028F9D029462046FFF7CEFF01219A
:1021D0002046FFF7C1FF0028F9D010E00B4C022188
:1021E0002046FFF7B9FF0028F9D029462046FFF71F
:1021F000BCFF01212046FFF7AFFF0028F9D02046A1
:10220000FFF7B1FFC0B270BD0030014000380040A0
:1022100090F84010032908D0072903D00B2904D1D6
:1022200000F034B8082180F84010704704210148BC
:10223000FFF710BC0010014013B5012201A900F006
:1022400001F81CBD2DE9F047DFF83C900E4607462B
:102250004FF480481546002441464846FFF701FCEC
:1022600047F080010120FFF79FFF05E0315D01206D
:10227000FFF79AFF641CE4B2AC42F7D341464846EC
:10228000BDE8F047FFF7EFBB0018014010B504466A
:1022900004211220FFF7D0FF002084F84000FFF750
:1022A000C5FF012801D0022010BD01211220FFF737
:1022B000C3FF012010BD00000CB500212E48019184
:1022C0000091026842F4803202604FF4A063026819
:1022D00002F400320092019A521C0192009A12B943
:1022E000019A9A42F3D10268920342D501210091EA
:1022F00022490A6842F010020A600A6822F00302CA
:102300000A600A6842F002020A604168416041685E
:102310004160416841F480614160C16A184A1140DE
:10232000C162C16A174A1143C162016841F080610C
:10233000016001680901FCD5416821F47C1141600C
:10234000416841F4E8114160016841F08071016029
:1023500001688901FCD5416821F0030141604168B1
:1023600041F0020141604168C1F381010229FAD1C3
:102370000CBD00910CBD0000001002400020024086
:1023800000F0FEFF44060100124810B5016841F05C
:10239000010101604168104A1140416001680F4A23
:1023A00011400160016821F480210160416821F43D
:1023B000FE014160016821F0A05101604FF47F01EE
:1023C00081600021C162FFF777FF05494FF000608F
:1023D000086010BD001002400000FFF0FFFFF6FE95
:1023E00008ED00E010B501218C07204600F08AF8C6
:1023F00000280AD00121204600F066F806494878F6
:10240000022803D24878401C487010BD2046BDE821
:102410001040002100F05EB8C400002010B5064C4A
:1024200000216170401F80B2482100F0E7F9607818
:102430000228FCD110BD0000C400002070B51A4D68
:102440001021284600F05EF8184C10B3284600F022
:1024500056F860801021284600F036F869151448B7
:10246000FFF7F8FA104920310028088802D040F41C
:10247000005001E020F40050088001202070A06886
:102480006188428800EB420291804188491C41806A
:1024900070BD0121284600F017F820780128F7D1F7
:1024A0000220207070BD000000080040C400002021
:1024B000000C01400029018802D041F0800101E0B8
:1024C00021F0800101807047C94301827047C943F0
:1024D000018270470029018802D041F0010101E02A
:1024E00021F0010101807047002930F8441F02D01B
:1024F00041F4004101E0C1F30E0101807047B0F8E2
:102500004000704702460020138A92890B4202EA7B
:10251000010202D0002A00D001207047002A8289DF
:1025200001D00A4300E08A438281704730B5028CB3
:1025300022F001020284028C8388048B22F00202C2
:1025400024F073050C882C430D8915434A882A43CF
:10255000114DA8420BD0114DA84208D0104DA842F1
:1025600005D0104DA84202D00F4DA8420DD122F047
:1025700008054A8923F440732A4322F004058A8817
:102580002A438D891D43CB892B4383800483C988CB
:102590008186028430BD0000002C014000340140DF
:1025A000004001400044014000480140028B22F0FD
:1025B00008020A430283704770B5028C22F01002B1
:1025C0000284028C8488038B0D8823F4E6464FF640
:1025D000FF7303EA052535430E8922F0200203EA42
:1025E000061616434A8803EA02123243104EB042DE
:1025F00002D0104EB04215D122F080064A8924F450
:10260000406403EA0212324322F040068A8803EA59
:10261000021232438E8903EA86062643CC8903EAF6
:102620008404344384800583C9880187028470BD93
:10263000002C014000340140028B4FF6FF7322F45E
:10264000006203EA012111430183704770B5028CD7
:1026500022F480720284028C8488838B0D8823F09C
:1026600073031D4322F400730E894FF6FF7202EAD2
:1026700006261E434B8802EA03233343104EB04222
:1026800002D0104EB04215D123F400664B8924F4D9
:10269000405402EA0323334323F480668B8802EA22
:1026A000032333438E8902EA06162643CC8902EAC5
:1026B0000414344384808583C9888187038470BD72
:1026C000002C014000340140828B22F008020A43B2
:1026D0008283704770B5028C22F480520284048C8D
:1026E0008288838B0D8823F4E6464FF6FF7303EA56
:1026F0000525354324F400560C8903EA0434344399
:102700004E8803EA06362643094CA04202D0094C03
:10271000A04205D122F480448A8903EA821222432E
:1027200082808583C988A0F84010068470BD0000AF
:10273000002C014000340140828B4FF6FF7322F4DD
:10274000006203EA0121114381837047818670474B
:102750000187704781877047A0F8401070470000DC
:1027600030B502881B4B1C4C98420DD0A0420BD0B8
:10277000B0F1804F08D0194DA84205D0184DA8429D
:1027800002D0184DA84203D122F070054A882A438E
:10279000154DA84206D0154DA84203D022F440752D
:1027A000CA882A4302808A8882850A8802859842DC
:1027B0000AD0A04208D00E4A904205D00D4A90425D
:1027C00002D00D4A904201D1097A0186012181820D
:1027D00030BD0000002C01400034014000040040E6
:1027E00000080040000C00400010004000140040B1
:1027F0000040014000440140004801407FB50C46C4
:10280000054601210846FFF721FC641EADF8004093
:102810000020ADF80450ADF80600ADF802004FF00E
:10282000804469462046FFF79BFF1C208DF80C0072
:1028300005208DF80D0003208DF80E0001208DF885
:102840000F0003A8FFF7B2FB01212046FFF73CFE73
:1028500001212046FFF73BFE012211462046FFF7EB
:102860005DFE01212046FFF735FE7FBD10B500213A
:102870000448FFF72FFE0021BDE810400220FFF7BB
:10288000E5BB000000040040F0B50446344889B0C0
:102890000D46446001210220FFF7D8FB01210C20E6
:1028A000FFF7E0FBC020ADF81C0018208DF81F00DA
:1028B00003268DF81E6007A92A48FFF74DF8ADF8EA
:1028C0001C6007A92848FFF747F86D1E601EADF889
:1028D0001050ADF814000025244FADF81650ADF897
:1028E000125004A93846FFF73BFF6020ADF8000006
:1028F0000120ADF80200B4FBF6F0401EADF8060072
:10290000ADF8085069463846FFF710FE08213846F2
:10291000FFF74CFE69463846FFF74EFE0821384661
:10292000FFF78AFE69463846FFF790FE08213846D1
:10293000FFF7CAFE69463846FFF7CCFE0821384645
:10294000FFF7FAFE01213846FFF7CEFD0121384698
:10295000FFF7B0FD01213846FFF7BCFD09B0F0BD1F
:10296000C400002000080140000C014000040040A9
:10297000F8B5102103268DF80310244D8DF8026060
:1029800001281CD0022823D0214C03282CD0042855
:1029900033D0002827D1C020ADF800006946284672
:1029A000FEF7DAFFADF8006069462046FEF7D4FF77
:1029B000C0212846FFF755F80321204611E04020AA
:1029C000ADF8000069462846FEF7C6FF402107E043
:1029D0008020ADF8000069462846FEF7BDFF802143
:1029E0002846FFF73EF8F8BD0120ADF80000694623
:1029F0002046FEF7B1FF0121DFE70220ADF800001D
:102A000069462046FEF7A8FF0221D6E700080140EC
:102A1000000C014038B518218DF803100321144C27
:102A20008DF80210012810D0022810D0114A032876
:102A300015D0042815D0002810D1ADF80010694633
:102A40001046FEF789FFC02002E0402000E0802011
:102A5000ADF8000069462046FEF77EFF38BD012034
:102A600000E00220ADF8000069461046F4E70000DF
:102A700000080140000C01402DE9F04105461F48C7
:102A80000C464FF0FF36814235DA14F1FF4F32D257
:102A90001B484068FDF708FF2146FDF74BFDFDF799
:102AA00026FF84B21748052D25D2DFE805F0110373
:102AB000070B0F002146FFF749FE19E02146FFF7FB
:102AC00047FE15E02146FFF745FE11E021460DE0E7
:102AD00021460746FFF73AFE21463846FFF738FE03
:102AE00021463846FFF736FE21463846FFF734FECA
:102AF0000020BDE8F0813046FBE7000077BE7F3F55
:102B0000C4000020000400402DE9F0478CB02C21C7
:102B10006846FDF79AFB00240E200B948DF82C00DC
:102B20000D208DF82D008DF82E4001208DF82F00FE
:102B30000BA8FFF73BFA01210846FFF77BFADFF805
:102B400090A05046FEF76CFC234E224D0095306954
:102B5000019010200290C827CDE903744FF080083F
:102B6000CDE905844FF40059CDE908490794694639
:102B700050460A94FEF7E2FC01215046FEF744FC61
:102B8000012202215046FEF7D1FCDFF844A00AF1F1
:102B9000140A5046FEF744FC009501A9F06881E84C
:102BA0009100CDE90448CDE90849069407946946A7
:102BB00050460A94FEF7C2FC01215046FEF724FC61
:102BC00001224021281F00F090F80CB0BDE8F087EA
:102BD0004400024004380140B0000020F8B5204D08
:102BE00040F224473946284600F08EF8012835D1B6
:102BF0001C4C00212046FEF707FC2888281D008871
:102C00002046FEF77FFCD0F1C80115D0164E1748BC
:102C1000491CF26800F0B6FA012000906946B068DD
:102C200004F0BCFC009838B111494FF080500860A6
:102C3000BFF34F8FBFF36F8F4FF48030FEF7D8FB99
:102C40003946284600F041F8C8212046FEF793FC9B
:102C50002046BDE8F8400121FEF7D6BBF8BD0000D4
:102C60000038014058000240B000002058400020C9
:102C700004ED00E010B5114C40F22551204600F063
:102C800043F8002818D0204600F0CCF8C1B20C4818
:102C90000388C268D15402880023521C92B2028079
:102CA000C62A00D10380074C4288A154521C91B21D
:102CB0004180C62900D3438010BD0000004400407D
:102CC000B00000202041002070470A0A01219140F5
:102CD000C943018070470029818902D041F4005125
:102CE00001E021F4005181817047002A828A01D0DD
:102CF0000A4300E08A43828270470246002012881D
:102D00000A4200D00120704730B501F01F020124B3
:102D10000025C1F3421304FA02F2012B0FD0022B5B
:102D20000FD0838A4FEA11210088134204FA01F47C
:102D300000EA040001D000B10125284630BD838996
:102D4000F0E7038AEEE710B5C1F3421301F01F0468
:102D50000121A140012B07D0022B07D01430002AFB
:102D6000026805D00A4304E00C30F8E71030F6E7BB
:102D70008A43026010BD000030B50446008A85B069
:102D80000D464CF6FF710840E98801432182A18974
:102D90004EF6F3100140A8882A8910436A890A4335
:102DA0001043A081A08A4FF6FF410840A989014342
:102DB000A1826846FFF762F91948844201D103985D
:102DC00000E00298A189090400EBC00101EB0010AA
:102DD000296801D5490000E08900B0FBF1F06422C8
:102DE000B0FBF2F109010B096FF018056B4300EB22
:102DF0008300A3891D044FF0320306D503EBC00006
:102E0000B0FBF2F000F0070005E003EB0010B0FBB0
:102E1000F2F000F00F000843208105B030BD000043
:102E2000003801408088C0F308007047F0B587B0D3
:102E30000024074600940494019402940394012111
:102E400044F209000594FFF70DF901210420FEF773
:102E5000D5FD4020ADF8100003258DF81250182044
:102E60002C4E8DF8130004A93046FEF775FD802026
:102E7000ADF8100004208DF8130004A93046FEF7C9
:102E80006BFD25208DF814000C268DF815608DF84B
:102E9000165001208DF8170005A8FFF787F8ADF848
:102EA0000440ADF808400097ADF80640ADF80C407E
:102EB000ADF80A60C82003F031FA174CE060C82072
:102EC00003F02CFA206110B1C821FDF7BEF9E068CB
:102ED00010B1C821FDF7B9F9FFF716FE0F4D69468D
:102EE0002846FFF749FF012240F224412846FFF718
:102EF0002AFF01212846FFF7EEFE032200210120D0
:102F000005F064F900231A461946606005F0C6F919
:102F100007B0F0BD000C0140B000002000380140B7
:102F200070B5144C06464FF0FF31606805F0AEFBFB
:102F3000114D40212846FFF7E0FE0028F9D0314628
:102F40002069FDF7BCF90D4C00212046FEF75CFA24
:102F50003046FDF7ADF981B22046FEF70CFB0121AA
:102F60002046FEF751FA2846BDE870400122802134
:102F7000FFF7BBBEB0000020003801404400024013
:102F8000054605F015FD0D494FF0FF340860214658
:102F9000012004F045F9014601280AD002D908A011
:102FA00004F00CF9002302221946284605F090FC93
:102FB000EDE70B48FFF7B4FFF4E70000B80000208E
:102FC00053656E6420746F6F20666173742C206F7C
:102FD000766572666C6F773A2025640A00000000FF
:102FE00058400020FEE70000F8B5144C0546A068E4
:102FF000804720698047216AC5F30740C5F307264B
:1030000099B1626A8AB18DF800008DF801608DF87F
:103010000250032168469047A069804705466069D1
:103020008047E06880472846F8BDE1698847E16944
:1030300030468847E169E8B28847EDE7480100205B
:103040002DE9F8431A4C05461746A0688846804784
:1030500020698047216AC5F30740C5F30726A1B15F
:10306000626A92B18DF800008DF801608DF802500F
:10307000032168469047226A394640469047606976
:103080008047E0688047BDE8F883E1698847E169E7
:1030900030468847E169E8B28847002505E0A06925
:1030A000804708F805006D1CADB2BD42F7D3E6E7D6
:1030B00048010020F8B5164C05460E46A06880472A
:1030C00020698047626A45F004058AB1280C8DF8B2
:1030D0000000280A8DF801008DF802508DF8036079
:1030E00004216846904760698047E0688047F8BDE2
:1030F000E169C5F307408847E169C5F307208847C0
:10310000E169E8B28847E16930468847EBE70000AB
:1031100048010020F8B51A4C05461646A0680F462F
:10312000804720698047626A45F004059AB1280CFF
:103130008DF80000280A8DF801008DF80250032157
:1031400068469047626A31463846904760698047D2
:10315000E0688047F8BDE169C5F307408847E16949
:10316000C5F307208847E169E8B28847002504E0F5
:10317000E169785D88476D1CADB2B542F8D3E5E7EB
:10318000480100200FB41CB50246002007AC0029FE
:103190000BD0491ECDE90021054B6A462146069811
:1031A00000F000F9009A002111701CBC5DF814FBBE
:1031B000D33A00080FB4084B10B504A902AA03982B
:1031C00000F0F0F8044602A9002000F08DFC204633
:1031D00010BC5DF814FB0000E93A000837B514464E
:1031E0000846064B6A46214600F0DCF8044669466C
:1031F000002000F079FC20463EBD0000E93A0008BE
:1032000002E008C8121F08C1002AFAD170477047AF
:10321000002001E001C1121F002AFBD1704700000D
:103220002DE9FF5F82B00021DDE90430020DDDF8F9
:1032300040B0034318D044F61050A2F2FF3242438C
:103240001514119801281FD0A5EB0B00401C5FEA54
:10325000000A4FF000064E4FDFF83891B046504656
:1032600015D5CAF1000413E0119801244AA30128DE
:1032700001D16FEA0B010298119AC0E90031C0E94F
:10328000024206B0BDE8F09FCBF10000DFE7044644
:103290000021404A491842EB0450CDE9001012E0E9
:1032A000E00707D032463B4640464946FDF71BFA49
:1032B0008046894632463B4610461946FDF713FACA
:1032C00006460F466410002CEAD1DDE90401DDE971
:1032D0000023BAF1000F06DAFDF705FA42464B4625
:1032E000FDF701FA05E0FDF770FA42464B46FDF79F
:1032F0006CFA04460E460022284BFDF743FB03D828
:103300004FF0FF30014607E00022254B20463146B2
:10331000FDF742F9FDF7B8FC102409E0002C0ADBA8
:103320000A220023FDF778FB039B30321A55641EF6
:1033300050EA0102F2D1641C039AC4F1110314444F
:10334000119A012A03D0012208430DD10AE0084353
:1033500004D000204FF0110B119072E7A3EB0B0586
:103360006D1E0DE05B4504DD4FF0000205F1010527
:1033700004E003DA4FF00002A5F10105002AECD0C9
:1033800002981199C0E90231C0E9004579E70000CF
:10339000000014400000F03F300000000000F04347
:1033A0000000E03F2DE9FF4F95B09B468946064659
:1033B00000250FE2252877D100242746F84A01216D
:1033C000059400E0044316F8013F203B01FA03F0A6
:1033D0001042F7D130782A2811D06FF02F033078BF
:1033E000A0F13002092A16D8059A44F0020402EB33
:1033F000820203EB42021044761C0590EFE759F875
:10340000042B0592002A03DA504244F4005405903C
:1034100044F00204761C30782E2816D116F8010FDD
:1034200044F004042A280DD06FF02F023078A0F168
:103430003003092B09D807EB870302EB4303C718B6
:10344000761CF3E759F8047B761C30786C280FD093
:1034500006DC4C2817D068280DD06A2814D104E067
:10346000742810D07A280FD10DE044F400140AE03B
:1034700044F4801401E044F440147278824202D192
:1034800004F58014761C761C307866280BD013DC8B
:10349000582877D009DC002875D04528F6D0462872
:1034A000F4D047281AD19DE118E0632835D064286C
:1034B00079D0652812D195E1702873D008DC67288F
:1034C000F1D069286FD06E280DD06F2806D1B5E0F5
:1034D00073282CD0752875D0782874D05A4617993F
:1034E00090476D1C75E1C4F30250022809D00328EF
:1034F0000DD0D9F8001004280DD00D6009F1040991
:1035000067E1D9F80010EA17C1E90052F6E7D9F8E7
:1035100000100D80F2E70D70F0E719F8041B8DF82C
:10352000001000208DF80100EA46012003E059F860
:1035300004AB4FF0FF3061074FF0000102D40DE003
:1035400008F101018846B9420FDA8045F8DB1AF824
:1035500008100029F4D108E008F1010188468142F1
:10356000FADB1AF808100029F6D105985B46A0EBA3
:10357000080721463846179A00F094FA284400EBD1
:10358000080507E04DE029E10DE01AF8010B5A4665
:1035900017999047B8F10108F7D25B4621463846A3
:1035A000179A13E142E00A220092C4F302524FF04C
:1035B000000A022A08D059F804CB032A4FEAEC711A
:1035C0000AD00DE029E02AE009F1070121F0070205
:1035D000F2E802C1914609E00FFA8CFC4FEAEC7167
:1035E000042A03D14FFA8CFC4FEAEC71002907DA68
:1035F0000A460021DCF1000C61EB02012D2202E001
:10360000220504D52B228DF80420012203E0E207D5
:1036100001D02022F7E7904659E00A2102E010226B
:103620000DE010214FF0000A00910BE010224FF046
:10363000000A44F004040827009203E008224FF037
:10364000000A0092C4F30252022A05D059F804CBB2
:103650000021032A08D009E009F1070121F007023F
:10366000F2E802C1914605E01FFA8CFC042A01D160
:103670000CF0FF0C4FF00008220728D5702806D068
:10368000009B83F0100353EA0A0305D00EE04022AA
:103690008DF80420012208E05CEA010206D0302205
:1036A0008DF804208DF8050002229046009B83F0DF
:1036B000080353EA0A030AD15CEA010201D1620756
:1036C00005D530228DF804204FF001087F1E5828C0
:1036D00004D034A003900EA802900DE036A0F9E7C4
:1036E00053466046009AFDF797F984460398825C3A
:1036F0000298401E029002705CEA0100F0D102982C
:1037000006A9081A00F1200A600702D524F48034C3
:1037100000E00127574502DDA7EB0A0000E000208A
:1037200000EB0A01009005984144401A0590E0031F
:1037300006D45B462146179A059800F0B3F9054474
:10374000002706E001A85A46C05D179990476D1CF6
:103750007F1C4745F6DBE0030CD55B462146179AF4
:10376000059800F09FF9054404E030205A46179967
:1037700090476D1C0099481E00900029F5DC08E078
:10378000029802995A460078491C0291179990476D
:103790006D1CBAF10001AAF1010AF1DC65E100003B
:1037A0000928010030313233343536373839616217
:1037B00063646566000000003031323334353637DB
:1037C00038394142434445460000000000F058F9B2
:1037D0000544761C307800287FF4ECAD19B02846FB
:1037E000BDE8F08F620700D4062709F1070222F036
:1037F000070CFCE80223E14603F000485FEA080CEE
:1038000002D00FF2702C0DE05FEA045C02D50FF2DB
:10381000682C07E05FEAC47C02D00FF2602C01E064
:10382000AFF2700C4FF0FF3823F00043CDF850C0DA
:1038300065280CD006DC452809D046281DD047282D
:103840003DD13DE0662818D067287ED138E00021C0
:10385000112F01DB112000E0781CCDE9000106A941
:103860000EA8FFF7DDFCDDE90F010E9A03910021A0
:10387000009207F1010A04914DE04FF000400097DB
:10388000CDE9011006A90EA8FFF7CAFCDDE90F0279
:1038900003920E9B11990022DDF80CA00093049274
:1038A00011B9791C00EB010AB7EB0A0004D4C0F18E
:1038B000FF3007F1010A0490AAEB0700019044E0F1
:1038C000012F00DA01270021112F01DD112000E076
:1038D0003846CDE9000106A90EA8FFF7A1FCDDE9F5
:1038E0000F010E9A0391002104910092BA4621071C
:1038F0000CD40399514500DA8A46BAF1010F05DD6F
:10390000009AAAF10101515C302908D0B84202DACC
:1039100010F1040F06DA0121CDE9011015E0AAF13A
:103920000101E9E7002805DC049901440491AAEBB0
:10393000000102E0411C514500DD8A460499401A0D
:10394000401C01904FF000400290200704D40198E1
:10395000504501DBCDF8048000208DF84F0002981F
:103960000DF14F07B0F1004F25D02B200E9002989B
:103970004FF0020800280CDA404202902D200E90F1
:1039800007E00A210298FDF731F83031029007F87C
:10399000011DB8F10001A8F10108F2DC029800282D
:1039A000EFD1791E0E980870307800F0200040F0BA
:1039B000450007F8020D12A8C01B00F10708149873
:1039C000007800B1012000EB0A01019801EBE071E1
:1039D00005984144401A401E0590E00306D45B461A
:1039E0002146179A059800F05DF805441498007870
:1039F00018B15A46179990476D1CE00324D55B46D1
:103A00002146179A059800F04DF805441CE00498EB
:103A1000002807DBDDE90301884203DD0098405CF4
:103A2000179901E0179930205A469047049805F1FC
:103A30000105401C04900198401E019004D12E20E5
:103A40005A46179990476D1CBAF10001AAF1010A74
:103A5000DDDC05E017F8010B5A46179990476D1CFD
:103A6000B8F10001A8F10108F4DC5B462146179A81
:103A70000598ABE62D0000002B00000020000000A0
:103A80002DE9F041044600251E461746880404D45B
:103A900005E039462020B0476D1C641EF9D5284644
:103AA000BDE8F0812DE9F041044600251E46904610
:103AB000C80301D5302700E02027880404D505E09D
:103AC00041463846B0476D1C641EF9D52846BDE80E
:103AD000F0814A68002A06D00A68531C0B601070F7
:103AE0004868401E486070470A68531C0B6010709D
:103AF0007047000010B54FF45A70FFF775FA48B3DD
:103B0000132804D0172813D01C2833D11EE01A48DC
:103B10001A490288032000F085FB0446012829D0B9
:103B2000032000F0F5FD214615A003F047FB21E03E
:103B30004FF41A742046FFF757FAC00703D001214B
:103B40002046FFF7B7FA01F095FA98B1032000F08C
:103B5000DFFD0FE0002341F289320121032003F051
:103B600019FA032807D103210EA003F027FB1049FF
:103B700001200870002010BD260000202100002038
:103B8000436F6E6E65637420544350207365727684
:103B90006572206661696C2C726574203D20256415
:103BA0000D0A000025643A4F70656E65640D0A00C9
:103BB000D000002030B5044606480023026803E028
:103BC00012F8015B25705B1C8B42F9DB0260084632
:103BD00030BD0000D80100208268002901D01AB948
:103BE00081607047020002D010680028FAD111608D
:103BF0004A60704770B514000D4606460ED0206A24
:103C000010B1074949688847284600F063F82062E8
:103C100021463046BDE87040FFF7DEBF70BD0000B2
:103C2000E001002010B5044600F042F8002804D05E
:103C30000CB1012100E00021C16010BD70B5054646
:103C40000E4600F035F8040008D00320E060C4E917
:103C5000065628463146FCF75EFE6061204670BD80
:103C600010B500F025F8002801D00621C16010BD74
:103C700070B504460D4E16E0A0892568C0050AD42B
:103C8000A06820B1FFF7F4FFA089C00503D4206924
:103C900008B171688847206A08B1716888477168FF
:103CA000204688472C46002CE6D170BDE00100205C
:103CB000054910B5096828208847040002D028214A
:103CC000FCF7C3FA204610BDE001002001220021CC
:103CD00001F072BF70B50646FCF7EAFA0649401CCF
:103CE000044609688847051E04D022463146FCF781
:103CF00093FA284670BD0000E0010020F8B54FF4AB
:103D0000D8563046FFF770F9054603213046FFF7D5
:103D1000D1F90E4B41F28830DC1F009011220CA12A
:103D2000A07803F071F8074629463046FFF7C2F93C
:103D30000D3708D002F0E8FDE069E169091A0229AF
:103D4000FBD30020F8BD0120F8BD00008701002052
:103D5000434845434B5F49505F434F4E464C4943B0
:103D60005400000070B51A4C0125204694F901104A
:103D7000002690F90000082917DAD4E907219142BA
:103D800023D2012804D0022805D0042805D102E05E
:103D900002F03AFE01E002F0EFFEE661E069401C4D
:103DA00020626078401C60700FE0012804D0022877
:103DB00005D0042807D102E02670002503E002F0B8
:103DC00023FE0120207002F007FD284670BD000090
:103DD000800100200848816803290BD300228260FB
:103DE0004178022902D34270501E7047491C41702D
:103DF0000020704701207047CC01002070B50446B8
:103E0000082802D94FF0FF3070BD4FF4847000EBEA
:103E1000441005461021FFF74DF92846FFF7E4F856
:103E20000028FAD14FF4027000EB44101F21FFF775
:103E300041F90D490120A0404A8882434A808A887E
:103E400082438A800949002021F814000649891D0F
:103E500008554FF4427000EB44142046FFF7C4F8B5
:103E60000028FAD1012070BD70010020E84900202F
:103E70000EB5142002F052FA6B4D00266B4C8046B2
:103E80004FF0FF3A05F124074FF002090296514620
:103E9000012003F0C5F902AB424665A16648FCF774
:103EA00017FA66A14046FCF7DBF960B1A06840B1A3
:103EB0000298A86341463846FCF701FAA068686496
:103EC00077E060A011E069A14046FCF7C9F978B13C
:103ED000606848B126700298686141465248FCF714
:103EE000EEF96068286264E061A003F067F9CEE74C
:103EF00069A14046FCF7B4F928B30298012802D022
:103F0000606890B18BE0A0680028FBD1606810B1B8
:103F100003F0E0FA666045493B460831CDE900917F
:103F20004FF448725FA1634864E0A06810B103F0E9
:103F3000D1FAA6603D493C4B091DCDE90091802294
:103F40005DA1614856E061A14046FCF789F9D8B10E
:103F500002980128E0680BD0002860D0FEF786FCAC
:103F60005DA0FEF7DDFFE06803F0B4FAE66056E01E
:103F7000002854D12D492C4B0C31CDE90091483B00
:103F800080225CA15F4835E05FA14046FCF768F9FC
:103F9000C8B1E06898B1DFF890B00299ABF1480B76
:103FA0005846CBF814104146FCF789F9E068CBF885
:103FB000200000230222194604F08AFC2FE055A0BD
:103FC000FEF7AEFF63E75CA14046FCF749F9A0B1FC
:103FD000206908B15BA020E0134902982439124BF4
:103FE00048611249243B1031CDE900914FF48072B1
:103FF0005AA1604804F040FC11E05FA14046FCF784
:104000002FF948B1206950B15EA0FEF789FF206901
:1040100003F060FA266102E05EA0FEF781FFC8218E
:104020000548FCF712F932E73402002008000020AE
:104030002573202564000000584000206C656172E3
:104040006E000000506C6561736520456E7465728A
:10405000205243206C6561726E696E67206D6F64DB
:10406000652066697273740D0A000000757365003F
:10407000506C6561736520456E74657220524320F3
:1040800053656E64696E67206D6F64652066697242
:1040900073740D0A0000000072656D6F74655F73C4
:1040A00065740000636F64655F6C6561726E696E54
:1040B000670000000D4B0008636F64655F73656EF9
:1040C00064696E6700000000C94C00086D6F74657C
:1040D000725F63746C0000004578697420537465E6
:1040E0006572696E6720456E67696E656520437409
:1040F0006C0D0A005374656572696E6720456E67C2
:10410000696E6500B17000086D6F7465725F7365EC
:1041100074000000456E746572206D6F74657220C6
:10412000636F6E74726F6C206D6F64652066697268
:1041300073740D0A000000006C616E5F656E616251
:104140006C650000416C726561647920656E616226
:104150006C6564204C616E0D0A0000004C616E209D
:1041600054435020536572766572204C6F6F7062B5
:1041700061636B00214E00086C616E5F646973615E
:10418000626C65004C616E2064697361626C656489
:104190000D0A0000496E76616C6964205461736B8E
:1041A0000D0A00002DE9F041FDF7BAFB1C4F054652
:1041B0004FF48076002431463846FDF752FC00204B
:1041C000FEF7D6FB1FE0E007314638460CD0FDF77E
:1041D00048FC0020FEF7CCFB05EB4400C18880883A
:1041E000814207D9081A09E0FDF73DFC0020FEF7DF
:1041F00011FCF1E74EF66022101A084480B2FEF777
:104200000DF9641CE4B26888401EA042DBDC314634
:104210003846FDF726FCBDE8F0410020FEF7A8BBBC
:10422000000C01402DE9F04117460E4604460828CF
:1042300003D94FF0FF30BDE8F08160014FF0010875
:104240000830FEF7D1FE00F00F00012802D06FF019
:104250000400F0E74FF4427000EB44100546FEF70F
:10426000C3FE132802D06FF00200E4E730787178C3
:1042700001EB0020B17801EB0020F17801EB002088
:10428000411C2CD058B36FB340F6084000EB4410EB
:1042900004223146FEF73EFF41F20800390A00EBE6
:1042A0004410FEF707FF41F20810F9B200EB44108A
:1042B000FEF700FF4FF4847000EB44100646042123
:1042C000FEF7F8FE3046FEF78FFE0028FAD11649B9
:1042D00008FA04F0498808421AD00020ABE76FF0D2
:1042E0000B00A8E76FF00A00A5E72046FEF77CFE6A
:1042F000000706D520460821FEF7DCFE6FF00C0013
:1043000099E72846FEF770FE30B96FF0030092E798
:104310004FF4027000EB44142846FEF765FE1728A0
:10432000E3D1012087E700007001002010B50C46A2
:1043300006281ED2DFE800F003070B1014182046F1
:1043400003F06CFD13E0204603F0DAFC0FE0207868
:10435000BDE8104003F08EBD03F0FEFC207006E0C7
:10436000204603F099FD02E0204603F0F8FC00200F
:1043700010BD4FF0FF3010BD2DE9F0410C4600217B
:1043800002464F1E08464FF498554FF4A056102A87
:1043900061D2DFE802F0080B17131A1E222C3643F5
:1043A000464A574E535A03F093FD4BE014B1204652
:1043B00004F10801BDE8F04103F0E5BC208803F0FA
:1043C0005DFC3FE003F07EFC05E0208803F018FD73
:1043D00038E003F086FC208034E02088010A28467B
:1043E000FEF768FE21783046FEF764FE2AE030468C
:1043F000FEF7FAFD06462846FEF7F6FD06EB00201E
:10440000E9E7164882782270C27862700279A27059
:104410004279E27080792071617113E003F0D1FD7F
:1044200010E0204603F0E2FD0CE0204603F08AFD98
:1044300008E02078BDE8F04103F0FDBD03F0B4FDD5
:1044400005E020700020BDE8F08103F0A2FDC0B2BD
:1044500041B2491CF5D13846F5E70000480100207B
:1044600010B5042209494FF47060FEF753FE074966
:10447000042208314FF4A060FEF74CFE03490422E9
:10448000091DBDE810409001FEF744BE87010020E1
:1044900010B580210020FEF70DFE0020FEF7A4FDE0
:1044A000BDE81040062202494FF41060FEF732BE0C
:1044B000BC01002010B580210020FEF7FBFD00208C
:1044C000FEF792FDFFF7CCFFBDE81040062202493F
:1044D0004FF41060FEF71EBEBC01002070B58024B2
:1044E00000F026F8E500114E02E0012000F0C5F8CA
:1044F00029463046FDF7AEFA20B1641E14F0FF04E1
:10450000F3D111E084B1802402E0012000F0B5F87D
:1045100029463046FDF79EFA10B12CB1002070BD3F
:10452000641E14F0FF04F0D1012070BD000C0140A6
:1045300008B54FF48060ADF8000003208DF802004C
:1045400048208DF8030069460148FDF705FA08BDCB
:10455000000C014008B501210820FDF783FD4FF450
:104560008060ADF8000003208DF8020010208DF867
:10457000030069460148FDF7EFF908BD000C014052
:1045800010B500F05BF8BDE81040FFF7A7BF0000D2
:1045900070B58024E500124E02E0012000F06DF8B5
:1045A00029463046FDF756FA10B1641EE4B2F4D243
:1045B000582402E0012000F060F829463046FDF75B
:1045C00049FA10B9641EE4B2F4D2262000F055F87E
:1045D00029463046FDF73EFA012800D0002070BD84
:1045E000000C014070B5002420464006050EFFF780
:1045F000CFFF641C2843E4B2082CF6D370BD70B51D
:104600000446002500F01AF8FFF768FF08B1022001
:1046100070BDFFF7E7FF60556D1CEDB2052DF8D3B7
:1046200020786178E2780844A1781144084421791F
:10463000884201D0012070BD002070BD70B5FFF729
:1046400089FF094D4FF4806421462846FDF709FA99
:10465000142000F00BF821462846FDF704FABDE8C7
:1046600070401E2000F009B8000C01404FF47A7130
:104670004843B0FBF1F002F007BF00BF00BF00BF2E
:1046800000BF00BF00BF00BF00BF00BF00BF00BF32
:1046900000BF00BF00BF00BF00BF00BF00BF00BF22
:1046A00000BF00BF00BF00BF00BF00BF00BF00BF12
:1046B00000BF00BF00BF00BF00BF00BF00BF00BF02
:1046C00000BF00BF00BF00BF00BF00BF00BF00BFF2
:1046D00000BF00BF00BF00BF00BF00BF00BF00BFE2
:1046E00000BF00BF00BF00BF00BF00BF00BF00BFD2
:1046F00000BF00BF00BF00BF00BF00BF00BF00BFC2
:1047000000BF00BF00BF401E0004000CB5D17047C1
:1047100070B50446082802D94FF0FF3070BD600123
:1047200001250830FEF760FC00F00F00012801D0E1
:10473000A81F70BD4FF4847000EB4410064608219A
:10474000FEF7B8FC3046FEF74FFC0028FAD11248BD
:10475000A5408188A9438180408805420CD0002073
:1047600070BD3046FEF740FC00070DD52046FFF730
:1047700045FB6FF00C0070BD4FF4027000EB441667
:104780004FF4427000EB44152846FEF72DFC00283C
:10479000E7D1012070BD00007001002070B586B027
:1047A00015460C46064618236A4600F02FFF411CAA
:1047B00049D00444204600F021F90A3410283FD2A1
:1047C000DFE800F03E08153E3E152B1515153E3E60
:1047D000151A3E2114F8010B287014F8010B6870AB
:1047E00014F8020BA87014F8010CE87028E01823E4
:1047F0006A460BE0044423E014F8010B204410F84F
:10480000011B44181CE018236A46A41C21463046AC
:1048100000F0FCFE411C16D0ECE718236A46214646
:10482000304600F0F3FE411C0DD0044418236A46C4
:104830002146304600F0EAFE411C04D00444143402
:10484000204606B070BD0020FBE700002DE9F043D4
:10485000034691461046294A0D4687B05188491CA7
:1048600089B2518001F053FD4FF4807141EAC321B8
:1048700089B201F04CFD012101F049FD002101F058
:1048800046FD002101F043FD002101F040FD0446FA
:1048900029466846FBF713FD6E463046FBF708FDD8
:1048A0001FFA80F82E213046FBF7F8FC070002D0F3
:1048B000B81B85B200E0454604F8015B8DB12A467D
:1048C00031462046FBF7DEFC2C443FB1A8EB050047
:1048D000401E2E441FFA80F8761CE3E7002004F8FF
:1048E000010B0121204601F012FD012101F00FFD15
:1048F000A0EB090007B000B2BDE8F083CC010020B6
:1049000010B586B00C4618236A4600F07FFE411CA5
:1049100003D02044001D06B010BD0020FBE70000BE
:104920002DE9F041C1F30A52A2F2FF362F4A304B73
:104930000D460446142E2FDA002E12DAFBF72CFE59
:1049400000221346FCF71EF84CD2002DA4BF002411
:10495000254647DA25F00040204318BF254D41D0B9
:1049600018E0DFF894C02CFA06F705EA070C5CEAB9
:10497000040C08BFBDE8F081FBF70EFE00221346D1
:10498000FCF700F82ED2002D03DA4FF48010F0402F
:104990000544BD43002425E0332EC8BFBDE8F081A7
:1049A000A6F1140C4FF0FF3727FA0CF73C4208BF72
:1049B000BDE8F081FBF794FE00221346FBF7E2FF0F
:1049C00010D2002D0DDA142E08BF6D1C09D0C6F1CF
:1049D0003400012101FA00F02044A04238BF6D1CD0
:1049E0000446BC4329462046BDE8F0819C750088FA
:1049F0003CE4377E0000F0BFFFFF0F0001784078F5
:104A000000EB012080B270470148806970470000C8
:104A10008001002004490A7802704A7842708A783E
:104A20008270C978C17070479301002004490A78E8
:104A300002704A7842708A788270C978C170704773
:104A40008B01002004490A7802704A7842708A7803
:104A50008270C978C17070478701002004490A78C4
:104A600002704A7842708A788270C978C170704743
:104A70008F0100202DE9F04142F2086101EB401561
:104A800042F20871002601EB40142846FEF7ACFA0A
:104A900007462046FEF7A8FA00EB072007043F0C64
:104AA00009D02846FEF7A0FA06462046FEF79CFAF3
:104AB00000EB062086B2BE42E7D13046BDE8F08169
:104AC0002DE9F04142F2080101EB401542F20811D4
:104AD000002601EB40142846FEF786FA07462046DA
:104AE000FEF782FA00EB072007043F0C09D02846A6
:104AF000FEF77AFA06462046FEF776FA00EB062025
:104B000086B2BE42E7D13046BDE8F08105468CB0A2
:104B100042A0FEF705FA4FF00009DFF828A14C4645
:104B200049468AF80090012002F07AFBA84630211D
:104B30006846FBF78AFB444E6D46A02001F0EEFB71
:104B400045F8240004EB840006EB4010FCF7E8FE77
:104B500055F824300146A0221846FBF75DFB641C83
:104B60000C2CEADBDFF8E4B0002700BF4FF0FF3188
:104B7000012002F055FBD8F814000C2813D330465E
:104B8000FCF7C0FE5FF0000404EB840055F824102D
:104B900006EB40105022FCF7C4FE641CE4B20C2C5F
:104BA000F2D32BA027E031A0FEF7BAF9DBF8001012
:104BB00001223448A1F802901121FDF7AFFC5446C0
:104BC0002078022802D137B1012F06D000273220E9
:104BD00002F05AFCF4E70127F9E7002211212948E5
:104BE000FDF79CFC84F80090DBF800005C464088F0
:104BF000032803D824A0FEF793F9B7E729A0D8F833
:104C0000141002F0DBFA216848884200D8F814003A
:104C1000121D55F82000FBF7FFFAA7E7596F752022
:104C200061726520696E207461736B202D2D2D20BB
:104C3000697264615F6C6561726E696E67200D0AEE
:104C400000000000C400002000D00208CC000020BA
:104C5000536176696E67206B65792076616C756546
:104C600020746F20666C6173680D0A005374617262
:104C700074205265636F7264696E672E2E2E0D0A62
:104C800000000000000800406E6F697365206973C2
:104C900020636F6D696E672E2E2E61626F72740DC8
:104CA0000A0000007265636F726420737563636548
:104CB000737320696E20636F64655F7365745B2531
:104CC000645D0D0A0000000005460FA0FEF728F9FC
:104CD0000021012002F0A4FA144F154C4FF0FF38C8
:104CE00001264146012002F09BFA207830B968691C
:104CF00000EB800007EB4010FFF754FA0DA0FEF721
:104D00000FF92670EDE70000596F7520617265207C
:104D1000696E207461736B202D2D2D206972646182
:104D20005F73656E64696E670D0A000000D002084B
:104D30000800002053656E64207369676E616C2003
:104D40006F75740D0A0000002DE9F0471F4690466C
:104D50000D460646FEF784FF04003BD0002E3CD0F3
:104D6000FEF77EFF024620A12046FEF743FFFEF736
:104D700077FF81464A461EA12046FEF73BFF7DB3E2
:104D80005FF00000FEF74EFF02461CA14846FEF70A
:104D900031FF4046FBF79EFDFEF750FF02461AA189
:104DA0004846FEF727FF3846FBF794FDFEF746FF1F
:104DB000024618A14846FEF71DFF2046FEF786FF73
:104DC00001463046FBF77BFA2046FEF751FF0020F4
:104DD000BDE8F0874FF0FF30FAE76FF00100F7E72A
:104DE000FFE70120CEE70000646573697265640027
:104DF0007265706F72746564000000006C696768AA
:104E0000745F73746174650074656D70617475723C
:104E10006500000068756D696469747900000000C0
:104E200008B504460CA0FEF77BF802F007FD207DD4
:104E300002F07CFE010002D011A002F0BFF90020B8
:104E40000090694615A0FCF799FB207D02F09CF8C4
:104E50000020FEF74FFEFBE7596F75206172652059
:104E6000696E207461736B202D2D2D204C616E2096
:104E70004D515454204C6F6F706261636B0D0A008A
:104E8000573535303020496E6974206661696C2C65
:104E900020457272203D2025640D0A006D717474E6
:104EA0002E6865636C6F7564732E636F6D00000010
:104EB0001CB5FDF769FA4FF44070FDF7A9F8FCF74F
:104EC00073FE4FF4E130FDF7B1FF00240094234658
:104ED00080221DA11E48019403F0CEFC1D4D01202F
:104EE000CDE900054FF44876002332461AA11E484A
:104EF00003F0C2FC1D490220CDE9000132461CA18D
:104F00001F482B6803F0B8FC1E48009000230122C4
:104F10004FF4FA611CA003F0FBFE050008D003F07B
:104F20005BFD0246002301212846009403F03CFF6C
:104F30000320CDE900040023802217A1184803F0C4
:104F40009BFC02F00DFCFEE74C45445F4431000041
:104F5000391B000804000020436F6D6D616E6420F2
:104F60005365727665720000713E000800000020F3
:104F700055415254315F53656E646261636B00004A
:104F8000812F0008851B00084C45445F44325F7444
:104F9000696D657200000000444854313100000022
:104FA000D11200081CB5062269464FF41060FEF7C6
:104FB00047F82F4A0120916B0870487006208870CE
:104FC0000020C870536B1B0E0B71536B1B0C4B7185
:104FD000938E1B0A8B7192F83430CB71916B8023C6
:104FE00008818B72C872916B02F13C03087348739D
:104FF0008873C873087448748874C87408754875D1
:105000008875C875087648768876C8761C780C77D7
:105010005C784C779C788C77DC78CC771C7981F83D
:1050200020405B7981F821300623CC185B1CDBB271
:105030002077102BF9D3936B00215C18491CC9B25F
:1050400084F82C004029F8D3936B00215C18491C8C
:10505000C9B284F86C008029F8D3906B6321822256
:1050600000F8EC1F427053228270C1701CBD00001A
:10507000800100202DE9F8432F4C0027032660789B
:105080003D464FF0FF38052854D2DFE800F00326F4
:1050900051373400207810B12078607049E06068A2
:1050A000142802D96670656044E0401C60604FF4CB
:1050B0007A7002F057FD3DE020A0009024A3012269
:1050C000782125A000F00CF907000AD0014627A09E
:1050D00002F074F8642002F045FDA078401EA07034
:1050E000EAD2A67017B14046BDE8F88328A002F0C6
:1050F00065F866701EE02DA000F096F82D4801219D
:10510000837802782C48FFF71FFE010002D02BA005
:1051100002F054F8284930A000F0B3F8002803DA70
:1051200038A002F04BF8DEE723493EA002F046F833
:10513000657025700020D7E7D0000020786B7934A7
:1051400057454934646277697034446E000000004A
:1051500068353671706B372F53746174655F4D61BC
:10516000696E426564726F6F6D000000436F6E6E12
:1051700065637420536572766572204661696C20A0
:105180007769746820726574203D2025640D0A00DB
:10519000436F6E6E6563742053657276657220533B
:1051A0007563636573730D0A0000000068656C6CBD
:1051B0006F0000001C000020A00200204A61736FF5
:1051C0006E204D616C6C6F63204661696C2C20729F
:1051D00065743D25640D0A002462616964752F6958
:1051E0006F742F736861646F772F53746174655F98
:1051F0004D61696E426564726F6F6D2F7570646189
:10520000746500005374682077726F6E6720776949
:105210007468204D5154545F5075626C6973680D09
:105220000A00000025730A0030B599B004460C222C
:105230001421FCF798FE02462146032001F0BAFF34
:105240000A240320FFF716FC050005D0002C06DC1D
:105250004FF0FF3019B030BD641EF2D2F8E7642180
:105260006846FAF7F2FF2A466946032001F0E6F89D
:105270009DF80000D02802D06FF00100EAE700207E
:10528000E8E7F0B5C7B00F4605464FF480763146E3
:1052900007A8FAF7DAFF00243846FBF709F8CDE94A
:1052A00004470690CDE90254002300941A46314683
:1052B00007A80194FCF705FE0446024607A903204F
:1052C00001F078FF0546314607A8FAF7BEFFA54270
:1052D00002D1204647B0F0BD4FF0FF30FAE70000A2
:1052E0002DE9F041CAB00E4607461C461546C821B6
:1052F0006846DDF84081FAF7A8FF58221A4932A81B
:10530000FAF78AFF4294ADF8E060CDF81481359742
:105310008DF8E25032AAC8216846FCF70BFD024620
:105320006946032001F046FF104AC8216846FCF791
:10533000D9FC022804D04FF0FF304AB0BDE8F0811C
:10534000C8236A4648A949A8FCF74EFC012803D1A6
:105350009DF820010028F0D09DF8201104A001F054
:105360002DFF9DF82001E8E7208E0008A1710008BC
:10537000556E61626C6520746F20636F6E6E65633D
:10538000742C2072657475726E20636F64652025BD
:10539000640A000010B50F4CA01DFFF753FB04F189
:1053A0000E00FFF743FB04F10A00FFF757FB04F17F
:1053B0001200FFF72FFB0220A07502F07DFA0028F3
:1053C00007D1FFF721FB0146BDE8104002A001F024
:1053D000F5BE10BDD800002044484350204C454144
:1053E0005345442054494D45203A202564205365B7
:1053F000632E0D0A0000000001A001F0DFFEFEE7B1
:10540000434F4E464C4943542049502066726F6DBD
:1054100020444843500D0A007FB5454C0025A07834
:10542000FFF728FB020028D001A8009002ABA0786B
:10543000A16B01F075F882B2BDF8040043283AD19F
:10544000A06B04F13C01037F0E78B34215D1437F7A
:105450004E78B34211D1867F8B789E420DD1C37FA7
:10546000CE78B34209D190F820300E79B34204D1FE
:1054700090F8213049798B4202D0002004B070BDF1
:10548000F0308118F03914E00278332A34D007DC88
:10549000AAB1012A18D0032A1AD0062A06D11CE084
:1054A000352A0ED0362A36D0FF2A06D04278801C04
:1054B00010448842E8D368B2E0E70846F9E7401CA8
:1054C000F7E78578C01CF4E7194A83780F3225E0A6
:1054D000174A437886780B3203E0154A437886787A
:1054E00013321670C6785670067996704679801D0C
:1054F0001844D670001FDCE78278A261C37803EB02
:105500000222A261037903EB0223A361427902EB39
:105510000322A26109E0064A837830321370C3780F
:105520005370037993704379D370801DC1E70000F5
:10553000800100202DE9F0410D46904604461221DD
:10554000FAF783FE2846FFF759FA2080A81CFFF7D8
:1055500055FA02044FF0010100D5A170C0F3C32237
:10556000E270420500D52171820500D56171C20546
:1055700000D5A171020600D5E17100F00F00207284
:10558000281DFFF73BFA6081A81DFFF737FAA081BD
:1055900005F10800FFF732FAE08105F10A00FFF794
:1055A0002DFA0026208205F10C01771E06E0284620
:1055B000FFF7A6F9010014D0761CB6B26089B0429C
:1055C000F5D8002607E042462846FFF7E7F8010035
:1055D00007D0761CB6B2A089B042F4D80020E18989
:1055E00004E03846BDE8F081401C80B28142FBD81F
:1055F0000020218A01E0401C80B28142FBD8207A41
:1056000008B10020EEE70120ECE70000F0B5074606
:105610000020054606464FF02E0C00BF11F8014B46
:1056200005B9401C4FEA941EBEF1030F0AD105B91B
:10563000401C097804F03F0407EB042421440125B1
:1056400011F8014BACB11B1B5B1E1BB2002B02DA25
:105650004FF0FF30F0BD2DB9204403E011F801EB0D
:1056600002F801EB641EA4B2F8D202F801CB761C5A
:10567000D4E70EB902F801CB00211170F0BD000093
:105680002DE9F74F002581464FF0050B8068A846AD
:105690002E4601E000686D1C0028FBD1414A1168CC
:1056A0005DB1A800044692468847071E0DD02146EA
:1056B000FAF7CBFDD9F8084022E003208847040020
:1056C00002D039A1FAF7FBFD2046BDE8FE8F00BFEE
:1056D000DDE901122046491C00F06EFA47F8280067
:1056E00008F1010850B1FAF7E3FD029901B1012177
:1056F000014401EB0B0000F1020B00E001262468DD
:1057000014B1002EE4D012E08EB9DAF80010584639
:1057100088475FEA00080AD05B214FF0000988F84B
:10572000001008F1010488F801904E462DE0002495
:10573000564605E057F8240008B171688847641C94
:10574000AC42F7DB7168384688470020BDE700BFF0
:1057500057F826102046FAF7B2FD57F82600FAF758
:10576000A7FD0444681E864209D02C2004F8010BD2
:10577000029810B1202004F8010B84F80090DAF8A8
:10578000041057F826008847761CAE42E0DBDAF8B2
:105790000410384688475D20207084F80190404608
:1057A00093E70000E00100205B5D00002DE9F0417F
:1057B0000646344FD6E90643DFF8CC801D464069E3
:1057C000FBF777F822462B46FAF787FF21F00041D6
:1057D00000224346FBF7BEF817D82C4A2C4B204634
:1057E0002946FBF7B7F810D800222A4B2046294655
:1057F000FBF7C8F809D839681520884707003ED05C
:1058000025A17269FDF7D6FC39E039684020884748
:10581000070034D020462946FFF782F822462B465F
:10582000FAF75BFF21F0004100224346FBF792F8B4
:105830000BD8204625F00041184A194BFBF78AF88F
:1058400003D222462B4617A116E025F00041204640
:105850000E46164A164BFBF77DF806D32046314616
:105860000022144BFBF78EF803D222462B4612A1DE
:1058700002E022462B4611A13846FDF79BFC384634
:10588000BDE8F081E00100200000B03C0000C0FF56
:10589000FFFFDF410000E0C12564000044F3C2E4E3
:1058A000E4E9634C252E3066000000008DEDB5A0C4
:1058B000F7C6B03E65CDCD412565000025660000E8
:1058C0002DE9FE4F054607204FF0000B0090A86819
:1058D00016468A465F46CDF808B001E000687F1C96
:1058E0000028FBD17A490A68E7B1B800044690471E
:1058F0005FEA000935D076492046096888475FEAA3
:10590000000830D021464846FAF79FFC2146404621
:10591000FAF79BFCAC680AF1010AEEB30098504418
:1059200000904FE016B10AF1040000E00320904718
:10593000002814D07B210170411C66B10A2201F8B5
:10594000012B00220924AAF1010302E001F8014B16
:10595000521C9A42FADB7D220A7000224A70BDE88E
:10596000FE8F0020FBE75A494846496858E0206A04
:1059700000F0B0F8019048F82B003246514620461E
:1059800000F01AF9014649F82B0001980BF1010BC0
:10599000A8B1A1B1084600E014E0FAF789FC054679
:1059A0000198FAF785FC291816B10AF1020000E007
:1059B0000020014400980844801C009001E0012070
:1059C00002902468002CD2D1029898B940490098DE
:1059D000096888475FEA000B0CD07B218BF8001028
:1059E0000BF1010416B10A2004F8010B002020700D
:1059F000054652E00024364D0BE000BF58F8240065
:105A000008B16968884759F8240008B1696888476F
:105A1000641CBC42F2DB69684046884769684846B6
:105A200088479EE73EB10020092102E004F8011BEF
:105A3000401C5045FADB58F825102046FAF73FFC89
:105A400058F82500FAF734FC04443A2004F8010B16
:105A500016B1092004F8010B59F825102046FAF771
:105A60002EFC59F82500FAF723FC0444781E8542E1
:105A700002D02C2004F8010B16B10A2004F8010B07
:105A8000134900202070496858F8250088471049BC
:105A900059F82500496888476D1CBD42C2DB0C4D92
:105AA0004046696888476968484688474EB1002083
:105AB0000922AAF1010102E004F8012B401C8842EE
:105AC000FADB7D20207000206070584647E7000018
:105AD000E00100202DE9F04104004FF0000501D065
