:020000040800F2
:10000000A06B0020FD0100085B150008E513000847
:1000100059150008D30E00080D2A00080000000042
:100020000000000000000000000000006501000862
:10003000AF10000800000000A901000831690008A5
:10004000130200081302000813020008130200083C
:10005000130200081302000813020008130200082C
:1000600013020008C9100008130200081302000858
:100070001302000813020008D50E0008130200083E
:1000800013020008090F00081302000813020008F9
:1000900013020008130200081302000813020008EC
:1000A00013020008130200081302000813020008DC
:1000B00015210008130200086D2100081302000832
:1000C00013020008130200081302000813020008BC
:1000D000130200081D2500080D26000861260008EF
:1000E000B1100008130200081302000813020008F0
:1000F000130200081302000813020008130200088C
:10010000130200081302000813020008130200087B
:10011000130200081302000813020008130200086B
:10012000130200081302000813020008130200085B
:10013000130200081302000813020008130200084B
:10014000130200081302000813020008130200083B
:10015000DFF80CD000F0DEFC00480047BD37000897
:10016000A06B0020224B19680868B0E8F00F80F3FC
:100170000988BFF36F8F4FF0000080F311884EF0B5
:100180000D0E70470000000006480068006880F30C
:10019000088862B661B6BFF34F8FBFF36F8F00DF81
:1001A00000BF00BF08ED00E0EFF30980BFF36F8FE1
:1001B0000F4B1A6820E9F00F106008B54FF0BF0030
:1001C00080F31188BFF34F8FBFF36F8F05F0BEFF31
:1001D0004FF0000080F31188BDE8084019680868F6
:1001E000B0E8F00F80F30988BFF36F8F704700BF4E
:1001F00018000020EFF30580704700000548004715
:10020000FEE7FEE7FEE7FEE7FEE7FEE7FEE7FEE7C6
:10021000FEE7FEE75101000840EA01039B0703D017
:1002200009E008C9121F08C0042AFAD203E011F835
:10023000013B00F8013B521EF9D27047D2B201E0F7
:1002400000F8012B491EFBD270470022F6E710B5DB
:1002500013460A4604461946FFF7F0FF204610BD34
:1002600030B505462A460B4612F8010B13F8014B30
:1002700008B1A042F8D01CB1002802D06D1CF1E7F3
:10028000284630BD421C10F8011B0029FBD1801A02
:100290007047034611F8012B00F8012B002AF9D111
:1002A0001846704730B505460020034600E05B1C49
:1002B000934205D2EC5CC85C201A01D1002CF6D127
:1002C00030BD00000FB400B58DB010A909900B909F
:1002D00000914FF0FF300A9000200C9005480690E6
:1002E000054807906A4609A80F9900F057FB0DB022
:1002F0005DF814FBB9090008D70900082DE9FF5F74
:100300001D464FF0FF3BD5E9014691465F464FF051
:100310000008A9697F1C01988847296A8246884796
:100320000028F6D1BAF1FF3F0CD024F4C064002EAF
:1003300019DD600614D5BAF12B0F09D0BAF12D0FD3
:100340000ED103E0584604B0BDE8F09F44F4806449
:10035000A9697F1C01988847761E8246002E02DD1F
:10036000BAF1300F03D0B9F1000F26D032E0A969FD
:10037000761E44F400747F1C019888478246002E44
:1003800005DDBAF1780F06D0BAF1580F03D0B9F1F4
:10039000000F10D01EE0B9F1000F02D0B9F1100F1C
:1003A00018D1A969761E24F400747F1C019888472F
:1003B0008246102002E0082000E00A20814609E081
:1003C00008FB0908A969761E44F400747F1C019893
:1003D00088478246002E05DD4946504600F0CAFA9D
:1003E0000028EDDAE96901988847A00502D46FF08A
:1003F0000100A8E7E00725D1600613D5600502D506
:10040000C8F1000000E0404629680A1D2A6009681A
:10041000220501D5087015E0220701D5088011E0FA
:1004200008600FE02868011D29600068210502D5D9
:1004300080F8008006E0210702D5A0F8008001E0E6
:10044000C0F8008038467EE72DE9FF5FD2E901A7BA
:100450004FF00008916999461446DDF838B04646D9
:1004600001988847054659EA0B0005D009E0A169C3
:10047000761C019888470546216A28468847002847
:10048000F5D1681C03D05FEACA7005D015E04FF0C3
:10049000FF3004B0BDE8F09F2068011D2160D0F856
:1004A00000800AE05FEACA7001D108F8015BA16927
:1004B000761C7F1E019888470546002F1ADD681CB0
:1004C00018D0B9F1000F0DD0E81705EBD06042113C
:1004D00020F01F0059F822102A1A012090400142F2
:1004E000E0D107E0BBF1000FDCD1216A2846884744
:1004F0000028D7D0E16901988847BBF1000F07D1E8
:10050000002E05DD5FEACA7002D1002188F80010D4
:10051000A068B84203DDBBF1000F03D017B16FF044
:100520000100B6E73046B4E72DE9FE4F804681EA88
:100530000300C00F0C46009021F0004123F000455D
:10054000B8EB0200A94105D24046214690461C4620
:100550000B46024623F00040104347D0270DC7F357
:100560000A00C3F30A510290401A019040286BDA46
:10057000C3F3130040F4801B0098924620B100237F
:10058000D2EB030A63EB0B0B01985946C0F1400212
:10059000504600F0BEF906460D4650465946019AAF
:1005A00000F0D6F910EB08006141002487EA1152EF
:1005B00084EAE7731A4340D0009A62B3019A012A91
:1005C0004FEA075215DC001B61EB02014FF00042BD
:1005D00002EA0752CDE90042001C41F58011324683
:1005E0002B4600F018FA03B0BDE8F08F40462146D4
:1005F000F9E7001B61EB0201001C41F580130018B4
:100600005B412018A2F5001747EB030140EAD570C3
:10061000B6196D4111E06D084FEA360645EAC0751E
:100620004FEA0752001B61EB0201001C41F58011EB
:1006300049084FEA30000019514132462B4603B0B9
:10064000BDE8F04F00F0D8B9009801224000002327
:10065000D0EB020263EBE073009821464FEAE074AE
:10066000B8EB000061EB0401E9E783F000435BE7CE
:1006700081F0004158E72DE9FE4F81EA030404F0C0
:10068000004421F0004100944FF0000B23F00043A0
:1006900050EA01045ED052EA03045BD0C3F30A546B
:1006A000C1F30A552C44A4F2F3340194A0FB025484
:1006B000C1F3130141F48011C3F3130343F4801316
:1006C00001FB024400FB034E840A970A44EA81546A
:1006D00047EA8357A4FB076802958D0A05FB078547
:1006E0004FEA932C04FB0C542705029D4FEA065851
:1006F00047EA1637B5EB08056EEB070C870E920E2E
:1007000047EA811742EA8312A7FB0201B6EB0B010D
:1007100064EB00042B0D43EA0C335E1844EB1C50D1
:10072000DA465146E7FB0201C5F313044FEA0B33E7
:1007300043EA14534FEA0432019C43EA0603A4F14E
:100740000C040294009CCDE900B400F064F903B0FD
:10075000BDE8F08F00200146F9E72DE9F04D81EA70
:10076000030404F0004B21F0004514464FF0000A4A
:1007700023F0004150EA050220D054EA01021DD0C6
:10078000C5F30A570246C5F31303C1F31300C1F3BF
:100790000A5640F4801543F48013A7EB0608101B9B
:1007A000D64608F2FD3873EB050002D308F10108C4
:1007B00001E092185B41B8F1000F03DA0020014616
:1007C000BDE8F08D00204FF48011064684460EE00F
:1007D000171B73EB050705D3121B63EB05030643D9
:1007E0004CEA010C49084FEA300092185B4150EA8C
:1007F0000107EDD152EA030012D082EA040083EA35
:100800000501084305D0101BAB4106D2012200238D
:1008100006E000224FF0004302E06FF001025310A7
:100820001AEB06004CEB085110EB0A0041EB0B01F0
:10083000BDE8F04D00F0E0B80EB540F23341029152
:100840000021CDE900110A460B4600F0E4F803B0A0
:1008500000BDC1F30A5210B5C1F3130140F2FF33DA
:1008600041F480119A4201DA002010BD40F2334376
:100870009A42A2F2334203DC524200F059F810BD12
:10088000904010BD30B50B460146002020220124C7
:1008900009E021FA02F59D4205D303FA02F5491B4E
:1008A00004FA02F52844151EA2F10102F1DC30BD64
:1008B0002DE9F05F0546002092469B468846064695
:1008C000814640241BE0284641464746224600F028
:1008D0002FF853465A46C01A914110D31146184674
:1008E000224600F016F82D1A67EB01084F46224603
:1008F0000120002100F00DF817EB00094E41201EE9
:10090000A4F10104DFDC484631462A464346BDE8EF
:10091000F09F202A04DB203A00FA02F10020704701
:100920009140C2F1200320FA03F31943904070472D
:10093000202A04DB203A21FA02F00021704721FA34
:1009400002F3D040C2F1200291400843194670479B
:10095000202A06DBCB17203A41FA02F043EAE07383
:1009600006E041FA02F3D040C2F120029140084370
:10097000194670473A2800D2303820F02002412A28
:1009800001D3A2F13700884201D34FF0FF30704706
:10099000026811441378016018467047D160044919
:1009A00051610449116200211161114600F0CAB879
:1009B00091090008390B0008426842B1016811F83A
:1009C000013B23B1521EC0E90012184670470121B5
:1009D000C160881E704742685AB1C368016843B954
:1009E00083688B4205D0491E521CC0E900120020CA
:1009F00070474FF0FF30704710B5141E73F10004BC
:100A000008DA401C41F1000192185B411A4301D100
:100A100020F0010010BD2DE9F04D92469B4611B12A
:100A2000B1FA81F202E0B0FA80F220329046FFF78C
:100A300070FF04460F4640EA0A0041EA0B015346A4
:100A40005A46084313D0114653EA010019D0C8F1A1
:100A500040025046FFF76CFF05460E465046594689
:100A60004246FFF756FF084305D0012004E0204628
:100A70003946BDE8F08D0020054346EAE0762C4378
:100A800037430A986305E40AA0EB08000022FD0A38
:100A900044EA47540A3002D500200146E9E701053F
:100AA00010196941DDE9084500196941BDE8F04DBB
:100AB000A2E7C1F30A52C1F3130140F2FF3341F43C
:100AC00080119A4202DA00200146704740F2334317
:100AD0009A42A2F2334202DC5242FFF729BFFFF7EB
:100AE00018BF000030B5041E71F1000404DB4FF0A4
:100AF0000044404264EB0101141E73F1000405DB65
:100B00001C464FF00043524263EB0403994208BF76
:100B1000904230BD064C074D06E0E06840F001030E
:100B200094E8070098471034AC42F6D3FFF714FB63
:100B30009C870008BC870008C0B24FF4F05100F059
:100B400097B900002DE9F34F8BB04FF0000801F189
:100B50000C000C464FF0010B46460DF1080A0190BF
:100B60006269012101989047051E2DD0252D2CD0BA
:100B7000216A8847C0B16269012101989047216AC2
:100B800088470028F7D1411E62690198904700E02C
:100B9000761CA1690B988847216A88470028F7D1FD
:100BA000E1690B988847DBE7A1690B9888470746FE
:100BB000A84201D1761CD3E7E1690B9888477F1CD6
:100BC00002D1B8F1000F6FD046E1002762693D46BF
:100BD0003946019890472A2804D162690121019879
:100BE00090470125DFF884926269012101989047BE
:100BF000A0F130010A290AD24F45E5DC07EB870155
:100C000000EB4107303FDFD445F01005ECE7E90683
:100C100001D46FF000476C280AD04C2814D0682803
:100C200015D06A280DD074281CD07A281AD01DE05F
:100C300062690121019890476C2802D045F00405B3
:100C400014E045F002050DE045F020050AE0626978
:100C5000012101989047682802D045F0080505E079
:100C600045F400656269012101989047C4E9015784
:100C700065283DD019DC58287AD00CDC452837D0BF
:100C800004DC252826D0412831D131E046282FD058
:100C900047282CD12CE05B2877D0612828D0632806
:100CA0007CD0642823D15AE0D0E06F2848D008DCFB
:100CB00066281DD067281BD0692821D06E2816D140
:100CC00027E0702845D0732868D0752847D0782849
:100CD0000DD14DE0A1690B988847054625283FF4C2
:100CE00069AFE1690B9888476D1C3FF46AAFB3E0C8
:100CF00023466A466FF001000B99AFF300809EE037
:100D000045F040006060A80723464FF0000236D44B
:100D10003EE0E8077FF447AF2068011D21600068CE
:100D2000290501D506701BE7290701D5068017E7BD
:100D3000A90703D5F117C0E9006111E706600FE7C5
:100D400045F040006060A80723464FF0080216D423
:100D50001EE040F60E0125EA0100606016E045F055
:100D600040006060A80723464FF00A0207D40FE056
:100D700045F040006060A80708D5234610226FF0B8
:100D800001000B99AFF3008059E007E023461022E1
:100D90006FF001000B99FFF7B1FA50E04FF0000936
:100DA0004F464B46632802D05B2806D040E0E80659
:100DB00001D40120A06001273AE062690121019875
:100DC00090475E2805D14FF00109626949460198B4
:100DD0009047216939B900210A46534643F821203A
:100DE000491C0829FADBB0B3216969B9C11700EBC6
:100DF000D16253110AEB830122F01F02821A0120F3
:100E00000B68904003430B60626901210198904791
:100E10005D28E8D1B9F1000F09D00020514651F802
:100E20002020D24341F82020401C0828F7DB02ABE9
:100E3000224600976FF001000B99FFF705FB002891
:100E40000CDA401C08D1BBF1000F05D04FF0FF3089
:100E50000DB0BDE8F08FFFE74046F9E7E90701D1A3
:100E600008F1010806444FF0000B79E6CCCCCC0C1D
:100E70007F2801D9002208E0064A02EB5002C00791
:100E8000127800D1120902F00F02012090400840B0
:100E900070470000207E000830B58C1810F8012B38
:100EA00012F00F0301D110F8013B120906D110F81E
:100EB000012B03E010F8015B01F8015B5B1EF9D127
:100EC00001E001F8013B521EFBD1A142E6D3002014
:100ED00030BDFEE770B50B4C607805F0E1FA4FF4D9
:100EE0000055284600F0ACF8012806D1284600F04D
:100EF00019F80021A06805F08BFFBDE870400020C4
:100F000005F082BBA000002010B54FF00074204611
:100F100000F096F8012804D12046BDE8104000F00A
:100F200001B810BDC10002D50249086070470249EE
:100F30004860704704040240000002400029016834
:100F400002D041F0010102E04FF6FE721140016053
:100F50007047000001684FF6FE72114001600021E9
:100F6000016041608160C1603149314A0839904275
:100F700003D1486840F00F0006E02D4A1432904239
:100F800004D1486840F0F00048607047284A283291
:100F9000904203D1486840F47060F5E7244A3C323F
:100FA000904203D1486840F47040EDE7204A503247
:100FB000904203D1486840F47020E5E71C4A64324F
:100FC000904203D1486840F47000DDE7184A783257
:100FD000904203D1486840F07060D5E7154A111F70
:100FE000904203D1086840F00F0006E0114A143225
:100FF000904204D1086840F0F000086070470D4A44
:101000002832904203D1086840F47060F5E7094A3D
:101010003C32904203D1086840F47040EDE7054A45
:1010200050329042EAD1086840F47020E5E70000B1
:101030000800024008040240406880B27047000087
:1010400001460020CA0001D5034A00E0034A1268A5
:101050000A4200D001207047000402400000024014
:10106000002A026801D00A4300E08A430260704708
:1010700030B5036847F6F07293430C6A8A682243DE
:10108000D1E904452C4322438C692243CC69224395
:101090004C6A22438C6A22431A430260CA68426047
:1010A0000A6882604968C16030BD4160704770471E
:1010B00010B5082000F014F8BDE81040014800F019
:1010C00053BC0000C800002010B5082000F008F84C
:1010D000BDE81040014800F047BC0000C8000020F7
:1010E00001490860704700001404014030B51A49F6
:1010F0008379026853B30B6893430B600A1D13682E
:101100000468A343136002790A4413680468234304
:101110001360114A083213680468A3431360131D57
:101120001C680568AC431C604479102C05D0214430
:101130000A68006802430A6030BD116804682143F0
:101140001160196800680143196030BD00790844D6
:1011500001689143016030BD000401400149C8604D
:10116000704700000020024070B505464FF430265D
:10117000304600F059F8042811D1094C206940F09C
:10118000020020616561206940F040002061304626
:1011900000F04AF8216941F6FD721140216170BDED
:1011A0000020024008490420CA68D20701D001206B
:1011B0007047CA68520701D502207047C968C9063E
:1011C000FBD503207047000000200240024801695F
:1011D00041F080010161704700200240F0B50646F1
:1011E0004FF400570D46384600F01EF804280CD185
:1011F000064C206940F0010020613580384600F03F
:1012000013F82169BA1E11402161F0BD002002408F
:101210000348024941600349416070472301674523
:1012200000200240AB89EFCD00B50346FFF7BAFFBF
:1012300003E000BFFFF7B6FF5B1E012803D0002BC1
:1012400000D1052000BD002BF4D1FAE710B504460B
:10125000FFF7DEFF3420FFF781FF2046FFF784FF12
:10126000BDE81040FFF7B2BF70472DE9F0411546C9
:101270000E460746FFF7CCFF3420FFF76FFF002430
:1012800007E036F8141007EB4400FFF7A7FF641CD3
:10129000E4B2AC42F5D3BDE8F041FFF797BF0000E0
:1012A00010B58A0721F003040649130F21440F22C9
:1012B0008C689A4094438C608A68984002438A60A4
:1012C00010BD000000000140F0B5CA78002502F012
:1012D0000F03D20601D58A7813430A784FF00F0E18
:1012E00012F0FF0F4FF001021CD004680F8802FAC1
:1012F00005F63740B74211D14FEA850C0EFA0CF7CC
:1013000024EA070703FA0CF43C43CF78282F02D0D5
:10131000482F02D002E0466100E006616D1C082DF6
:10132000E4D304600C88FF2C1ED944685FF00006EB
:1013300006F1080702FA07F50F882F40AF420FD1D8
:101340004FEA860C0EFA0CF7BC4303FA0CF73C4349
:10135000CF78282F00D14561CF78482F00D1056183
:10136000761C082EE4D34460F0BD0000F0B5144CA8
:10137000002801DAE36900E06368420D120185B2DA
:10138000C0F301579540C0F30346032F05D0C202B6
:101390000AD50322B240934307E023F070626368EA
:1013A00023F07063636002E0AB4343F0706201B10D
:1013B0002A43002801DAE261F0BD6260F0BD00005E
:1013C000000001400246002092680A4200D001203D
:1013D000704741617047016170470AB10161704710
:1013E00041617047FEE7000070B51825032686B0FE
:1013F0000446012802D0022C0FD022E0012141F244
:10140000040000F0FFF8E020ADF814008DF817504C
:101410008DF8166005A9204811E00121092000F08F
:10142000F1F80121880300F0E1F84FF46040ADF8D5
:1014300014008DF817508DF8166005A91748FFF7AE
:1014400043FF1020ADF80C000020ADF80000ADF80F
:101450000400ADF808004FF48271ADF80600ADF855
:101460000E00ADF8021007204FF40071ADF80A101D
:10147000ADF81000012C0CD0022C08D1084C6946A4
:10148000204600F044F90121204600F02BF906B077
:1014900070BD6946034CF3E700080140000C0140B1
:1014A00000380040003001400AA001F02BFA104C37
:1014B0004FF4807529462046FFF78DFF642004F025
:1014C000A3FB29462046FFF784FF642004F09CFB21
:1014D000F0E70000596F752061726520696E207415
:1014E00061736B202D2D2D204C4544200D0A0000EA
:1014F000000C014006484178C94311F0FF014170DA
:1015000004484FF0200101D0FFF763BFFFF763BF2E
:1015100000000020000C014038B50121082000F037
:1015200071F810208DF803004FF49070ADF80000B2
:101530000320084C8DF8020069462046FFF7C4FEE0
:1015400020212046FFF745FFA1152046FFF743FF66
:1015500038BD0000000C0140FEE7704770B50F2356
:10156000C47801780122F4B1144C2468457804F45D
:10157000E064C4F5E064240AC4F10406E34084781E
:10158000B5401C402C4301F1E021230181F80034D7
:10159000007800F01F018A404009800000F1E0203F
:1015A000C0F8002170BD01F01F0082404809800092
:1015B00000F1E020C0F8802170BD00000CED00E0DB
:1015C0000249084302490860704700000000FA051C
:1015D0000CED00E0044A0029516901D0014300E00C
:1015E000814351617047000000100240044A002905
:1015F000D16901D0014300E08143D161704700000F
:1016000000100240044A0029916901D0014300E022
:10161000814391617047000000100240F0B52C4AF0
:1016200051682C4B11F00C014FF00F0504D02A4CDF
:10163000042903D0082903D0036028E0046026E0D1
:101640005168536805EA914103F480330D2901D0B4
:10165000891C00E00621BBB1D36A13F4803FD36A32
:1016600003F00F0303F101030AD0D66AD76AC6F369
:101670000316761CB4FBF6F4C7F30327BF1C7C43A8
:10168000B4FBF3F34B43D7E7144B59430160516864
:10169000134C05EA1111635C0168D940416053683D
:1016A000072505EA1323E35C21FA03F383605368FB
:1016B00005EAD323E35CD940C1605268032303EAFF
:1016C0009232231F9A5CB1FBF2F10161F0BD000080
:1016D0000010024000127A0040787D0100093D00B0
:1016E000900000200029018802D041F0400101E073
:1016F00021F04001018070470246002012890A4211
:1017000000D001207047808970478181704730B5D3
:1017100002884C8802F441530A88CD8822438C8881
:101720002C4322430C8922434C8922438C89224337
:10173000CC8922431A430280828B22F40062828386
:10174000098A018230BD000070B50D46012803D022
:10175000022813D0002070BD134C02212046FFF751
:10176000CBFF0028F9D029462046FFF7CEFF012104
:101770002046FFF7C1FF0028F9D010E00B4C0221F2
:101780002046FFF7B9FF0028F9D029462046FFF789
:10179000BCFF01212046FFF7AFFF0028F9D020460B
:1017A000FFF7B1FFC0B270BD00300140003800400B
:1017B00010B5040008D0702003F01EFF2060BDE8C3
:1017C00010407021FEF741BD10BD1CB500208DF802
:1017D000040008208DF80500012100908DF8061006
:1017E0006846FFF783FC1CBD1CB500208DF8060081
:1017F000082000906846FFF779FC012000906846B9
:10180000FFF774FC102000906846FFF76FFC022081
:1018100000906846FFF76AFC042000906846FFF7D6
:1018200065FC402000906846FFF760FC1CBD10B5C9
:101830000446FFF7BDFF00F017F8204600F0FCF863
:1018400021684220423100F095FA206890F8420069
:10185000122807D1204600F0E1FA2046BDE81040EA
:1018600000F090B810BD00002DE9FC4101215D2081
:10187000FFF7C8FE10258DF803500326374F8DF86B
:101880000260AC02ADF8004069463846FFF71CFD27
:10189000012221463846FFF7A0FD0424ADF80040A0
:1018A00069463846FFF710FD8DF803400820DFF841
:1018B000B080ADF8000069464046FFF705FD0127FE
:1018C000ADF8007069464046FFF7FEFCADF80050E9
:1018D00069464046FFF7F8FC0220ADF80000694673
:1018E0004046FFF7F1FCADF8004069464046FFF77F
:1018F000EBFC4020ADF8000069464046FFF7E4FCF1
:101900008020ADF8000069461648FFF7DDFC09208D
:101910008DF804000C208DF805008DF806608DF818
:10192000077001A8FFF71AFE03210020FFF7B8FC9B
:1019300000210220FFF7B4FC04210220FFF7B0FCD5
:1019400001210220FFF7ACFC02210846FFF7A8FCAA
:1019500006210220FFF7A4FCBDE8FC81001801402D
:10196000000801400010014090F84010032908D001
:10197000072903D00B2904D100F0CEBA082180F842
:101980004010704710B5016804466F220120491CC1
:1019900000F0F4F9216820200122087321680C204E
:1019A0000C3100F083FA2046A16800F023F9A17BF6
:1019B000204600F09FF9E17B204600F04FF8217CA3
:1019C000204600F0F7F8617B204600F080F9617C4A
:1019D000204600F058F840F2FF31204600F0AEF902
:1019E00094F82410204600F0F9F80121204600F078
:1019F0005DF81049A068884209D90021204600F00E
:101A0000A1F80021204600F0B5F80E2108E0802161
:101A1000204600F097F80121204600F0ABF8142191
:101A20002173204600F004F92046BDE81040012152
:101A300000F066B8008F423310B5012000F024FAA0
:101A40004FF48050401E80B2FCD2002000F01CFAFF
:101A500043F6FF70401E80B2FCD210BD70B50D463B
:101A6000016804461D201D3100F084F92068417F83
:101A700001F0F10141EA4501C9B241771D2000F0B2
:101A80000FFAE57370BD70B50D46016804461D2060
:101A90001D3100F06FF92068417F01F0FE012943FC
:101AA00041771D2000F0FCF9657470BD70B50D46DE
:101AB000016804462620263100F05CF9206810F801
:101AC000261F01F0F70141EAC5010170BDE8704031
:101AD000262000F0E5B970B50D46016804463120B6
:101AE000313100F047F9206810F8311F01F0F8019A
:101AF00029430170BDE87040312000F0D1B90000E9
:101B000070B505460C4629680020497821F0F80197
:101B10008C4214D0032C00D1012009490A7890424C
:101B200002D0087000F0ECF92868417801F0F80163
:101B300021434170BDE87040012000F0B1B970BD93
:101B4000C000002038B5044600200D468DF8000086
:101B50006946092000F00EF99DF8000000F07F02B0
:101B60002A438DF80020206811464272092000F0B7
:101B700097F938BD70B50D46016804464D204D31CA
:101B800000F0F8F821680920093100F0F3F8206826
:101B9000417A09060CD51DB15FF0870180F84D1020
:101BA000206890F84D10BDE870404D2000F078B9E5
:101BB0008421F3E770B50D46016804461E201E31EE
:101BC00000F0D8F82068817F01F0FB0141EA85012F
:101BD00081771E2000F064F9257470BD70B505464C
:101BE00000680C4680F82210222000F059F985F890
:101BF000244070BD10B5044681600846FEF71CFE07
:101C000000220A4BFEF7A9FDFEF723FE2268010C15
:101C100091712268010AD17121680322087221683A
:101C20000620BDE81040891D00F040B980844E4078
:101C300070B50C46016805460920093100F09AF894
:101C400029684D204D3100F095F82868417A0A0640
:101C50002CD590F84D3087229A4303D0022C10DA0D
:101C6000022411E0052C01DA052402E0142C00DD29
:101C7000142441F07001417201F0F001621F2868E4
:101C800009E0112C00DD112441F070014172286837
:101C900001F0F001A21E02F00F0211434172286808
:101CA000417A092000F0FCF82C7370BD4FF0FF3230
:101CB000944201DA144602E00E2C00DD0E2441F0BD
:101CC0007001417201F0F001621C2868E3E770B511
:101CD0000D46016804461D201D3100F04BF82068B8
:101CE000417F65F31F11C9B241771D2000F0D8F87C
:101CF000657370BD70B50C4605460C2901D90C24DE
:101D000008E0062C02D24FF0060400E002D14FF0AA
:101D1000050101E04FF00301FFF7DDFE29681E20F9
:101D20001E3100F027F82868817F64F31F11C9B2C3
:101D300081771E2000F0B4F8AC7370BD70B50D460D
:101D40000168044602221E201E3100F017F82068A8
:101D5000032202EA1522817F01F0FC011143817701
:101D600020680222C5772168BDE870401E201E3120
:101D700000F09CB8012200F001B800002DE9F04706
:101D8000DFF840900E4607464FF480481546002481
:101D900041464846FFF71DFB07F07F010120FFF792
:101DA000D3FC06E000210120FFF7CEFC3055641C77
:101DB000E4B2AC42F6D341464846BDE8F047FFF7EF
:101DC0000ABB00000018014008210148FFF7FABAD9
:101DD0000008014004210148FFF7F4BA0010014057
:101DE00070B5054600680E461446817B41730D2090
:101DF00000F056F82868214680F82240222000F0A2
:101E00004FF82146304600F075F803212846FFF7C9
:101E100077FE072085F8400070BD000010B504462D
:101E20000021FFF76DFE2168164A487840F08000D7
:101E30004870A1689142216802D240F0080001E098
:101E400020F00800487020684178012000F028F850
:101E500001212046FFF754FE21680020022281F86C
:101E60004000216881F8410021684020403100F0A5
:101E70001DF821686F220120BDE81040491CFFF7C2
:101E80007DBF000040DD4A1F044A01284FF00401D5
:101E9000104601D0FFF79FBAFFF79BBA0018014028
:101EA00013B5012201A900F001F81CBD2DE9F0478E
:101EB000DFF83C900E4607464FF480481546002454
:101EC00041464846FFF785FA47F080010120FFF7B9
:101ED0003BFC05E0315D0120FFF736FC641CE4B2F9
:101EE000AC42F7D341464846BDE8F047FFF773BA26
:101EF000001801400A4601460020FFF7D7BF000046
:101F0000044B08B1002200E0012280211846FFF7AF
:101F100064BA00000010014010B5044604211220EC
:101F2000FFF7BEFF002084F84000FFF753FF0128B1
:101F300001D0022010BD01211220FFF7B1FF0120C6
:101F400010BD000070B504460121FFF7D9FDE07C0B
:101F5000002501282FD02168F7204874206880F8D8
:101F60002450206890F824102420FFF799FF20685F
:101F7000417C1120FFF794FF2068294685730E20CD
:101F8000FFF78EFF2068817B41730D20FFF788FFEC
:101F900021684120022281F840002168402081F818
:101FA000410021684031FFF781FFFFF71DFCBDE8CC
:101FB0007040FFF70ABC2168F52048742168207D35
:101FC00081F8240021681C201C31FFF7D3FE206813
:101FD0000449007F00F03F0051F820102046FFF731
:101FE00009FEBEE7547D00080CB500212E48019182
:101FF0000091026842F4803202604FF4A0630268EC
:1020000002F400320092019A521C0192009A12B915
:10201000019A9A42F3D10268920342D501210091BC
:1020200022490A6842F010020A600A6822F003029C
:102030000A600A6842F002020A6041684160416831
:102040004160416841F480614160C16A184A1140B1
:10205000C162C16A174A1143C162016841F08061DF
:10206000016001680901FCD5416821F47C114160DF
:10207000416841F4E8114160016841F080710160FC
:1020800001688901FCD5416821F003014160416884
:1020900041F0020141604168C1F381010229FAD196
:1020A0000CBD00910CBD0000001002400020024059
:1020B00000F0FEFF44060100124810B5016841F02F
:1020C000010101604168104A1140416001680F4AF6
:1020D00011400160016821F480210160416821F410
:1020E000FE014160016821F0A05101604FF47F01C1
:1020F00081600021C162FFF777FF05494FF0006062
:10210000086010BD001002400000FFF0FFFFF6FE67
:1021100008ED00E010B501218C07204600F075F8AD
:1021200000280AD00121204600F05CF806494878D2
:10213000022803D24878401C487010BD2046BDE8F4
:102140001040002100F054B8B800002010B5064C33
:1021500000216170401F80B2482100F0B9F860781A
:102160000228FCD110BD0000B800002070B51A4D47
:102170001021284600F049F8184C10B3284600F00A
:1021800041F860801021284600F02CF869151448A9
:10219000FFF718F9104920310028088802D040F4D0
:1021A000005001E020F40050088001202070606899
:1021B0006188428800EB420291804188491C41803D
:1021C00070BD0121284600F00DF820780128F7D1D4
:1021D0000220207070BD000000080040B800002000
:1021E000000C0140C94301827047C9430182704716
:1021F0000029018802D041F0010101E021F0010134
:1022000001807047B0F84000704702460020138AF2
:1022100092890B4202EA010202D0002A00D001207A
:102220007047002A828901D00A4300E08A438281F4
:102230007047000030B502881B4B1C4C98420DD0F3
:10224000A0420BD0B0F1804F08D0194DA84205D064
:10225000184DA84202D0184DA84203D122F07005B3
:102260004A882A43154DA84206D0154DA84203D0EE
:1022700022F44075CA882A4302808A8882850A88A7
:10228000028598420AD0A04208D00E4A904205D05A
:102290000D4A904202D00D4A904201D1097A01863E
:1022A0000121818230BD0000002C0140003401403A
:1022B0000004004000080040000C004000100040F6
:1022C000001400400040014000440140004801402B
:1022D0007FB50C46054601210846FFF787F9641EC5
:1022E000ADF800400020ADF80450ADF80600ADF8A0
:1022F00002004FF0804469462046FFF79BFF1C20F8
:102300008DF80C0005208DF80D0003208DF80E00CF
:1023100001208DF80F0003A8FFF720F901212046C6
:10232000FFF760FF01212046FFF75FFF0122114602
:102330002046FFF776FF01212046FFF759FF7FBDBA
:10234000F8B5102103268DF80310244D8DF8026096
:1023500001281CD0022823D0214C03282CD004288B
:1023600033D0002827D1C020ADF8000069462846A8
:10237000FEF7AAFFADF8006069462046FEF7A4FF0D
:10238000C0212846FFF725F80321204611E0402010
:10239000ADF8000069462846FEF796FF402107E0A9
:1023A0008020ADF8000069462846FEF78DFF8021A9
:1023B0002846FFF70EF8F8BD0120ADF80000694689
:1023C0002046FEF781FF0121DFE70220ADF8000083
:1023D00069462046FEF778FF0221D6E70008014053
:1023E000000C014038B518218DF803100321144C5E
:1023F0008DF80210012810D0022810D0114A0328AD
:1024000015D0042815D0002810D1ADF80010694669
:102410001046FEF759FFC02002E0402000E0802077
:10242000ADF8000069462046FEF74EFF38BD01209A
:1024300000E00220ADF8000069461046F4E7000015
:1024400000080140000C01402DE9F0478CB02C2120
:102450006846FDF7FAFE00240E200B948DF82C0040
:102460000D208DF82D008DF82E4001208DF82F00C5
:102470000BA8FFF773F801210846FFF7ABF8DFF868
:1024800090A05046FEF766FD234E224D00957069E0
:10249000019010200290C827CDE903744FF0800806
:1024A000CDE905844FF40059CDE908490794694600
:1024B00050460A94FEF7DCFD01215046FEF73EFD32
:1024C000012202215046FEF7CBFDDFF844A00AF1BD
:1024D000140A5046FEF73EFD009501A9306981E8D7
:1024E0009100CDE90448CDE908490694079469466E
:1024F00050460A94FEF7BCFD01215046FEF71EFD32
:1025000001224021281F00F0BCF80CB0BDE8F08784
:102510004400024004380140A00000202DE9F843A7
:1025200029A1012003F01AFF2C4C207803F0B8FFFA
:102530002B4F40F224484146384600F0B1F80128BC
:1025400038D1284E00213046FEF7F8FC3888381D77
:1025500000883046FEF770FDD0F1C8051AD0691C1E
:102560002148226900F054FA012000906946E06891
:1025700003F03CFC009838B11C494FF080500860D3
:10258000BFF34F8FBFF36F8F2A4619A10320236932
:1025900003F0E4FE4FF48030FEF7C4FC41463846B9
:1025A00000F05FF8C8213046FEF77FFD012130467C
:1025B000FEF7C4FC10A1022003F0D0FEBDE8F843F2
:1025C000012004F021B8000055415254315F4944C4
:1025D0004C455F49525120496E000000A000002088
:1025E0000038014058000240C83E002004ED00E0E1
:1025F00025643A25730A000055415254315F49441D
:102600004C455F495251204F7574000010B5114C74
:1026100040F22551204600F043F8002818D020460B
:1026200000F0CCF8C1B20C4843880269D15442880A
:102630000023521C92B24280C62A00D14380074C2C
:102640008288A154521C91B28180C62900D3838014
:1026500010BD000000440040A0000020903F00207A
:1026600070470A0A01219140C9430180704700293F
:10267000818902D041F4005101E021F400518181AF
:102680007047002A828A01D00A4300E08A4382828E
:1026900070470246002012880A4200D0012070478D
:1026A00030B501F01F0201240025C1F3421304FAE2
:1026B00002F2012B0FD0022B0FD0838A4FEA112197
:1026C0000088134204FA01F400EA040001D000B1CA
:1026D0000125284630BD8389F0E7038AEEE710B56F
:1026E000C1F3421301F01F040121A140012B07D0C7
:1026F000022B07D01430002A026805D00A4304E0F8
:102700000C30F8E71030F6E78A43026010BD000095
:1027100030B50446008A85B00D464CF6FF7108407E
:10272000E98801432182A1894EF6F3100140A8886F
:102730002A8910436A890A431043A081A08A4FF670
:10274000FF410840A9890143A1826846FEF766FF60
:102750001948844201D1039800E00298A189090434
:1027600000EBC00101EB0010296801D5490000E031
:102770008900B0FBF1F06422B0FBF2F109010B0912
:102780006FF018056B4300EB8300A3891D044FF025
:10279000320306D503EBC000B0FBF2F000F00700F7
:1027A00005E003EB0010B0FBF2F000F00F0008436F
:1027B000208105B030BD0000003801408088C0F3A2
:1027C00008007047F0B587B00024074600940494D1
:1027D000019402940394012144F209000594FEF748
:1027E00011FF01210420FEF7C1FD4020ADF81000CB
:1027F00003258DF812501820334E8DF8130004A9CC
:102800003046FEF761FD8020ADF8100004208DF801
:10281000130004A93046FEF757FD25208DF814005B
:102820000C268DF815608DF8165001208DF81700D4
:1028300005A8FEF793FEADF80440ADF808400097F8
:10284000ADF80640ADF80C40ADF80A60C82002F0C3
:10285000D3FE1E4C2061C82002F0CEFE606110B194
:10286000C821FDF7F2FC206910B1C821FDF7EDFC8D
:10287000FFF7EAFD164D69462846FFF749FF01229A
:1028800040F224412846FFF72AFF01212846FFF79E
:10289000EEFE03220021012004F060F80DA1A060EB
:1028A00003F0E6FD01210FA005F0F4F960700221AC
:1028B00010A005F0EFF9002320701A461946A06811
:1028C00004F0C6F807B0F0BD000C0140A0000020E5
:1028D0000038014073656D625F646D615F756172A0
:1028E0007431000055415254315F444D4154785F7A
:1028F0004952510055415254315F49444C455F495A
:102900005251000070B5144C06464FF0FF31A068DC
:1029100004F056FC114D40212846FFF7BAFE00286E
:10292000F9D031466069FDF7B4FC0D4C002120461A
:10293000FEF704FB3046FDF7A5FC81B22046FEF70A
:10294000B4FB01212046FEF7F9FA2846BDE87040A5
:1029500001228021FFF795BEA00000200038014031
:1029600044000240054612A1232003F0F7FC04F0C6
:1029700089FE1549086015A1242003F0EFFC4FF0F3
:10298000FF342146012002F0A3FF014601280AD0AE
:1029900002D915A002F0C0FE0023022219462846E3
:1029A00004F0D8FDEDE71848FFF7ACFFF4E70000AE
:1029B00075617274317072696E746261636B5F62AB
:1029C0006567696E20496E00AC0000207561727405
:1029D000317072696E746261636B5F626567696EA4
:1029E000204F75740000000053656E6420746F6F93
:1029F00020666173742C206F766572666C6F773A0F
:102A00002025640A00000000C83E0020FEE7000008
:102A10000FB41CB50246002007AC00290BD0491E9C
:102A2000CDE90021054B6A462146069800F0ECF8F6
:102A3000009A002111701CBC5DF814FB37330008AC
:102A400037B514460846064B6A46214600F0DCF8C6
:102A500004466946002000F079FC20463EBD000097
:102A60004D33000802E008C8121F08C1002AFAD13D
:102A700070477047002001E001C1121F002AFBD1FE
:102A8000704700002DE9FF5F82B00021DDE90430CE
:102A9000020DDDF840B0034318D044F61050A2F206
:102AA000FF3242431514119801281FD0A5EB0B00EB
:102AB000401C5FEA000A4FF000064E4FDFF83891E5
:102AC000B046504615D5CAF1000413E01198012410
:102AD0004AA3012801D16FEA0B010298119AC0E9BB
:102AE0000031C0E9024206B0BDE8F09FCBF1000022
:102AF000DFE704460021404A491842EB0450CDE983
:102B0000001012E0E00707D032463B4640464946F7
:102B1000FDF7B1FD8046894632463B4610461946D0
:102B2000FDF7A9FD06460F466410002CEAD1DDE949
:102B30000401DDE90023BAF1000F06DAFDF79BFD81
:102B400042464B46FDF797FD05E0FDF706FE42467F
:102B50004B46FDF702FE04460E460022284BFDF7C9
:102B6000C1FF03D84FF0FF30014607E00022254B9C
:102B700020463146FDF7D8FCFDF79BFF102409E005
:102B8000002C0ADB0A220023FDF792FE039B303261
:102B90001A55641E50EA0102F2D1641C039AC4F172
:102BA00011031444119A012A03D0012208430DD1C4
:102BB0000AE0084304D000204FF0110B119072E797
:102BC000A3EB0B056D1E0DE05B4504DD4FF000022D
:102BD00005F1010504E003DA4FF00002A5F101055B
:102BE000002AECD002981199C0E90231C0E90045F1
:102BF00079E70000000014400000F03F30000000C2
:102C00000000F0430000E03F2DE9FF4F95B09B46E8
:102C10008946064600250FE2252877D1002427465D
:102C2000F84A0121059400E0044316F8013F203BD7
:102C300001FA03F01042F7D130782A2811D06FF052
:102C40002F033078A0F13002092A16D8059A44F0F3
:102C5000020402EB820203EB42021044761C059050
:102C6000EFE759F8042B0592002A03DA504244F4A6
:102C70000054059044F00204761C30782E2816D1BA
:102C800016F8010F44F004042A280DD06FF02F022B
:102C90003078A0F13003092B09D807EB870302EB4A
:102CA0004303C718761CF3E759F8047B761C307889
:102CB0006C280FD006DC4C2817D068280DD06A2865
:102CC00014D104E0742810D07A280FD10DE044F418
:102CD00000140AE044F4801401E044F440147278D3
:102CE000824202D104F58014761C761C3078662866
:102CF0000BD013DC582877D009DC002875D0452884
:102D0000F6D04628F4D047281AD19DE118E0632870
:102D100035D0642879D0652812D195E1702873D018
:102D200008DC6728F1D069286FD06E280DD06F2895
:102D300006D1B5E073282CD0752875D0782874D0CA
:102D40005A46179990476D1C75E1C4F3025002284A
:102D500009D003280DD0D9F8001004280DD00D603B
:102D600009F1040967E1D9F80010EA17C1E9005236
:102D7000F6E7D9F800100D80F2E70D70F0E719F8CA
:102D8000041B8DF8001000208DF80100EA46012098
:102D900003E059F804AB4FF0FF3061074FF000013A
:102DA00002D40DE008F101018846B9420FDA8045EE
:102DB000F8DB1AF808100029F4D108E008F1010145
:102DC00088468142FADB1AF808100029F6D10598E6
:102DD0005B46A0EB080721463846179A00F094FAA4
:102DE000284400EB080507E04DE029E10DE01AF862
:102DF000010B5A4617999047B8F10108F7D25B4684
:102E000021463846179A13E142E00A220092C4F3A1
:102E100002524FF0000A022A08D059F804CB032AC4
:102E20004FEAEC710AD00DE029E02AE009F1070130
:102E300021F00702F2E802C1914609E00FFA8CFC8A
:102E40004FEAEC71042A03D14FFA8CFC4FEAEC7183
:102E5000002907DA0A460021DCF1000C61EB0201CF
:102E60002D2202E0220504D52B228DF80420012218
:102E700003E0E20701D02022F7E7904659E00A215B
:102E800002E010220DE010214FF0000A00910BE04B
:102E900010224FF0000A44F004040827009203E0D7
:102EA00008224FF0000A0092C4F30252022A05D011
:102EB00059F804CB0021032A08D009E009F10701E1
:102EC00021F00702F2E802C1914605E01FFA8CFCEE
:102ED000042A01D10CF0FF0C4FF00008220728D57E
:102EE000702806D0009B83F0100353EA0A0305D034
:102EF0000EE040228DF80420012208E05CEA010285
:102F000006D030228DF804208DF80500022290466C
:102F1000009B83F0080353EA0A030AD15CEA01022A
:102F200001D1620705D530228DF804204FF0010849
:102F30007F1E582804D034A003900EA802900DE004
:102F400036A0F9E753466046009AFDF7B1FC844687
:102F50000398825C0298401E029002705CEA0100B5
:102F6000F0D1029806A9081A00F1200A600702D5DC
:102F700024F4803400E00127574502DDA7EB0A0066
:102F800000E0002000EB0A01009005984144401A3F
:102F90000590E00306D45B462146179A059800F099
:102FA000B3F90544002706E001A85A46C05D179909
:102FB00090476D1C7F1C4745F6DBE0030CD55B4654
:102FC0002146179A059800F09FF9054404E0302047
:102FD0005A46179990476D1C0099481E0090002989
:102FE000F5DC08E0029802995A460078491C0291E3
:102FF000179990476D1CBAF10001AAF1010AF1DCA2
:1030000065E10000092801003031323334353637AC
:103010003839616263646566000000003031323324
:1030200034353637383941424344454600000000C4
:1030300000F058F90544761C307800287FF4ECAD98
:1030400019B02846BDE8F08F620700D4062709F1C1
:10305000070222F0070CFCE80223E14603F00048D7
:103060005FEA080C02D00FF2702C0DE05FEA045CFE
:1030700002D50FF2682C07E05FEAC47C02D00FF2A1
:10308000602C01E0AFF2700C4FF0FF3823F00043EA
:10309000CDF850C065280CD006DC452809D046285C
:1030A0001DD047283DD13DE0662818D067287ED145
:1030B00038E00021112F01DB112000E0781CCDE960
:1030C000000106A90EA8FFF7DDFCDDE90F010E9A4D
:1030D00003910021009207F1010A04914DE04FF0A5
:1030E00000400097CDE9011006A90EA8FFF7CAFC21
:1030F000DDE90F0203920E9B11990022DDF80CA06E
:103100000093049211B9791C00EB010AB7EB0A0095
:1031100004D4C0F1FF3007F1010A0490AAEB0700C4
:10312000019044E0012F00DA01270021112F01DD79
:10313000112000E03846CDE9000106A90EA8FFF7EE
:10314000A1FCDDE90F010E9A039100210491009288
:10315000BA4621070CD40399514500DA8A46BAF1E0
:10316000010F05DD009AAAF10101515C302908D058
:10317000B84202DA10F1040F06DA0121CDE901109C
:1031800015E0AAF10101E9E7002805DC04990144F2
:103190000491AAEB000102E0411C514500DD8A4682
:1031A0000499401A401C01904FF000400290200703
:1031B00004D40198504501DBCDF8048000208DF83F
:1031C0004F0002980DF14F07B0F1004F25D02B2092
:1031D0000E9002984FF0020800280CDA404202904C
:1031E0002D200E9007E00A210298FDF74BFB3031AD
:1031F000029007F8011DB8F10001A8F10108F2DC06
:1032000002980028EFD1791E0E980870307800F0EF
:10321000200040F0450007F8020D12A8C01B00F185
:1032200007081498007800B1012000EB0A0101980A
:1032300001EBE07105984144401A401E0590E003FF
:1032400006D45B462146179A059800F05DF80544C0
:103250001498007818B15A46179990476D1CE003EE
:1032600024D55B462146179A059800F04DF8054491
:103270001CE00498002807DBDDE90301884203DD38
:103280000098405C179901E0179930205A46904702
:10329000049805F10105401C04900198401E01901E
:1032A00004D12E205A46179990476D1CBAF100019F
:1032B000AAF1010ADDDC05E017F8010B5A4617995F
:1032C00090476D1CB8F10001A8F10108F4DC5B46E1
:1032D0002146179A0598ABE62D0000002B00000050
:1032E000200000002DE9F041044600251E46174647
:1032F000880404D405E039462020B0476D1C641EC4
:10330000F9D52846BDE8F0812DE9F04104460025B5
:103310001E469046C80301D5302700E020278804C8
:1033200004D505E041463846B0476D1C641EF9D50A
:103330002846BDE8F0814A68002A06D00A68531C76
:103340000B6010704868401E486070470A68531C44
:103350000B601070704700000EB5142002F04CF99D
:103360003A4D00273A4C80464FF0FF3A05F12406CB
:103370004FF0020902975146012002F0A9FA02AB70
:10338000424634A13548FCF79DFF35A14046FCF785
:1033900067FF60B1A06840B10298A863414630461B
:1033A000FCF777FFA068686411E02FA016E038A151
:1033B0002A48FCF755FFA0B1606870B127700298E9
:1033C000686141462148FCF764FF60682862002379
:1033D0000222194604F0BEF832E02EA002F09CF959
:1033E000C9E736A11D48FCF73BFF30B3029801281E
:1033F00002D0606888B123E0A06808BB606810B1A3
:1034000002F048FC6760124933460831CDE900916B
:103410004FF448722CA130480CE0A06810B102F0C3
:1034200039FCA7600A49094B091DCDE900918022AA
:103430002AA12E4804F062F802E02DA0FFF762FAFC
:10344000C8210648FCF701FF95E700006C01002049
:10345000000000202573202564000000C83E0020E5
:103460006C6561726E000000506C6561736520458B
:103470006E746572205243206C6561726E696E676E
:10348000206D6F64652066697273740D0A00000018
:1034900075736500506C6561736520456E74657267
:1034A0002052432053656E64696E67206D6F6465BA
:1034B0002066697273740D0A0000000072656D6FFA
:1034C00074655F7365740000636F64655F6C65614C
:1034D000726E696E6700000081350008636F646575
:1034E0005F73656E64696E67000000003D37000819
:1034F000496E76616C6964205461736B0D0A00003B
:103500002DE9F041FDF7B0FE1C4F05464FF48076E3
:10351000002431463846FDF75CFF0020FEF710FF1F
:103520001FE0E007314638460CD0FDF752FF00207F
:10353000FEF706FF05EB4400C1888088814207D969
:10354000081A09E0FDF747FF0020FEF74BFFF1E7FF
:103550004EF66022101A084480B2FEF7F7FD641C94
:10356000E4B26888401EA042DBDC31463846FDF7F5
:1035700030FFBDE8F0410020FEF7E2BE000C014044
:1035800005468CB042A0FFF7BDF94FF00009DFF807
:1035900028A14C4649468AF80090012002F098F98B
:1035A000A84630216846FCF750FE444E6D46A020E8
:1035B00002F022F845F8240004EB840006EB4010EA
:1035C000FDF752FE55F824300146A0221846FCF7BC
:1035D00023FE641C0C2CEADBDFF8E4B0002700BFFC
:1035E0004FF0FF31012002F073F9D8F814000C28D5
:1035F00013D33046FDF72AFE5FF0000404EB84008D
:1036000055F8241006EB40105022FDF72EFE641CE6
:10361000E4B20C2CF2D32BA027E031A0FFF772F913
:10362000DBF8001001223448A1F802901121FEF7C6
:10363000F8FD54462078022802D137B1012F06D078
:103640000027322002F0E0FAF4E70127F9E7002230
:1036500011212948FEF7E5FD84F80090DBF8000011
:103660005C464088032803D824A0FFF74BF9B7E74E
:1036700029A0D8F8141002F04FF8216848884200B9
:10368000D8F81400121D55F82000FCF7C5FDA7E777
:10369000596F752061726520696E207461736B20AB
:1036A0002D2D2D20697264615F6C6561726E696E8B
:1036B00067200D0A00000000B800002000D00208BA
:1036C000BC000020536176696E67206B65792076B7
:1036D000616C756520746F20666C6173680D0A00FB
:1036E0005374617274205265636F7264696E672EE1
:1036F0002E2E0D0A00000000000800406E6F697356
:103700006520697320636F6D696E672E2E2E61626E
:103710006F72740D0A0000007265636F726420732B
:1037200075636365737320696E20636F64655F738F
:1037300065745B25645D0D0A0000000005460FA05E
:10374000FFF7E0F80021012002F0C2F8144F154CF9
:103750004FF0FF3801264146012002F0B9F82078E9
:1037600030B9686900EB800007EB4010FFF7C8FE36
:103770000DA0FFF7C7F82670EDE70000596F752020
:1037800061726520696E207461736B202D2D2D2070
:10379000697264615F73656E64696E670D0A00002B
:1037A00000D002080000002053656E642073696732
:1037B0006E616C206F75740D0A0000001CB5FEF779
:1037C0007BFC4FF44070FDF7FBFE012002F0FEFC95
:1037D000FDF7A2FE4FF4E130FEF7F4FF0120FDF704
:1037E00003FE2448FEF723F82248FEF7ABFB22A194
:1037F00009222048FEF7F4FA4FF48050401EFDD213
:10380000FEF7E2FA1F490025022408802B46802299
:103810001DA11F48CDE9004503F070FE1D4E002399
:10382000CDE900464FF4487422461BA11E4803F020
:1038300065FE1E490320CDE9000122461CA1204857
:10384000336803F05BFE1F480090002301224FF411
:10385000FA611DA004F072F9040008D003F026FFFD
:103860000246002301212046009504F0B3F902F03E
:103870001DFCFEE7C800002068656C6C6F20636A61
:1038800063000000140000204C45445F44310000F8
:10389000A914000810000020436F6D6D616E642054
:1038A0005365727665720000593300080C000020E1
:1038B00055415254315F53656E646261636B000021
:1038C00065290008F51400084C45445F44325F74D4
:1038D000696D6572000000002DE9F041184C0F463B
:1038E0000546E6682068001D02F080F838B92068B7
:1038F00090F82C1001208840216981432161681CC7
:1039000007D137B12168BDE8F0410E48091D02F02A
:10391000ACB820683544B5424560216805D2A06B3B
:10392000BDE8F041091D02F088B8606B091D02F086
:1039300084F8A06A854200D2A562BDE8F08100004B
:10394000180000208C0200202DE9F041054602F00D
:1039500099F84F4CA068401CA06020684D4F10B1F2
:10396000606940B32DE02560A068012829D10026B8
:1039700006EB860007EB800002F051F8761C052E5E
:10398000F6D34448643002F04AF84248783002F0F6
:1039900046F840488C3002F042F83E48A03002F031
:1039A0003EF83C48B43002F03AF83A48643060637C
:1039B0001430A06305E02068E96AC06A884200D834
:1039C0002560606A344E401C6062686495B30320D1
:1039D00000F092FD0146284601F00FFA2F480188B9
:1039E000284601F0FDF9284600F0ADFEC1B205F110
:1039F0003402032001F0BCF8284600F0A4FEC1B256
:103A000095F82C20032001F071F900F0D9FC00F0AA
:103A100095FE318808420DD0284600F08FFE31888F
:103A2000084207D0284600F08EFEC2B203211B20B8
:103A300001F0F0F9284600F081FE3188084205D0F7
:103A4000284600F080FEC0B201F0B8FBE96A012010
:103A5000226988401043206101EB810007EB800060
:103A6000291D02F002F802F02DF8606900280CD040
:103A70002068E96AC06A884207D209494FF080503D
:103A80000860BFF34F8FBFF36F8FBDE8F081000078
:103A900018000020D80100201C0100201E01002079
:103AA00004ED00E010B501F0EDFF0C4C206880B98A
:103AB0000B4801F0B4FF0A48143001F0B0FF084889
:103AC000E0601430206100220C21052002F046FF46
:103AD0002060BDE8104001F0F5BF00005400002058
:103AE000A002002030B4026C0B46002A0BD0C16843
:103AF0001144C1608468A14201D30168C16030BC37
:103B00001846FCF789BB30BC70472DE9F041856B46
:103B1000174604460026026C82B1C7B1E068FCF784
:103B20007BFBE168206C091AE1602268914202D2B5
:103B3000A168081AE060022F16D017E02068A8B923
:103B4000A06803F03BFE06460020A0600EE060681F
:103B5000FCF762FB216C606808446060A1688842E1
:103B600004D32068606001E005B16D1E6D1CA56383
:103B70003046BDE8F08110B50446006B01F0B6FF99
:103B80002046BDE8104001F0B1BF000010484FF4DE
:103B90007051420706D0C01D0D4920F00700411AA0
:103BA000C1F570510B4A00230144C2E900030839F2
:103BB000103A21F0070111604B600B600B1AC0E94D
:103BC000001393604FF000405360D06070470000D6
:103BD000C802002084000020144E154CA6F1A00756
:103BE0004FF08058DFF84C9012E000BF01F04AFF20
:103BF000F068C568281D01F0F9FEA068401EA060AD
:103C00006068401E606001F05DFF2846FFF7B3FF6B
:103C100060680028EAD138680128F9D9C9F800801D
:103C2000BFF34F8FBFF36F8FF2E7000078020020E1
:103C30001800002004ED00E02DE9F0411D46069C2F
:103C4000002952D0C4F80020C4E90F010121204608
:103C500002F0BAFE84F84C50204600F06DFD244D71
:103C6000285C00F049FC0146204601F090F821480C
:103C70000188204601F07EF8204600F058FDC6B2CB
:103C8000204600F059FD285C314600F0DFF800F0D6
:103C900097FB00F053FD184E3188084217D020469C
:103CA00000F040FD3188084211D0204600F03FFD71
:103CB000C7B2204600F040FD2E5C204600F03CFDDF
:103CC000285C3A461830C0B2314601F0A3F82046CD
:103CD00000F02DFDC6B2204600F02EFD285C3146D6
:103CE000BDE8F041002200F0BFBF2460ACE7000057
:103CF000100100201E0100201C0100202DE9F047CA
:103D00009946DDE90984089D17460E00824616D0C3
:103D1000B900A522206BFCF791FA6FF00301206B2C
:103D200001EB8701084420F0070778070FD0BF2078
:103D300080F31188BFF34F8FBFF36F8FFEE7BF2073
:103D400080F31188BFF34F8FBFF36F8FFEE7221808
:103D5000315C82F83410315C11B1401C1028F6D36C
:103D6000002684F84360052D00D30425E562C4E9EC
:103D70001356201D01F05EFE04F1180001F05AFEFA
:103D80002461C5F105006462A061666584F858602D
:103D90004A465146384601F0ADFC2060B8F1000FAC
:103DA00001D0C8F80040BDE8F087000030B51149E7
:103DB00000E011460A688242FBD34B685C188442DB
:103DC00003D1406818444860084643681C18944270
:103DD00009D1084C103C2468A24209D052681A4408
:103DE00042600A6812680260814200D0086030BDFB
:103DF0000460F9E78400002070B5002441600B4D99
:103E00000061914206D8D11A8269914206D2011D01
:103E1000286907E09A4203D2994201D3012403E0C2
:103E2000011DE86801F009FE204670BD5400002025
:103E300010B5044601F026FEA06B28B15FF0000427
:103E400001F040FE204610BD0124F9E70A4610B5F6
:103E50000146104601F096FC034A0121126B104402
:103E600080F89C1010BD00001801002030B587B00C
:103E70002B4D4BE00498002848DB069C606910B18C
:103E8000201D01F0B3FD02A800F0B6F80246049828
:103E90000A283BD2DFE800F00505053A263705057C
:103EA0003A260598A169034601442046FFF7A4FF7E
:103EB00000B3616A20468847E069012826D10020C6
:103EC00000900598A169002342181946204603F086
:103ED00081FE78B9BF2080F31188BFF34F8FBFF305
:103EE0006F8FFEE70598A06128B181181346204620
:103EF000FFF782FF0AE0BF2080F31188BFF34F8FE6
:103F0000BFF36F8FFEE7204601F0F0FD002204A909
:103F1000286803F01BF80028ACD107B030BD0000C2
:103F2000540000202DE9FC410F46054602F006F939
:103F300001A800F061F80446019818B103F08AFD69
:103F4000BDE8FC81224EAFB130690068A8B30027FC
:103F5000291B3A46306801F035FE03F07BFD00284E
:103F6000EED11C494FF080500860BFF34F8FBFF374
:103F70006F8FE5E7A542EBD803F06CFDF0682746AC
:103F8000C068C468201D01F031FDE069012810D12E
:103F9000A0692B4641193A462046FFF72DFF40B154
:103FA00000200346014600902A46204603F012FEF8
:103FB00020B1616A20468847C2E707E0BF2080F34E
:103FC0001188BFF34F8FBFF36F8FFEE70127BFE765
:103FD0005400002004ED00E00648416B096829B157
:103FE000416BC968C9684968816270474FF0FF3109
:103FF000FAE700001800002070B5054603F056FBF4
:10400000064E0446B068844203D200F015F8012041
:1040100000E0002028602046B46070BD54000020FD
:1040200010B5002305E0CC5CC454CC5C002C02D05D
:104030005B1C9342F7D310BDF8B5194D1FE0C06863
:10404000C4680668201D01F0D1FC616A20468847DB
:10405000E069012813D1A0693044B04206D9246137
:104060006060211DE86801F0E8FC08E000200346DC
:10407000014600903246204603F0ACFD38B1E868B6
:1040800001680029DBD12969C5E90310F8BDBF200B
:1040900080F31188BFF34F8FBFF36F8FFEE70000EF
:1040A0005400002008484068401C4FF0BF0080F3D7
:1040B000118804D0BFF34F8FBFF36F8FFEE7BFF3BC
:1040C0004F8FBFF36F8FFEE768000020074CE0685A
:1040D000016841B1C0680021D0F80000FFF722FF5D
:1040E000FFF7C4FEF3E701210020F7E754000020AA
:1040F0002DE9F0410E46144601004FF000070ED0A6
:104100007CB12C4D04F1040C286BD0F86425944448
:10411000BCF5487F0BD3284800F08AF847E027A079
:1041200000E035A000F084F80020BDE8F08100EB4D
:10413000460700F5AD6097F888781754286B00EBB8
:104140004602D0F86475B2F8882800F26950120A65
:104150003A54286BD0F8642500F26A501354286B47
:104160001A0AD0F8643500F26B501A54286BD0F854
:10417000642500F26C5010442246FFF751FF286B73
:104180000021D0F86425024404F26C50641D1154DF
:10419000286B00EB4602B0F86415A2F88818D0F836
:1041A00064152144C0F86415E0B2081A87B2384695
:1041B000BBE70000180100202C8600085452414340
:1041C000455F4153534552543A20707276547261A0
:1041D000636543726561746553796D626F6C546198
:1041E000626C65456E7472793A206E616D65203D32
:1041F0003D204E554C4C000054524143455F4153C5
:10420000534552543A20707276547261636543721A
:104210006561746553796D626F6C5461626C65455C
:104220006E7472793A206C656E203D3D203000003E
:1042300070B50C4C0546206B08B102F025F9606A98
:1042400000280DD16562206B2946002808D0502235
:1042500000F61410FFF7E4FE216B0120C1F80C09F1
:1042600070BD00001801002030B4092801D31048A7
:1042700013E031B10F4A126B024492F864208A4273
:1042800001D20D4809E00D4A02EB400432F810302B
:10429000648A5B1EA34203DA09A030BCFFF7C8BFE3
:1042A0009BB222F81030D01880F8481030BC70470C
:1042B0000C870008180100200085000858400020E5
:1042C000417474656D707420746F2066726565202A
:1042D0006D6F72652068616E646C657320746861CF
:1042E0006E20616C6C6F6361746564210000000076
:1042F00030B40123002410B119B122B109E00AA0A1
:1043000002E016A000E021A030BCFFF791BF2C44D2
:104310005B1C10F8015B002DF9D104F03F00087020
:10432000137030BC7047000054524143455F415305
:10433000534552543A2070727654726163654765F2
:1043400074436865636B73756D3A20706E616D655B
:10435000203D3D204E554C4C00000000545241433E
:10436000455F4153534552543A20707276547261FE
:104370006365476574436865636B73756D3A207058
:10438000637263203D3D204E554C4C0054524143D6
:10439000455F4153534552543A20707276547261CE
:1043A0006365476574436865636B73756D3A207028
:1043B0006C656E677468203D3D204E554C4C000086
:1043C00003F060B9F8B5002605464FF6FF77009672
:1043D000FF2806D0BD4204D02BA0FFF729FF002004
:1043E000F8BD394C206B416A51B9216A09B189087D
:1043F00005E036494968626C914201D03449416216
:10440000684600F095FB2046009AA16B8263006B22
:10441000541A416AC1B1A1420BD2B4FBF1F2C36A92
:104420001A44C262B4FBF1F201FB1242836A1A44DD
:1044300001E0826A224482628A4206D3C36A511A28
:104440005B1CC0E90A1300E08262AC4211D900F0A3
:10445000F3FA70B1BD4205D1A9210170210C418050
:10446000467004E0FF2D07D01AA0FFF7E1FE00F030
:104470005BFF04EA0500F8BDA8210170210A418014
:10448000210E4170F3E7000054524143455F415310
:10449000534552543A207072765472616365476591
:1044A000744454533A20496E76616C696420766195
:1044B0006C756520666F7220706172616D5F6D61F1
:1044C000784454530000000018010020001000E060
:1044D00080A8120142616420706172616D5F6D613C
:1044E0007844545320696E2070727654726163650B
:1044F00047657444545300002DE9F041214C216B71
:1045000039B1092807D32048FFF792FE0020BDE803
:10451000F0811E48F8E7EFF31085012181F3108840
:10452000E169491CE1611A490A4631F810306363B8
:10453000CE1802EB400296F8487027B9977CDB1B37
:104540005B1C86F8483096F8483031F81060978C3C
:10455000BE4205D901F008F8FFF76AFE00230AE021
:10456000761CB6B221F81060508AD18E301A814282
:1045700001DAC0B2D086E069401EE06185F31088A0
:104580001846C4E718010020548700087481000809
:104590005840002070B50A460446092801D30D484A
:1045A00007E00D4D286B204490F86400904204D23F
:1045B0000AA0FFF73DFE002070BD2146104601F025
:1045C000E1F8296B0A199C3092F870201144085CBC
:1045D00070BD00009482000818010020545241432D
:1045E000455F4153534552543A207072765472617C
:1045F00063654765744F626A65637453746174657B
:104600003A20496E76616C69642076616C7565202C
:10461000666F72206964000070B505460C46FF287D
:1046200008D0A5F57F40FF3804D00CA0FFF700FEAE
:10463000204670BDAC4201D8084670BD00F0FCF9C0
:1046400048B10121017024EA05010A0A4270090CEF
:10465000418000F069FE04EA050070BD54524143F8
:10466000455F4153534552543A20707276547261FB
:104670006365476574506172616D3A20496E766179
:104680006C69642076616C756520666F722070615C
:1046900072616D5F6D61780070B50A460446092845
:1046A00001D30D4807E00D4D286B204490F86400BD
:1046B000904204D20AA0FFF7BBFD002070BD214646
:1046C000104601F05FF8296B0A199D3092F87020AE
:1046D0001144085C70BD0000C88300081801002068
:1046E00054524143455F4153534552543A207072EE
:1046F0007654726163654765745072696F7269744C
:104700007950726F70657274793A20496E76616C77
:1047100069642076616C756520666F72206964003B
:1047200001F077B910B501F074F9000C10BD10B5A7
:1047300001F06FF980B210BD01F020B810B501F0A2
:104740006AF9000C10BD10B501F065F980B210BD1A
:104750000E490D4808600E48016841F08071016003
:10476000006838B10B480168890105D50AA000BF6F
:10477000FFF75EBD13A0FBE700214160016841F037
:10478000010101607047000055CEACC5B01F00E0CC
:10479000FCED00E0001000E04457545F43594343F0
:1047A0004E54206E6F7420617661696C61626C6535
:1047B0002C2073656520636F646520636F6D6D6584
:1047C0006E742E0044575420756E6974206E6F7499
:1047D00020617661696C61626C652C20736565206F
:1047E000636F646520636F6D6D656E742E000000ED
:1047F0002DE9F05F484C206B00287DD0007801281F
:104800007BD04648406842F6B80560642946206B74
:10481000FBF71BFD206B41F6A1214FF4FA62818169
:10482000052181730021C173056182614FF0F0326F
:10483000C0E91521416301F04BFD206B4FF0F131D0
:1048400000F5AC62C0F85C154FF44871012522C236
:104850004FF0F231C0F81019502231A100F61410B7
:10486000FFF7DEFB206B4FF0F3317226C0F86419BE
:1048700000F6AC0000F500500A2101700B214170D8
:104880000C2181700D21C170712101714671732756
:1048900087717421C1714FF0F10880F808804FF0E2
:1048A000F20B80F809B04FF0F30A80F80AA04FF03D
:1048B000F40980F80B9001F0D9FC206B80F80B9084
:1048C00080F80AA080F809B080F808807421C171CE
:1048D00087714671712101710421C17003218170BA
:1048E000022141700570616A61B1502200F6141016
:1048F000FFF796FB206B01E008E00AE0C0F80C59D6
:1049000001F0C2FDBDE8F05FFFF722BF0948206358
:1049100077E7BDE8F09F000018010020001000E0DC
:104920005472616365205265636F726465722044DE
:10493000656D6F00E840002010B502F0A9FE08B1D7
:10494000002010BD012010BD2DE9F0411C4D5FEA93
:1049500000081E46286B174600EB4100B0F8884857
:1049600001D017B128E017A000E025A0FFF760FCF8
:104970000020BDE8F081296BF3B2081990F86A2590
:104980009A4210D190F86B25B2EB162F0BD1E21999
:10499000114491F86C1531B93A46414600F26C5019
:1049A000FBF780FC50B1286B204490F8681590F814
:1049B000690501EB002084B2002CDCD12046D8E749
:1049C0001801002054524143455F4153534552540E
:1049D0003A2070727654726163654C6F6F6B7570BC
:1049E00053796D626F6C5461626C65456E74727957
:1049F0003A206E616D65203D3D204E554C4C0000C7
:104A000054524143455F4153534552543A207072CA
:104A10007654726163654C6F6F6B757053796D621C
:104A20006F6C5461626C65456E7472793A206C6586
:104A30006E203D3D20300000094810B5006B016B31
:104A400031B1C169B1F5FA6F04D306A0FFF7F0FBED
:104A5000002010BD00EB810000F6681010BD0000C2
:104A600018010020417474656D707420746F2069A2
:104A70006E646578206F757473696465206576650A
:104A80006E74206275666665722100002DE9FC4136
:104A900006004FF000000F468DF800008DF804006E
:104AA00017D06A4601A93046FFF722FCEFF31084C5
:104AB000012080F31088114DE869401CE8613B46F5
:104AC0009DF800209DF804103046FFF73DFF30B1FF
:104AD0000DE00BA0FFF7ACFB0020BDE8FC813B46DE
:104AE0009DF800209DF804103046FFF701FBE969AE
:104AF000491EE96184F31088EFE7000018010020E7
:104B000054524143455F4153534552543A207072C9
:104B10007654726163654F70656E53796D626F6C28
:104B20003A206E616D65203D3D204E554C4C000095
:104B300030B50D490B464A699B69012A0FD00B4AD3
:104B40005268CC6B0D6C141B2C44A50804F00304B4
:104B50002B440C648B6100B10360CA6330BD002834
:104B6000FCD0036030BD000018010020001000E000
:104B700070B516000B46054603D0092D03D314A0CB
:104B80000CE01FA00AE06BB12A4C206B284490F87F
:104B90006400984208D2284600F0E6FCBDE8704068
:104BA000FFF746BB24A0F9E72946184600F0EAFDC6
:104BB0002081616A00290AD1216B4A19084492F8C0
:104BC00070203146BDE870409C30FFF729BA70BDB7
:104BD000496C6C6567616C206F626A656374206301
:104BE0006C61737320696E207072765472616365B4
:104BF0005365744F626A6563744E616D65000000B1
:104C000054524143455F4153534552543A207072C8
:104C10007654726163655365744F626A6563744E5E
:104C2000616D653A206E616D65203D3D204E554CAD
:104C30004C00000018010020496C6C6567616C2015
:104C400068616E646C652028302920696E2070725E
:104C50007654726163655365744F626A6563744E1E
:104C6000616D652E0000000070B516460B460446C7
:104C7000092801D30C4807E00C4D286B204490F81C
:104C80006400984204D20AA0BDE87040FFF7D0BA91
:104C90002146184600F076FD296B0A199C3092F8DF
:104CA000702011440E5470BDD882000818010020F5
:104CB00054524143455F4153534552543A20707218
:104CC0007654726163655365744F626A65637453A9
:104CD000746174653A20496E76616C69642076610E
:104CE0006C756520666F72206964000070B51646A9
:104CF0000B460446092801D30C4807E00C4D286BED
:104D0000204490F86400984204D20AA0BDE87040A4
:104D1000FFF78EBA2146184600F034FD296B0A19B8
:104D20009D3092F8702011440E5470BD1484000818
:104D30001801002054524143455F4153534552549A
:104D40003A2070727654726163655365745072696B
:104D50006F7269747950726F70657274793A204914
:104D60006E76616C69642076616C756520666F7221
:104D70002069640070B504460D46FFF7D1FC65F369
:104D80001F4001462046BDE8704000F019BF70B5D5
:104D90000C460546FFF7C4FC010C090421432846D4
:104DA000BDE8704000F00CBF10B50B4C216B91F8C2
:104DB0006710814204D2BDE810400848FFF738BAB6
:104DC000032100F0DFFC216B91F8732011440022D5
:104DD0009C300A5410BD000018010020B88400085F
:104DE00070B504460D4600F016FE65F31F400146FF
:104DF0002046BDE8704001F055B970B50C46054637
:104E000000F009FE010C090421432846BDE870406A
:104E100001F048B92DE9F04117460646FF2801D3B5
:104E20001CA00FE0092901D328480BE0284C206B77
:104E3000014491F86410B94201D2264802E0E169C8
:104E400021B125A0BDE8F041FFF7F2B96178002952
:104E50001DD0EFF31085012181F31088E169491C11
:104E6000E161006B70B14FF6FF70FFF7ABFA80465F
:104E7000FFB2FFF7E1FD28B1A0F80280067047708D
:104E800000F052FAE069401EE06185F31088BDE849
:104E9000F081000054524143455F41535345525401
:104EA0003A20707276547261636553746F72654B09
:104EB00065726E656C43616C6C3A2065636F646506
:104EC000203E3D203078464600000000FC8100086E
:104ED00018010020748600085265636F7264657261
:104EE0002062757379202D20686967682070726967
:104EF0006F7269747920495352207573696E672007
:104F000073797363616C6C3F2028322900000000C4
:104F10002DE9F0410F460646FF2801D3184803E06B
:104F2000184CE06920B118A0BDE8F041FFF780B946
:104F3000EFF31085012080F31088E069401CE061E8
:104F4000206B006BA8B1607898B1FF20FFF73AFAA8
:104F500000F0FF0839464FF6FF70FFF75DFB87B2A0
:104F6000FFF76AFD28B180F801800670478000F0E5
:104F7000DBF9E069401EE06185F31088BDE8F0814F
:104F800060840008180100205265636F72646572C6
:104F90002062757379202D206869676820707269B6
:104FA0006F7269747920495352207573696E672056
:104FB00073797363616C6C3F202834290000000012
:104FC0002DE9F047994617460646FF2801D320A051
:104FD0000FE0092901D32E480BE02E4C206B014431
:104FE00091F86410B94201D22B4802E0E16921B185
:104FF0002AA0BDE8F047FFF71BB9EFF310850121A8
:1050000081F31088E169491CE161006BC0B16078EF
:10501000B0B1FF20FFF7D6F900F0FF084946FF20A6
:10502000FFF7FAFA00F0FF09FFB2FFF705FD38B10C
:1050300080F803800670477080F8029000F074F9E1
:10504000E069401EE06185F31088BDE8F08700004C
:1050500054524143455F4153534552543A20707274
:1050600076547261636553746F72654B65726E65D9
:105070006C43616C6C57697468506172616D3A2061
:10508000657674636F6465203E3D20307846460047
:105090004482000818010020BC8600085265636F36
:1050A000726465722062757379202D206869676863
:1050B000207072696F726974792049535220757338
:1050C000696E672073797363616C6C3F20283329A4
:1050D0000000000070B50B460546092A01D31448AC
:1050E00007E0144E306B811891F86410994204D295
:1050F0001148BDE87040FFF79BB8006B002816D040
:105100001C461146204600F03DFB316B084400214F
:105110009C30FFF7BBFC0646FFF78EFC002806D04C
:10512000057044704680BDE8704000F0FDB870BD69
:105130001C83000818010020448500082DE9F04177
:1051400015460F468046092A01D3194807E0194E33
:10515000306B411991F86410B94204D21648BDE889
:10516000F041FFF765B8006B00281FD0FFF764FC23
:1051700004001BD0032D294638460FD000F002FB57
:10518000316B4A199C3092F870201144085C6070B1
:1051900084F80080BDE8F04100F0C6B800F0F2FAF3
:1051A000316B9D3091F873201144EFE7BDE8F08139
:1051B0007083000818010020908500082DE9F04157
:1051C00005002CD0174C2069002828D00F2D01D9BC
:1051D00015A002E0E06920B123A0BDE8F041FFF78F
:1051E00027B8EFF31086012080F31088E069401C97
:1051F000E061206B006B68B14FF6FF70FFF7E2F8DB
:105200000746FFF719FC28B102210170478045705D
:1052100000F08AF8E069401EE06186F31088BDE87E
:10522000F08100001801002054524143455F415372
:10523000534552543A2070727654726163655374C8
:105240006F72655461736B52656164793A20496E7F
:1052500076616C69642076616C756520666F72207A
:1052600068616E646C6500005265636F726465729C
:105270002062757379202D206869676820707269D3
:105280006F7269747920495352207573696E672073
:1052900073797363616C6C3F202831290000000032
:1052A0002DE9F04105460F2804D9BDE8F0411C481E
:1052B000FEF7BEBFEFF31087012080F31088194C72
:1052C000E069401CE0616078854220D0206B006B73
:1052D000E8B10020E0604FF6FF70FFF773F88046FA
:1052E0006570FFF7A9FB060011D061780320FFF776
:1052F00051F9012812D006203070A6F8028075708E
:10530000012261780320FFF7AFFC00F00DF8E0699F
:10531000401EE06187F31088BDE8F0810720EBE7CD
:10532000E4850008180100200848006B016B002983
:105330000AD04169491C4161C169491CC161B1F58B
:10534000FA6F01D301F0A0B87047000018010020E7
:105350002DE9F04700241D4691468846064627461B
:1053600086E0252871D17F1CFFB20F2F01D947A0FD
:1053700088E0641CA4B2305DA0F130010929F8D99D
:105380002328F6D02E28F4D010F0FF0F74D0682810
:105390004AD008DC58280ED0622857D064280AD09A
:1053A000662861D110E06C281CD0732806D07528BF
:1053B00001D0782858D158F8042B0EE058F8040B87
:1053C00002F038FC024637E008F1070020F0070041
:1053D000F0E802218046104622E02946484601F0C6
:1053E000FFF940E0641CA4B2305D66283CD108F1AE
:1053F000070020F00700F0E8022180461046FBF786
:1054000028FA02462946484601F0EAF9054608F11D
:10541000070020F00700F0E8021280460846114617
:10542000FBF717FA0246D8E7641CA4B2305D642883
:1054300007D0752818D104E02946484601F0A0F9A4
:1054400011E038F8041B8AB2F6E70DE0641CA4B240
:10545000305D642801D0752806D118F8042B294640
:10546000484601F0EDF90546641CA4B2FF2D08D0B2
:10547000305D00287FF475AFED1CC5F38500BDE8F5
:10548000F0870FA0FEF7D4FE0020F8E77654726193
:1054900063655072696E7446202D20546F6F206DC5
:1054A000616E7920617267756D656E74732C206D05
:1054B000617820313520616C6C6F77656421000064
:1054C0007654726163655072696E7446202D205463
:1054D0006F6F206C6172676520617267756D656EB4
:1054E00074732C206D6178203332206279746520CA
:1054F000616C6C6F77656421000000002DE9F0415C
:10550000044600F0BFFA94F9455004F1240609E07E
:10551000606A48B1304602F053FA08B100F060FC0E
:105520006D1E6DB2002DF3DC4FF0FF3684F8456040
:1055300000F0C8FA00F0A6FA94F9445004F11007FC
:1055400009E0206948B1384602F03AFA08B100F0A3
:1055500047FC6D1E6DB2002DF3DC84F84460BDE89D
:10556000F04100F0AFBA0000092818D2DFE800F0DF
:105570000D090B05070F111315000A4870470A485B
:1055800070470A4870470A4870470A4870470A48F7
:1055900070470A4870470A4870470A4870470AA08F
:1055A00070470000007F00089C800008607E0008B3
:1055B000E4800008B47E000850800008487F00089E
:1055C000F87F00089C7F000870737A5472616365ED
:1055D0004765744572726F7248616E646C65733AA8
:1055E00020496E76616C6964206F626A65637463DA
:1055F0006C617373210000002DE9F041054600271E
:1056000000F09CFD344E306808B9FEF7BFFAF06830
:10561000054251D1C5B3083568070ED005F0070023
:10562000C0F108000544680707D0BF2080F3118847
:10563000BFF34F8FBFF36F8FFEE72DB370688542C6
:105640003AD82548103001460C6801E020460C4647
:105650006168A94202D221680029F7D131688C42E1
:105660002AD007682168016060680837411B10294B
:105670000FD96019420708D0BF2080F31188BFF30B
:105680004F8FBFF36F8FFEE716E041606560FEF756
:105690008DFB61687068401A7060B268904200D2F9
:1056A000B060F06801430020C4E9000127B12A4638
:1056B0003946942001F010F802F0CCF9780707D0B1
:1056C000BF2080F31188BFF34F8FBFF36F8FFEE7CA
:1056D0003846BDE8F08100007400002004490868E5
:1056E00018B10868026D521C026508687047000016
:1056F0001800002010B5031F4FF080741C601B1FA2
:1057000021F001011960191F024B0B601439403858
:105710000A6010BDA54000080FB44FF0FF3170B50E
:10572000134CA06801F04CFD124D40212846FCF7B7
:10573000B0FF0028F9D005AA04996069FDF780F947
:105740000D4E044600213046FBF7F8FB641CA1B265
:105750003046FBF7AAFC01213046FBF7EFFB0122A4
:1057600080212846FCF78DFF70BC5DF814FB00001B
:10577000A0000020003801404400024090F84C0096
:105780007047000010B5092901D30DA008E030B121
:105790001B4A136B5A1892F86440844204D219A031
:1057A000FEF746FD002010BD03EB410192F87C207E
:1057B000B1F88810401E02FB001080B210BD00003E
:1057C00054524143455F4153534552543A20756901
:1057D000496E6465784F664F626A6563743A204922
:1057E0006E76616C69642076616C756520666F7297
:1057F000206F626A656374636C61737300000000FC
:105800001801002054524143455F415353455254BF
:105810003A207569496E6465784F664F626A6563C0
:10582000743A20496E76616C69642076616C7565A6
:1058300020666F72206F626A65637468616E646C63
:105840006500000070B51D4C206B28B1016B01296B
:1058500007D0616A39B12DE01948FEF7E9FC002054
:1058600070BD012070BDEFF31085012181F3108818
:10587000E169491CE16101210163FEF7A1FDFEF729
:1058800062FF10F0FF060DD10320FEF735FE06463D
:1058900001460CA20320FFF76BF9002231460320DA
:1058A000FFF724FA3046FFF7FBFCE069401EE06199
:1058B00085F31088206B006B70BD0000180100207C
:1058C00030810008287374617274757029000000BB
:1058D0002DE9F0410E46074600F0D4F8404C206810
:1058E000406D404DA0BB2168012081F858007EB377
:1058F00001213046FDF7F0FFFEF762FDFEF71EFFC7
:10590000298808420ED02068FEF718FF298808422F
:1059100008D02068FEF717FFC2B233460321D42017
:10592000FFF74EFBFEF74CFDFEF708FF2988084203
:1059300006D0FEF745FDFEF706FFC0B2FFF734FACA
:1059400029494FF080500860BFF34F8FBFF36F8F2E
:1059500000F0B8F800F096F8206890F85800022897
:105960001ED0FEF72DFDFEF7E9FE298808420FD074
:105970002068FEF7E3FE2988084209D02068FEF778
:10598000E2FEC2B2334603215FF0D500FFF718FBF9
:105990002068456D0020DDB1BFB12168486517E082
:1059A000FEF70EFDFEF7CAFE29880842F0D02068F7
:1059B000FEF7C4FE29880842EAD02068FEF7C3FE3D
:1059C000C2B203213346D320E0E72268691E516545
:1059D000216881F8580000F075F82846BDE8F0818C
:1059E000180000201C01002004ED00E0D0E9013285
:1059F00001699A60D0E901235A604A68824201D164
:105A000082684A60002202610868401E08600868D7
:105A10007047806C7047002800D0806C704700F1A0
:105A200008014FF0FF32C0E90112C160016100219D
:105A30000160704700210161704730B50B685A1C46
:105A400002D000F1080202E0026904E02246546834
:105A500025689D42FAD953684B6099608A6051600D
:105A600008610168491C016030BD42684A60936862
:105A70008B6093685960916008610168491C0160FE
:105A800070470000BF2080F31188BFF34F8FBFF332
:105A90006F8F0A494868401C486001280CD10848AB
:105AA000006810F0FF0F07D0BF2080F31188BFF30C
:105AB0004F8FBFF36F8FFEE7704700006800002034
:105AC00004ED00E00849486828B1401E486001D153
:105AD00080F311887047BF2080F31188BFF34F8F88
