:020000040800F2
:10000000004B0020FD0100080F1800088F160008A3
:100010000D180008D70F000849280008000000004C
:100020000000000000000000000000006501000862
:10003000FB13000800000000A9010008E5670008A4
:10004000130200081302000813020008130200083C
:10005000130200081302000813020008130200082C
:100060001302000815140008130200081302000808
:1000700013020008130200082912000813020008E6
:1000800013020008551200081302000813020008AA
:1000900013020008130200081302000813020008EC
:1000A00013020008130200081302000813020008DC
:1000B000491C000813020008A11C000813020008D4
:1000C00013020008130200081302000813020008BC
:1000D0001302000841240008D92400082D25000837
:1000E000FD130008130200081302000813020008A1
:1000F000130200081302000813020008130200088C
:10010000130200081302000813020008130200087B
:10011000130200081302000813020008130200086B
:10012000130200081302000813020008130200085B
:10013000130200081302000813020008130200084B
:10014000130200081302000813020008130200083B
:10015000DFF80CD000F052FD0048004701400008D5
:10016000004B0020224B19680868B0E8F00F80F3BC
:100170000988BFF36F8F4FF0000080F311884EF0B5
:100180000D0E70470000000006480068006880F30C
:10019000088862B661B6BFF34F8FBFF36F8F00DF81
:1001A00000BF00BF08ED00E0EFF30980BFF36F8FE1
:1001B0000F4B1A6820E9F00F106008B54FF0BF0030
:1001C00080F31188BFF34F8FBFF36F8F05F07AFE76
:1001D0004FF0000080F31188BDE8084019680868F6
:1001E000B0E8F00F80F30988BFF36F8F704700BF4E
:1001F0001C000020EFF30580704700000548004711
:10020000FEE7FEE7FEE7FEE7FEE7FEE7FEE7FEE7C6
:10021000FEE7FEE75101000840EA01039B0703D017
:1002200009E008C9121F08C0042AFAD203E011F835
:10023000013B00F8013B521EF9D27047D2B201E0F7
:1002400000F8012B491EFBD270470022F6E710B5DB
:1002500013460A4604461946FFF7F0FF204610BD34
:1002600030B505462A460B4612F8010B13F8014B30
:1002700008B1A042F8D01CB1002802D06D1CF1E7F3
:10028000284630BD421C10F8011B0029FBD1801A02
:100290007047034611F8012B00F8012B002AF9D111
:1002A000184670470FB400B58DB010A909900B9097
:1002B00000914FF0FF300A9000200C900548069006
:1002C000054807906A4609A80F9900F0A5FB0DB0F4
:1002D0005DF814FB350A0008530A00082DE9FF5F9A
:1002E0001D464FF0FF3BD5E9014691465F464FF072
:1002F0000008A9697F1C01988847296A82468847B7
:100300000028F6D1BAF1FF3F0CD024F4C064002ECF
:1003100019DD600614D5BAF12B0F09D0BAF12D0FF3
:100320000ED103E0584604B0BDE8F09F44F4806469
:10033000A9697F1C01988847761E8246002E02DD3F
:10034000BAF1300F03D0B9F1000F26D032E0A9691D
:10035000761E44F400747F1C019888478246002E64
:1003600005DDBAF1780F06D0BAF1580F03D0B9F114
:10037000000F10D01EE0B9F1000F02D0B9F1100F3C
:1003800018D1A969761E24F400747F1C019888474F
:100390008246102002E0082000E00A20814609E0A1
:1003A00008FB0908A969761E44F400747F1C0198B3
:1003B00088478246002E05DD4946504600F018FB6E
:1003C0000028EDDAE96901988847A00502D46FF0AA
:1003D0000100A8E7E00725D1600613D5600502D526
:1003E000C8F1000000E0404629680A1D2A6009683B
:1003F000220501D5087015E0220701D5088011E01B
:1004000008600FE02868011D29600068210502D5F9
:1004100080F8008006E0210702D5A0F8008001E006
:10042000C0F8008038467EE72DE9FF5FD2E901A7DA
:100430004FF00008916999461446DDF838B04646F9
:1004400001988847054659EA0B0005D009E0A169E3
:10045000761C019888470546216A28468847002867
:10046000F5D1681C03D05FEACA7005D015E04FF0E3
:10047000FF3004B0BDE8F09F2068011D2160D0F876
:1004800000800AE05FEACA7001D108F8015BA16947
:10049000761C7F1E019888470546002F1ADD681CD0
:1004A00018D0B9F1000F0DD0E81705EBD06042115C
:1004B00020F01F0059F822102A1A01209040014212
:1004C000E0D107E0BBF1000FDCD1216A2846884764
:1004D0000028D7D0E16901988847BBF1000F07D108
:1004E000002E05DD5FEACA7002D1002188F80010F5
:1004F000A068B84203DDBBF1000F03D017B16FF065
:100500000100B6E73046B4E780EA010210B502F018
:100510000043400022D04A001FD0010E01EB1261BF
:10052000C0F35600C2F3560240F4000042F4000249
:10053000A0FB022000047F39140400D0401C50EAC4
:10054000124001D44000491EC2B20C0604EBD01088
:10055000401C4008802A02D003E0002010BD20F09B
:100560000100002900DA0020184310BD2DE9FE4FDC
:10057000804681EA0300C00F0C46009021F0004144
:1005800023F00045B8EB0200A94105D240462146C0
:1005900090461C460B46024623F00040104347D0CD
:1005A000270DC7F30A00C3F30A510290401A0190C5
:1005B00040286BDAC3F3130040F4801B0098924686
:1005C00020B10023D2EB030A63EB0B0B01985946D1
:1005D000C0F14002504600F0DAF906460D4650469A
:1005E0005946019A00F0F2F910EB0800614100242D
:1005F00087EA115284EAE7731A4340D0009A62B343
:10060000019A012A4FEA075215DC001B61EB020137
:100610004FF0004202EA0752CDE90042001C41F5CA
:10062000801132462B4600F06BFA03B0BDE8F08F24
:1006300040462146F9E7001B61EB0201001C41F531
:10064000801300185B412018A2F5001747EB030147
:1006500040EAD570B6196D4111E06D084FEA3606D3
:1006600045EAC0754FEA0752001B61EB0201001C0E
:1006700041F5801149084FEA3000001951413246D6
:100680002B4603B0BDE8F04F00F02BBA00980122D2
:1006900040000023D0EB020263EBE0730098214698
:1006A0004FEAE074B8EB000061EB0401E9E783F086
:1006B00000435BE781F0004158E72DE9FE4F81EAF6
:1006C000030404F0004421F0004100944FF0000BBB
:1006D00023F0004350EA01045ED052EA03045BD0E9
:1006E000C3F30A54C1F30A552C44A4F2F334019421
:1006F000A0FB0254C1F3130141F48011C3F31303AF
:1007000043F4801301FB024400FB034E840A970A62
:1007100044EA815447EA8357A4FB076802958D0A8F
:1007200005FB07854FEA932C04FB0C542705029D1B
:100730004FEA065847EA1637B5EB08056EEB070C8B
:10074000870E920E47EA811742EA8312A7FB020145
:10075000B6EB0B0164EB00042B0D43EA0C335E187F
:1007600044EB1C50DA465146E7FB0201C5F3130483
:100770004FEA0B3343EA14534FEA0432019C43EA35
:100780000603A4F10C040294009CCDE900B400F02F
:10079000B7F903B0BDE8F08F00200146F9E72DE975
:1007A000F04D81EA030404F0004B21F000451446AB
:1007B0004FF0000A23F0004150EA050220D054EA2D
:1007C00001021DD0C5F30A570246C5F31303C1F356
:1007D0001300C1F30A5640F4801543F48013A7EBCD
:1007E0000608101BD64608F2FD3873EB050002D34D
:1007F00008F1010801E092185B41B8F1000F03DA3B
:1008000000200146BDE8F08D00204FF4801106461F
:1008100084460EE0171B73EB050705D3121B63EB31
:10082000050306434CEA010C49084FEA30009218D0
:100830005B4150EA0107EDD152EA030012D082EA8F
:10084000040083EA0501084305D0101BAB4106D222
:100850000122002306E000224FF0004302E06FF087
:10086000010253101AEB06004CEB085110EB0A0082
:1008700041EB0B01BDE8F04D00F033B996230022A7
:10088000114600F000B90EB540F23341029100214B
:10089000CDE900110A460B4600F032F903B000BD65
:1008A00020F00040C10DC0F3160040F400007F2985
:1008B00001DA00207047962903DCC1F19601C84097
:1008C000704796398840704701F0004330B421F0FA
:1008D000004150EA010206D00A0DA2F56072C1F390
:1008E0001301002A02DC30BC00207047440F44EAA8
:1008F000C104C100E01830BC00EBC25000F0BAB82F
:1009000030B50B46014600202022012409E021FADF
:1009100002F59D4205D303FA02F5491B04FA02F5DC
:100920002844151EA2F10102F1DC30BD2DE9F05F73
:100930000546002092469B4688460646814640244E
:100940001BE0284641464746224600F02FF8534612
:100950005A46C01A914110D311461846224600F05B
:1009600016F82D1A67EB01084F4622460120002198
:1009700000F00DF817EB00094E41201EA4F1010410
:10098000DFDC484631462A464346BDE8F09F202A30
:1009900004DB203A00FA02F1002070479140C2F1D6
:1009A000200320FA03F3194390407047202A04DB08
:1009B000203A21FA02F00021704721FA02F3D040D8
:1009C000C2F120029140084319467047202A06DBF5
:1009D000CB17203A41FA02F043EAE07306E041FA0D
:1009E00002F3D040C2F120029140084319467047FB
:1009F0003A2800D2303820F02002412A01D3A2F157
:100A00003700884201D34FF0FF307047026811442D
:100A10001378016018467047D16004495161044958
:100A2000116200211161114600F000B90D0A0008A1
:100A3000210C0008426842B1016811F8013B23B162
:100A4000521EC0E90012184670470121C160881E7D
:100A5000704742685AB1C368016843B983688B42E2
:100A600005D0491E521CC0E90012002070474FF00B
:100A7000FF3070470029A8BF7047401C490008BFDD
:100A800020F00100704710B4B0FA80FC00FA0CF0BE
:100A900050EA010404BF10BC704749B1CCF12004F6
:100AA00021FA04F411FA0CF118BF01212143084383
:100AB000A3EB0C01CB1D4FEA00614FEA102042BFAF
:100AC000002010BC704700EBC35010440029A4BFA5
:100AD00010BC7047401C490008BF20F0010010BC4A
:100AE000704710B5141E73F1000408DA401C41F180
:100AF000000192185B411A4301D120F0010010BDA2
:100B00002DE9F04D92469B4611B1B1FA81F202E017
:100B1000B0FA80F220329046FFF739FF04460F46C4
:100B200040EA0A0041EA0B0153465A46084313D0F3
:100B3000114653EA010019D0C8F140025046FFF7B0
:100B400035FF05460E46504659464246FFF71FFF01
:100B5000084305D0012004E020463946BDE8F08D69
:100B60000020054346EAE0762C4337430A986305A4
:100B7000E40AA0EB08000022FD0A44EA47540A30C8
:100B800002D500200146E9E7010510196941DDE9B8
:100B9000084500196941BDE8F04DA2E7C1F30A52CA
:100BA000C1F3130140F2FF3341F480119A4202DA9B
:100BB00000200146704740F233439A42A2F233428A
:100BC00002DC5242FFF7F2BEFFF7E1BE30B5041E71
:100BD00071F1000404DB4FF00044404264EB01017A
:100BE000141E73F1000405DB1C464FF00043524213
:100BF00063EB0403994208BF904230BD064C074D99
:100C000006E0E06840F0010394E8070098471034DC
:100C1000AC42F6D3FFF7A0FA9C740008BC7400083D
:100C2000C0B24FF4F05100F097B900002DE9F34F36
:100C30008BB04FF0000801F10C000C464FF0010B97
:100C400046460DF1080A019062690121019890471A
:100C5000051E2DD0252D2CD0216A8847C0B1626990
:100C6000012101989047216A88470028F7D1411E49
:100C700062690198904700E0761CA1690B9888474B
:100C8000216A88470028F7D1E1690B988847DBE79C
:100C9000A1690B9888470746A84201D1761CD3E783
:100CA000E1690B9888477F1C02D1B8F1000F6FD023
:100CB00046E1002762693D463946019890472A2857
:100CC00004D162690121019890470125DFF88492DF
:100CD0006269012101989047A0F130010A290AD2E6
:100CE0004F45E5DC07EB870100EB4107303FDFD4E0
:100CF00045F01005ECE7E90601D46FF000476C28D9
:100D00000AD04C2814D0682815D06A280DD0742831
:100D10001CD07A281AD01DE0626901210198904701
:100D20006C2802D045F0040514E045F002050DE002
:100D300045F020050AE06269012101989047682882
:100D400002D045F0080505E045F40065626901211F
:100D500001989047C4E9015765283DD019DC58280F
:100D60007AD00CDC452837D004DC252826D0412851
:100D700031D131E046282FD047282CD12CE05B28F8
:100D800077D0612828D063287CD0642823D15AE00A
:100D9000D0E06F2848D008DC66281DD067281BD01B
:100DA000692821D06E2816D127E0702845D07328F5
:100DB00068D0752847D078280DD14DE0A1690B98EF
:100DC0008847054625283FF469AFE1690B988847B5
:100DD0006D1C3FF46AAFB3E023466A466FF0010032
:100DE0000B99AFF300809EE045F040006060A807DB
:100DF00023464FF0000236D43EE0E8077FF447AFC9
:100E00002068011D21600068290501D506701BE7D7
:100E1000290701D5068017E7A90703D5F117C0E90F
:100E2000006111E706600FE745F040006060A80729
:100E300023464FF0080216D41EE040F60E0125EAC4
:100E40000100606016E045F040006060A80723469E
:100E50004FF00A0207D40FE045F040006060A80799
:100E600008D5234610226FF001000B99AFF30080E4
:100E700059E007E0234610226FF001000B99FFF7BD
:100E80002DFA50E04FF000094F464B46632802D040
:100E90005B2806D040E0E80601D40120A0600127CD
:100EA0003AE062690121019890475E2805D14FF030
:100EB00001096269494601989047216939B90021C1
:100EC0000A46534643F82120491C0829FADBB0B3EF
:100ED000216969B9C11700EBD16253110AEB830193
:100EE00022F01F02821A01200B68904003430B601E
:100EF00062690121019890475D28E8D1B9F1000F9E
:100F000009D00020514651F82020D24341F820203A
:100F1000401C0828F7DB02AB224600976FF0010067
:100F20000B99FFF781FA00280CDA401C08D1BBF1BD
:100F3000000F05D04FF0FF300DB0BDE8F08FFFE798
:100F40004046F9E7E90701D108F1010806444FF0EE
:100F5000000B79E6CCCCCC0C7F2801D9002208E02C
:100F6000064A02EB5002C007127800D1120902F0C3
:100F70000F02012090400840704700005C74000898
:100F800070B58C1810F8015B15F0070301D110F84B
:100F9000013B2A1106D110F8012B03E010F8016B78
:100FA00001F8016B5B1EF9D12B0705D40023521EFB
:100FB0000DD401F8013BFAE710F8013BCB1A921C63
:100FC00003E013F8015B01F8015B521EF9D5A14261
:100FD000D8D3002070BDFEE770B50446062216493E
:100FE0004FF4106001F0C8FC1449002000F04AF8EA
:100FF0001449134A084603F023FF00F083F84FF426
:10100000FA7508E0284605F013F921460EA004F011
:1010100047FC00F077F804280CD0641EE4B2F1D24B
:101020000FA004F03DFC044901208875BDE8704024
:1010300004F0DCBF002070BDC4000020F0400020A0
:101040000D420008A94100084448435020726574CD
:1010500072792074696D653A2025640D0A000000DC
:1010600044484350204661696C2C20757365207399
:10107000746174696320697020696E73746561645A
:101080000D0A0000F8B50D46064600244FF410671F
:1010900006221A493846009401F004FC17480178EA
:1010A0004278C378114382781A431143027911437D
:1010B000427911430CD1047008214170DC21817008
:1010C000C4700471447101460622384601F054FC94
:1010D0000A4F0B483C3F0422BE70C7E90D05694624
:1010E0004FF4706001F048FC04226946900101F061
:1010F00043FC03F0F7FE3C70F8BD0000AC0100209B
:10110000785634122DE9F041464C2078062822D03A
:10111000A0784FF4427101EB401001F097FB2228B8
:1011200005D0002344220221A07804F0B3FA01255F
:1011300003F07CF8C2B23B4894F90030C01D002691
:101140000127011F4FF00308052B2FD2DFE803F022
:10115000060D1C304A000520BDE8F081067046707F
:101160008670C67003F0D6FF5AE0022A1BD1A16B2D
:101170000A7C02704A7C42708A7C8270C97CC17091
:1011800004F080F802202BE0052A0AD102F0D0F802
:1011900008B1606A3CE003F0A5FEE06A8047267073
:1011A00004E0062A3AD002F0F7F805462846D3E7CD
:1011B000A2690425531CF9D0E369B3EB520FF5D9AA
:1011C00002780A7042784A7082788A70C078C87053
:1011D000606B401C606304F055F803F083FE04204C
:1011E0002070E3E70425052ADBD166700A780378CE
:1011F0009A420BD14A7843789A4207D18A78837809
:101200009A4203D1C978C078814202D0A06A0325EE
:10121000804703F067FE84F80080C7E703F062FEB2
:101220002770C3E77001002010B54FF4005420462A
:1012300000F0ACF8012809D1204600F019F8044864
:1012400000214068BDE8104005F058BC10BD00000A
:10125000A400002010B54FF00074204600F096F86E
:10126000012804D12046BDE8104000F001B810BDAF
:10127000C10002D5024908607047024948607047C2
:1012800004040240000002400029016802D041F03D
:10129000010102E04FF6FE7211400160704700004C
:1012A00001684FF6FE72114001600021016041604B
:1012B0008160C1603149314A0839904203D14868A0
:1012C00040F00F0006E02D4A1432904204D14868E5
:1012D00040F0F00048607047284A2832904203D11D
:1012E000486840F47060F5E7244A3C32904203D1EC
:1012F000486840F47040EDE7204A5032904203D1F4
:10130000486840F47020E5E71C4A6432904203D1FB
:10131000486840F47000DDE7184A7832904203D103
:10132000486840F07060D5E7154A111F904203D11C
:10133000086840F00F0006E0114A1432904204D1D0
:10134000086840F0F000086070470D4A283290426B
:1013500003D1086840F47060F5E7094A3C329042D6
:1013600003D1086840F47040EDE7054A50329042DE
:10137000EAD1086840F47020E5E700000800024068
:1013800008040240406880B2704700000146002017
:10139000CA0001D5034A00E0034A12680A4200D09D
:1013A000012070470004024000000240002A026849
:1013B00001D00A4300E08A430260704730B50368F9
:1013C00047F6F07293430C6A8A682243D1E90445D8
:1013D0002C4322438C692243CC6922434C6A22432A
:1013E0008C6A22431A430260CA6842600A688260BB
:1013F0004968C16030BD41607047704710B5082032
:1014000000F014F8BDE81040014800F033BB0000C4
:10141000E800002010B5082000F008F8BDE81040F2
:10142000014800F027BB0000E800002001490860E7
:1014300070470000140401400149C8607047000073
:101440000020024070B505464FF43026304600F0CB
:1014500059F8042811D1094C206940F0020020619C
:101460006561206940F040002061304600F04AF894
:10147000216941F6FD721140216170BD00200240DA
:1014800008490420CA68D20701D001207047CA6801
:10149000520701D502207047C968C906FBD5032051
:1014A00070470000002002400248016941F08001BD
:1014B0000161704700200240F0B506464FF4005726
:1014C0000D46384600F01EF804280CD1064C206961
:1014D00040F0010020613580384600F013F82169A2
:1014E000BA1E11402161F0BD0020024003480249AC
:1014F0004160034941607047230167450020024075
:10150000AB89EFCD00B50346FFF7BAFF03E000BF9C
:10151000FFF7B6FF5B1E012803D0002B00D105208A
:1015200000BD002BF4D1FAE710B50446FFF7DEFF4B
:101530003420FFF781FF2046FFF784FFBDE810400D
:10154000FFF7B2BF70472DE9F04115460E4607463A
:10155000FFF7CCFF3420FFF76FFF002407E036F8D9
:10156000141007EB4400FFF7A7FF641CE4B2AC4281
:10157000F5D3BDE8F041FFF797BF0000F0B5CA789A
:10158000002502F00F03D20601D58A7813430A78AA
:101590004FF00F0E12F0FF0F4FF001021CD0046845
:1015A0000F8802FA05F63740B74211D14FEA850C91
:1015B0000EFA0CF724EA070703FA0CF43C43CF7841
:1015C000282F02D0482F02D002E0466100E00661D9
:1015D0006D1C082DE4D304600C88FF2C1ED94468D0
:1015E0005FF0000606F1080702FA07F50F882F40A2
:1015F000AF420FD14FEA860C0EFA0CF7BC4303FA48
:101600000CF73C43CF78282F00D14561CF78482F85
:1016100000D10561761C082EE4D34460F0BD0000C3
:10162000F0B5144C002801DAE36900E06368420D6C
:10163000120185B2C0F301579540C0F30346032F52
:1016400005D0C2020AD50322B240934307E023F03B
:101650007062636823F07063636002E0AB4343F041
:10166000706201B12A43002801DAE261F0BD6260D4
:10167000F0BD0000000001400246002092680A42CE
:1016800000D0012070474161704701617047FEE75B
:10169000F0B51826032787B00D460446012802D06E
:1016A000022C0FD022E0012141F2040000F00CF9DD
:1016B000E020ADF814008DF817608DF8167005A9BC
:1016C000224811E00121092000F0FEF801218803E1
:1016D00000F0EEF84FF46040ADF814008DF817609C
:1016E0008DF8167005A91A48FFF748FF0820ADF8D5
:1016F0000C000020ADF80000ADF804004FF482713A
:10170000ADF8021005F00201ADF8061005F0010178
:10171000ADF80E00ADF8081007204FF40071ADF8D9
:101720000A10ADF81000012C0CD0022C08D1094C85
:101730006946204600F04DF90121204600F034F9B9
:1017400007B0F0BD6946044CF3E700000008014013
:10175000000C014000380040003001400AA001F0B8
:1017600011F8104C4FF4807529462046FFF78DFF85
:10177000642004F0FBF929462046FFF784FF64202B
:1017800004F0F4F9F0E70000596F752061726520EC
:10179000696E207461736B202D2D2D204C454420E3
:1017A0000D0A0000000C014006484178C94311F0C1
:1017B000FF01417004484FF0200101D0FFF763BFE3
:1017C000FFF763BF08000020000C014038B501217D
:1017D000082000F079F810208DF803004FF4907085
:1017E000ADF800000320084C8DF802006946204641
:1017F000FFF7C4FE20212046FFF745FFA115204634
:10180000FFF743FF38BD0000000C0140FEE77047C2
:1018100070B50F23C47801780122F4B1144C246808
:10182000457804F4E064C4F5E064240AC4F10406D5
:10183000E3408478B5401C402C4301F1E0212301B2
:1018400081F80034007800F01F018A4040098000D0
:1018500000F1E020C0F8002170BD01F01F008240BF
:101860004809800000F1E020C0F8802170BD000030
:101870000CED00E00249084302490860704700008F
:101880000000FA050CED00E000F00F00092801D877
:101890003030704737307047044A0029516901D011
:1018A000014300E081435161704700000010024095
:1018B000044A0029D16901D0014300E08143D1618C
:1018C0007047000000100240044A0029916901D0CD
:1018D000014300E081439161704700000010024025
:1018E000F0B52C4A51682C4B11F00C014FF00F054C
:1018F00004D02A4C042903D0082903D0036028E02F
:10190000046026E05168536805EA914103F480338E
:101910000D2901D0891C00E00621BBB1D36A13F464
:10192000803FD36A03F00F0303F101030AD0D66AA4
:10193000D76AC6F30316761CB4FBF6F4C7F3032785
:10194000BF1C7C43B4FBF3F34B43D7E7144B594321
:1019500001605168134C05EA1111635C0168D940BC
:1019600041605368072505EA1323E35C21FA03F37A
:101970008360536805EAD323E35CD940C1605268B1
:10198000032303EA9232231F9A5CB1FBF2F1016157
:10199000F0BD00000010024000127A0040787D0186
:1019A00000093D00940000200029018802D041F088
:1019B000400101E021F04001018070470246002013
:1019C00012890A4200D001207047808970478181C6
:1019D000704730B502884C8802F441530A88CD889C
:1019E00022438C882C4322430C8922434C89224376
:1019F0008C892243CC8922431A430280828B22F4B1
:101A000000628283098A018230BD000070B50D46F4
:101A1000012803D0022813D0002070BD134C0221EE
:101A20002046FFF7CBFF0028F9D029462046FFF7D4
:101A3000CEFF01212046FFF7C1FF0028F9D010E0BA
:101A40000B4C02212046FFF7B9FF0028F9D02946A8
:101A50002046FFF7BCFF01212046FFF7AFFF00281B
:101A6000F9D02046FFF7B1FFC0B270BD0030014091
:101A70000038004090F84010032908D0072903D00F
:101A80000B2904D100F034B8082180F840107047C9
:101A900004210148FFF7F0BD0010014013B50122F9
:101AA00001A900F001F81CBD2DE9F047DFF83C90DA
:101AB0000E4607464FF480481546002441464846E6
:101AC000FFF7E1FD47F080010120FFF79FFF05E0F0
:101AD000315D0120FFF79AFF641CE4B2AC42F7D3FA
:101AE00041464846BDE8F047FFF7CFBD001801402A
:101AF00010B5044604211220FFF7D0FF002084F81F
:101B00004000FFF7C5FF012801D0022010BD0121D0
:101B10001220FFF7C3FF012010BD00000CB500210B
:101B20002E4801910091026842F4803202604FF425
:101B3000A063026802F400320092019A521C0192E2
:101B4000009A12B9019A9A42F3D10268920342D5DF
:101B50000121009122490A6842F010020A600A68D5
:101B600022F003020A600A6842F002020A60416839
:101B7000416041684160416841F480614160C16AEF
:101B8000184A1140C162C16A174A1143C162016813
:101B900041F08061016001680901FCD5416821F4D0
:101BA0007C114160416841F4E8114160016841F0F5
:101BB0008071016001688901FCD5416821F0030151
:101BC0004160416841F0020141604168C1F3810117
:101BD0000229FAD10CBD00910CBD0000001002409A
:101BE0000020024000F0FEFF44060100124810B53C
:101BF000016841F0010101604168104A11404160F3
:101C000001680F4A11400160016821F480210160E0
:101C1000416821F4FE014160016821F0A05101609A
:101C20004FF47F0181600021C162FFF777FF054912
:101C30004FF00060086010BD001002400000FFF08F
:101C4000FFFFF6FE08ED00E010B501218C072046ED
:101C500000F08AF800280AD00121204600F066F83A
:101C600006494878022803D24878401C487010BDC5
:101C70002046BDE81040002100F05EB8B80000200A
:101C800010B5064C00216170401F80B2482100F061
:101C9000E7F960780228FCD110BD0000B8000020F0
:101CA00070B51A4D1021284600F05EF8184C10B39C
:101CB000284600F056F860801021284600F036F8DB
:101CC00069151448FFF7D8FC10492031002808880E
:101CD00002D040F4005001E020F4005008800120C0
:101CE0002070A0686188428800EB420291804188A0
:101CF000491C418070BD0121284600F017F820786A
:101D00000128F7D10220207070BD000000080040BB
:101D1000B8000020000C01400029018802D041F0E9
:101D2000800101E021F0800101807047C9430182F8
:101D30007047C943018270470029018802D041F0F1
:101D4000010101E021F0010101807047002930F814
:101D5000441F02D041F4004101E0C1F30E010180B3
:101D60007047B0F84000704702460020138A9289FD
:101D70000B4202EA010202D0002A00D00120704783
:101D8000002A828901D00A4300E08A438281704799
:101D900030B5028C22F001020284028C8388048B0D
:101DA00022F0020224F073050C882C430D891543A0
:101DB0004A882A43114DA8420BD0114DA84208D0A1
:101DC000104DA84205D0104DA84202D00F4DA84298
:101DD0000DD122F008054A8923F440732A4322F0EA
:101DE00004058A882A438D891D43CB892B43838030
:101DF0000483C9888186028430BD0000002C014024
:101E000000340140004001400044014000480140CE
:101E1000028B22F008020A430283704770B5028CDD
:101E200022F010020284028C8488038B0D8823F434
:101E3000E6464FF6FF7303EA052535430E8922F087
:101E4000200203EA061616434A8803EA02123243C6
:101E5000104EB04202D0104EB04215D122F0800692
:101E60004A8924F4406403EA0212324322F0400615
:101E70008A8803EA021232438E8903EA86062643E1
:101E8000CC8903EA8404344384800583C9880187AC
:101E9000028470BD002C014000340140028B4FF6DB
:101EA000FF7322F4006203EA0121114301837047AA
:101EB00070B5028C22F480720284028C8488838B39
:101EC0000D8823F073031D4322F400730E894FF62F
:101ED000FF7202EA06261E434B8802EA03233343BD
:101EE000104EB04202D0104EB04215D123F400661D
:101EF0004B8924F4405402EA0323334323F48066DD
:101F00008B8802EA032333438E8902EA06162643AE
:101F1000CC8902EA0414344384808583C98881878C
:101F2000038470BD002C014000340140828B22F0FC
:101F300008020A438283704770B5028C22F48052F3
:101F40000284048C8288838B0D8823F4E6464FF646
:101F5000FF7303EA0525354324F400560C8903EA90
:101F6000043434434E8803EA06362643094CA04223
:101F700002D0094CA04205D122F480448A8903EAA8
:101F80008212224382808583C988A0F8401006848B
:101F900070BD0000002C014000340140828B4FF6E0
:101FA000FF7322F4006203EA012111438183704729
:101FB000818670470187704781877047A0F840107D
:101FC0007047000030B502881B4B1C4C98420DD066
:101FD000A0420BD0B0F1804F08D0194DA84205D0D7
:101FE000184DA84202D0184DA84203D122F0700526
:101FF0004A882A43154DA84206D0154DA84203D061
:1020000022F44075CA882A4302808A8882850A8819
:10201000028598420AD0A04208D00E4A904205D0CC
:102020000D4A904202D00D4A904201D1097A0186B0
:102030000121818230BD0000002C014000340140AC
:102040000004004000080040000C00400010004068
:10205000001400400040014000440140004801409D
:102060007FB50C46054601210846FFF721FC641E9A
:10207000ADF800400020ADF80450ADF80600ADF812
:1020800002004FF0804469462046FFF79BFF1C206A
:102090008DF80C0005208DF80D0003208DF80E0042
:1020A00001208DF80F0003A8FFF7B2FB01212046A5
:1020B000FFF73CFE01212046FFF73BFE01221146BF
:1020C0002046FFF75DFE01212046FFF735FE7FBD6C
:1020D00010B500210448FFF72FFE0021BDE8104095
:1020E0000220FFF7E5BB000000040040F0B5044605
:1020F000344889B00D46446001210220FFF7D8FB27
:1021000001210C20FFF7E0FBC020ADF81C001820D7
:102110008DF81F0003268DF81E6007A92A48FFF7D7
:102120002DFAADF81C6007A92848FFF727FA6D1EA5
:10213000601EADF81050ADF814000025244FADF826
:102140001650ADF8125004A93846FFF73BFF602047
:10215000ADF800000120ADF80200B4FBF6F0401E1F
:10216000ADF80600ADF8085069463846FFF710FE96
:1021700008213846FFF74CFE69463846FFF74EFE09
:1021800008213846FFF78AFE69463846FFF790FE79
:1021900008213846FFF7CAFE69463846FFF7CCFEED
:1021A00008213846FFF7FAFE01213846FFF7CEFD39
:1021B00001213846FFF7B0FD01213846FFF7BCFD8D
:1021C00009B0F0BDB800002000080140000C01403B
:1021D00000040040F8B5102103268DF80310244DAB
:1021E0008DF8026001281CD0022823D0214C03283E
:1021F0002CD0042833D0002827D1C020ADF800000F
:1022000069462846FFF7BAF9ADF8006069462046EE
:10221000FFF7B4F9C0212846FFF735FA032120461D
:1022200011E04020ADF8000069462846FFF7A6F906
:10223000402107E08020ADF8000069462846FFF7FE
:102240009DF980212846FFF71EFAF8BD0120ADF860
:10225000000069462046FFF791F90121DFE70220DF
:10226000ADF8000069462046FFF788F90221D6E75D
:1022700000080140000C014038B518218DF803100A
:102280000321144C8DF80210012810D0022810D020
:10229000114A032815D0042815D0002810D1ADF814
:1022A000001069461046FFF769F9C02002E040209F
:1022B00000E08020ADF8000069462046FFF75EF997
:1022C00038BD012000E00220ADF80000694610464C
:1022D000F4E7000000080140000C01402DE9F04146
:1022E00005461F480C464FF0FF36814235DA14F19F
:1022F000FF4F32D21B484068FEF7C0FA2146FEF776
:1023000003F9FEF7CDFA84B21748052D25D2DFE890
:1023100005F01103070B0F002146FFF749FE19E0F6
:102320002146FFF747FE15E02146FFF745FE11E085
:1023300021460DE021460746FFF73AFE2146384682
:10234000FFF738FE21463846FFF736FE214638466D
:10235000FFF734FE0020BDE8F0813046FBE70000C7
:1023600077BE7F3FB8000020000400402DE9F04711
:102370008CB02C216846FDF768FF00240E200B94DA
:102380008DF82C000D208DF82D008DF82E400120A9
:102390008DF82F000BA8FFF73BFA01210846FFF745
:1023A0007BFADFF890A05046FEF77AFF234E224DCD
:1023B00000953069019010200290C827CDE9037480
:1023C0004FF08008CDE905844FF40059CDE9084964
:1023D0000794694650460A94FEF7F0FF01215046E3
:1023E000FEF752FF012202215046FEF7DFFFDFF821
:1023F00044A00AF1140A5046FEF752FF009501A9C5
:10240000F06881E89100CDE90448CDE908490694D7
:102410000794694650460A94FEF7D0FF01215046C2
:10242000FEF732FF01224021281F00F090F80CB087
:10243000BDE8F0874400024004380140A4000020B9
:10244000F8B5204D40F224473946284600F08EF872
:10245000012835D11C4C00212046FEF715FF2888A5
:10246000281D00882046FEF78DFFD0F1C80115D049
:10247000164E1748491CF26800F0B6FA0120009089
:102480006946B06803F0FCFB009838B111494FF081
:1024900080500860BFF34F8FBFF36F8F4FF48030D1
:1024A000FEF7E6FE3946284600F041F8C8212046EE
:1024B000FEF7A1FF2046BDE8F8400121FEF7E4BE8B
:1024C000F8BD00000038014058000240A400002080
:1024D000603F002004ED00E010B5114C40F22551A2
:1024E000204600F043F8002818D0204600F0CCF831
:1024F000C1B20C480388C268D15402880023521C20
:1025000092B20280C62A00D10380074C4288A154AF
:10251000521C91B24180C62900D3438010BD0000F7
:1025200000440040A40000202840002070470A0A10
:1025300001219140C943018070470029818902D05F
:1025400041F4005101E021F4005181817047002ADB
:10255000828A01D00A4300E08A43828270470246A1
:10256000002012880A4200D00120704730B501F0E7
:102570001F0201240025C1F3421304FA02F2012BC9
:102580000FD0022B0FD0838A4FEA1121008813420B
:1025900004FA01F400EA040001D000B10125284644
:1025A00030BD8389F0E7038AEEE710B5C1F342132B
:1025B00001F01F040121A140012B07D0022B07D0FD
:1025C0001430002A026805D00A4304E00C30F8E712
:1025D0001030F6E78A43026010BD000030B50446B3
:1025E000008A85B00D464CF6FF710840E98801432A
:1025F0002182A1894EF6F3100140A8882A89104350
:102600006A890A431043A081A08A4FF6FF4108401F
:10261000A9890143A1826846FFF762F919488442FB
:1026200001D1039800E00298A189090400EBC001E0
:1026300001EB0010296801D5490000E08900B0FBDA
:10264000F1F06422B0FBF2F109010B096FF01805FB
:102650006B4300EB8300A3891D044FF0320306D5C2
:1026600003EBC000B0FBF2F000F0070005E003EB65
:102670000010B0FBF2F000F00F000843208105B01D
:1026800030BD0000003801408088C0F3080070476A
:10269000F0B587B000240746009404940194029496
:1026A0000394012144F209000594FFF70DF901217B
:1026B0000420FEF7B5FF4020ADF8100003258DF88B
:1026C000125018202C4E8DF8130004A93046FEF746
:1026D00055FF8020ADF8100004208DF8130004A9E8
:1026E0003046FEF74BFF25208DF814000C268DF8A0
:1026F00015608DF8165001208DF8170005A8FFF71A
:1027000087F8ADF80440ADF808400097ADF80640F2
:10271000ADF80C40ADF80A60C82002F08BF9174CF8
:10272000E060C82002F086F9206110B1C821FDF7F1
:102730008CFDE06810B1C821FDF787FDFFF716FE9C
:102740000F4D69462846FFF749FF012240F2244118
:102750002846FFF72AFF01212846FFF7EEFE032255
:102760000021012004F054F800231A461946606045
:1027700004F0B6F807B0F0BD000C0140A400002042
:102780000038014070B5144C06464FF0FF316068C8
:1027900004F09EFA114D40212846FFF7E0FE002884
:1027A000F9D031462069FDF774FD0D4C002120461B
:1027B000FEF76AFD3046FDF765FD81B22046FEF763
:1027C0001AFE01212046FEF75FFD2846BDE8704055
:1027D00001228021FFF7BBBEA40000200038014089
:1027E00044000240054604F005FC0D494FF0FF345B
:1027F00008602146012003F085F8014601280AD02F
:1028000002D908A003F04CF80023022219462846FA
:1028100004F080FBEDE70B48FFF7B4FFF4E700009E
:10282000AC00002053656E6420746F6F2066617386
:10283000742C206F766572666C6F773A2025640A77
:1028400000000000603F0020FEE70000F8B5144CD7
:102850000546A068804720698047216AC5F3074084
:10286000C5F3072699B1626A8AB18DF800008DF828
:1028700001608DF80250032168469047A0698047A7
:10288000054660698047E06880472846F8BDE169F1
:102890008847E16930468847E169E8B28847EDE753
:1028A000380100202DE9F8431A4C05461746A06868
:1028B0008846804720698047216AC5F30740C5F3F1
:1028C0000726A1B1626A92B18DF800008DF801600F
:1028D0008DF80250032168469047226A39464046E7
:1028E000904760698047E0688047BDE8F883E16908
:1028F0008847E16930468847E169E8B288470025A2
:1029000005E0A069804708F805006D1CADB2BD4226
:10291000F7D3E6E738010020F8B5164C05460E4619
:10292000A068804720698047626A45F004058AB143
:10293000280C8DF80000280A8DF801008DF802504F
:102940008DF8036004216846904760698047E0681D
:102950008047F8BDE169C5F307408847E169C5F3E1
:1029600007208847E169E8B28847E169304688472F
:10297000EBE7000038010020F8B51A4C0546164672
:10298000A0680F46804720698047626A45F00405C9
:102990009AB1280C8DF80000280A8DF801008DF8F6
:1029A0000250032168469047626A31463846904794
:1029B00060698047E0688047F8BDE169C5F307407A
:1029C0008847E169C5F307208847E169E8B288478D
:1029D000002504E0E169785D88476D1CADB2B54221
:1029E000F8D3E5E7380100200FB41CB502460020FB
:1029F00007AC00290BD0491ECDE90021054B6A46E2
:102A00002146069800F0ECF8009A002111701CBCD9
:102A10005DF814FB0F33000837B514460846064B23
:102A20006A46214600F0DCF804466946002000F0C2
:102A300079FC20463EBD00002533000802E008C8AE
:102A4000121F08C1002AFAD170477047002001E028
:102A500001C1121F002AFBD1704700002DE9FF5F62
:102A600082B00021DDE90430020DDDF840B00343FF
:102A700018D044F61050A2F2FF32424315141198B8
:102A800001281FD0A5EB0B00401C5FEA000A4FF0A5
:102A900000064E4FDFF83891B046504615D5CAF1C2
:102AA000000413E0119801244AA3012801D16FEA20
:102AB0000B010298119AC0E90031C0E9024206B048
:102AC000BDE8F09FCBF10000DFE704460021404A5B
:102AD000491842EB0450CDE9001012E0E00707D09E
:102AE00032463B4640464946FDF7E7FD804689466B
:102AF00032463B4610461946FDF7DFFD06460F46B7
:102B00006410002CEAD1DDE90401DDE90023BAF10B
:102B1000000F06DAFDF7D1FD42464B46FDF7CDFD2D
:102B200005E0FDF73CFE42464B46FDF738FE044605
:102B30000E460022284BFEF749F803D84FF0FF302D
:102B4000014607E00022254B20463146FDF70EFDE9
:102B5000FEF724F8102409E0002C0ADB0A220023E7
:102B6000FDF7E4FE039B30321A55641E50EA010261
:102B7000F2D1641C039AC4F111031444119A012A7E
:102B800003D0012208430DD10AE0084304D00020FD
:102B90004FF0110B119072E7A3EB0B056D1E0DE0CA
:102BA0005B4504DD4FF0000205F1010504E003DAA6
:102BB0004FF00002A5F10105002AECD0029811990E
:102BC000C0E90231C0E9004579E700000000144087
:102BD0000000F03F300000000000F0430000E03F44
:102BE0002DE9FF4F95B09B468946064600250FE22A
:102BF000252877D100242746F84A0121059400E0D2
:102C0000044316F8013F203B01FA03F01042F7D1CC
:102C100030782A2811D06FF02F033078A0F13002DD
:102C2000092A16D8059A44F0020402EB820203EB4B
:102C300042021044761C0590EFE759F8042B0592E8
:102C4000002A03DA504244F40054059044F0020490
:102C5000761C30782E2816D116F8010F44F00404A3
:102C60002A280DD06FF02F023078A0F13003092B05
:102C700009D807EB870302EB4303C718761CF3E779
:102C800059F8047B761C30786C280FD006DC4C2871
:102C900017D068280DD06A2814D104E0742810D009
:102CA0007A280FD10DE044F400140AE044F48014B3
:102CB00001E044F440147278824202D104F5801499
:102CC000761C761C307866280BD013DC582877D019
:102CD00009DC002875D04528F6D04628F4D04728CE
:102CE0001AD19DE118E0632835D0642879D0652891
:102CF00012D195E1702873D008DC6728F1D06928DB
:102D00006FD06E280DD06F2806D1B5E073282CD077
:102D1000752875D0782874D05A46179990476D1C3D
:102D200075E1C4F30250022809D003280DD0D9F868
:102D3000001004280DD00D6009F1040967E1D9F8ED
:102D40000010EA17C1E90052F6E7D9F800100D802B
:102D5000F2E70D70F0E719F8041B8DF80010002061
:102D60008DF80100EA46012003E059F804AB4FF06A
:102D7000FF3061074FF0000102D40DE008F10101BE
:102D80008846B9420FDA8045F8DB1AF808100029A6
:102D9000F4D108E008F1010188468142FADB1AF813
:102DA00008100029F6D105985B46A0EB08072146DC
:102DB0003846179A00F094FA284400EB080507E01B
:102DC0004DE029E10DE01AF8010B5A46179990479A
:102DD000B8F10108F7D25B4621463846179A13E14D
:102DE00042E00A220092C4F302524FF0000A022A83
:102DF00008D059F804CB032A4FEAEC710AD00DE051
:102E000029E02AE009F1070121F00702F2E802C1F6
:102E1000914609E00FFA8CFC4FEAEC71042A03D1C9
:102E20004FFA8CFC4FEAEC71002907DA0A460021C0
:102E3000DCF1000C61EB02012D2202E0220504D539
:102E40002B228DF80420012203E0E20701D020228A
:102E5000F7E7904659E00A2102E010220DE0102128
:102E60004FF0000A00910BE010224FF0000A44F0EE
:102E700004040827009203E008224FF0000A0092A1
:102E8000C4F30252022A05D059F804CB0021032AC8
:102E900008D009E009F1070121F00702F2E802C1B8
:102EA000914605E01FFA8CFC042A01D10CF0FF0CBE
:102EB0004FF00008220728D5702806D0009B83F029
:102EC000100353EA0A0305D00EE040228DF80420D7
:102ED000012208E05CEA010206D030228DF80420CD
:102EE0008DF8050002229046009B83F0080353EA08
:102EF0000A030AD15CEA010201D1620705D530223A
:102F00008DF804204FF001087F1E582804D034A00B
:102F100003900EA802900DE036A0F9E753466046F4
:102F2000009AFDF703FD84460398825C0298401ED8
:102F3000029002705CEA0100F0D1029806A9081A1A
:102F400000F1200A600702D524F4803400E0012754
:102F5000574502DDA7EB0A0000E0002000EB0A0164
:102F6000009005984144401A0590E00306D45B4662
:102F70002146179A059800F0B3F90544002706E0AA
:102F800001A85A46C05D179990476D1C7F1C4745A4
:102F9000F6DBE0030CD55B462146179A059800F056
:102FA0009FF9054404E030205A46179990476D1C5C
:102FB0000099481E00900029F5DC08E0029802996B
:102FC0005A460078491C0291179990476D1CBAF136
:102FD0000001AAF1010AF1DC65E100000928010005
:102FE000303132333435363738396162636465667F
:102FF0000000000030313233343536373839414241
:10300000434445460000000000F058F90544761C92
:10301000307800287FF4ECAD19B02846BDE8F08F79
:10302000620700D4062709F1070222F0070CFCE82A
:103030000223E14603F000485FEA080C02D00FF2D9
:10304000702C0DE05FEA045C02D50FF2682C07E0FB
:103050005FEAC47C02D00FF2602C01E0AFF2700C8A
:103060004FF0FF3823F00043CDF850C065280CD056
:1030700006DC452809D046281DD047283DD13DE033
:10308000662818D067287ED138E00021112F01DB97
:10309000112000E0781CCDE9000106A90EA8FFF779
:1030A000DDFCDDE90F010E9A03910021009207F18A
:1030B000010A04914DE04FF000400097CDE9011066
:1030C00006A90EA8FFF7CAFCDDE90F0203920E9BCA
:1030D00011990022DDF80CA00093049211B9791C1B
:1030E00000EB010AB7EB0A0004D4C0F1FF3007F18E
:1030F000010A0490AAEB0700019044E0012F00DAD6
:1031000001270021112F01DD112000E03846CDE913
:10311000000106A90EA8FFF7A1FCDDE90F010E9A38
:103120000391002104910092BA4621070CD403991F
:10313000514500DA8A46BAF1010F05DD009AAAF17D
:103140000101515C302908D0B84202DA10F1040FB5
:1031500006DA0121CDE9011015E0AAF10101E9E744
:10316000002805DC049901440491AAEB000102E067
:10317000411C514500DD8A460499401A401C0190CB
:103180004FF000400290200704D40198504501DB25
:10319000CDF8048000208DF84F0002980DF14F0704
:1031A000B0F1004F25D02B200E9002984FF002086E
:1031B00000280CDA404202902D200E9007E00A21F0
:1031C0000298FDF79DFB3031029007F8011DB8F120
:1031D0000001A8F10108F2DC02980028EFD1791E65
:1031E0000E980870307800F0200040F0450007F895
:1031F000020D12A8C01B00F107081498007800B156
:10320000012000EB0A01019801EBE07105984144AF
:10321000401A401E0590E00306D45B462146179AEB
:10322000059800F05DF805441498007818B15A46E6
:10323000179990476D1CE00324D55B462146179AE9
:10324000059800F04DF805441CE00498002807DBC1
:10325000DDE90301884203DD0098405C179901E035
:10326000179930205A469047049805F10105401CF3
:1032700004900198401E019004D12E205A461799BF
:1032800090476D1CBAF10001AAF1010ADDDC05E0EE
:1032900017F8010B5A46179990476D1CB8F10001B9
:1032A000A8F10108F4DC5B462146179A0598ABE6C5
:1032B0002D0000002B000000200000002DE9F0414F
:1032C000044600251E461746880404D405E0394606
:1032D0002020B0476D1C641EF9D52846BDE8F0815A
:1032E0002DE9F041044600251E469046C80301D54D
:1032F000302700E02027880404D505E04146384601
:10330000B0476D1C641EF9D52846BDE8F0814A68B7
:10331000002A06D00A68531C0B6010704868401ED3
:10332000486070470A68531C0B60107070470000BB
:10333000F8B54FF4D8563046FFF788FA0546032112
:103340003046FFF7E9FA0E4B41F28830DC1F00905F
:1033500011220CA1A07802F0DDF80746294630467C
:10336000FFF7DAFA0D3708D001F054FEE069E169A1
:10337000091A0229FBD30020F8BD0120F8BD000086
:1033800077010020434845434B5F49505F434F4E10
:10339000464C49435400000070B51A4C01252046A4
:1033A00094F90110002690F90000022917DAD4E9F7
:1033B0000721914223D2012804D0022805D00428F5
:1033C00005D102E001F0A6FE01E001F05BFFE6613D
:1033D000E0690A3020626078401C60700FE00128CC
:1033E00004D0022805D0042807D102E02670002569
:1033F00003E001F08FFE0120207001F073FD2846EC
:1034000070BD00007001002070B50446082802D984
:103410004FF0FF3070BD4FF4847000EB4410054650
:103420001021FFF779FA2846FFF710FA0028FAD1A1
:103430004FF4027000EB44101F21FFF76DFA0D49A5
:103440000120A0404A8882434A808A8882438A8039
:103450000949002021F814000649891D08554FF438
:10346000427000EB44142046FFF7F0F90028FAD12F
:10347000012070BD60010020F04800200EB514202E
:1034800001F0D8FA694D0026694C80464FF0FF3AAA
:1034900005F124074FF0020902965146012002F07F
:1034A00031FA02AB424663A16448FCF7FBFE64A11B
:1034B0004046FCF7D5FE60B1A06840B10298A86311
:1034C00041463846FCF7E5FEA068686477E05EA0F8
:1034D00011E067A14046FCF7C3FE78B1606848B1CF
:1034E00026700298686141465048FCF7D2FE606839
:1034F000286264E05FA002F0D3F9CEE767A14046FE
:10350000FCF7AEFE28B30298012802D0606890B1A3
:1035100087E0A0680028FBD1606810B102F04CFB86
:10352000666043493B460831CDE900914FF448724B
:103530005DA1614864E0A06810B102F03DFBA660A7
:103540003B493A4B091DCDE9009180225BA15F48C0
:1035500056E05FA14046FCF783FED8B102980128EF
:10356000E0680BD000285CD0FEF7B2FD5BA0FFF74F
:1035700009F9E06802F020FBE66052E0002850D133
:103580002B492A4B0C31CDE90091483B80225AA1AE
:103590005D4835E05DA14046FCF762FEC8B1E068D9
:1035A00098B1DFF888B00299ABF1480B5846CBF8D8
:1035B00014104146FCF76DFEE068CBF820000023B4
:1035C0000222194603F0A6FC2BE053A0FFF7DAF81D
:1035D00063E75AA14046FCF743FEA0B1206908B159
:1035E00059A01CE0114902982439104B4861104938
:1035F000243B1031CDE900914FF4807258A15E4810
:1036000003F05CFC0DE05DA14046FCF729FE28B10B
:10361000206930B102F0D0FA266102E05AA0FFF72B
:10362000B1F8C8210548FCF710FE36E70402002077
:10363000080000202573202564000000603F002062
:103640006C6561726E000000506C656173652045A9
:103650006E746572205243206C6561726E696E678C
:10366000206D6F64652066697273740D0A00000036
:1036700075736500506C6561736520456E74657285
:103680002052432053656E64696E67206D6F6465D8
:103690002066697273740D0A0000000072656D6F18
:1036A00074655F7365740000636F64655F6C65616A
:1036B000726E696E67000000593B0008636F6465B5
:1036C0005F73656E64696E6700000000153D000859
:1036D0006D6F7465725F63746C0000004578697487
:1036E000205374656572696E6720456E67696E6503
:1036F000652043746C0D0A005374656572696E67CA
:1037000020456E67696E6500B15700086D6F74657E
:10371000725F736574000000456E746572206D6F92
:1037200074657220636F6E74726F6C206D6F646568
:103730002066697273740D0A000000006C616E5F90
:10374000656E61626C650000416C72656164792030
:10375000656E61626C6564204C616E0D0A0000004C
:103760004C616E2054435020536572766572204C34
:103770006F6F706261636B00953D00086C616E5FF6
:1037800064697361626C6500496E76616C6964207E
:103790005461736B0D0A00002DE9F041FDF7D2FE74
:1037A0001C4F05464FF48076002431463846FDF71D
:1037B0006AFF0020FEF70EFD1FE0E00731463846A5
:1037C0000CD0FDF760FF0020FEF704FD05EB440080
:1037D000C1888088814207D9081A09E0FDF755FFA2
:1037E0000020FEF749FDF1E74EF66022101A08446A
:1037F00080B2FEF745FA641CE4B26888401EA0421D
:10380000DBDC31463846FDF73EFFBDE8F0410020E5
:10381000FEF7E0BC000C014010B50C4606281ED295
:10382000DFE800F003070B101418204602F05CFEDE
:1038300013E0204602F0CAFD0FE02078BDE81040FA
:1038400002F07EBE02F0EEFD207006E0204602F09F
:1038500089FE02E0204602F0E8FD002010BD4FF096
:10386000FF3010BD2DE9F0410C46002102464F1EED
:1038700008464FF498554FF4A056102A61D2DFE85D
:1038800002F0080B17131A1E222C3643464A574ED5
:10389000535A02F083FE4BE014B1204604F10801B4
:1038A000BDE8F04102F0D5BD208802F04DFD3FE0BB
:1038B00002F06EFD05E0208802F008FE38E002F01C
:1038C00076FD208034E02088010A2846FFF724F89E
:1038D00021783046FFF720F82AE03046FEF7B6FFA1
:1038E00006462846FEF7B2FF06EB0020E9E7164839
:1038F00082782270C27862700279A2704279E27096
:1039000080792071617113E002F0C1FE10E0204661
:1039100002F0D2FE0CE0204602F07AFE08E02078A9
:10392000BDE8F04102F0EDBE02F0A4FE05E020701B
:103930000020BDE8F08102F092FEC0B241B2491C05
:10394000F5D13846F5E700003801002010B5042213
:1039500009494FF47060FFF70FF807490422083156
:103960004FF4A060FFF708F803490422091DBDE8E1
:1039700010409001FFF700B87701002010B58021BA
:103980000020FEF7C9FF0020FEF760FFBDE81040F1
:10399000062202494FF41060FEF7EEBFAC01002092
:1039A00010B580210020FEF7B7FF0020FEF74EFF84
:1039B000FFF7CCFFBDE81040062202494FF410602B
:1039C000FEF7DABFAC01002070B50446082802D922
:1039D0004FF0FF3070BD600101250830FEF736FF63
:1039E00000F00F00012801D0A81F70BD4FF48470B3
:1039F00000EB441006460821FEF78EFF3046FEF726
:103A000025FF0028FAD11248A5408188A94381806A
:103A1000408805420CD0002070BD3046FEF716FFEE
:103A200000070DD52046FFF7EFFC6FF00C0070BDCE
:103A30004FF4027000EB44164FF4427000EB441553
:103A40002846FEF703FF0028E7D1012070BD0000E3
:103A5000600100200148806970470000700100206B
:103A600004490A7802704A7842708A788270C9786C
:103A7000C17070478301002004490A7802704A78B7
:103A800042708A788270C978C17070477B010020CB
:103A900004490A7802704A7842708A788270C9783C
:103AA000C17070477701002004490A7802704A7893
:103AB00042708A788270C978C17070477F01002097
:103AC0002DE9F04142F2086101EB401542F2087124
:103AD000002601EB40142846FEF7B8FE07462046B4
:103AE000FEF7B4FE00EB072007043F0C09D0284680
:103AF000FEF7ACFE06462046FEF7A8FE00EB0620C9
:103B000086B2BE42E7D13046BDE8F0812DE9F041F2
:103B100042F2080101EB401542F20811002601EBC8
:103B200040142846FEF792FE07462046FEF78EFE1A
:103B300000EB072007043F0C09D02846FEF786FE5D
:103B400006462046FEF782FE00EB062086B2BE4205
:103B5000E7D13046BDE8F08105468CB042A0FEF7C3
:103B600011FE4FF00009DFF828A14C4649468AF8BB
:103B70000090012001F0C6FEA84630216846FCF7FF
:103B800064FB444E6D46A02000F054FF45F824002D
:103B900004EB840006EB4010FDF7D4FC55F824300C
:103BA0000146A0221846FCF737FB641C0C2CEADB0C
:103BB000DFF8E4B0002700BF4FF0FF31012001F033
:103BC000A1FED8F814000C2813D33046FDF7ACFC46
:103BD0005FF0000404EB840055F8241006EB40105D
:103BE0005022FDF7B0FC641CE4B20C2CF2D32BA0E5
:103BF00027E031A0FEF7C6FDDBF8001001223448B3
:103C0000A1F802901121FEF7BBF854462078022853
:103C100002D137B1012F06D00027322001F0A6FFD4
:103C2000F4E70127F9E7002211212948FEF7A8F857
:103C300084F80090DBF800005C464088032803D835
:103C400024A0FEF79FFDB7E729A0D8F8141001F0D3
:103C500027FE216848884200D8F81400121D55F844
:103C60002000FCF7D9FAA7E7596F7520617265202B
:103C7000696E207461736B202D2D2D206972646133
:103C80005F6C6561726E696E67200D0A000000004E
:103C9000B800002000D00208C000002053617669FF
:103CA0006E67206B65792076616C756520746F2076
:103CB000666C6173680D0A005374617274205265FA
:103CC000636F7264696E672E2E2E0D0A000000006D
:103CD000000800406E6F69736520697320636F6D23
:103CE000696E672E2E2E61626F72740D0A000000DD
:103CF0007265636F726420737563636573732069A3
:103D00006E20636F64655F7365745B25645D0D0A87
:103D10000000000005460FA0FEF734FD0021012041
:103D200001F0F0FD144F154C4FF0FF3801264146CD
:103D3000012001F0E7FD207830B9686900EB8000D0
:103D400007EB4010FFF728FD0DA0FEF71BFD2670C6
:103D5000EDE70000596F752061726520696E20746F
:103D600061736B202D2D2D20697264615F73656E08
:103D700064696E670D0A000000D002080800002088
:103D800053656E64207369676E616C206F75740D86
:103D90000A00000004460DA0FEF7F4FC02F0FCF857
:103DA000207D02F0BDF8010002D014A001F078FDE2
:103DB00041F2883422461849002000F073F80100CF
:103DC000F8D516A001F06CFDF4E70000596F7520DE
:103DD00061726520696E207461736B202D2D2D201A
:103DE0004C616E2054435020536572766572204CAE
:103DF0006F6F706261636B0D0A00000057353530DC
:103E00003020496E6974206661696C2C204572729D
:103E1000203D2025640D0A00F0400020534F434B05
:103E20004554204552524F52203A20256C640D0AC9
:103E30000000000070B50446082802D94FF0FF309A
:103E400070BD60010830FEF701FD00F00F00012891
:103E500002D06FF0040070BD4FF4427000EB4410CC
:103E60000546FEF7F3FC132802D06FF0020070BD88
:103E70004FF4847000EB441006460221FEF74CFD1F
:103E80003046FEF7E3FC0028FAD12846FEF7DEFCB8
:103E9000142805D02046FFF7B7FA6FF0030070BD75
:103EA000012070BD2DE9F04106464FF442701446E2
:103EB0008846002500EB4610FEF7C8FC002856D0C7
:103EC000132849D0172802D01C2867D136E04FF4B8
:103ED000027000EB46100446FEF7B8FCC00707D09E
:103EE00031462FA001F0DCFC20460121FEF714FD35
:103EF0003046FFF7E5FD040050D04FF400608442E7
:103F000000D9044622464146304600F01DFE0028F6
:103F10000DDD10E0601B82B208EB0501304600F0B9
:103F2000EBFF070005D53046FFF76EFA3846BDE8CF
:103F3000F081284485B2AC42ECD12FE031461CA080
:103F400001F0AEFC3046FFF73FFD0128EFD13146CE
:103F50001BA001F0A5FC21E0224631461BA001F088
:103F60009FFC3046FFF766FF0128E0D116E031469E
:103F70001CA001F095FC002322460121304601F0EF
:103F800089FBB042D3D131461AA001F089FC42F638
:103F9000087000EB46100621FEF7BEFC0120C6E7C4
:103FA00025643A436F6E6E65637465640D0A0000A4
:103FB00025643A436C6F7365576169740D0A00009C
:103FC00025643A436C6F7365640D0A0025643A4CAE
:103FD000697374656E2C20706F7274205B25645D4C
:103FE0000D0A000025643A4C425453746172740DFA
:103FF0000A00000025643A4F70656E65640D0A0082
:104000001CB5FDF7F3FD4FF44070FDF733FCFDF7F1
:10401000DDFB1C48FEF73CFB002502242B468022DA
:1040200019A11B48CDE9004502F048FF194E0023B5
:10403000CDE900464FF44874224617A11A4802F011
:104040003DFF1A490320CDE90001224618A11C4872
:10405000336802F033FF1B480090002301224FF425
:10406000FA6119A003F076F9040008D002F0D6FF37
:104070000246002301212046009503F0B7F901F024
:10408000E1FEFEE700DC05004C45445F44310000E2
:104090005D17000804000020436F6D6D616E6420A1
:1040A00053657276657200007D34000800000020C0
:1040B00055415254315F53656E646261636B000019
:1040C000E5270008A91700084C45445F44325F7497
:1040D000696D6572000000001CB5062269464FF448
:1040E0001060FEF7DFFB2F4A0120916B08704870CB
:1040F000062088700020C870536B1B0E0B71536B29
:104100001B0C4B71938E1B0A8B7192F83430CB7160
:10411000916B802308818B72C872916B02F13C0312
:10412000087348738873C873087448748874C874B3
:10413000087548758875C875087648768876C87693
:104140001C780C775C784C779C788C77DC78CC7713
:104150001C7981F820405B7981F821300623CC1846
:104160005B1CDBB22077102BF9D3936B00215C181A
:10417000491CC9B284F82C004029F8D3936B002164
:104180005C18491CC9B284F86C008029F8D3906B84
:104190006321822200F8EC1F427053228270C170AA
:1041A0001CBD00007001002010B50F4CA01DFFF7D2
:1041B0006FFC04F10E00FFF75FFC04F10A00FFF74B
:1041C00073FC04F11200FFF74BFC0220A07501F014
:1041D0000DFF002807D1FFF73DFC0146BDE8104068
:1041E00002A001F05DBB10BDC40000204448435054
:1041F000204C45415345442054494D45203A202503
:1042000064205365632E0D0A0000000001A001F038
:1042100047FBFEE7434F4E464C494354204950204C
:1042200066726F6D20444843500D0A007FB5454CBF
:104230000025A078FFF744FC020028D001A80090D8
:1042400002ABA078A16B00F0F1FC82B2BDF80400D3
:1042500043283AD1A06B04F13C01037F0E78B342AE
:1042600015D1437F4E78B34211D1867F8B789E4221
:104270000DD1C37FCE78B34209D190F820300E79AA
:10428000B34204D190F8213049798B4202D000200A
:1042900004B070BDF0308118F03914E00278332A90
:1042A00034D007DCAAB1012A18D0032A1AD0062A72
:1042B00006D11CE0352A0ED0362A36D0FF2A06D089
:1042C0004278801C10448842E8D368B2E0E7084690
:1042D000F9E7401CF7E78578C01CF4E7194A8378B2
:1042E0000F3225E0174A437886780B3203E0154AEF
:1042F0004378867813321670C678567006799670B1
:104300004679801D1844D670001FDCE78278A261D0
:10431000C37803EB0222A261037903EB0223A361BA
:10432000427902EB0322A26109E0064A8378303227
:104330001370C3785370037993704379D370801DE1
:10434000C1E70000700100202DE9F041184C0F4634
:104350000546E6682068001D01F008FB38B92068B2
:1043600090F82C1001208840216981432161681C4C
:1043700007D137B12168BDE8F0410E48091D01F0B1
:104380002EBB20683544B5424560216805D2A06B3C
:10439000BDE8F041091D01F00ABB606B091D01F089
:1043A00006FBA06A854200D2A562BDE8F08100004C
:1043B0001C000020240300202DE9F041054601F0F7
:1043C0001BFB2E4CA068401CA06020682C4F10B135
:1043D000606940B32DE02560A068012829D100263E
:1043E00006EB860007EB800001F0D3FA761C052E61
:1043F000F6D32348643001F0CCFA2148783001F03C
:10440000C8FA1F488C3001F0C4FA1D48A03001F0F2
:10441000C0FA1B48B43001F0BCFA1948643060633C
:104420001430A06305E02068E96AC06A884200D8B9
:104430002560606A401C6062E96A01202269884048
:104440001043206101EB810007EB8000291D01F082
:10445000C6FA01F0F1FA606900280CD02068E96A18
:10446000C06A884207D207494FF080500860BFF306
:104470004F8FBFF36F8FBDE8F08100001C0000205C
:104480007002002004ED00E010B501F0B5FA0C4C0C
:10449000206880B90B4801F07CFA0A48143001F01A
:1044A00078FA0848E0601430206100220C210520D1
:1044B00002F0AEF92060BDE8104001F0BDBA000086
:1044C000580000203803002030B4026C0B46002A4C
:1044D0000BD0C1681144C1608468A14201D3016856
:1044E000C16030BC1846FBF797BE30BC70472DE961
:1044F000F041856B174604460026026C82B1C7B1B5
:10450000E068FBF789FEE168206C091AE160226827
:10451000914202D2A168081AE060022F16D017E07B
:104520002068A8B9A06802F0E3FD06460020A0605C
:104530000EE06068FBF770FE216C60680844606004
:10454000A168884204D32068606001E005B16D1E57
:104550006D1CA5633046BDE8F08110B50446006BC4
:1045600001F07EFA2046BDE8104001F079BA000063
:1045700010484FF47051420706D0C01D0D4920F07D
:104580000700411AC1F570510B4A00230144C2E9EA
:1045900000030839103A21F0070111604B600B60ED
:1045A0000B1AC0E9001393604FF000405360D060D5
:1045B000704700006003002088000020144E154C56
:1045C000A6F1A0074FF08058DFF84C9012E000BF32
:1045D00001F012FAF068C568281D01F0C7F9A0685B
:1045E000401EA0606068401E606001F025FA284609
:1045F000FFF7B3FF60680028EAD138680128F9D9CD
:10460000C9F80080BFF34F8FBFF36F8FF2E7000050
:10461000100300201C00002004ED00E02DE9F0470D
:104620009A46DDE90984089D814689B16FF003034C
:10463000206B03EB8202104420F0070670070FD0B6
:10464000BF2080F31188BFF34F8FBFF36F8FFEE75A
:10465000BF2080F31188BFF34F8FBFF36F8FFEE74A
:1046600023180A5C83F834200A5C12B1401C10281D
:10467000F6D3002784F84370052D00D30425E562A6
:10468000C4E91157201D01F08FF904F1180001F061
:104690008BF92461C5F105006462A061E76484F8C8
:1046A000507052464946304600F03CFA2060B8F15E
:1046B000000F01D0C8F80040BDE8F08730B51149BF
:1046C00000E011460A688242FBD34B685C188442C2
:1046D00003D1406818444860084643681C18944257
:1046E00009D1084C103C2468A24209D052681A44EF
:1046F00042600A6812680260814200D0086030BDE2
:104700000460F9E78800002070B5002441600B4D7B
:104710000061914206D8D11A8269914206D2011DE8
:10472000286907E09A4203D2994201D3012403E0A9
:10473000011DE86801F03BF9204670BD58000020DB
:1047400010B5044601F058F9A06B28B15FF00004E1
:1047500001F072F9204610BD0124F9E730B587B0A9
:104760002B4D4BE00498002848DB069C606910B193
:10477000201D01F0FBF802A800F0B6F802460498EC
:104780000A283BD2DFE800F00505053A2637050583
:104790003A260598A169034601442046FFF7B4FF75
:1047A00000B3616A20468847E069012826D10020CD
:1047B00000900598A169002342181946204602F08E
:1047C00015FE78B9BF2080F31188BFF34F8FBFF378
:1047D0006F8FFEE70598A06128B181181346204627
:1047E000FFF792FF0AE0BF2080F31188BFF34F8FDD
:1047F000BFF36F8FFEE7204601F032F9002204A9D3
:10480000286802F0C9F90028ACD107B030BD00001B
:10481000580000202DE9FC410F46054601F04AFBF7
:1048200001A800F061F80446019818B102F030FDCB
:10483000BDE8FC81224EAFB130690068A8B3002703
:10484000291B3A46306801F06FF902F021FD00287B
:10485000EED11C494FF080500860BFF34F8FBFF37B
:104860006F8FE5E7A542EBD802F012FDF06827460E
:10487000C068C468201D01F079F8E069012810D1F2
:10488000A0692B4641193A462046FFF73DFF40B14B
:1048900000200346014600902A46204602F0A6FD6D
:1048A00020B1616A20468847C2E707E0BF2080F355
:1048B0001188BFF34F8FBFF36F8FFEE70127BFE76C
:1048C0005800002004ED00E00648416B096829B15A
:1048D000416BC968C9684968816270474FF0FF3110
:1048E000FAE700001C00002070B5054602F096FBB8
:1048F000064E0446B068844203D200F009F8012055
:1049000000E0002028602046B46070BD5800002000
:10491000F8B5194D1FE0C068C4680668201D01F095
:1049200025F8616A20468847E069012813D1A0690B
:104930003044B04206D924616060211DE86801F06E
:1049400036F808E000200346014600903246204633
:1049500002F04CFD38B1E86801680029DBD1296913
:10496000C5E90310F8BDBF2080F31188BFF34F8F56
:10497000BFF36F8FFEE70000580000200848406832
:10498000401C4FF0BF0080F3118804D0BFF34F8F5D
:10499000BFF36F8FFEE7BFF34F8FBFF36F8FFEE75D
:1049A0006C000020074CE068016841B1C06800213C
:1049B000D0F80000FFF72EFFFFF7D0FEF3E701214C
:1049C0000020F7E7580000202DE9F041044601F0EF
:1049D00013F894F9455004F1240609E0606A48B1DF
:1049E000304602F01BFC08B101F044F96D1E6DB2B7
:1049F000002DF3DC4FF0FF3684F8456001F01CF821
:104A000000F0FAFF94F9445004F1100709E020691E
:104A100048B1384602F002FC08B101F02BF96D1ED6
:104A20006DB2002DF3DC84F84460BDE8F04101F084
:104A300003B800002DE9F0410546002701F03AFADD
:104A4000314E306808B9FFF793FDF06805424BD14D
:104A5000C5B3083568070ED005F00700C0F108009F
:104A60000544680707D0BF2080F31188BFF34F8F3C
:104A7000BFF36F8FFEE72DB37068854234D82248AC
:104A8000103001460C6801E020460C466168A942DE
:104A900002D221680029F7D131688C4224D00768FE
:104AA0002168016060680837411B10290FD960191F
:104AB000420708D0BF2080F31188BFF34F8FBFF3A8
:104AC0006F8FFEE710E041606560FFF7F7FD6168FA
:104AD0007068401A7060B268904200D2B060F068AE
:104AE00001430020C4E9000102F0D2FB780707D09F
:104AF000BF2080F31188BFF34F8FBFF36F8FFEE7A6
:104B00003846BDE8F08100007800002004490868BC
:104B100018B10868826C521C8264086870470000F3
:104B20001C00002010B5031F4FF080741C601B1F79
:104B300021F001011960191F024B0B601439403834
:104B40000A6010BD7D4900082DE9F74F144605465F
:104B5000082803D94FF0FF30BDE8FE8F6801012619
:104B60000830FDF773FE00F00F00012801D0B01FE0
:104B7000F2E724B341F6086000EB4510FDF766FE4E
:104B80004FF6FF7101EA8020A04200D204464FF4A4
:104B9000427000EB451841F60870DFF88CA000EB7E
:104BA000451B06FA05F92846FEF78AFF06464046E9
:104BB000FDF74CFE172816D01C2803D00DE06FF02F
:104BC0000D00C9E7CEB92846FEF7A0FF07465846B4
:104BD000FDF73CFEB7EB802F05D12846FEF714FC0D
:104BE0006FF00600B8E7BAF8021019EA010F02D018
:104BF0001EB90020B0E7002ED5D0A64200D2344620
:104C000022462846019901F01AFB4FF4847000EB0C
:104C1000451005464021FDF77FFE2846FDF716FEAC
:104C20000028FAD1204697E7600100202DE9FF4FC8
:104C3000002583B01F4690460446082803D9681E05
:104C400007B0BDE8F08F60014FF0010A0830FDF7B2
:104C5000FDFD834600F00F00022806D0032804D093
:104C6000042802D06FF00400EAE7B8F1000F05D085
:104C7000DFF8C49139F8140018B11EE06FF00D0090
:104C8000DEE74FF4427000EB44160AFA04FA2046BD
:104C9000FEF716FF05463046FDF7D8FD30B16749EF
:104CA00049881AEA010F06D01DB106E06FF0030033
:104CB000C6E70020C4E7002DE9D00BF00701DFF8BC
:104CC0007CA14FF484704FF0800B0AF1060A00EBD0
:104CD0004416022922D003297CD0042952D0294627
:104CE000204601F0DCFA29F8145030464021FDF747
:104CF00013FE3046FDF7AAFD0028FAD139F814104A
:104D0000491B0904090C29F8141003D01AF80410DF
:104D100041F001010AF80410284691E739F814001F
:104D20004D4670BB08226946204601F088FA30469D
:104D30004021FDF7F1FD3046FDF788FD0028FAD14E
:104D40009DF8000038709DF8010078709DF8020011
:104D5000B8709DF80300F87010999DF80400088061
:104D60009DF8051001EB0020109908809DF80600C1
:104D70009DF807105BE02A462046049901F05FFA8F
:104D8000B3E72AE039F814004D4630BB02226946E9
:104D9000204601F054FA30464021FDF7BDFD304673
:104DA000FDF754FD0028FAD19DF800009DF8011090
:104DB0006FF0010202EB0020084480B240F2EA5199
:104DC00025F81400884206D92046FEF71DFB6FF433
:104DD0007A7035E702E00AF804B003E039F814000D
:104DE0004D4630B135F8145040464545C3D90546C7
:104DF000C1E706226946204601F021FA30464021EB
:104E0000FDF78AFD3046FDF721FD0028FAD19DF817
:104E1000000038709DF8010078709DF80200B870AD
:104E20009DF80300F8709DF804009DF8051001EB53
:104E3000002025F81400CEE7F04800206001002093
:104E400010B5084B064C5C62074C9C62074CDC6258
:104E500000B1586201B19962002A00D0DA6210BD37
:104E60004D39000870010020A13900087D39000883
:104E7000054A18B111B1C2E90201704703489060B8
:104E80000348D060704700003801002067630008C5
:104E90006F630008054A18B111B1C2E904017047F7
:104EA000034810610348506170470000380100203A
:104EB0008563000879630008074A10B513889C05CC
:104EC000FDD518B111B1C2E9060110BD03489061CA
:104ED0000348D06110BD0000380100208D65000836
:104EE0009565000803480021C1610A2202624170F1
:104EF00070470000700100202DE9F05F15468B46D9
:104F00000646082803D94FF0FF30BDE8F09F700136
:104F100001240830FDF79AFC00F00F00012801D0B1
:104F2000A01FF2E775B14FF4427000EB4610074640
:104F3000FDF78CFC6FF0060A172806D01C2804D059
:104F40005046E2E76FF00D00DFE7DFF8C480B440C1
:104F5000B8F80400044213D04FF4027000EB46107E
:104F60008146FDF773FC00F01F00C10624D54846BA
:104F70001021FDF7D1FCB8F80410A143A8F80410E3
:104F800041F6087000EB4610FDF760FC4FF6FF712C
:104F900001EA8020854200D905463046FEF7B6FD7D
:104FA00081463846FDF752FC17280DD01C280BD03F
:104FB0003046FEF729FAC3E700070BD53046FEF767
:104FC00023FA6FF00C00A0E7B8F80200044203D007
:104FD0004D4501D9002098E74D45DED82A4659466F
:104FE000304601F07DF94FF4847000EB4610064620
:104FF0002021FDF791FC3046FDF728FC0028FAD16E
:10500000B8F8041028460C43A8F804407DE70000D7
:10501000600100201CB5FFF75FF83D4800213D22EC
:10502000806B4FF49C738172C172352180F8F0104F
:10503000012180F8F110042180F8F210072180F896
:10504000F32080F8F410012180F8F51030493C314C
:105050000A7880F8F6204A7880F8F7208A7880F875
:10506000F820CA7880F8F9200A7980F8FA2049797E
:1050700080F8FB10322180F8FC10042180F8FD102C
:105080002349C91D097880F8FE102149C91D4978B6
:1050900080F8FF101E49C91D897880F800111C494D
:1050A000C91DC97880F80111362180F80211042148
:1050B00080F80311164930310A7880F804214A78C3
:1050C00080F805218A7880F80621C97880F80711D0
:1050D000FF2180F808111D2100224418491C84F882
:1050E000EC209942F9DBFF208DF804008DF80500D3
:1050F0008DF806008DF8070043200090044801ABAE
:105100004FF40972816B807800F004FA1CBD000036
:10511000700100202DE9FC47FEF7DEFF584C3521D9
:105120000126A06B04F13C052A4680F8F01080F8B7
:10513000F16080F8F2603D2180F8F310072180F8DB
:10514000F41080F8F560297880F8F61029460023DD
:10515000497880F8F710927880F8F8202A460C21D8
:10516000D27880F8F9202A464FF00609127980F8A3
:10517000FA202A464FF00F0A527980F8FB2080F877
:10518000FC10122280F8FD301946AF1D08E000BF68
:1051900000EB0208521C491C88F8ECC092B289B29C
:1051A00017F801C0BCF1000FF2D1A06BEF7800EB53
:1051B000020C521C8CF8EC7092B200EB020C2F79AE
:1051C0008CF8EC70521C92B287186D7987F8EC500D
:1051D000521C92B2CD1C511A0844372180F8E85075
:1051E000A06B8518521C85F8EC1091B24518491C2B
:1051F00085F8EC9089B24518491C85F8EC6089B2B5
:1052000046180325491C86F8EC5089B24518491CFC
:1052100085F8EC9089B24518491C85F8ECA089B254
:1052200045183A2285F8EC20491C89B245183B22E2
:1052300085F8EC20491C89B2FF224518491C85F8E5
:10524000EC2089B24FF49C7504E04618491C86F89E
:10525000EC3089B2A942F8D38DF804208DF80520EE
:105260008DF806208DF807204320009001AB4FF405
:105270000972A078A16B00F04DF9BDE8FC87000031
:10528000700100202DE9FC5FFEF726FFDFF880C2E9
:10529000FF270CF107029CF90000002502F1290408
:1052A000032841D004283FD08DF804708DF8057094
:1052B0008DF806708DF80770DCF83800352101266E
:1052C00080F8F01080F8F1604FF0030980F8F29058
:1052D0003D2180F8F3108E4B072180F8F4103C3309
:1052E00080F8F560197880F8F61019464FF00C0A2E
:1052F000497880F8F71019464FF00F0B897880F83D
:10530000F8101946C97880F8F9101946097980F81B
:10531000FA101946497980F8FB109DF80780102192
:10532000B8F1FF0F19D03FE0DCF838008572C57284
:10533000117801735178417391788173D178C17379
:1053400020788DF8040060788DF80500A0788DF83D
:105350000600E0788DF80700AEE7322180F8FC10F7
:10536000042180F8FD1092F8008080F8FE8092F809
:10537000018080F8FF8092F8028080F80081D27866
:1053800080F80121362280F8022180F8031121786B
:1053900080F80411617880F80511A17880F8061171
:1053A000E17880F807111C2152464418491C84F802
:1053B000EC204218E24682F8EC50DFF854C100229B
:1053C0000CF1420C491C06E000EB0108491C88F86E
:1053D000EC4089B2521C1CF80240002CF4D1D87861
:1053E0000009FCF751FADAF838C054468C44491CDD
:1053F0008CF8EC0089B2D878FCF746FAD4F838C0BB
:105400008C44491C8CF8EC00187989B20009FCF72F
:105410003BFAD4F838C08C44491C8CF8EC0089B2B3
:105420001879FCF731FAD4F838C08C44491C8CF850
:10543000EC00587989B20009FCF726FAD4F838C094
:105440008C44491C8CF8EC0089B25879FCF71CFAA2
:10545000A36B03EB010C491C8CF8EC0089B2901D86
:105460008A1A1A4482F8E500A06B37224318491CB7
:1054700083F8EC2089B243180822491C83F8EC20F9
:1054800089B24218491C89B2431882F8EC60491C61
:1054900083F8EC9089B24318062283F8EC20491C6B
:1054A00089B24318491C83F8ECB089B243183A22F8
:1054B00083F8EC20491C89B243183B2283F8EC2086
:1054C000491C89B243181F2283F8EC20491C89B279
:1054D00043182122491C83F8EC2089B24218491C48
:1054E00082F8EC7089B24FF49C7203E04318491CB7
:1054F00083F8EC509142F9DB4320009001AB4FF46C
:105500000972A078A16B00F005F8BDE8FC9F0000CF
:10551000700100202DE9F0471E46DDF82080154679
:105520008A460446082803D94FF0FF30BDE8F087CB
:10553000670108374FF001093846FDF787F900F099
:105540000F00022806D0032804D0042802D06FF0F0
:105550000400EBE75DB13078717801EB0020B178A1
:1055600001EB0020F17811EB002003D00AE06FF08E
:105570000D00DBE73846FDF769F9400702D46FF00C
:105580000B00D3E7B8F1000F07D13846FDF75EF9FD
:10559000400702D46FF00A00C8E74FF4427000EBF6
:1055A00044100746FDF752F9422806D0222804D0BD
:1055B000322802D06FF00600B8E740F6084000EB52
:1055C000441004223146FDF7D7F941F208004FEAB2
:1055D000182100EB4410FDF79FF941F2081008F084
:1055E000FF0100EB4410FDF797F941F6087000EB5E
:1055F0004410FDF72BF94FF6FF7101EA8020854238
:1056000000D90546DFF8888009FA04F62046FEF73F
:105610007DFA81463846FDF719F938B1B8F802002D
:10562000064206D04D4504D900207FE76FF0030005
:105630007CE74D45EAD82A465146204600F050FE08
:105640004FF4847000EB441006462021FDF764F906
:105650004FF4027000EB44143046FDF7F7F80028D1
:10566000FAD12046FDF7F2F800F01F00C10605D57B
:1056700020461021FDF750F9284657E70007F0D5DE
:1056800020460821FDF748F96FF00C004EE70000B6
:10569000600100202DE9F8431D4617460E460446DA
:1056A000082803D94FF0FF30BDE8F883012E08D059
:1056B000022E0ED0032E0CD0042E0AD06FF0040060
:1056C000F2E7042269464FF47060FDF7EBF80098AA
:1056D00048B169076FF00500E6D49DB1012E05D0F1
:1056E000022E0FD106E06FF00200DDE715F0210F6A
:1056F000DAD007E0A90601D52906D5D5E90601D5F6
:105700002906D1D52046FDF77FFE600105F0F001A6
:105710004FF0010831430830FDF7FEF8224E57B92B
:105720003788781C80B2A0F57F413080F03902D1F3
:105730004FF4404030804FF48160390A00EB441050
:10574000FDF7EAF84FF4A160F9B200EB4410FDF761
:10575000E3F84FF4847000EB441007460121FDF795
:10576000DBF83846FDF772F80028FAD108FA04F0A1
:10577000718805F001028143A2400A437280B1881A
:105780008143B1800949002021F814000649891D90
:1057900008554FF4427000EB44152846FDF756F8C3
:1057A0000028FAD060B27FE760010020F0480020B6
:1057B000044622A0FCF7E6FF4FF4E151C820FCF7B5
:1057C00095FC0020FCF706FD28490020FCF786FD2B
:1057D0000020FCF751FDC82000F0C8F94FF0FF355C
:1057E0000020FCF7F7FC2946012000F08BF86069E7
:1057F000B42804D901461EA000F052F8F0E7FBF7E8
:1058000042F800221F4BFAF7CAFF00221E4BFAF79C
:10581000ADFE00221D4BFAF7C2FFFBF755F801461B
:105820000020FCF75BFD0020FCF726FD18A0616955
:1058300000F036F8C82000F099F9D1E7596F7520CB
:1058400061726520696E207461736B202D2D2D208F
:105850005374656572696E6720456E67696E652071
:10586000436F6E74726F6C0D0A0000009A99993D37
:10587000496E76616C696420616E676C653A256477
:105880000D0A0000008056400000E03F0000344058
:10589000416E676C65207365743A25640D0A0000DB
:1058A0000FB44FF0FF3170B5134C606801F010FA7F
:1058B000124D40212846FCF752FE0028F9D005AAD7
:1058C00004992069FDF7A8F80D4E044600213046E2
:1058D000FBF7DAFC641CA1B23046FBF78CFD01211A
:1058E0003046FBF7D1FC012280212846FCF72FFE31
:1058F00070BC5DF814FB0000A400002000380140DB
:105900004400024070B50C46064600F075F8154D8F
:105910002868C06C80B92968012081F850005CB10A
:1059200001212046FEF710FD0F494FF0805008601E
:10593000BFF34F8FBFF36F8F00F07EF800F05CF87D
:105940002868C46C002034B116B12968C86402E02C
:105950002A68611ED164296881F8500000F06CF853
:10596000204670BD1C00002004ED00E0D0E90132AB
:1059700001699A60D0E901235A604A68824201D1E4
:1059800082684A60002202610868401E0860086858
:10599000704700F108014FF0FF32C0E90112C16009
:1059A000016100210160704700210161704730B53D
:1059B0000B685A1C02D000F1080202E0026904E000
:1059C0002246546825689D42FAD953684B60996015
:1059D0008A60516008610168491C016030BD4268FD
:1059E0004A6093688B6093685960916008610168B0
:1059F000491C016070470000BF2080F31188BFF38D
:105A00004F8FBFF36F8F0A494868401C48600128D8
:105A10000CD10848006810F0FF0F07D0BF2080F3BA
:105A20001188BFF34F8FBFF36F8FFEE77047000001
:105A30006C00002004ED00E00849486828B1401ED1
:105A4000486001D180F311887047BF2080F311882E
:105A5000BFF34F8FBFF36F8FFEE700006C00002095
:105A600070B5002827D0144DA0F108046168E868DB
:105A7000014207D1BF2080F31188BFF34F8FBFF3DE
:105A80006F8FFEE722683AB1BF2080F31188BFF321
:105A90004F8FBFF36F8FFEE78143616000F00AFA1A
:105AA00060686968084468602046FEF707FEBDE844
:105AB000704001F0EDBB70BD780000204FF0E02099
:105AC0000021016181610249416107210161704743
:105AD0003F19010010B5FAF78DFB114910280ED3BC
